{
	"Contracts/AaveLendingProcessor.sol": {
		"AaveLendingProcessor": {
			"abi": [
				{
					"inputs": [
						{
							"internalType": "address",
							"name": "_aavePool",
							"type": "address"
						},
						{
							"internalType": "address",
							"name": "_weth",
							"type": "address"
						}
					],
					"stateMutability": "nonpayable",
					"type": "constructor"
				},
				{
					"anonymous": false,
					"inputs": [
						{
							"indexed": false,
							"internalType": "uint256",
							"name": "amount",
							"type": "uint256"
						}
					],
					"name": "FundsLent",
					"type": "event"
				},
				{
					"anonymous": false,
					"inputs": [
						{
							"indexed": false,
							"internalType": "uint256",
							"name": "withdrawnAmount",
							"type": "uint256"
						}
					],
					"name": "FundsRetrieved",
					"type": "event"
				},
				{
					"anonymous": false,
					"inputs": [
						{
							"indexed": false,
							"internalType": "uint256",
							"name": "amount",
							"type": "uint256"
						}
					],
					"name": "InterestCollected",
					"type": "event"
				},
				{
					"stateMutability": "payable",
					"type": "fallback"
				},
				{
					"inputs": [],
					"name": "WETH",
					"outputs": [
						{
							"internalType": "address",
							"name": "",
							"type": "address"
						}
					],
					"stateMutability": "view",
					"type": "function"
				},
				{
					"inputs": [],
					"name": "aavePool",
					"outputs": [
						{
							"internalType": "contract IPool",
							"name": "",
							"type": "address"
						}
					],
					"stateMutability": "view",
					"type": "function"
				},
				{
					"inputs": [],
					"name": "collectInterest",
					"outputs": [
						{
							"internalType": "uint256",
							"name": "",
							"type": "uint256"
						}
					],
					"stateMutability": "view",
					"type": "function"
				},
				{
					"inputs": [],
					"name": "lendFunds",
					"outputs": [],
					"stateMutability": "payable",
					"type": "function"
				},
				{
					"inputs": [],
					"name": "owner",
					"outputs": [
						{
							"internalType": "address",
							"name": "",
							"type": "address"
						}
					],
					"stateMutability": "view",
					"type": "function"
				},
				{
					"inputs": [
						{
							"internalType": "uint256",
							"name": "amount",
							"type": "uint256"
						},
						{
							"internalType": "address",
							"name": "paymentProcessor",
							"type": "address"
						}
					],
					"name": "retrieveLentFunds",
					"outputs": [],
					"stateMutability": "nonpayable",
					"type": "function"
				},
				{
					"inputs": [],
					"name": "totalDeposited",
					"outputs": [
						{
							"internalType": "uint256",
							"name": "",
							"type": "uint256"
						}
					],
					"stateMutability": "view",
					"type": "function"
				},
				{
					"stateMutability": "payable",
					"type": "receive"
				}
			],
			"devdoc": {
				"kind": "dev",
				"methods": {},
				"version": 1
			},
			"evm": {
				"assembly": "    /* \"Contracts/AaveLendingProcessor.sol\":1123:3302  contract AaveLendingProcessor {... */\n  mstore(0x40, 0xc0)\n    /* \"Contracts/AaveLendingProcessor.sol\":1539:1802  constructor(address _aavePool, address _weth) {... */\n  callvalue\n  dup1\n  iszero\n  tag_1\n  jumpi\n  revert(0x00, 0x00)\ntag_1:\n  pop\n  mload(0x40)\n  sub(codesize, bytecodeSize)\n  dup1\n  bytecodeSize\n  dup4\n  codecopy\n  dup2\n  dup2\n  add\n  0x40\n  mstore\n  dup2\n  add\n  swap1\n  tag_2\n  swap2\n  swap1\n  tag_3\n  jump\t// in\ntag_2:\n    /* \"Contracts/AaveLendingProcessor.sol\":1603:1613  msg.sender */\n  caller\n    /* \"Contracts/AaveLendingProcessor.sol\":1595:1600  owner */\n  0x00\n  0x00\n    /* \"Contracts/AaveLendingProcessor.sol\":1595:1613  owner = msg.sender */\n  0x0100\n  exp\n  dup2\n  sload\n  dup2\n  0xffffffffffffffffffffffffffffffffffffffff\n  mul\n  not\n  and\n  swap1\n  dup4\n  0xffffffffffffffffffffffffffffffffffffffff\n  and\n  mul\n  or\n  swap1\n  sstore\n  pop\n    /* \"Contracts/AaveLendingProcessor.sol\":1640:1649  _aavePool */\n  dup2\n    /* \"Contracts/AaveLendingProcessor.sol\":1623:1650  aavePool = IPool(_aavePool) */\n  0xffffffffffffffffffffffffffffffffffffffff\n  and\n  0x80\n  dup2\n  0xffffffffffffffffffffffffffffffffffffffff\n  and\n  dup2\n  mstore\n  pop\n  pop\n    /* \"Contracts/AaveLendingProcessor.sol\":1667:1672  _weth */\n  dup1\n    /* \"Contracts/AaveLendingProcessor.sol\":1660:1672  WETH = _weth */\n  0xffffffffffffffffffffffffffffffffffffffff\n  and\n  0xa0\n  dup2\n  0xffffffffffffffffffffffffffffffffffffffff\n  and\n  dup2\n  mstore\n  pop\n  pop\n    /* \"Contracts/AaveLendingProcessor.sol\":1744:1748  WETH */\n  mload(0xa0)\n    /* \"Contracts/AaveLendingProcessor.sol\":1738:1757  IWETH(WETH).approve */\n  0xffffffffffffffffffffffffffffffffffffffff\n  and\n  0x095ea7b3\n    /* \"Contracts/AaveLendingProcessor.sol\":1766:1774  aavePool */\n  mload(0x80)\n    /* \"Contracts/AaveLendingProcessor.sol\":1777:1794  type(uint256).max */\n  0xffffffffffffffffffffffffffffffffffffffffffffffffffffffffffffffff\n    /* \"Contracts/AaveLendingProcessor.sol\":1738:1795  IWETH(WETH).approve(address(aavePool), type(uint256).max) */\n  mload(0x40)\n  dup4\n  0xffffffff\n  and\n  0xe0\n  shl\n  dup2\n  mstore\n  0x04\n  add\n  tag_6\n  swap3\n  swap2\n  swap1\n  tag_7\n  jump\t// in\ntag_6:\n  0x20\n  mload(0x40)\n  dup1\n  dup4\n  sub\n  dup2\n  0x00\n  dup8\n  gas\n  call\n  iszero\n  dup1\n  iszero\n  tag_9\n  jumpi\n  returndatacopy(0x00, 0x00, returndatasize)\n  revert(0x00, returndatasize)\ntag_9:\n  pop\n  pop\n  pop\n  pop\n  mload(0x40)\n  returndatasize\n  not(0x1f)\n  0x1f\n  dup3\n  add\n  and\n  dup3\n  add\n  dup1\n  0x40\n  mstore\n  pop\n  dup2\n  add\n  swap1\n  tag_10\n  swap2\n  swap1\n  tag_11\n  jump\t// in\ntag_10:\n  pop\n    /* \"Contracts/AaveLendingProcessor.sol\":1539:1802  constructor(address _aavePool, address _weth) {... */\n  pop\n  pop\n    /* \"Contracts/AaveLendingProcessor.sol\":1123:3302  contract AaveLendingProcessor {... */\n  jump(tag_12)\n    /* \"#utility.yul\":88:205   */\ntag_14:\n    /* \"#utility.yul\":197:198   */\n  0x00\n    /* \"#utility.yul\":194:195   */\n  0x00\n    /* \"#utility.yul\":187:199   */\n  revert\n    /* \"#utility.yul\":334:460   */\ntag_16:\n    /* \"#utility.yul\":371:378   */\n  0x00\n    /* \"#utility.yul\":411:453   */\n  0xffffffffffffffffffffffffffffffffffffffff\n    /* \"#utility.yul\":404:409   */\n  dup3\n    /* \"#utility.yul\":400:454   */\n  and\n    /* \"#utility.yul\":389:454   */\n  swap1\n  pop\n    /* \"#utility.yul\":334:460   */\n  swap2\n  swap1\n  pop\n  jump\t// out\n    /* \"#utility.yul\":466:562   */\ntag_17:\n    /* \"#utility.yul\":503:510   */\n  0x00\n    /* \"#utility.yul\":532:556   */\n  tag_32\n    /* \"#utility.yul\":550:555   */\n  dup3\n    /* \"#utility.yul\":532:556   */\n  tag_16\n  jump\t// in\ntag_32:\n    /* \"#utility.yul\":521:556   */\n  swap1\n  pop\n    /* \"#utility.yul\":466:562   */\n  swap2\n  swap1\n  pop\n  jump\t// out\n    /* \"#utility.yul\":568:690   */\ntag_18:\n    /* \"#utility.yul\":641:665   */\n  tag_34\n    /* \"#utility.yul\":659:664   */\n  dup2\n    /* \"#utility.yul\":641:665   */\n  tag_17\n  jump\t// in\ntag_34:\n    /* \"#utility.yul\":634:639   */\n  dup2\n    /* \"#utility.yul\":631:666   */\n  eq\n    /* \"#utility.yul\":621:684   */\n  tag_35\n  jumpi\n    /* \"#utility.yul\":680:681   */\n  0x00\n    /* \"#utility.yul\":677:678   */\n  0x00\n    /* \"#utility.yul\":670:682   */\n  revert\n    /* \"#utility.yul\":621:684   */\ntag_35:\n    /* \"#utility.yul\":568:690   */\n  pop\n  jump\t// out\n    /* \"#utility.yul\":696:839   */\ntag_19:\n    /* \"#utility.yul\":753:758   */\n  0x00\n    /* \"#utility.yul\":784:790   */\n  dup2\n    /* \"#utility.yul\":778:791   */\n  mload\n    /* \"#utility.yul\":769:791   */\n  swap1\n  pop\n    /* \"#utility.yul\":800:833   */\n  tag_37\n    /* \"#utility.yul\":827:832   */\n  dup2\n    /* \"#utility.yul\":800:833   */\n  tag_18\n  jump\t// in\ntag_37:\n    /* \"#utility.yul\":696:839   */\n  swap3\n  swap2\n  pop\n  pop\n  jump\t// out\n    /* \"#utility.yul\":845:1352   */\ntag_3:\n    /* \"#utility.yul\":924:930   */\n  0x00\n    /* \"#utility.yul\":932:938   */\n  0x00\n    /* \"#utility.yul\":981:983   */\n  0x40\n    /* \"#utility.yul\":969:978   */\n  dup4\n    /* \"#utility.yul\":960:967   */\n  dup6\n    /* \"#utility.yul\":956:979   */\n  sub\n    /* \"#utility.yul\":952:984   */\n  slt\n    /* \"#utility.yul\":949:1068   */\n  iszero\n  tag_39\n  jumpi\n    /* \"#utility.yul\":987:1066   */\n  tag_40\n  tag_14\n  jump\t// in\ntag_40:\n    /* \"#utility.yul\":949:1068   */\ntag_39:\n    /* \"#utility.yul\":1107:1108   */\n  0x00\n    /* \"#utility.yul\":1132:1196   */\n  tag_41\n    /* \"#utility.yul\":1188:1195   */\n  dup6\n    /* \"#utility.yul\":1179:1185   */\n  dup3\n    /* \"#utility.yul\":1168:1177   */\n  dup7\n    /* \"#utility.yul\":1164:1186   */\n  add\n    /* \"#utility.yul\":1132:1196   */\n  tag_19\n  jump\t// in\ntag_41:\n    /* \"#utility.yul\":1122:1196   */\n  swap3\n  pop\n    /* \"#utility.yul\":1078:1206   */\n  pop\n    /* \"#utility.yul\":1245:1247   */\n  0x20\n    /* \"#utility.yul\":1271:1335   */\n  tag_42\n    /* \"#utility.yul\":1327:1334   */\n  dup6\n    /* \"#utility.yul\":1318:1324   */\n  dup3\n    /* \"#utility.yul\":1307:1316   */\n  dup7\n    /* \"#utility.yul\":1303:1325   */\n  add\n    /* \"#utility.yul\":1271:1335   */\n  tag_19\n  jump\t// in\ntag_42:\n    /* \"#utility.yul\":1261:1335   */\n  swap2\n  pop\n    /* \"#utility.yul\":1216:1345   */\n  pop\n    /* \"#utility.yul\":845:1352   */\n  swap3\n  pop\n  swap3\n  swap1\n  pop\n  jump\t// out\n    /* \"#utility.yul\":1358:1476   */\ntag_20:\n    /* \"#utility.yul\":1445:1469   */\n  tag_44\n    /* \"#utility.yul\":1463:1468   */\n  dup2\n    /* \"#utility.yul\":1445:1469   */\n  tag_17\n  jump\t// in\ntag_44:\n    /* \"#utility.yul\":1440:1443   */\n  dup3\n    /* \"#utility.yul\":1433:1470   */\n  mstore\n    /* \"#utility.yul\":1358:1476   */\n  pop\n  pop\n  jump\t// out\n    /* \"#utility.yul\":1482:1559   */\ntag_21:\n    /* \"#utility.yul\":1519:1526   */\n  0x00\n    /* \"#utility.yul\":1548:1553   */\n  dup2\n    /* \"#utility.yul\":1537:1553   */\n  swap1\n  pop\n    /* \"#utility.yul\":1482:1559   */\n  swap2\n  swap1\n  pop\n  jump\t// out\n    /* \"#utility.yul\":1565:1683   */\ntag_22:\n    /* \"#utility.yul\":1652:1676   */\n  tag_47\n    /* \"#utility.yul\":1670:1675   */\n  dup2\n    /* \"#utility.yul\":1652:1676   */\n  tag_21\n  jump\t// in\ntag_47:\n    /* \"#utility.yul\":1647:1650   */\n  dup3\n    /* \"#utility.yul\":1640:1677   */\n  mstore\n    /* \"#utility.yul\":1565:1683   */\n  pop\n  pop\n  jump\t// out\n    /* \"#utility.yul\":1689:2021   */\ntag_7:\n    /* \"#utility.yul\":1810:1814   */\n  0x00\n    /* \"#utility.yul\":1848:1850   */\n  0x40\n    /* \"#utility.yul\":1837:1846   */\n  dup3\n    /* \"#utility.yul\":1833:1851   */\n  add\n    /* \"#utility.yul\":1825:1851   */\n  swap1\n  pop\n    /* \"#utility.yul\":1861:1932   */\n  tag_49\n    /* \"#utility.yul\":1929:1930   */\n  0x00\n    /* \"#utility.yul\":1918:1927   */\n  dup4\n    /* \"#utility.yul\":1914:1931   */\n  add\n    /* \"#utility.yul\":1905:1911   */\n  dup6\n    /* \"#utility.yul\":1861:1932   */\n  tag_20\n  jump\t// in\ntag_49:\n    /* \"#utility.yul\":1942:2014   */\n  tag_50\n    /* \"#utility.yul\":2010:2012   */\n  0x20\n    /* \"#utility.yul\":1999:2008   */\n  dup4\n    /* \"#utility.yul\":1995:2013   */\n  add\n    /* \"#utility.yul\":1986:1992   */\n  dup5\n    /* \"#utility.yul\":1942:2014   */\n  tag_22\n  jump\t// in\ntag_50:\n    /* \"#utility.yul\":1689:2021   */\n  swap4\n  swap3\n  pop\n  pop\n  pop\n  jump\t// out\n    /* \"#utility.yul\":2027:2117   */\ntag_23:\n    /* \"#utility.yul\":2061:2068   */\n  0x00\n    /* \"#utility.yul\":2104:2109   */\n  dup2\n    /* \"#utility.yul\":2097:2110   */\n  iszero\n    /* \"#utility.yul\":2090:2111   */\n  iszero\n    /* \"#utility.yul\":2079:2111   */\n  swap1\n  pop\n    /* \"#utility.yul\":2027:2117   */\n  swap2\n  swap1\n  pop\n  jump\t// out\n    /* \"#utility.yul\":2123:2239   */\ntag_24:\n    /* \"#utility.yul\":2193:2214   */\n  tag_53\n    /* \"#utility.yul\":2208:2213   */\n  dup2\n    /* \"#utility.yul\":2193:2214   */\n  tag_23\n  jump\t// in\ntag_53:\n    /* \"#utility.yul\":2186:2191   */\n  dup2\n    /* \"#utility.yul\":2183:2215   */\n  eq\n    /* \"#utility.yul\":2173:2233   */\n  tag_54\n  jumpi\n    /* \"#utility.yul\":2229:2230   */\n  0x00\n    /* \"#utility.yul\":2226:2227   */\n  0x00\n    /* \"#utility.yul\":2219:2231   */\n  revert\n    /* \"#utility.yul\":2173:2233   */\ntag_54:\n    /* \"#utility.yul\":2123:2239   */\n  pop\n  jump\t// out\n    /* \"#utility.yul\":2245:2382   */\ntag_25:\n    /* \"#utility.yul\":2299:2304   */\n  0x00\n    /* \"#utility.yul\":2330:2336   */\n  dup2\n    /* \"#utility.yul\":2324:2337   */\n  mload\n    /* \"#utility.yul\":2315:2337   */\n  swap1\n  pop\n    /* \"#utility.yul\":2346:2376   */\n  tag_56\n    /* \"#utility.yul\":2370:2375   */\n  dup2\n    /* \"#utility.yul\":2346:2376   */\n  tag_24\n  jump\t// in\ntag_56:\n    /* \"#utility.yul\":2245:2382   */\n  swap3\n  swap2\n  pop\n  pop\n  jump\t// out\n    /* \"#utility.yul\":2388:2733   */\ntag_11:\n    /* \"#utility.yul\":2455:2461   */\n  0x00\n    /* \"#utility.yul\":2504:2506   */\n  0x20\n    /* \"#utility.yul\":2492:2501   */\n  dup3\n    /* \"#utility.yul\":2483:2490   */\n  dup5\n    /* \"#utility.yul\":2479:2502   */\n  sub\n    /* \"#utility.yul\":2475:2507   */\n  slt\n    /* \"#utility.yul\":2472:2591   */\n  iszero\n  tag_58\n  jumpi\n    /* \"#utility.yul\":2510:2589   */\n  tag_59\n  tag_14\n  jump\t// in\ntag_59:\n    /* \"#utility.yul\":2472:2591   */\ntag_58:\n    /* \"#utility.yul\":2630:2631   */\n  0x00\n    /* \"#utility.yul\":2655:2716   */\n  tag_60\n    /* \"#utility.yul\":2708:2715   */\n  dup5\n    /* \"#utility.yul\":2699:2705   */\n  dup3\n    /* \"#utility.yul\":2688:2697   */\n  dup6\n    /* \"#utility.yul\":2684:2706   */\n  add\n    /* \"#utility.yul\":2655:2716   */\n  tag_25\n  jump\t// in\ntag_60:\n    /* \"#utility.yul\":2645:2716   */\n  swap2\n  pop\n    /* \"#utility.yul\":2601:2726   */\n  pop\n    /* \"#utility.yul\":2388:2733   */\n  swap3\n  swap2\n  pop\n  pop\n  jump\t// out\n    /* \"Contracts/AaveLendingProcessor.sol\":1123:3302  contract AaveLendingProcessor {... */\ntag_12:\n  mload(0x80)\n  mload(0xa0)\n  codecopy(0x00, dataOffset(sub_0), dataSize(sub_0))\n  0x00\n  assignImmutable(\"0xeafa31dc210956fc0884ec5660eba9405197797219cbbda41b6aaf7118c651d8\")\n  0x00\n  assignImmutable(\"0x606503ebd6bdca7290248af82fd5a09ca0489398da9f242244210336ae6ece9f\")\n  return(0x00, dataSize(sub_0))\nstop\n\nsub_0: assembly {\n        /* \"Contracts/AaveLendingProcessor.sol\":1123:3302  contract AaveLendingProcessor {... */\n      mstore(0x40, 0x80)\n      jumpi(tag_1, lt(calldatasize, 0x04))\n      shr(0xe0, calldataload(0x00))\n      dup1\n      0xa03e4bc3\n      gt\n      tag_10\n      jumpi\n      dup1\n      0xa03e4bc3\n      eq\n      tag_6\n      jumpi\n      dup1\n      0xad5c4648\n      eq\n      tag_7\n      jumpi\n      dup1\n      0xda75793a\n      eq\n      tag_8\n      jumpi\n      dup1\n      0xff50abdc\n      eq\n      tag_9\n      jumpi\n      jump(tag_2)\n    tag_10:\n      dup1\n      0x1a878577\n      eq\n      tag_3\n      jumpi\n      dup1\n      0x2a2fab22\n      eq\n      tag_4\n      jumpi\n      dup1\n      0x8da5cb5b\n      eq\n      tag_5\n      jumpi\n      jump(tag_2)\n    tag_1:\n    tag_2:\n      stop\n        /* \"Contracts/AaveLendingProcessor.sol\":1837:2228  function lendFunds() external payable {... */\n    tag_3:\n      tag_15\n      tag_16\n      jump\t// in\n    tag_15:\n      stop\n        /* \"Contracts/AaveLendingProcessor.sol\":2717:3112  function collectInterest() external view returns (uint256) {... */\n    tag_4:\n      callvalue\n      dup1\n      iszero\n      tag_17\n      jumpi\n      revert(0x00, 0x00)\n    tag_17:\n      pop\n      tag_18\n      tag_19\n      jump\t// in\n    tag_18:\n      mload(0x40)\n      tag_20\n      swap2\n      swap1\n      tag_21\n      jump\t// in\n    tag_20:\n      mload(0x40)\n      dup1\n      swap2\n      sub\n      swap1\n      return\n        /* \"Contracts/AaveLendingProcessor.sol\":1159:1179  address public owner */\n    tag_5:\n      callvalue\n      dup1\n      iszero\n      tag_22\n      jumpi\n      revert(0x00, 0x00)\n    tag_22:\n      pop\n      tag_23\n      tag_24\n      jump\t// in\n    tag_23:\n      mload(0x40)\n      tag_25\n      swap2\n      swap1\n      tag_26\n      jump\t// in\n    tag_25:\n      mload(0x40)\n      dup1\n      swap2\n      sub\n      swap1\n      return\n        /* \"Contracts/AaveLendingProcessor.sol\":1185:1216  IPool public immutable aavePool */\n    tag_6:\n      callvalue\n      dup1\n      iszero\n      tag_27\n      jumpi\n      revert(0x00, 0x00)\n    tag_27:\n      pop\n      tag_28\n      tag_29\n      jump\t// in\n    tag_28:\n      mload(0x40)\n      tag_30\n      swap2\n      swap1\n      tag_31\n      jump\t// in\n    tag_30:\n      mload(0x40)\n      dup1\n      swap2\n      sub\n      swap1\n      return\n        /* \"Contracts/AaveLendingProcessor.sol\":1222:1251  address public immutable WETH */\n    tag_7:\n      callvalue\n      dup1\n      iszero\n      tag_32\n      jumpi\n      revert(0x00, 0x00)\n    tag_32:\n      pop\n      tag_33\n      tag_34\n      jump\t// in\n    tag_33:\n      mload(0x40)\n      tag_35\n      swap2\n      swap1\n      tag_26\n      jump\t// in\n    tag_35:\n      mload(0x40)\n      dup1\n      swap2\n      sub\n      swap1\n      return\n        /* \"Contracts/AaveLendingProcessor.sol\":2264:2643  function retrieveLentFunds(uint256 amount, address paymentProcessor) external onlyOwner {... */\n    tag_8:\n      callvalue\n      dup1\n      iszero\n      tag_36\n      jumpi\n      revert(0x00, 0x00)\n    tag_36:\n      pop\n      tag_37\n      0x04\n      dup1\n      calldatasize\n      sub\n      dup2\n      add\n      swap1\n      tag_38\n      swap2\n      swap1\n      tag_39\n      jump\t// in\n    tag_38:\n      tag_40\n      jump\t// in\n    tag_37:\n      stop\n        /* \"Contracts/AaveLendingProcessor.sol\":1258:1287  uint256 public totalDeposited */\n    tag_9:\n      callvalue\n      dup1\n      iszero\n      tag_41\n      jumpi\n      revert(0x00, 0x00)\n    tag_41:\n      pop\n      tag_42\n      tag_43\n      jump\t// in\n    tag_42:\n      mload(0x40)\n      tag_44\n      swap2\n      swap1\n      tag_21\n      jump\t// in\n    tag_44:\n      mload(0x40)\n      dup1\n      swap2\n      sub\n      swap1\n      return\n        /* \"Contracts/AaveLendingProcessor.sol\":1837:2228  function lendFunds() external payable {... */\n    tag_16:\n        /* \"Contracts/AaveLendingProcessor.sol\":1905:1906  0 */\n      0x00\n        /* \"Contracts/AaveLendingProcessor.sol\":1893:1902  msg.value */\n      callvalue\n        /* \"Contracts/AaveLendingProcessor.sol\":1893:1906  msg.value > 0 */\n      gt\n        /* \"Contracts/AaveLendingProcessor.sol\":1885:1930  require(msg.value > 0, \"No ETH sent to lend\") */\n      tag_46\n      jumpi\n      mload(0x40)\n      0x08c379a000000000000000000000000000000000000000000000000000000000\n      dup2\n      mstore\n      0x04\n      add\n      tag_47\n      swap1\n      tag_48\n      jump\t// in\n    tag_47:\n      mload(0x40)\n      dup1\n      swap2\n      sub\n      swap1\n      revert\n    tag_46:\n        /* \"Contracts/AaveLendingProcessor.sol\":1978:1982  WETH */\n      immutable(\"0xeafa31dc210956fc0884ec5660eba9405197797219cbbda41b6aaf7118c651d8\")\n        /* \"Contracts/AaveLendingProcessor.sol\":1972:1991  IWETH(WETH).deposit */\n      0xffffffffffffffffffffffffffffffffffffffff\n      and\n      0xd0e30db0\n        /* \"Contracts/AaveLendingProcessor.sol\":1999:2008  msg.value */\n      callvalue\n        /* \"Contracts/AaveLendingProcessor.sol\":1972:2011  IWETH(WETH).deposit{value: msg.value}() */\n      mload(0x40)\n      dup3\n      0xffffffff\n      and\n      0xe0\n      shl\n      dup2\n      mstore\n      0x04\n      add\n      0x00\n      mload(0x40)\n      dup1\n      dup4\n      sub\n      dup2\n      dup6\n      dup9\n      dup1\n      extcodesize\n      iszero\n      dup1\n      iszero\n      tag_49\n      jumpi\n      revert(0x00, 0x00)\n    tag_49:\n      pop\n      gas\n      call\n      iszero\n      dup1\n      iszero\n      tag_51\n      jumpi\n      returndatacopy(0x00, 0x00, returndatasize)\n      revert(0x00, returndatasize)\n    tag_51:\n      pop\n      pop\n      pop\n      pop\n      pop\n        /* \"Contracts/AaveLendingProcessor.sol\":2053:2061  aavePool */\n      immutable(\"0x606503ebd6bdca7290248af82fd5a09ca0489398da9f242244210336ae6ece9f\")\n        /* \"Contracts/AaveLendingProcessor.sol\":2053:2068  aavePool.supply */\n      0xffffffffffffffffffffffffffffffffffffffff\n      and\n      0x617ba037\n        /* \"Contracts/AaveLendingProcessor.sol\":2069:2073  WETH */\n      immutable(\"0xeafa31dc210956fc0884ec5660eba9405197797219cbbda41b6aaf7118c651d8\")\n        /* \"Contracts/AaveLendingProcessor.sol\":2075:2084  msg.value */\n      callvalue\n        /* \"Contracts/AaveLendingProcessor.sol\":2094:2098  this */\n      address\n        /* \"Contracts/AaveLendingProcessor.sol\":2101:2102  0 */\n      0x00\n        /* \"Contracts/AaveLendingProcessor.sol\":2053:2103  aavePool.supply(WETH, msg.value, address(this), 0) */\n      mload(0x40)\n      dup6\n      0xffffffff\n      and\n      0xe0\n      shl\n      dup2\n      mstore\n      0x04\n      add\n      tag_52\n      swap5\n      swap4\n      swap3\n      swap2\n      swap1\n      tag_53\n      jump\t// in\n    tag_52:\n      0x00\n      mload(0x40)\n      dup1\n      dup4\n      sub\n      dup2\n      0x00\n      dup8\n      dup1\n      extcodesize\n      iszero\n      dup1\n      iszero\n      tag_54\n      jumpi\n      revert(0x00, 0x00)\n    tag_54:\n      pop\n      gas\n      call\n      iszero\n      dup1\n      iszero\n      tag_56\n      jumpi\n      returndatacopy(0x00, 0x00, returndatasize)\n      revert(0x00, returndatasize)\n    tag_56:\n      pop\n      pop\n      pop\n      pop\n        /* \"Contracts/AaveLendingProcessor.sol\":2176:2185  msg.value */\n      callvalue\n        /* \"Contracts/AaveLendingProcessor.sol\":2158:2172  totalDeposited */\n      0x01\n      0x00\n        /* \"Contracts/AaveLendingProcessor.sol\":2158:2185  totalDeposited += msg.value */\n      dup3\n      dup3\n      sload\n      tag_57\n      swap2\n      swap1\n      tag_58\n      jump\t// in\n    tag_57:\n      swap3\n      pop\n      pop\n      dup2\n      swap1\n      sstore\n      pop\n        /* \"Contracts/AaveLendingProcessor.sol\":2201:2221  FundsLent(msg.value) */\n      0x616de1658a38caa17438d36159ebde14ec1d5fcd6bb651bcd8f4560ad0cc89b5\n        /* \"Contracts/AaveLendingProcessor.sol\":2211:2220  msg.value */\n      callvalue\n        /* \"Contracts/AaveLendingProcessor.sol\":2201:2221  FundsLent(msg.value) */\n      mload(0x40)\n      tag_59\n      swap2\n      swap1\n      tag_21\n      jump\t// in\n    tag_59:\n      mload(0x40)\n      dup1\n      swap2\n      sub\n      swap1\n      log1\n        /* \"Contracts/AaveLendingProcessor.sol\":1837:2228  function lendFunds() external payable {... */\n      jump\t// out\n        /* \"Contracts/AaveLendingProcessor.sol\":2717:3112  function collectInterest() external view returns (uint256) {... */\n    tag_19:\n        /* \"Contracts/AaveLendingProcessor.sol\":2767:2774  uint256 */\n      0x00\n        /* \"Contracts/AaveLendingProcessor.sol\":2786:2810  uint256 normalizedIncome */\n      0x00\n        /* \"Contracts/AaveLendingProcessor.sol\":2813:2821  aavePool */\n      immutable(\"0x606503ebd6bdca7290248af82fd5a09ca0489398da9f242244210336ae6ece9f\")\n        /* \"Contracts/AaveLendingProcessor.sol\":2813:2848  aavePool.getReserveNormalizedIncome */\n      0xffffffffffffffffffffffffffffffffffffffff\n      and\n      0xd15e0053\n        /* \"Contracts/AaveLendingProcessor.sol\":2849:2853  WETH */\n      immutable(\"0xeafa31dc210956fc0884ec5660eba9405197797219cbbda41b6aaf7118c651d8\")\n        /* \"Contracts/AaveLendingProcessor.sol\":2813:2854  aavePool.getReserveNormalizedIncome(WETH) */\n      mload(0x40)\n      dup3\n      0xffffffff\n      and\n      0xe0\n      shl\n      dup2\n      mstore\n      0x04\n      add\n      tag_61\n      swap2\n      swap1\n      tag_26\n      jump\t// in\n    tag_61:\n      0x20\n      mload(0x40)\n      dup1\n      dup4\n      sub\n      dup2\n      dup7\n      gas\n      staticcall\n      iszero\n      dup1\n      iszero\n      tag_63\n      jumpi\n      returndatacopy(0x00, 0x00, returndatasize)\n      revert(0x00, returndatasize)\n    tag_63:\n      pop\n      pop\n      pop\n      pop\n      mload(0x40)\n      returndatasize\n      not(0x1f)\n      0x1f\n      dup3\n      add\n      and\n      dup3\n      add\n      dup1\n      0x40\n      mstore\n      pop\n      dup2\n      add\n      swap1\n      tag_64\n      swap2\n      swap1\n      tag_65\n      jump\t// in\n    tag_64:\n        /* \"Contracts/AaveLendingProcessor.sol\":2786:2854  uint256 normalizedIncome = aavePool.getReserveNormalizedIncome(WETH) */\n      swap1\n      pop\n        /* \"Contracts/AaveLendingProcessor.sol\":2970:2971  0 */\n      0x00\n        /* \"Contracts/AaveLendingProcessor.sol\":2953:2967  totalDeposited */\n      sload(0x01)\n        /* \"Contracts/AaveLendingProcessor.sol\":2953:2971  totalDeposited > 0 */\n      gt\n        /* \"Contracts/AaveLendingProcessor.sol\":2945:2998  require(totalDeposited > 0, \"No funds deposited yet\") */\n      tag_66\n      jumpi\n      mload(0x40)\n      0x08c379a000000000000000000000000000000000000000000000000000000000\n      dup2\n      mstore\n      0x04\n      add\n      tag_67\n      swap1\n      tag_68\n      jump\t// in\n    tag_67:\n      mload(0x40)\n      dup1\n      swap2\n      sub\n      swap1\n      revert\n    tag_66:\n        /* \"Contracts/AaveLendingProcessor.sol\":3009:3034  uint256 availableInterest */\n      0x00\n        /* \"Contracts/AaveLendingProcessor.sol\":3056:3070  totalDeposited */\n      sload(0x01)\n        /* \"Contracts/AaveLendingProcessor.sol\":3037:3053  normalizedIncome */\n      dup3\n        /* \"Contracts/AaveLendingProcessor.sol\":3037:3070  normalizedIncome - totalDeposited */\n      tag_69\n      swap2\n      swap1\n      tag_70\n      jump\t// in\n    tag_69:\n        /* \"Contracts/AaveLendingProcessor.sol\":3009:3070  uint256 availableInterest = normalizedIncome - totalDeposited */\n      swap1\n      pop\n        /* \"Contracts/AaveLendingProcessor.sol\":3087:3104  availableInterest */\n      dup1\n        /* \"Contracts/AaveLendingProcessor.sol\":3080:3104  return availableInterest */\n      swap3\n      pop\n      pop\n      pop\n        /* \"Contracts/AaveLendingProcessor.sol\":2717:3112  function collectInterest() external view returns (uint256) {... */\n      swap1\n      jump\t// out\n        /* \"Contracts/AaveLendingProcessor.sol\":1159:1179  address public owner */\n    tag_24:\n      0x00\n      0x00\n      swap1\n      sload\n      swap1\n      0x0100\n      exp\n      swap1\n      div\n      0xffffffffffffffffffffffffffffffffffffffff\n      and\n      dup2\n      jump\t// out\n        /* \"Contracts/AaveLendingProcessor.sol\":1185:1216  IPool public immutable aavePool */\n    tag_29:\n      immutable(\"0x606503ebd6bdca7290248af82fd5a09ca0489398da9f242244210336ae6ece9f\")\n      dup2\n      jump\t// out\n        /* \"Contracts/AaveLendingProcessor.sol\":1222:1251  address public immutable WETH */\n    tag_34:\n      immutable(\"0xeafa31dc210956fc0884ec5660eba9405197797219cbbda41b6aaf7118c651d8\")\n      dup2\n      jump\t// out\n        /* \"Contracts/AaveLendingProcessor.sol\":2264:2643  function retrieveLentFunds(uint256 amount, address paymentProcessor) external onlyOwner {... */\n    tag_40:\n        /* \"Contracts/AaveLendingProcessor.sol\":1481:1486  owner */\n      0x00\n      0x00\n      swap1\n      sload\n      swap1\n      0x0100\n      exp\n      swap1\n      div\n      0xffffffffffffffffffffffffffffffffffffffff\n      and\n        /* \"Contracts/AaveLendingProcessor.sol\":1467:1486  msg.sender == owner */\n      0xffffffffffffffffffffffffffffffffffffffff\n      and\n        /* \"Contracts/AaveLendingProcessor.sol\":1467:1477  msg.sender */\n      caller\n        /* \"Contracts/AaveLendingProcessor.sol\":1467:1486  msg.sender == owner */\n      0xffffffffffffffffffffffffffffffffffffffff\n      and\n      eq\n        /* \"Contracts/AaveLendingProcessor.sol\":1459:1515  require(msg.sender == owner, \"Only owner can call this\") */\n      tag_72\n      jumpi\n      mload(0x40)\n      0x08c379a000000000000000000000000000000000000000000000000000000000\n      dup2\n      mstore\n      0x04\n      add\n      tag_73\n      swap1\n      tag_74\n      jump\t// in\n    tag_73:\n      mload(0x40)\n      dup1\n      swap2\n      sub\n      swap1\n      revert\n    tag_72:\n        /* \"Contracts/AaveLendingProcessor.sol\":2398:2399  0 */\n      0x00\n        /* \"Contracts/AaveLendingProcessor.sol\":2370:2400  paymentProcessor != address(0) */\n      0xffffffffffffffffffffffffffffffffffffffff\n      and\n        /* \"Contracts/AaveLendingProcessor.sol\":2370:2386  paymentProcessor */\n      dup2\n        /* \"Contracts/AaveLendingProcessor.sol\":2370:2400  paymentProcessor != address(0) */\n      0xffffffffffffffffffffffffffffffffffffffff\n      and\n      sub\n        /* \"Contracts/AaveLendingProcessor.sol\":2362:2430  require(paymentProcessor != address(0), \"Invalid recipient address\") */\n      tag_76\n      jumpi\n      mload(0x40)\n      0x08c379a000000000000000000000000000000000000000000000000000000000\n      dup2\n      mstore\n      0x04\n      add\n      tag_77\n      swap1\n      tag_78\n      jump\t// in\n    tag_77:\n      mload(0x40)\n      dup1\n      swap2\n      sub\n      swap1\n      revert\n    tag_76:\n        /* \"Contracts/AaveLendingProcessor.sol\":2514:2537  uint256 withdrawnAmount */\n      0x00\n        /* \"Contracts/AaveLendingProcessor.sol\":2540:2548  aavePool */\n      immutable(\"0x606503ebd6bdca7290248af82fd5a09ca0489398da9f242244210336ae6ece9f\")\n        /* \"Contracts/AaveLendingProcessor.sol\":2540:2557  aavePool.withdraw */\n      0xffffffffffffffffffffffffffffffffffffffff\n      and\n      0x69328dec\n        /* \"Contracts/AaveLendingProcessor.sol\":2558:2562  WETH */\n      immutable(\"0xeafa31dc210956fc0884ec5660eba9405197797219cbbda41b6aaf7118c651d8\")\n        /* \"Contracts/AaveLendingProcessor.sol\":2564:2570  amount */\n      dup6\n        /* \"Contracts/AaveLendingProcessor.sol\":2572:2588  paymentProcessor */\n      dup6\n        /* \"Contracts/AaveLendingProcessor.sol\":2540:2589  aavePool.withdraw(WETH, amount, paymentProcessor) */\n      mload(0x40)\n      dup5\n      0xffffffff\n      and\n      0xe0\n      shl\n      dup2\n      mstore\n      0x04\n      add\n      tag_79\n      swap4\n      swap3\n      swap2\n      swap1\n      tag_80\n      jump\t// in\n    tag_79:\n      0x20\n      mload(0x40)\n      dup1\n      dup4\n      sub\n      dup2\n      0x00\n      dup8\n      gas\n      call\n      iszero\n      dup1\n      iszero\n      tag_82\n      jumpi\n      returndatacopy(0x00, 0x00, returndatasize)\n      revert(0x00, returndatasize)\n    tag_82:\n      pop\n      pop\n      pop\n      pop\n      mload(0x40)\n      returndatasize\n      not(0x1f)\n      0x1f\n      dup3\n      add\n      and\n      dup3\n      add\n      dup1\n      0x40\n      mstore\n      pop\n      dup2\n      add\n      swap1\n      tag_83\n      swap2\n      swap1\n      tag_65\n      jump\t// in\n    tag_83:\n        /* \"Contracts/AaveLendingProcessor.sol\":2514:2589  uint256 withdrawnAmount = aavePool.withdraw(WETH, amount, paymentProcessor) */\n      swap1\n      pop\n        /* \"Contracts/AaveLendingProcessor.sol\":2605:2636  FundsRetrieved(withdrawnAmount) */\n      0xae2f9495e4eb15d60eced7f3c7944eb4558245d5d9089f1b32c17b493ed58306\n        /* \"Contracts/AaveLendingProcessor.sol\":2620:2635  withdrawnAmount */\n      dup2\n        /* \"Contracts/AaveLendingProcessor.sol\":2605:2636  FundsRetrieved(withdrawnAmount) */\n      mload(0x40)\n      tag_84\n      swap2\n      swap1\n      tag_21\n      jump\t// in\n    tag_84:\n      mload(0x40)\n      dup1\n      swap2\n      sub\n      swap1\n      log1\n        /* \"Contracts/AaveLendingProcessor.sol\":2352:2643  {... */\n      pop\n        /* \"Contracts/AaveLendingProcessor.sol\":2264:2643  function retrieveLentFunds(uint256 amount, address paymentProcessor) external onlyOwner {... */\n      pop\n      pop\n      jump\t// out\n        /* \"Contracts/AaveLendingProcessor.sol\":1258:1287  uint256 public totalDeposited */\n    tag_43:\n      sload(0x01)\n      dup2\n      jump\t// out\n        /* \"#utility.yul\":7:84   */\n    tag_85:\n        /* \"#utility.yul\":44:51   */\n      0x00\n        /* \"#utility.yul\":73:78   */\n      dup2\n        /* \"#utility.yul\":62:78   */\n      swap1\n      pop\n        /* \"#utility.yul\":7:84   */\n      swap2\n      swap1\n      pop\n      jump\t// out\n        /* \"#utility.yul\":90:208   */\n    tag_86:\n        /* \"#utility.yul\":177:201   */\n      tag_120\n        /* \"#utility.yul\":195:200   */\n      dup2\n        /* \"#utility.yul\":177:201   */\n      tag_85\n      jump\t// in\n    tag_120:\n        /* \"#utility.yul\":172:175   */\n      dup3\n        /* \"#utility.yul\":165:202   */\n      mstore\n        /* \"#utility.yul\":90:208   */\n      pop\n      pop\n      jump\t// out\n        /* \"#utility.yul\":214:436   */\n    tag_21:\n        /* \"#utility.yul\":307:311   */\n      0x00\n        /* \"#utility.yul\":345:347   */\n      0x20\n        /* \"#utility.yul\":334:343   */\n      dup3\n        /* \"#utility.yul\":330:348   */\n      add\n        /* \"#utility.yul\":322:348   */\n      swap1\n      pop\n        /* \"#utility.yul\":358:429   */\n      tag_122\n        /* \"#utility.yul\":426:427   */\n      0x00\n        /* \"#utility.yul\":415:424   */\n      dup4\n        /* \"#utility.yul\":411:428   */\n      add\n        /* \"#utility.yul\":402:408   */\n      dup5\n        /* \"#utility.yul\":358:429   */\n      tag_86\n      jump\t// in\n    tag_122:\n        /* \"#utility.yul\":214:436   */\n      swap3\n      swap2\n      pop\n      pop\n      jump\t// out\n        /* \"#utility.yul\":442:568   */\n    tag_87:\n        /* \"#utility.yul\":479:486   */\n      0x00\n        /* \"#utility.yul\":519:561   */\n      0xffffffffffffffffffffffffffffffffffffffff\n        /* \"#utility.yul\":512:517   */\n      dup3\n        /* \"#utility.yul\":508:562   */\n      and\n        /* \"#utility.yul\":497:562   */\n      swap1\n      pop\n        /* \"#utility.yul\":442:568   */\n      swap2\n      swap1\n      pop\n      jump\t// out\n        /* \"#utility.yul\":574:670   */\n    tag_88:\n        /* \"#utility.yul\":611:618   */\n      0x00\n        /* \"#utility.yul\":640:664   */\n      tag_125\n        /* \"#utility.yul\":658:663   */\n      dup3\n        /* \"#utility.yul\":640:664   */\n      tag_87\n      jump\t// in\n    tag_125:\n        /* \"#utility.yul\":629:664   */\n      swap1\n      pop\n        /* \"#utility.yul\":574:670   */\n      swap2\n      swap1\n      pop\n      jump\t// out\n        /* \"#utility.yul\":676:794   */\n    tag_89:\n        /* \"#utility.yul\":763:787   */\n      tag_127\n        /* \"#utility.yul\":781:786   */\n      dup2\n        /* \"#utility.yul\":763:787   */\n      tag_88\n      jump\t// in\n    tag_127:\n        /* \"#utility.yul\":758:761   */\n      dup3\n        /* \"#utility.yul\":751:788   */\n      mstore\n        /* \"#utility.yul\":676:794   */\n      pop\n      pop\n      jump\t// out\n        /* \"#utility.yul\":800:1022   */\n    tag_26:\n        /* \"#utility.yul\":893:897   */\n      0x00\n        /* \"#utility.yul\":931:933   */\n      0x20\n        /* \"#utility.yul\":920:929   */\n      dup3\n        /* \"#utility.yul\":916:934   */\n      add\n        /* \"#utility.yul\":908:934   */\n      swap1\n      pop\n        /* \"#utility.yul\":944:1015   */\n      tag_129\n        /* \"#utility.yul\":1012:1013   */\n      0x00\n        /* \"#utility.yul\":1001:1010   */\n      dup4\n        /* \"#utility.yul\":997:1014   */\n      add\n        /* \"#utility.yul\":988:994   */\n      dup5\n        /* \"#utility.yul\":944:1015   */\n      tag_89\n      jump\t// in\n    tag_129:\n        /* \"#utility.yul\":800:1022   */\n      swap3\n      swap2\n      pop\n      pop\n      jump\t// out\n        /* \"#utility.yul\":1028:1088   */\n    tag_90:\n        /* \"#utility.yul\":1056:1059   */\n      0x00\n        /* \"#utility.yul\":1077:1082   */\n      dup2\n        /* \"#utility.yul\":1070:1082   */\n      swap1\n      pop\n        /* \"#utility.yul\":1028:1088   */\n      swap2\n      swap1\n      pop\n      jump\t// out\n        /* \"#utility.yul\":1094:1236   */\n    tag_91:\n        /* \"#utility.yul\":1144:1153   */\n      0x00\n        /* \"#utility.yul\":1177:1230   */\n      tag_132\n        /* \"#utility.yul\":1195:1229   */\n      tag_133\n        /* \"#utility.yul\":1204:1228   */\n      tag_134\n        /* \"#utility.yul\":1222:1227   */\n      dup5\n        /* \"#utility.yul\":1204:1228   */\n      tag_87\n      jump\t// in\n    tag_134:\n        /* \"#utility.yul\":1195:1229   */\n      tag_90\n      jump\t// in\n    tag_133:\n        /* \"#utility.yul\":1177:1230   */\n      tag_87\n      jump\t// in\n    tag_132:\n        /* \"#utility.yul\":1164:1230   */\n      swap1\n      pop\n        /* \"#utility.yul\":1094:1236   */\n      swap2\n      swap1\n      pop\n      jump\t// out\n        /* \"#utility.yul\":1242:1368   */\n    tag_92:\n        /* \"#utility.yul\":1292:1301   */\n      0x00\n        /* \"#utility.yul\":1325:1362   */\n      tag_136\n        /* \"#utility.yul\":1356:1361   */\n      dup3\n        /* \"#utility.yul\":1325:1362   */\n      tag_91\n      jump\t// in\n    tag_136:\n        /* \"#utility.yul\":1312:1362   */\n      swap1\n      pop\n        /* \"#utility.yul\":1242:1368   */\n      swap2\n      swap1\n      pop\n      jump\t// out\n        /* \"#utility.yul\":1374:1512   */\n    tag_93:\n        /* \"#utility.yul\":1436:1445   */\n      0x00\n        /* \"#utility.yul\":1469:1506   */\n      tag_138\n        /* \"#utility.yul\":1500:1505   */\n      dup3\n        /* \"#utility.yul\":1469:1506   */\n      tag_92\n      jump\t// in\n    tag_138:\n        /* \"#utility.yul\":1456:1506   */\n      swap1\n      pop\n        /* \"#utility.yul\":1374:1512   */\n      swap2\n      swap1\n      pop\n      jump\t// out\n        /* \"#utility.yul\":1518:1673   */\n    tag_94:\n        /* \"#utility.yul\":1617:1666   */\n      tag_140\n        /* \"#utility.yul\":1660:1665   */\n      dup2\n        /* \"#utility.yul\":1617:1666   */\n      tag_93\n      jump\t// in\n    tag_140:\n        /* \"#utility.yul\":1612:1615   */\n      dup3\n        /* \"#utility.yul\":1605:1667   */\n      mstore\n        /* \"#utility.yul\":1518:1673   */\n      pop\n      pop\n      jump\t// out\n        /* \"#utility.yul\":1679:1925   */\n    tag_31:\n        /* \"#utility.yul\":1784:1788   */\n      0x00\n        /* \"#utility.yul\":1822:1824   */\n      0x20\n        /* \"#utility.yul\":1811:1820   */\n      dup3\n        /* \"#utility.yul\":1807:1825   */\n      add\n        /* \"#utility.yul\":1799:1825   */\n      swap1\n      pop\n        /* \"#utility.yul\":1835:1918   */\n      tag_142\n        /* \"#utility.yul\":1915:1916   */\n      0x00\n        /* \"#utility.yul\":1904:1913   */\n      dup4\n        /* \"#utility.yul\":1900:1917   */\n      add\n        /* \"#utility.yul\":1891:1897   */\n      dup5\n        /* \"#utility.yul\":1835:1918   */\n      tag_94\n      jump\t// in\n    tag_142:\n        /* \"#utility.yul\":1679:1925   */\n      swap3\n      swap2\n      pop\n      pop\n      jump\t// out\n        /* \"#utility.yul\":2012:2129   */\n    tag_96:\n        /* \"#utility.yul\":2121:2122   */\n      0x00\n        /* \"#utility.yul\":2118:2119   */\n      0x00\n        /* \"#utility.yul\":2111:2123   */\n      revert\n        /* \"#utility.yul\":2258:2380   */\n    tag_98:\n        /* \"#utility.yul\":2331:2355   */\n      tag_147\n        /* \"#utility.yul\":2349:2354   */\n      dup2\n        /* \"#utility.yul\":2331:2355   */\n      tag_85\n      jump\t// in\n    tag_147:\n        /* \"#utility.yul\":2324:2329   */\n      dup2\n        /* \"#utility.yul\":2321:2356   */\n      eq\n        /* \"#utility.yul\":2311:2374   */\n      tag_148\n      jumpi\n        /* \"#utility.yul\":2370:2371   */\n      0x00\n        /* \"#utility.yul\":2367:2368   */\n      0x00\n        /* \"#utility.yul\":2360:2372   */\n      revert\n        /* \"#utility.yul\":2311:2374   */\n    tag_148:\n        /* \"#utility.yul\":2258:2380   */\n      pop\n      jump\t// out\n        /* \"#utility.yul\":2386:2525   */\n    tag_99:\n        /* \"#utility.yul\":2432:2437   */\n      0x00\n        /* \"#utility.yul\":2470:2476   */\n      dup2\n        /* \"#utility.yul\":2457:2477   */\n      calldataload\n        /* \"#utility.yul\":2448:2477   */\n      swap1\n      pop\n        /* \"#utility.yul\":2486:2519   */\n      tag_150\n        /* \"#utility.yul\":2513:2518   */\n      dup2\n        /* \"#utility.yul\":2486:2519   */\n      tag_98\n      jump\t// in\n    tag_150:\n        /* \"#utility.yul\":2386:2525   */\n      swap3\n      swap2\n      pop\n      pop\n      jump\t// out\n        /* \"#utility.yul\":2531:2653   */\n    tag_100:\n        /* \"#utility.yul\":2604:2628   */\n      tag_152\n        /* \"#utility.yul\":2622:2627   */\n      dup2\n        /* \"#utility.yul\":2604:2628   */\n      tag_88\n      jump\t// in\n    tag_152:\n        /* \"#utility.yul\":2597:2602   */\n      dup2\n        /* \"#utility.yul\":2594:2629   */\n      eq\n        /* \"#utility.yul\":2584:2647   */\n      tag_153\n      jumpi\n        /* \"#utility.yul\":2643:2644   */\n      0x00\n        /* \"#utility.yul\":2640:2641   */\n      0x00\n        /* \"#utility.yul\":2633:2645   */\n      revert\n        /* \"#utility.yul\":2584:2647   */\n    tag_153:\n        /* \"#utility.yul\":2531:2653   */\n      pop\n      jump\t// out\n        /* \"#utility.yul\":2659:2798   */\n    tag_101:\n        /* \"#utility.yul\":2705:2710   */\n      0x00\n        /* \"#utility.yul\":2743:2749   */\n      dup2\n        /* \"#utility.yul\":2730:2750   */\n      calldataload\n        /* \"#utility.yul\":2721:2750   */\n      swap1\n      pop\n        /* \"#utility.yul\":2759:2792   */\n      tag_155\n        /* \"#utility.yul\":2786:2791   */\n      dup2\n        /* \"#utility.yul\":2759:2792   */\n      tag_100\n      jump\t// in\n    tag_155:\n        /* \"#utility.yul\":2659:2798   */\n      swap3\n      swap2\n      pop\n      pop\n      jump\t// out\n        /* \"#utility.yul\":2804:3278   */\n    tag_39:\n        /* \"#utility.yul\":2872:2878   */\n      0x00\n        /* \"#utility.yul\":2880:2886   */\n      0x00\n        /* \"#utility.yul\":2929:2931   */\n      0x40\n        /* \"#utility.yul\":2917:2926   */\n      dup4\n        /* \"#utility.yul\":2908:2915   */\n      dup6\n        /* \"#utility.yul\":2904:2927   */\n      sub\n        /* \"#utility.yul\":2900:2932   */\n      slt\n        /* \"#utility.yul\":2897:3016   */\n      iszero\n      tag_157\n      jumpi\n        /* \"#utility.yul\":2935:3014   */\n      tag_158\n      tag_96\n      jump\t// in\n    tag_158:\n        /* \"#utility.yul\":2897:3016   */\n    tag_157:\n        /* \"#utility.yul\":3055:3056   */\n      0x00\n        /* \"#utility.yul\":3080:3133   */\n      tag_159\n        /* \"#utility.yul\":3125:3132   */\n      dup6\n        /* \"#utility.yul\":3116:3122   */\n      dup3\n        /* \"#utility.yul\":3105:3114   */\n      dup7\n        /* \"#utility.yul\":3101:3123   */\n      add\n        /* \"#utility.yul\":3080:3133   */\n      tag_99\n      jump\t// in\n    tag_159:\n        /* \"#utility.yul\":3070:3133   */\n      swap3\n      pop\n        /* \"#utility.yul\":3026:3143   */\n      pop\n        /* \"#utility.yul\":3182:3184   */\n      0x20\n        /* \"#utility.yul\":3208:3261   */\n      tag_160\n        /* \"#utility.yul\":3253:3260   */\n      dup6\n        /* \"#utility.yul\":3244:3250   */\n      dup3\n        /* \"#utility.yul\":3233:3242   */\n      dup7\n        /* \"#utility.yul\":3229:3251   */\n      add\n        /* \"#utility.yul\":3208:3261   */\n      tag_101\n      jump\t// in\n    tag_160:\n        /* \"#utility.yul\":3198:3261   */\n      swap2\n      pop\n        /* \"#utility.yul\":3153:3271   */\n      pop\n        /* \"#utility.yul\":2804:3278   */\n      swap3\n      pop\n      swap3\n      swap1\n      pop\n      jump\t// out\n        /* \"#utility.yul\":3284:3453   */\n    tag_102:\n        /* \"#utility.yul\":3368:3379   */\n      0x00\n        /* \"#utility.yul\":3402:3408   */\n      dup3\n        /* \"#utility.yul\":3397:3400   */\n      dup3\n        /* \"#utility.yul\":3390:3409   */\n      mstore\n        /* \"#utility.yul\":3442:3446   */\n      0x20\n        /* \"#utility.yul\":3437:3440   */\n      dup3\n        /* \"#utility.yul\":3433:3447   */\n      add\n        /* \"#utility.yul\":3418:3447   */\n      swap1\n      pop\n        /* \"#utility.yul\":3284:3453   */\n      swap3\n      swap2\n      pop\n      pop\n      jump\t// out\n        /* \"#utility.yul\":3459:3628   */\n    tag_103:\n        /* \"#utility.yul\":3599:3620   */\n      0x4e6f204554482073656e7420746f206c656e6400000000000000000000000000\n        /* \"#utility.yul\":3595:3596   */\n      0x00\n        /* \"#utility.yul\":3587:3593   */\n      dup3\n        /* \"#utility.yul\":3583:3597   */\n      add\n        /* \"#utility.yul\":3576:3621   */\n      mstore\n        /* \"#utility.yul\":3459:3628   */\n      pop\n      jump\t// out\n        /* \"#utility.yul\":3634:4000   */\n    tag_104:\n        /* \"#utility.yul\":3776:3779   */\n      0x00\n        /* \"#utility.yul\":3797:3864   */\n      tag_164\n        /* \"#utility.yul\":3861:3863   */\n      0x13\n        /* \"#utility.yul\":3856:3859   */\n      dup4\n        /* \"#utility.yul\":3797:3864   */\n      tag_102\n      jump\t// in\n    tag_164:\n        /* \"#utility.yul\":3790:3864   */\n      swap2\n      pop\n        /* \"#utility.yul\":3873:3966   */\n      tag_165\n        /* \"#utility.yul\":3962:3965   */\n      dup3\n        /* \"#utility.yul\":3873:3966   */\n      tag_103\n      jump\t// in\n    tag_165:\n        /* \"#utility.yul\":3991:3993   */\n      0x20\n        /* \"#utility.yul\":3986:3989   */\n      dup3\n        /* \"#utility.yul\":3982:3994   */\n      add\n        /* \"#utility.yul\":3975:3994   */\n      swap1\n      pop\n        /* \"#utility.yul\":3634:4000   */\n      swap2\n      swap1\n      pop\n      jump\t// out\n        /* \"#utility.yul\":4006:4425   */\n    tag_48:\n        /* \"#utility.yul\":4172:4176   */\n      0x00\n        /* \"#utility.yul\":4210:4212   */\n      0x20\n        /* \"#utility.yul\":4199:4208   */\n      dup3\n        /* \"#utility.yul\":4195:4213   */\n      add\n        /* \"#utility.yul\":4187:4213   */\n      swap1\n      pop\n        /* \"#utility.yul\":4259:4268   */\n      dup2\n        /* \"#utility.yul\":4253:4257   */\n      dup2\n        /* \"#utility.yul\":4249:4269   */\n      sub\n        /* \"#utility.yul\":4245:4246   */\n      0x00\n        /* \"#utility.yul\":4234:4243   */\n      dup4\n        /* \"#utility.yul\":4230:4247   */\n      add\n        /* \"#utility.yul\":4223:4270   */\n      mstore\n        /* \"#utility.yul\":4287:4418   */\n      tag_167\n        /* \"#utility.yul\":4413:4417   */\n      dup2\n        /* \"#utility.yul\":4287:4418   */\n      tag_104\n      jump\t// in\n    tag_167:\n        /* \"#utility.yul\":4279:4418   */\n      swap1\n      pop\n        /* \"#utility.yul\":4006:4425   */\n      swap2\n      swap1\n      pop\n      jump\t// out\n        /* \"#utility.yul\":4431:4516   */\n    tag_105:\n        /* \"#utility.yul\":4476:4483   */\n      0x00\n        /* \"#utility.yul\":4505:4510   */\n      dup2\n        /* \"#utility.yul\":4494:4510   */\n      swap1\n      pop\n        /* \"#utility.yul\":4431:4516   */\n      swap2\n      swap1\n      pop\n      jump\t// out\n        /* \"#utility.yul\":4522:4611   */\n    tag_106:\n        /* \"#utility.yul\":4558:4565   */\n      0x00\n        /* \"#utility.yul\":4598:4604   */\n      0xffff\n        /* \"#utility.yul\":4591:4596   */\n      dup3\n        /* \"#utility.yul\":4587:4605   */\n      and\n        /* \"#utility.yul\":4576:4605   */\n      swap1\n      pop\n        /* \"#utility.yul\":4522:4611   */\n      swap2\n      swap1\n      pop\n      jump\t// out\n        /* \"#utility.yul\":4617:4773   */\n    tag_107:\n        /* \"#utility.yul\":4674:4683   */\n      0x00\n        /* \"#utility.yul\":4707:4767   */\n      tag_171\n        /* \"#utility.yul\":4724:4766   */\n      tag_172\n        /* \"#utility.yul\":4733:4765   */\n      tag_173\n        /* \"#utility.yul\":4759:4764   */\n      dup5\n        /* \"#utility.yul\":4733:4765   */\n      tag_105\n      jump\t// in\n    tag_173:\n        /* \"#utility.yul\":4724:4766   */\n      tag_90\n      jump\t// in\n    tag_172:\n        /* \"#utility.yul\":4707:4767   */\n      tag_106\n      jump\t// in\n    tag_171:\n        /* \"#utility.yul\":4694:4767   */\n      swap1\n      pop\n        /* \"#utility.yul\":4617:4773   */\n      swap2\n      swap1\n      pop\n      jump\t// out\n        /* \"#utility.yul\":4779:4924   */\n    tag_108:\n        /* \"#utility.yul\":4873:4917   */\n      tag_175\n        /* \"#utility.yul\":4911:4916   */\n      dup2\n        /* \"#utility.yul\":4873:4917   */\n      tag_107\n      jump\t// in\n    tag_175:\n        /* \"#utility.yul\":4868:4871   */\n      dup3\n        /* \"#utility.yul\":4861:4918   */\n      mstore\n        /* \"#utility.yul\":4779:4924   */\n      pop\n      pop\n      jump\t// out\n        /* \"#utility.yul\":4930:5497   */\n    tag_53:\n        /* \"#utility.yul\":5114:5118   */\n      0x00\n        /* \"#utility.yul\":5152:5155   */\n      0x80\n        /* \"#utility.yul\":5141:5150   */\n      dup3\n        /* \"#utility.yul\":5137:5156   */\n      add\n        /* \"#utility.yul\":5129:5156   */\n      swap1\n      pop\n        /* \"#utility.yul\":5166:5237   */\n      tag_177\n        /* \"#utility.yul\":5234:5235   */\n      0x00\n        /* \"#utility.yul\":5223:5232   */\n      dup4\n        /* \"#utility.yul\":5219:5236   */\n      add\n        /* \"#utility.yul\":5210:5216   */\n      dup8\n        /* \"#utility.yul\":5166:5237   */\n      tag_89\n      jump\t// in\n    tag_177:\n        /* \"#utility.yul\":5247:5319   */\n      tag_178\n        /* \"#utility.yul\":5315:5317   */\n      0x20\n        /* \"#utility.yul\":5304:5313   */\n      dup4\n        /* \"#utility.yul\":5300:5318   */\n      add\n        /* \"#utility.yul\":5291:5297   */\n      dup7\n        /* \"#utility.yul\":5247:5319   */\n      tag_86\n      jump\t// in\n    tag_178:\n        /* \"#utility.yul\":5329:5401   */\n      tag_179\n        /* \"#utility.yul\":5397:5399   */\n      0x40\n        /* \"#utility.yul\":5386:5395   */\n      dup4\n        /* \"#utility.yul\":5382:5400   */\n      add\n        /* \"#utility.yul\":5373:5379   */\n      dup6\n        /* \"#utility.yul\":5329:5401   */\n      tag_89\n      jump\t// in\n    tag_179:\n        /* \"#utility.yul\":5411:5490   */\n      tag_180\n        /* \"#utility.yul\":5486:5488   */\n      0x60\n        /* \"#utility.yul\":5475:5484   */\n      dup4\n        /* \"#utility.yul\":5471:5489   */\n      add\n        /* \"#utility.yul\":5462:5468   */\n      dup5\n        /* \"#utility.yul\":5411:5490   */\n      tag_108\n      jump\t// in\n    tag_180:\n        /* \"#utility.yul\":4930:5497   */\n      swap6\n      swap5\n      pop\n      pop\n      pop\n      pop\n      pop\n      jump\t// out\n        /* \"#utility.yul\":5503:5683   */\n    tag_109:\n        /* \"#utility.yul\":5551:5628   */\n      0x4e487b7100000000000000000000000000000000000000000000000000000000\n        /* \"#utility.yul\":5548:5549   */\n      0x00\n        /* \"#utility.yul\":5541:5629   */\n      mstore\n        /* \"#utility.yul\":5648:5652   */\n      0x11\n        /* \"#utility.yul\":5645:5646   */\n      0x04\n        /* \"#utility.yul\":5638:5653   */\n      mstore\n        /* \"#utility.yul\":5672:5676   */\n      0x24\n        /* \"#utility.yul\":5669:5670   */\n      0x00\n        /* \"#utility.yul\":5662:5677   */\n      revert\n        /* \"#utility.yul\":5689:5880   */\n    tag_58:\n        /* \"#utility.yul\":5729:5732   */\n      0x00\n        /* \"#utility.yul\":5748:5768   */\n      tag_183\n        /* \"#utility.yul\":5766:5767   */\n      dup3\n        /* \"#utility.yul\":5748:5768   */\n      tag_85\n      jump\t// in\n    tag_183:\n        /* \"#utility.yul\":5743:5768   */\n      swap2\n      pop\n        /* \"#utility.yul\":5782:5802   */\n      tag_184\n        /* \"#utility.yul\":5800:5801   */\n      dup4\n        /* \"#utility.yul\":5782:5802   */\n      tag_85\n      jump\t// in\n    tag_184:\n        /* \"#utility.yul\":5777:5802   */\n      swap3\n      pop\n        /* \"#utility.yul\":5825:5826   */\n      dup3\n        /* \"#utility.yul\":5822:5823   */\n      dup3\n        /* \"#utility.yul\":5818:5827   */\n      add\n        /* \"#utility.yul\":5811:5827   */\n      swap1\n      pop\n        /* \"#utility.yul\":5846:5849   */\n      dup1\n        /* \"#utility.yul\":5843:5844   */\n      dup3\n        /* \"#utility.yul\":5840:5850   */\n      gt\n        /* \"#utility.yul\":5837:5873   */\n      iszero\n      tag_185\n      jumpi\n        /* \"#utility.yul\":5853:5871   */\n      tag_186\n      tag_109\n      jump\t// in\n    tag_186:\n        /* \"#utility.yul\":5837:5873   */\n    tag_185:\n        /* \"#utility.yul\":5689:5880   */\n      swap3\n      swap2\n      pop\n      pop\n      jump\t// out\n        /* \"#utility.yul\":5886:6029   */\n    tag_110:\n        /* \"#utility.yul\":5943:5948   */\n      0x00\n        /* \"#utility.yul\":5974:5980   */\n      dup2\n        /* \"#utility.yul\":5968:5981   */\n      mload\n        /* \"#utility.yul\":5959:5981   */\n      swap1\n      pop\n        /* \"#utility.yul\":5990:6023   */\n      tag_188\n        /* \"#utility.yul\":6017:6022   */\n      dup2\n        /* \"#utility.yul\":5990:6023   */\n      tag_98\n      jump\t// in\n    tag_188:\n        /* \"#utility.yul\":5886:6029   */\n      swap3\n      swap2\n      pop\n      pop\n      jump\t// out\n        /* \"#utility.yul\":6035:6386   */\n    tag_65:\n        /* \"#utility.yul\":6105:6111   */\n      0x00\n        /* \"#utility.yul\":6154:6156   */\n      0x20\n        /* \"#utility.yul\":6142:6151   */\n      dup3\n        /* \"#utility.yul\":6133:6140   */\n      dup5\n        /* \"#utility.yul\":6129:6152   */\n      sub\n        /* \"#utility.yul\":6125:6157   */\n      slt\n        /* \"#utility.yul\":6122:6241   */\n      iszero\n      tag_190\n      jumpi\n        /* \"#utility.yul\":6160:6239   */\n      tag_191\n      tag_96\n      jump\t// in\n    tag_191:\n        /* \"#utility.yul\":6122:6241   */\n    tag_190:\n        /* \"#utility.yul\":6280:6281   */\n      0x00\n        /* \"#utility.yul\":6305:6369   */\n      tag_192\n        /* \"#utility.yul\":6361:6368   */\n      dup5\n        /* \"#utility.yul\":6352:6358   */\n      dup3\n        /* \"#utility.yul\":6341:6350   */\n      dup6\n        /* \"#utility.yul\":6337:6359   */\n      add\n        /* \"#utility.yul\":6305:6369   */\n      tag_110\n      jump\t// in\n    tag_192:\n        /* \"#utility.yul\":6295:6369   */\n      swap2\n      pop\n        /* \"#utility.yul\":6251:6379   */\n      pop\n        /* \"#utility.yul\":6035:6386   */\n      swap3\n      swap2\n      pop\n      pop\n      jump\t// out\n        /* \"#utility.yul\":6392:6564   */\n    tag_111:\n        /* \"#utility.yul\":6532:6556   */\n      0x4e6f2066756e6473206465706f73697465642079657400000000000000000000\n        /* \"#utility.yul\":6528:6529   */\n      0x00\n        /* \"#utility.yul\":6520:6526   */\n      dup3\n        /* \"#utility.yul\":6516:6530   */\n      add\n        /* \"#utility.yul\":6509:6557   */\n      mstore\n        /* \"#utility.yul\":6392:6564   */\n      pop\n      jump\t// out\n        /* \"#utility.yul\":6570:6936   */\n    tag_112:\n        /* \"#utility.yul\":6712:6715   */\n      0x00\n        /* \"#utility.yul\":6733:6800   */\n      tag_195\n        /* \"#utility.yul\":6797:6799   */\n      0x16\n        /* \"#utility.yul\":6792:6795   */\n      dup4\n        /* \"#utility.yul\":6733:6800   */\n      tag_102\n      jump\t// in\n    tag_195:\n        /* \"#utility.yul\":6726:6800   */\n      swap2\n      pop\n        /* \"#utility.yul\":6809:6902   */\n      tag_196\n        /* \"#utility.yul\":6898:6901   */\n      dup3\n        /* \"#utility.yul\":6809:6902   */\n      tag_111\n      jump\t// in\n    tag_196:\n        /* \"#utility.yul\":6927:6929   */\n      0x20\n        /* \"#utility.yul\":6922:6925   */\n      dup3\n        /* \"#utility.yul\":6918:6930   */\n      add\n        /* \"#utility.yul\":6911:6930   */\n      swap1\n      pop\n        /* \"#utility.yul\":6570:6936   */\n      swap2\n      swap1\n      pop\n      jump\t// out\n        /* \"#utility.yul\":6942:7361   */\n    tag_68:\n        /* \"#utility.yul\":7108:7112   */\n      0x00\n        /* \"#utility.yul\":7146:7148   */\n      0x20\n        /* \"#utility.yul\":7135:7144   */\n      dup3\n        /* \"#utility.yul\":7131:7149   */\n      add\n        /* \"#utility.yul\":7123:7149   */\n      swap1\n      pop\n        /* \"#utility.yul\":7195:7204   */\n      dup2\n        /* \"#utility.yul\":7189:7193   */\n      dup2\n        /* \"#utility.yul\":7185:7205   */\n      sub\n        /* \"#utility.yul\":7181:7182   */\n      0x00\n        /* \"#utility.yul\":7170:7179   */\n      dup4\n        /* \"#utility.yul\":7166:7183   */\n      add\n        /* \"#utility.yul\":7159:7206   */\n      mstore\n        /* \"#utility.yul\":7223:7354   */\n      tag_198\n        /* \"#utility.yul\":7349:7353   */\n      dup2\n        /* \"#utility.yul\":7223:7354   */\n      tag_112\n      jump\t// in\n    tag_198:\n        /* \"#utility.yul\":7215:7354   */\n      swap1\n      pop\n        /* \"#utility.yul\":6942:7361   */\n      swap2\n      swap1\n      pop\n      jump\t// out\n        /* \"#utility.yul\":7367:7561   */\n    tag_70:\n        /* \"#utility.yul\":7407:7411   */\n      0x00\n        /* \"#utility.yul\":7427:7447   */\n      tag_200\n        /* \"#utility.yul\":7445:7446   */\n      dup3\n        /* \"#utility.yul\":7427:7447   */\n      tag_85\n      jump\t// in\n    tag_200:\n        /* \"#utility.yul\":7422:7447   */\n      swap2\n      pop\n        /* \"#utility.yul\":7461:7481   */\n      tag_201\n        /* \"#utility.yul\":7479:7480   */\n      dup4\n        /* \"#utility.yul\":7461:7481   */\n      tag_85\n      jump\t// in\n    tag_201:\n        /* \"#utility.yul\":7456:7481   */\n      swap3\n      pop\n        /* \"#utility.yul\":7505:7506   */\n      dup3\n        /* \"#utility.yul\":7502:7503   */\n      dup3\n        /* \"#utility.yul\":7498:7507   */\n      sub\n        /* \"#utility.yul\":7490:7507   */\n      swap1\n      pop\n        /* \"#utility.yul\":7529:7530   */\n      dup2\n        /* \"#utility.yul\":7523:7527   */\n      dup2\n        /* \"#utility.yul\":7520:7531   */\n      gt\n        /* \"#utility.yul\":7517:7554   */\n      iszero\n      tag_202\n      jumpi\n        /* \"#utility.yul\":7534:7552   */\n      tag_203\n      tag_109\n      jump\t// in\n    tag_203:\n        /* \"#utility.yul\":7517:7554   */\n    tag_202:\n        /* \"#utility.yul\":7367:7561   */\n      swap3\n      swap2\n      pop\n      pop\n      jump\t// out\n        /* \"#utility.yul\":7567:7741   */\n    tag_113:\n        /* \"#utility.yul\":7707:7733   */\n      0x4f6e6c79206f776e65722063616e2063616c6c20746869730000000000000000\n        /* \"#utility.yul\":7703:7704   */\n      0x00\n        /* \"#utility.yul\":7695:7701   */\n      dup3\n        /* \"#utility.yul\":7691:7705   */\n      add\n        /* \"#utility.yul\":7684:7734   */\n      mstore\n        /* \"#utility.yul\":7567:7741   */\n      pop\n      jump\t// out\n        /* \"#utility.yul\":7747:8113   */\n    tag_114:\n        /* \"#utility.yul\":7889:7892   */\n      0x00\n        /* \"#utility.yul\":7910:7977   */\n      tag_206\n        /* \"#utility.yul\":7974:7976   */\n      0x18\n        /* \"#utility.yul\":7969:7972   */\n      dup4\n        /* \"#utility.yul\":7910:7977   */\n      tag_102\n      jump\t// in\n    tag_206:\n        /* \"#utility.yul\":7903:7977   */\n      swap2\n      pop\n        /* \"#utility.yul\":7986:8079   */\n      tag_207\n        /* \"#utility.yul\":8075:8078   */\n      dup3\n        /* \"#utility.yul\":7986:8079   */\n      tag_113\n      jump\t// in\n    tag_207:\n        /* \"#utility.yul\":8104:8106   */\n      0x20\n        /* \"#utility.yul\":8099:8102   */\n      dup3\n        /* \"#utility.yul\":8095:8107   */\n      add\n        /* \"#utility.yul\":8088:8107   */\n      swap1\n      pop\n        /* \"#utility.yul\":7747:8113   */\n      swap2\n      swap1\n      pop\n      jump\t// out\n        /* \"#utility.yul\":8119:8538   */\n    tag_74:\n        /* \"#utility.yul\":8285:8289   */\n      0x00\n        /* \"#utility.yul\":8323:8325   */\n      0x20\n        /* \"#utility.yul\":8312:8321   */\n      dup3\n        /* \"#utility.yul\":8308:8326   */\n      add\n        /* \"#utility.yul\":8300:8326   */\n      swap1\n      pop\n        /* \"#utility.yul\":8372:8381   */\n      dup2\n        /* \"#utility.yul\":8366:8370   */\n      dup2\n        /* \"#utility.yul\":8362:8382   */\n      sub\n        /* \"#utility.yul\":8358:8359   */\n      0x00\n        /* \"#utility.yul\":8347:8356   */\n      dup4\n        /* \"#utility.yul\":8343:8360   */\n      add\n        /* \"#utility.yul\":8336:8383   */\n      mstore\n        /* \"#utility.yul\":8400:8531   */\n      tag_209\n        /* \"#utility.yul\":8526:8530   */\n      dup2\n        /* \"#utility.yul\":8400:8531   */\n      tag_114\n      jump\t// in\n    tag_209:\n        /* \"#utility.yul\":8392:8531   */\n      swap1\n      pop\n        /* \"#utility.yul\":8119:8538   */\n      swap2\n      swap1\n      pop\n      jump\t// out\n        /* \"#utility.yul\":8544:8719   */\n    tag_115:\n        /* \"#utility.yul\":8684:8711   */\n      0x496e76616c696420726563697069656e74206164647265737300000000000000\n        /* \"#utility.yul\":8680:8681   */\n      0x00\n        /* \"#utility.yul\":8672:8678   */\n      dup3\n        /* \"#utility.yul\":8668:8682   */\n      add\n        /* \"#utility.yul\":8661:8712   */\n      mstore\n        /* \"#utility.yul\":8544:8719   */\n      pop\n      jump\t// out\n        /* \"#utility.yul\":8725:9091   */\n    tag_116:\n        /* \"#utility.yul\":8867:8870   */\n      0x00\n        /* \"#utility.yul\":8888:8955   */\n      tag_212\n        /* \"#utility.yul\":8952:8954   */\n      0x19\n        /* \"#utility.yul\":8947:8950   */\n      dup4\n        /* \"#utility.yul\":8888:8955   */\n      tag_102\n      jump\t// in\n    tag_212:\n        /* \"#utility.yul\":8881:8955   */\n      swap2\n      pop\n        /* \"#utility.yul\":8964:9057   */\n      tag_213\n        /* \"#utility.yul\":9053:9056   */\n      dup3\n        /* \"#utility.yul\":8964:9057   */\n      tag_115\n      jump\t// in\n    tag_213:\n        /* \"#utility.yul\":9082:9084   */\n      0x20\n        /* \"#utility.yul\":9077:9080   */\n      dup3\n        /* \"#utility.yul\":9073:9085   */\n      add\n        /* \"#utility.yul\":9066:9085   */\n      swap1\n      pop\n        /* \"#utility.yul\":8725:9091   */\n      swap2\n      swap1\n      pop\n      jump\t// out\n        /* \"#utility.yul\":9097:9516   */\n    tag_78:\n        /* \"#utility.yul\":9263:9267   */\n      0x00\n        /* \"#utility.yul\":9301:9303   */\n      0x20\n        /* \"#utility.yul\":9290:9299   */\n      dup3\n        /* \"#utility.yul\":9286:9304   */\n      add\n        /* \"#utility.yul\":9278:9304   */\n      swap1\n      pop\n        /* \"#utility.yul\":9350:9359   */\n      dup2\n        /* \"#utility.yul\":9344:9348   */\n      dup2\n        /* \"#utility.yul\":9340:9360   */\n      sub\n        /* \"#utility.yul\":9336:9337   */\n      0x00\n        /* \"#utility.yul\":9325:9334   */\n      dup4\n        /* \"#utility.yul\":9321:9338   */\n      add\n        /* \"#utility.yul\":9314:9361   */\n      mstore\n        /* \"#utility.yul\":9378:9509   */\n      tag_215\n        /* \"#utility.yul\":9504:9508   */\n      dup2\n        /* \"#utility.yul\":9378:9509   */\n      tag_116\n      jump\t// in\n    tag_215:\n        /* \"#utility.yul\":9370:9509   */\n      swap1\n      pop\n        /* \"#utility.yul\":9097:9516   */\n      swap2\n      swap1\n      pop\n      jump\t// out\n        /* \"#utility.yul\":9522:9964   */\n    tag_80:\n        /* \"#utility.yul\":9671:9675   */\n      0x00\n        /* \"#utility.yul\":9709:9711   */\n      0x60\n        /* \"#utility.yul\":9698:9707   */\n      dup3\n        /* \"#utility.yul\":9694:9712   */\n      add\n        /* \"#utility.yul\":9686:9712   */\n      swap1\n      pop\n        /* \"#utility.yul\":9722:9793   */\n      tag_217\n        /* \"#utility.yul\":9790:9791   */\n      0x00\n        /* \"#utility.yul\":9779:9788   */\n      dup4\n        /* \"#utility.yul\":9775:9792   */\n      add\n        /* \"#utility.yul\":9766:9772   */\n      dup7\n        /* \"#utility.yul\":9722:9793   */\n      tag_89\n      jump\t// in\n    tag_217:\n        /* \"#utility.yul\":9803:9875   */\n      tag_218\n        /* \"#utility.yul\":9871:9873   */\n      0x20\n        /* \"#utility.yul\":9860:9869   */\n      dup4\n        /* \"#utility.yul\":9856:9874   */\n      add\n        /* \"#utility.yul\":9847:9853   */\n      dup6\n        /* \"#utility.yul\":9803:9875   */\n      tag_86\n      jump\t// in\n    tag_218:\n        /* \"#utility.yul\":9885:9957   */\n      tag_219\n        /* \"#utility.yul\":9953:9955   */\n      0x40\n        /* \"#utility.yul\":9942:9951   */\n      dup4\n        /* \"#utility.yul\":9938:9956   */\n      add\n        /* \"#utility.yul\":9929:9935   */\n      dup5\n        /* \"#utility.yul\":9885:9957   */\n      tag_89\n      jump\t// in\n    tag_219:\n        /* \"#utility.yul\":9522:9964   */\n      swap5\n      swap4\n      pop\n      pop\n      pop\n      pop\n      jump\t// out\n\n    auxdata: 0xa2646970667358221220c55fe013fa163de909a10ac40bcc08cd30fb75a2b533ee663695726a2d009c3364736f6c634300081c0033\n}\n",
				"bytecode": {
					"linkReferences": {},
					"object": "60c060405234801561000f575f5ffd5b50604051610edd380380610edd833981810160405281019061003191906101dd565b335f5f6101000a81548173ffffffffffffffffffffffffffffffffffffffff021916908373ffffffffffffffffffffffffffffffffffffffff1602179055508173ffffffffffffffffffffffffffffffffffffffff1660808173ffffffffffffffffffffffffffffffffffffffff16815250508073ffffffffffffffffffffffffffffffffffffffff1660a08173ffffffffffffffffffffffffffffffffffffffff168152505060a05173ffffffffffffffffffffffffffffffffffffffff1663095ea7b36080517fffffffffffffffffffffffffffffffffffffffffffffffffffffffffffffffff6040518363ffffffff1660e01b8152600401610137929190610242565b6020604051808303815f875af1158015610153573d5f5f3e3d5ffd5b505050506040513d601f19601f82011682018060405250810190610177919061029e565b5050506102c9565b5f5ffd5b5f73ffffffffffffffffffffffffffffffffffffffff82169050919050565b5f6101ac82610183565b9050919050565b6101bc816101a2565b81146101c6575f5ffd5b50565b5f815190506101d7816101b3565b92915050565b5f5f604083850312156101f3576101f261017f565b5b5f610200858286016101c9565b9250506020610211858286016101c9565b9150509250929050565b610224816101a2565b82525050565b5f819050919050565b61023c8161022a565b82525050565b5f6040820190506102555f83018561021b565b6102626020830184610233565b9392505050565b5f8115159050919050565b61027d81610269565b8114610287575f5ffd5b50565b5f8151905061029881610274565b92915050565b5f602082840312156102b3576102b261017f565b5b5f6102c08482850161028a565b91505092915050565b60805160a051610bc261031b5f395f81816101be01528181610277015281816103760152818161049901526105f601525f818161023b0152818161033a0152818161047501526105ba0152610bc25ff3fe608060405260043610610073575f3560e01c8063a03e4bc31161004d578063a03e4bc3146100d4578063ad5c4648146100fe578063da75793a14610128578063ff50abdc1461015057610074565b80631a878577146100765780632a2fab22146100805780638da5cb5b146100aa57610074565b5b005b61007e61017a565b005b34801561008b575f5ffd5b50610094610336565b6040516100a191906106d1565b60405180910390f35b3480156100b5575f5ffd5b506100be61044f565b6040516100cb9190610729565b60405180910390f35b3480156100df575f5ffd5b506100e8610473565b6040516100f5919061079d565b60405180910390f35b348015610109575f5ffd5b50610112610497565b60405161011f9190610729565b60405180910390f35b348015610133575f5ffd5b5061014e6004803603810190610149919061080e565b6104bb565b005b34801561015b575f5ffd5b506101646106b3565b60405161017191906106d1565b60405180910390f35b5f34116101bc576040517f08c379a00000000000000000000000000000000000000000000000000000000081526004016101b3906108a6565b60405180910390fd5b7f000000000000000000000000000000000000000000000000000000000000000073ffffffffffffffffffffffffffffffffffffffff1663d0e30db0346040518263ffffffff1660e01b81526004015f604051808303818588803b158015610222575f5ffd5b505af1158015610234573d5f5f3e3d5ffd5b50505050507f000000000000000000000000000000000000000000000000000000000000000073ffffffffffffffffffffffffffffffffffffffff1663617ba0377f000000000000000000000000000000000000000000000000000000000000000034305f6040518563ffffffff1660e01b81526004016102b8949392919061090a565b5f604051808303815f87803b1580156102cf575f5ffd5b505af11580156102e1573d5f5f3e3d5ffd5b505050503460015f8282546102f6919061097a565b925050819055507f616de1658a38caa17438d36159ebde14ec1d5fcd6bb651bcd8f4560ad0cc89b53460405161032c91906106d1565b60405180910390a1565b5f5f7f000000000000000000000000000000000000000000000000000000000000000073ffffffffffffffffffffffffffffffffffffffff1663d15e00537f00000000000000000000000000000000000000000000000000000000000000006040518263ffffffff1660e01b81526004016103b19190610729565b602060405180830381865afa1580156103cc573d5f5f3e3d5ffd5b505050506040513d601f19601f820116820180604052508101906103f091906109c1565b90505f60015411610436576040517f08c379a000000000000000000000000000000000000000000000000000000000815260040161042d90610a36565b60405180910390fd5b5f600154826104459190610a54565b9050809250505090565b5f5f9054906101000a900473ffffffffffffffffffffffffffffffffffffffff1681565b7f000000000000000000000000000000000000000000000000000000000000000081565b7f000000000000000000000000000000000000000000000000000000000000000081565b5f5f9054906101000a900473ffffffffffffffffffffffffffffffffffffffff1673ffffffffffffffffffffffffffffffffffffffff163373ffffffffffffffffffffffffffffffffffffffff1614610549576040517f08c379a000000000000000000000000000000000000000000000000000000000815260040161054090610ad1565b60405180910390fd5b5f73ffffffffffffffffffffffffffffffffffffffff168173ffffffffffffffffffffffffffffffffffffffff16036105b7576040517f08c379a00000000000000000000000000000000000000000000000000000000081526004016105ae90610b39565b60405180910390fd5b5f7f000000000000000000000000000000000000000000000000000000000000000073ffffffffffffffffffffffffffffffffffffffff166369328dec7f000000000000000000000000000000000000000000000000000000000000000085856040518463ffffffff1660e01b815260040161063593929190610b57565b6020604051808303815f875af1158015610651573d5f5f3e3d5ffd5b505050506040513d601f19601f8201168201806040525081019061067591906109c1565b90507fae2f9495e4eb15d60eced7f3c7944eb4558245d5d9089f1b32c17b493ed58306816040516106a691906106d1565b60405180910390a1505050565b60015481565b5f819050919050565b6106cb816106b9565b82525050565b5f6020820190506106e45f8301846106c2565b92915050565b5f73ffffffffffffffffffffffffffffffffffffffff82169050919050565b5f610713826106ea565b9050919050565b61072381610709565b82525050565b5f60208201905061073c5f83018461071a565b92915050565b5f819050919050565b5f61076561076061075b846106ea565b610742565b6106ea565b9050919050565b5f6107768261074b565b9050919050565b5f6107878261076c565b9050919050565b6107978161077d565b82525050565b5f6020820190506107b05f83018461078e565b92915050565b5f5ffd5b6107c3816106b9565b81146107cd575f5ffd5b50565b5f813590506107de816107ba565b92915050565b6107ed81610709565b81146107f7575f5ffd5b50565b5f81359050610808816107e4565b92915050565b5f5f60408385031215610824576108236107b6565b5b5f610831858286016107d0565b9250506020610842858286016107fa565b9150509250929050565b5f82825260208201905092915050565b7f4e6f204554482073656e7420746f206c656e64000000000000000000000000005f82015250565b5f61089060138361084c565b915061089b8261085c565b602082019050919050565b5f6020820190508181035f8301526108bd81610884565b9050919050565b5f819050919050565b5f61ffff82169050919050565b5f6108f46108ef6108ea846108c4565b610742565b6108cd565b9050919050565b610904816108da565b82525050565b5f60808201905061091d5f83018761071a565b61092a60208301866106c2565b610937604083018561071a565b61094460608301846108fb565b95945050505050565b7f4e487b71000000000000000000000000000000000000000000000000000000005f52601160045260245ffd5b5f610984826106b9565b915061098f836106b9565b92508282019050808211156109a7576109a661094d565b5b92915050565b5f815190506109bb816107ba565b92915050565b5f602082840312156109d6576109d56107b6565b5b5f6109e3848285016109ad565b91505092915050565b7f4e6f2066756e6473206465706f736974656420796574000000000000000000005f82015250565b5f610a2060168361084c565b9150610a2b826109ec565b602082019050919050565b5f6020820190508181035f830152610a4d81610a14565b9050919050565b5f610a5e826106b9565b9150610a69836106b9565b9250828203905081811115610a8157610a8061094d565b5b92915050565b7f4f6e6c79206f776e65722063616e2063616c6c207468697300000000000000005f82015250565b5f610abb60188361084c565b9150610ac682610a87565b602082019050919050565b5f6020820190508181035f830152610ae881610aaf565b9050919050565b7f496e76616c696420726563697069656e742061646472657373000000000000005f82015250565b5f610b2360198361084c565b9150610b2e82610aef565b602082019050919050565b5f6020820190508181035f830152610b5081610b17565b9050919050565b5f606082019050610b6a5f83018661071a565b610b7760208301856106c2565b610b84604083018461071a565b94935050505056fea2646970667358221220c55fe013fa163de909a10ac40bcc08cd30fb75a2b533ee663695726a2d009c3364736f6c634300081c0033",
					"opcodes": "PUSH1 0xC0 PUSH1 0x40 MSTORE CALLVALUE DUP1 ISZERO PUSH2 0xF JUMPI PUSH0 PUSH0 REVERT JUMPDEST POP PUSH1 0x40 MLOAD PUSH2 0xEDD CODESIZE SUB DUP1 PUSH2 0xEDD DUP4 CODECOPY DUP2 DUP2 ADD PUSH1 0x40 MSTORE DUP2 ADD SWAP1 PUSH2 0x31 SWAP2 SWAP1 PUSH2 0x1DD JUMP JUMPDEST CALLER PUSH0 PUSH0 PUSH2 0x100 EXP DUP2 SLOAD DUP2 PUSH20 0xFFFFFFFFFFFFFFFFFFFFFFFFFFFFFFFFFFFFFFFF MUL NOT AND SWAP1 DUP4 PUSH20 0xFFFFFFFFFFFFFFFFFFFFFFFFFFFFFFFFFFFFFFFF AND MUL OR SWAP1 SSTORE POP DUP2 PUSH20 0xFFFFFFFFFFFFFFFFFFFFFFFFFFFFFFFFFFFFFFFF AND PUSH1 0x80 DUP2 PUSH20 0xFFFFFFFFFFFFFFFFFFFFFFFFFFFFFFFFFFFFFFFF AND DUP2 MSTORE POP POP DUP1 PUSH20 0xFFFFFFFFFFFFFFFFFFFFFFFFFFFFFFFFFFFFFFFF AND PUSH1 0xA0 DUP2 PUSH20 0xFFFFFFFFFFFFFFFFFFFFFFFFFFFFFFFFFFFFFFFF AND DUP2 MSTORE POP POP PUSH1 0xA0 MLOAD PUSH20 0xFFFFFFFFFFFFFFFFFFFFFFFFFFFFFFFFFFFFFFFF AND PUSH4 0x95EA7B3 PUSH1 0x80 MLOAD PUSH32 0xFFFFFFFFFFFFFFFFFFFFFFFFFFFFFFFFFFFFFFFFFFFFFFFFFFFFFFFFFFFFFFFF PUSH1 0x40 MLOAD DUP4 PUSH4 0xFFFFFFFF AND PUSH1 0xE0 SHL DUP2 MSTORE PUSH1 0x4 ADD PUSH2 0x137 SWAP3 SWAP2 SWAP1 PUSH2 0x242 JUMP JUMPDEST PUSH1 0x20 PUSH1 0x40 MLOAD DUP1 DUP4 SUB DUP2 PUSH0 DUP8 GAS CALL ISZERO DUP1 ISZERO PUSH2 0x153 JUMPI RETURNDATASIZE PUSH0 PUSH0 RETURNDATACOPY RETURNDATASIZE PUSH0 REVERT JUMPDEST POP POP POP POP PUSH1 0x40 MLOAD RETURNDATASIZE PUSH1 0x1F NOT PUSH1 0x1F DUP3 ADD AND DUP3 ADD DUP1 PUSH1 0x40 MSTORE POP DUP2 ADD SWAP1 PUSH2 0x177 SWAP2 SWAP1 PUSH2 0x29E JUMP JUMPDEST POP POP POP PUSH2 0x2C9 JUMP JUMPDEST PUSH0 PUSH0 REVERT JUMPDEST PUSH0 PUSH20 0xFFFFFFFFFFFFFFFFFFFFFFFFFFFFFFFFFFFFFFFF DUP3 AND SWAP1 POP SWAP2 SWAP1 POP JUMP JUMPDEST PUSH0 PUSH2 0x1AC DUP3 PUSH2 0x183 JUMP JUMPDEST SWAP1 POP SWAP2 SWAP1 POP JUMP JUMPDEST PUSH2 0x1BC DUP2 PUSH2 0x1A2 JUMP JUMPDEST DUP2 EQ PUSH2 0x1C6 JUMPI PUSH0 PUSH0 REVERT JUMPDEST POP JUMP JUMPDEST PUSH0 DUP2 MLOAD SWAP1 POP PUSH2 0x1D7 DUP2 PUSH2 0x1B3 JUMP JUMPDEST SWAP3 SWAP2 POP POP JUMP JUMPDEST PUSH0 PUSH0 PUSH1 0x40 DUP4 DUP6 SUB SLT ISZERO PUSH2 0x1F3 JUMPI PUSH2 0x1F2 PUSH2 0x17F JUMP JUMPDEST JUMPDEST PUSH0 PUSH2 0x200 DUP6 DUP3 DUP7 ADD PUSH2 0x1C9 JUMP JUMPDEST SWAP3 POP POP PUSH1 0x20 PUSH2 0x211 DUP6 DUP3 DUP7 ADD PUSH2 0x1C9 JUMP JUMPDEST SWAP2 POP POP SWAP3 POP SWAP3 SWAP1 POP JUMP JUMPDEST PUSH2 0x224 DUP2 PUSH2 0x1A2 JUMP JUMPDEST DUP3 MSTORE POP POP JUMP JUMPDEST PUSH0 DUP2 SWAP1 POP SWAP2 SWAP1 POP JUMP JUMPDEST PUSH2 0x23C DUP2 PUSH2 0x22A JUMP JUMPDEST DUP3 MSTORE POP POP JUMP JUMPDEST PUSH0 PUSH1 0x40 DUP3 ADD SWAP1 POP PUSH2 0x255 PUSH0 DUP4 ADD DUP6 PUSH2 0x21B JUMP JUMPDEST PUSH2 0x262 PUSH1 0x20 DUP4 ADD DUP5 PUSH2 0x233 JUMP JUMPDEST SWAP4 SWAP3 POP POP POP JUMP JUMPDEST PUSH0 DUP2 ISZERO ISZERO SWAP1 POP SWAP2 SWAP1 POP JUMP JUMPDEST PUSH2 0x27D DUP2 PUSH2 0x269 JUMP JUMPDEST DUP2 EQ PUSH2 0x287 JUMPI PUSH0 PUSH0 REVERT JUMPDEST POP JUMP JUMPDEST PUSH0 DUP2 MLOAD SWAP1 POP PUSH2 0x298 DUP2 PUSH2 0x274 JUMP JUMPDEST SWAP3 SWAP2 POP POP JUMP JUMPDEST PUSH0 PUSH1 0x20 DUP3 DUP5 SUB SLT ISZERO PUSH2 0x2B3 JUMPI PUSH2 0x2B2 PUSH2 0x17F JUMP JUMPDEST JUMPDEST PUSH0 PUSH2 0x2C0 DUP5 DUP3 DUP6 ADD PUSH2 0x28A JUMP JUMPDEST SWAP2 POP POP SWAP3 SWAP2 POP POP JUMP JUMPDEST PUSH1 0x80 MLOAD PUSH1 0xA0 MLOAD PUSH2 0xBC2 PUSH2 0x31B PUSH0 CODECOPY PUSH0 DUP2 DUP2 PUSH2 0x1BE ADD MSTORE DUP2 DUP2 PUSH2 0x277 ADD MSTORE DUP2 DUP2 PUSH2 0x376 ADD MSTORE DUP2 DUP2 PUSH2 0x499 ADD MSTORE PUSH2 0x5F6 ADD MSTORE PUSH0 DUP2 DUP2 PUSH2 0x23B ADD MSTORE DUP2 DUP2 PUSH2 0x33A ADD MSTORE DUP2 DUP2 PUSH2 0x475 ADD MSTORE PUSH2 0x5BA ADD MSTORE PUSH2 0xBC2 PUSH0 RETURN INVALID PUSH1 0x80 PUSH1 0x40 MSTORE PUSH1 0x4 CALLDATASIZE LT PUSH2 0x73 JUMPI PUSH0 CALLDATALOAD PUSH1 0xE0 SHR DUP1 PUSH4 0xA03E4BC3 GT PUSH2 0x4D JUMPI DUP1 PUSH4 0xA03E4BC3 EQ PUSH2 0xD4 JUMPI DUP1 PUSH4 0xAD5C4648 EQ PUSH2 0xFE JUMPI DUP1 PUSH4 0xDA75793A EQ PUSH2 0x128 JUMPI DUP1 PUSH4 0xFF50ABDC EQ PUSH2 0x150 JUMPI PUSH2 0x74 JUMP JUMPDEST DUP1 PUSH4 0x1A878577 EQ PUSH2 0x76 JUMPI DUP1 PUSH4 0x2A2FAB22 EQ PUSH2 0x80 JUMPI DUP1 PUSH4 0x8DA5CB5B EQ PUSH2 0xAA JUMPI PUSH2 0x74 JUMP JUMPDEST JUMPDEST STOP JUMPDEST PUSH2 0x7E PUSH2 0x17A JUMP JUMPDEST STOP JUMPDEST CALLVALUE DUP1 ISZERO PUSH2 0x8B JUMPI PUSH0 PUSH0 REVERT JUMPDEST POP PUSH2 0x94 PUSH2 0x336 JUMP JUMPDEST PUSH1 0x40 MLOAD PUSH2 0xA1 SWAP2 SWAP1 PUSH2 0x6D1 JUMP JUMPDEST PUSH1 0x40 MLOAD DUP1 SWAP2 SUB SWAP1 RETURN JUMPDEST CALLVALUE DUP1 ISZERO PUSH2 0xB5 JUMPI PUSH0 PUSH0 REVERT JUMPDEST POP PUSH2 0xBE PUSH2 0x44F JUMP JUMPDEST PUSH1 0x40 MLOAD PUSH2 0xCB SWAP2 SWAP1 PUSH2 0x729 JUMP JUMPDEST PUSH1 0x40 MLOAD DUP1 SWAP2 SUB SWAP1 RETURN JUMPDEST CALLVALUE DUP1 ISZERO PUSH2 0xDF JUMPI PUSH0 PUSH0 REVERT JUMPDEST POP PUSH2 0xE8 PUSH2 0x473 JUMP JUMPDEST PUSH1 0x40 MLOAD PUSH2 0xF5 SWAP2 SWAP1 PUSH2 0x79D JUMP JUMPDEST PUSH1 0x40 MLOAD DUP1 SWAP2 SUB SWAP1 RETURN JUMPDEST CALLVALUE DUP1 ISZERO PUSH2 0x109 JUMPI PUSH0 PUSH0 REVERT JUMPDEST POP PUSH2 0x112 PUSH2 0x497 JUMP JUMPDEST PUSH1 0x40 MLOAD PUSH2 0x11F SWAP2 SWAP1 PUSH2 0x729 JUMP JUMPDEST PUSH1 0x40 MLOAD DUP1 SWAP2 SUB SWAP1 RETURN JUMPDEST CALLVALUE DUP1 ISZERO PUSH2 0x133 JUMPI PUSH0 PUSH0 REVERT JUMPDEST POP PUSH2 0x14E PUSH1 0x4 DUP1 CALLDATASIZE SUB DUP2 ADD SWAP1 PUSH2 0x149 SWAP2 SWAP1 PUSH2 0x80E JUMP JUMPDEST PUSH2 0x4BB JUMP JUMPDEST STOP JUMPDEST CALLVALUE DUP1 ISZERO PUSH2 0x15B JUMPI PUSH0 PUSH0 REVERT JUMPDEST POP PUSH2 0x164 PUSH2 0x6B3 JUMP JUMPDEST PUSH1 0x40 MLOAD PUSH2 0x171 SWAP2 SWAP1 PUSH2 0x6D1 JUMP JUMPDEST PUSH1 0x40 MLOAD DUP1 SWAP2 SUB SWAP1 RETURN JUMPDEST PUSH0 CALLVALUE GT PUSH2 0x1BC JUMPI PUSH1 0x40 MLOAD PUSH32 0x8C379A000000000000000000000000000000000000000000000000000000000 DUP2 MSTORE PUSH1 0x4 ADD PUSH2 0x1B3 SWAP1 PUSH2 0x8A6 JUMP JUMPDEST PUSH1 0x40 MLOAD DUP1 SWAP2 SUB SWAP1 REVERT JUMPDEST PUSH32 0x0 PUSH20 0xFFFFFFFFFFFFFFFFFFFFFFFFFFFFFFFFFFFFFFFF AND PUSH4 0xD0E30DB0 CALLVALUE PUSH1 0x40 MLOAD DUP3 PUSH4 0xFFFFFFFF AND PUSH1 0xE0 SHL DUP2 MSTORE PUSH1 0x4 ADD PUSH0 PUSH1 0x40 MLOAD DUP1 DUP4 SUB DUP2 DUP6 DUP9 DUP1 EXTCODESIZE ISZERO DUP1 ISZERO PUSH2 0x222 JUMPI PUSH0 PUSH0 REVERT JUMPDEST POP GAS CALL ISZERO DUP1 ISZERO PUSH2 0x234 JUMPI RETURNDATASIZE PUSH0 PUSH0 RETURNDATACOPY RETURNDATASIZE PUSH0 REVERT JUMPDEST POP POP POP POP POP PUSH32 0x0 PUSH20 0xFFFFFFFFFFFFFFFFFFFFFFFFFFFFFFFFFFFFFFFF AND PUSH4 0x617BA037 PUSH32 0x0 CALLVALUE ADDRESS PUSH0 PUSH1 0x40 MLOAD DUP6 PUSH4 0xFFFFFFFF AND PUSH1 0xE0 SHL DUP2 MSTORE PUSH1 0x4 ADD PUSH2 0x2B8 SWAP5 SWAP4 SWAP3 SWAP2 SWAP1 PUSH2 0x90A JUMP JUMPDEST PUSH0 PUSH1 0x40 MLOAD DUP1 DUP4 SUB DUP2 PUSH0 DUP8 DUP1 EXTCODESIZE ISZERO DUP1 ISZERO PUSH2 0x2CF JUMPI PUSH0 PUSH0 REVERT JUMPDEST POP GAS CALL ISZERO DUP1 ISZERO PUSH2 0x2E1 JUMPI RETURNDATASIZE PUSH0 PUSH0 RETURNDATACOPY RETURNDATASIZE PUSH0 REVERT JUMPDEST POP POP POP POP CALLVALUE PUSH1 0x1 PUSH0 DUP3 DUP3 SLOAD PUSH2 0x2F6 SWAP2 SWAP1 PUSH2 0x97A JUMP JUMPDEST SWAP3 POP POP DUP2 SWAP1 SSTORE POP PUSH32 0x616DE1658A38CAA17438D36159EBDE14EC1D5FCD6BB651BCD8F4560AD0CC89B5 CALLVALUE PUSH1 0x40 MLOAD PUSH2 0x32C SWAP2 SWAP1 PUSH2 0x6D1 JUMP JUMPDEST PUSH1 0x40 MLOAD DUP1 SWAP2 SUB SWAP1 LOG1 JUMP JUMPDEST PUSH0 PUSH0 PUSH32 0x0 PUSH20 0xFFFFFFFFFFFFFFFFFFFFFFFFFFFFFFFFFFFFFFFF AND PUSH4 0xD15E0053 PUSH32 0x0 PUSH1 0x40 MLOAD DUP3 PUSH4 0xFFFFFFFF AND PUSH1 0xE0 SHL DUP2 MSTORE PUSH1 0x4 ADD PUSH2 0x3B1 SWAP2 SWAP1 PUSH2 0x729 JUMP JUMPDEST PUSH1 0x20 PUSH1 0x40 MLOAD DUP1 DUP4 SUB DUP2 DUP7 GAS STATICCALL ISZERO DUP1 ISZERO PUSH2 0x3CC JUMPI RETURNDATASIZE PUSH0 PUSH0 RETURNDATACOPY RETURNDATASIZE PUSH0 REVERT JUMPDEST POP POP POP POP PUSH1 0x40 MLOAD RETURNDATASIZE PUSH1 0x1F NOT PUSH1 0x1F DUP3 ADD AND DUP3 ADD DUP1 PUSH1 0x40 MSTORE POP DUP2 ADD SWAP1 PUSH2 0x3F0 SWAP2 SWAP1 PUSH2 0x9C1 JUMP JUMPDEST SWAP1 POP PUSH0 PUSH1 0x1 SLOAD GT PUSH2 0x436 JUMPI PUSH1 0x40 MLOAD PUSH32 0x8C379A000000000000000000000000000000000000000000000000000000000 DUP2 MSTORE PUSH1 0x4 ADD PUSH2 0x42D SWAP1 PUSH2 0xA36 JUMP JUMPDEST PUSH1 0x40 MLOAD DUP1 SWAP2 SUB SWAP1 REVERT JUMPDEST PUSH0 PUSH1 0x1 SLOAD DUP3 PUSH2 0x445 SWAP2 SWAP1 PUSH2 0xA54 JUMP JUMPDEST SWAP1 POP DUP1 SWAP3 POP POP POP SWAP1 JUMP JUMPDEST PUSH0 PUSH0 SWAP1 SLOAD SWAP1 PUSH2 0x100 EXP SWAP1 DIV PUSH20 0xFFFFFFFFFFFFFFFFFFFFFFFFFFFFFFFFFFFFFFFF AND DUP2 JUMP JUMPDEST PUSH32 0x0 DUP2 JUMP JUMPDEST PUSH32 0x0 DUP2 JUMP JUMPDEST PUSH0 PUSH0 SWAP1 SLOAD SWAP1 PUSH2 0x100 EXP SWAP1 DIV PUSH20 0xFFFFFFFFFFFFFFFFFFFFFFFFFFFFFFFFFFFFFFFF AND PUSH20 0xFFFFFFFFFFFFFFFFFFFFFFFFFFFFFFFFFFFFFFFF AND CALLER PUSH20 0xFFFFFFFFFFFFFFFFFFFFFFFFFFFFFFFFFFFFFFFF AND EQ PUSH2 0x549 JUMPI PUSH1 0x40 MLOAD PUSH32 0x8C379A000000000000000000000000000000000000000000000000000000000 DUP2 MSTORE PUSH1 0x4 ADD PUSH2 0x540 SWAP1 PUSH2 0xAD1 JUMP JUMPDEST PUSH1 0x40 MLOAD DUP1 SWAP2 SUB SWAP1 REVERT JUMPDEST PUSH0 PUSH20 0xFFFFFFFFFFFFFFFFFFFFFFFFFFFFFFFFFFFFFFFF AND DUP2 PUSH20 0xFFFFFFFFFFFFFFFFFFFFFFFFFFFFFFFFFFFFFFFF AND SUB PUSH2 0x5B7 JUMPI PUSH1 0x40 MLOAD PUSH32 0x8C379A000000000000000000000000000000000000000000000000000000000 DUP2 MSTORE PUSH1 0x4 ADD PUSH2 0x5AE SWAP1 PUSH2 0xB39 JUMP JUMPDEST PUSH1 0x40 MLOAD DUP1 SWAP2 SUB SWAP1 REVERT JUMPDEST PUSH0 PUSH32 0x0 PUSH20 0xFFFFFFFFFFFFFFFFFFFFFFFFFFFFFFFFFFFFFFFF AND PUSH4 0x69328DEC PUSH32 0x0 DUP6 DUP6 PUSH1 0x40 MLOAD DUP5 PUSH4 0xFFFFFFFF AND PUSH1 0xE0 SHL DUP2 MSTORE PUSH1 0x4 ADD PUSH2 0x635 SWAP4 SWAP3 SWAP2 SWAP1 PUSH2 0xB57 JUMP JUMPDEST PUSH1 0x20 PUSH1 0x40 MLOAD DUP1 DUP4 SUB DUP2 PUSH0 DUP8 GAS CALL ISZERO DUP1 ISZERO PUSH2 0x651 JUMPI RETURNDATASIZE PUSH0 PUSH0 RETURNDATACOPY RETURNDATASIZE PUSH0 REVERT JUMPDEST POP POP POP POP PUSH1 0x40 MLOAD RETURNDATASIZE PUSH1 0x1F NOT PUSH1 0x1F DUP3 ADD AND DUP3 ADD DUP1 PUSH1 0x40 MSTORE POP DUP2 ADD SWAP1 PUSH2 0x675 SWAP2 SWAP1 PUSH2 0x9C1 JUMP JUMPDEST SWAP1 POP PUSH32 0xAE2F9495E4EB15D60ECED7F3C7944EB4558245D5D9089F1B32C17B493ED58306 DUP2 PUSH1 0x40 MLOAD PUSH2 0x6A6 SWAP2 SWAP1 PUSH2 0x6D1 JUMP JUMPDEST PUSH1 0x40 MLOAD DUP1 SWAP2 SUB SWAP1 LOG1 POP POP POP JUMP JUMPDEST PUSH1 0x1 SLOAD DUP2 JUMP JUMPDEST PUSH0 DUP2 SWAP1 POP SWAP2 SWAP1 POP JUMP JUMPDEST PUSH2 0x6CB DUP2 PUSH2 0x6B9 JUMP JUMPDEST DUP3 MSTORE POP POP JUMP JUMPDEST PUSH0 PUSH1 0x20 DUP3 ADD SWAP1 POP PUSH2 0x6E4 PUSH0 DUP4 ADD DUP5 PUSH2 0x6C2 JUMP JUMPDEST SWAP3 SWAP2 POP POP JUMP JUMPDEST PUSH0 PUSH20 0xFFFFFFFFFFFFFFFFFFFFFFFFFFFFFFFFFFFFFFFF DUP3 AND SWAP1 POP SWAP2 SWAP1 POP JUMP JUMPDEST PUSH0 PUSH2 0x713 DUP3 PUSH2 0x6EA JUMP JUMPDEST SWAP1 POP SWAP2 SWAP1 POP JUMP JUMPDEST PUSH2 0x723 DUP2 PUSH2 0x709 JUMP JUMPDEST DUP3 MSTORE POP POP JUMP JUMPDEST PUSH0 PUSH1 0x20 DUP3 ADD SWAP1 POP PUSH2 0x73C PUSH0 DUP4 ADD DUP5 PUSH2 0x71A JUMP JUMPDEST SWAP3 SWAP2 POP POP JUMP JUMPDEST PUSH0 DUP2 SWAP1 POP SWAP2 SWAP1 POP JUMP JUMPDEST PUSH0 PUSH2 0x765 PUSH2 0x760 PUSH2 0x75B DUP5 PUSH2 0x6EA JUMP JUMPDEST PUSH2 0x742 JUMP JUMPDEST PUSH2 0x6EA JUMP JUMPDEST SWAP1 POP SWAP2 SWAP1 POP JUMP JUMPDEST PUSH0 PUSH2 0x776 DUP3 PUSH2 0x74B JUMP JUMPDEST SWAP1 POP SWAP2 SWAP1 POP JUMP JUMPDEST PUSH0 PUSH2 0x787 DUP3 PUSH2 0x76C JUMP JUMPDEST SWAP1 POP SWAP2 SWAP1 POP JUMP JUMPDEST PUSH2 0x797 DUP2 PUSH2 0x77D JUMP JUMPDEST DUP3 MSTORE POP POP JUMP JUMPDEST PUSH0 PUSH1 0x20 DUP3 ADD SWAP1 POP PUSH2 0x7B0 PUSH0 DUP4 ADD DUP5 PUSH2 0x78E JUMP JUMPDEST SWAP3 SWAP2 POP POP JUMP JUMPDEST PUSH0 PUSH0 REVERT JUMPDEST PUSH2 0x7C3 DUP2 PUSH2 0x6B9 JUMP JUMPDEST DUP2 EQ PUSH2 0x7CD JUMPI PUSH0 PUSH0 REVERT JUMPDEST POP JUMP JUMPDEST PUSH0 DUP2 CALLDATALOAD SWAP1 POP PUSH2 0x7DE DUP2 PUSH2 0x7BA JUMP JUMPDEST SWAP3 SWAP2 POP POP JUMP JUMPDEST PUSH2 0x7ED DUP2 PUSH2 0x709 JUMP JUMPDEST DUP2 EQ PUSH2 0x7F7 JUMPI PUSH0 PUSH0 REVERT JUMPDEST POP JUMP JUMPDEST PUSH0 DUP2 CALLDATALOAD SWAP1 POP PUSH2 0x808 DUP2 PUSH2 0x7E4 JUMP JUMPDEST SWAP3 SWAP2 POP POP JUMP JUMPDEST PUSH0 PUSH0 PUSH1 0x40 DUP4 DUP6 SUB SLT ISZERO PUSH2 0x824 JUMPI PUSH2 0x823 PUSH2 0x7B6 JUMP JUMPDEST JUMPDEST PUSH0 PUSH2 0x831 DUP6 DUP3 DUP7 ADD PUSH2 0x7D0 JUMP JUMPDEST SWAP3 POP POP PUSH1 0x20 PUSH2 0x842 DUP6 DUP3 DUP7 ADD PUSH2 0x7FA JUMP JUMPDEST SWAP2 POP POP SWAP3 POP SWAP3 SWAP1 POP JUMP JUMPDEST PUSH0 DUP3 DUP3 MSTORE PUSH1 0x20 DUP3 ADD SWAP1 POP SWAP3 SWAP2 POP POP JUMP JUMPDEST PUSH32 0x4E6F204554482073656E7420746F206C656E6400000000000000000000000000 PUSH0 DUP3 ADD MSTORE POP JUMP JUMPDEST PUSH0 PUSH2 0x890 PUSH1 0x13 DUP4 PUSH2 0x84C JUMP JUMPDEST SWAP2 POP PUSH2 0x89B DUP3 PUSH2 0x85C JUMP JUMPDEST PUSH1 0x20 DUP3 ADD SWAP1 POP SWAP2 SWAP1 POP JUMP JUMPDEST PUSH0 PUSH1 0x20 DUP3 ADD SWAP1 POP DUP2 DUP2 SUB PUSH0 DUP4 ADD MSTORE PUSH2 0x8BD DUP2 PUSH2 0x884 JUMP JUMPDEST SWAP1 POP SWAP2 SWAP1 POP JUMP JUMPDEST PUSH0 DUP2 SWAP1 POP SWAP2 SWAP1 POP JUMP JUMPDEST PUSH0 PUSH2 0xFFFF DUP3 AND SWAP1 POP SWAP2 SWAP1 POP JUMP JUMPDEST PUSH0 PUSH2 0x8F4 PUSH2 0x8EF PUSH2 0x8EA DUP5 PUSH2 0x8C4 JUMP JUMPDEST PUSH2 0x742 JUMP JUMPDEST PUSH2 0x8CD JUMP JUMPDEST SWAP1 POP SWAP2 SWAP1 POP JUMP JUMPDEST PUSH2 0x904 DUP2 PUSH2 0x8DA JUMP JUMPDEST DUP3 MSTORE POP POP JUMP JUMPDEST PUSH0 PUSH1 0x80 DUP3 ADD SWAP1 POP PUSH2 0x91D PUSH0 DUP4 ADD DUP8 PUSH2 0x71A JUMP JUMPDEST PUSH2 0x92A PUSH1 0x20 DUP4 ADD DUP7 PUSH2 0x6C2 JUMP JUMPDEST PUSH2 0x937 PUSH1 0x40 DUP4 ADD DUP6 PUSH2 0x71A JUMP JUMPDEST PUSH2 0x944 PUSH1 0x60 DUP4 ADD DUP5 PUSH2 0x8FB JUMP JUMPDEST SWAP6 SWAP5 POP POP POP POP POP JUMP JUMPDEST PUSH32 0x4E487B7100000000000000000000000000000000000000000000000000000000 PUSH0 MSTORE PUSH1 0x11 PUSH1 0x4 MSTORE PUSH1 0x24 PUSH0 REVERT JUMPDEST PUSH0 PUSH2 0x984 DUP3 PUSH2 0x6B9 JUMP JUMPDEST SWAP2 POP PUSH2 0x98F DUP4 PUSH2 0x6B9 JUMP JUMPDEST SWAP3 POP DUP3 DUP3 ADD SWAP1 POP DUP1 DUP3 GT ISZERO PUSH2 0x9A7 JUMPI PUSH2 0x9A6 PUSH2 0x94D JUMP JUMPDEST JUMPDEST SWAP3 SWAP2 POP POP JUMP JUMPDEST PUSH0 DUP2 MLOAD SWAP1 POP PUSH2 0x9BB DUP2 PUSH2 0x7BA JUMP JUMPDEST SWAP3 SWAP2 POP POP JUMP JUMPDEST PUSH0 PUSH1 0x20 DUP3 DUP5 SUB SLT ISZERO PUSH2 0x9D6 JUMPI PUSH2 0x9D5 PUSH2 0x7B6 JUMP JUMPDEST JUMPDEST PUSH0 PUSH2 0x9E3 DUP5 DUP3 DUP6 ADD PUSH2 0x9AD JUMP JUMPDEST SWAP2 POP POP SWAP3 SWAP2 POP POP JUMP JUMPDEST PUSH32 0x4E6F2066756E6473206465706F73697465642079657400000000000000000000 PUSH0 DUP3 ADD MSTORE POP JUMP JUMPDEST PUSH0 PUSH2 0xA20 PUSH1 0x16 DUP4 PUSH2 0x84C JUMP JUMPDEST SWAP2 POP PUSH2 0xA2B DUP3 PUSH2 0x9EC JUMP JUMPDEST PUSH1 0x20 DUP3 ADD SWAP1 POP SWAP2 SWAP1 POP JUMP JUMPDEST PUSH0 PUSH1 0x20 DUP3 ADD SWAP1 POP DUP2 DUP2 SUB PUSH0 DUP4 ADD MSTORE PUSH2 0xA4D DUP2 PUSH2 0xA14 JUMP JUMPDEST SWAP1 POP SWAP2 SWAP1 POP JUMP JUMPDEST PUSH0 PUSH2 0xA5E DUP3 PUSH2 0x6B9 JUMP JUMPDEST SWAP2 POP PUSH2 0xA69 DUP4 PUSH2 0x6B9 JUMP JUMPDEST SWAP3 POP DUP3 DUP3 SUB SWAP1 POP DUP2 DUP2 GT ISZERO PUSH2 0xA81 JUMPI PUSH2 0xA80 PUSH2 0x94D JUMP JUMPDEST JUMPDEST SWAP3 SWAP2 POP POP JUMP JUMPDEST PUSH32 0x4F6E6C79206F776E65722063616E2063616C6C20746869730000000000000000 PUSH0 DUP3 ADD MSTORE POP JUMP JUMPDEST PUSH0 PUSH2 0xABB PUSH1 0x18 DUP4 PUSH2 0x84C JUMP JUMPDEST SWAP2 POP PUSH2 0xAC6 DUP3 PUSH2 0xA87 JUMP JUMPDEST PUSH1 0x20 DUP3 ADD SWAP1 POP SWAP2 SWAP1 POP JUMP JUMPDEST PUSH0 PUSH1 0x20 DUP3 ADD SWAP1 POP DUP2 DUP2 SUB PUSH0 DUP4 ADD MSTORE PUSH2 0xAE8 DUP2 PUSH2 0xAAF JUMP JUMPDEST SWAP1 POP SWAP2 SWAP1 POP JUMP JUMPDEST PUSH32 0x496E76616C696420726563697069656E74206164647265737300000000000000 PUSH0 DUP3 ADD MSTORE POP JUMP JUMPDEST PUSH0 PUSH2 0xB23 PUSH1 0x19 DUP4 PUSH2 0x84C JUMP JUMPDEST SWAP2 POP PUSH2 0xB2E DUP3 PUSH2 0xAEF JUMP JUMPDEST PUSH1 0x20 DUP3 ADD SWAP1 POP SWAP2 SWAP1 POP JUMP JUMPDEST PUSH0 PUSH1 0x20 DUP3 ADD SWAP1 POP DUP2 DUP2 SUB PUSH0 DUP4 ADD MSTORE PUSH2 0xB50 DUP2 PUSH2 0xB17 JUMP JUMPDEST SWAP1 POP SWAP2 SWAP1 POP JUMP JUMPDEST PUSH0 PUSH1 0x60 DUP3 ADD SWAP1 POP PUSH2 0xB6A PUSH0 DUP4 ADD DUP7 PUSH2 0x71A JUMP JUMPDEST PUSH2 0xB77 PUSH1 0x20 DUP4 ADD DUP6 PUSH2 0x6C2 JUMP JUMPDEST PUSH2 0xB84 PUSH1 0x40 DUP4 ADD DUP5 PUSH2 0x71A JUMP JUMPDEST SWAP5 SWAP4 POP POP POP POP JUMP INVALID LOG2 PUSH5 0x6970667358 0x22 SLT KECCAK256 0xC5 PUSH0 0xE0 SGT STATICCALL AND RETURNDATASIZE 0xE9 MULMOD LOG1 EXP 0xC4 SIGNEXTEND 0xCC ADDMOD 0xCD ADDRESS 0xFB PUSH22 0xA2B533EE663695726A2D009C3364736F6C634300081C STOP CALLER "
				},
				"gasEstimates": {
					"creation": {
						"codeDepositCost": "602000",
						"executionCost": "infinite",
						"totalCost": "infinite"
					},
					"external": {
						"": "151",
						"WETH()": "infinite",
						"aavePool()": "infinite",
						"collectInterest()": "infinite",
						"lendFunds()": "infinite",
						"owner()": "2552",
						"retrieveLentFunds(uint256,address)": "infinite",
						"totalDeposited()": "2491"
					}
				},
				"methodIdentifiers": {
					"WETH()": "ad5c4648",
					"aavePool()": "a03e4bc3",
					"collectInterest()": "2a2fab22",
					"lendFunds()": "1a878577",
					"owner()": "8da5cb5b",
					"retrieveLentFunds(uint256,address)": "da75793a",
					"totalDeposited()": "ff50abdc"
				}
			},
			"storageLayout": {
				"storage": [
					{
						"astId": 62,
						"contract": "Contracts/AaveLendingProcessor.sol:AaveLendingProcessor",
						"label": "owner",
						"offset": 0,
						"slot": "0",
						"type": "t_address"
					},
					{
						"astId": 69,
						"contract": "Contracts/AaveLendingProcessor.sol:AaveLendingProcessor",
						"label": "totalDeposited",
						"offset": 0,
						"slot": "1",
						"type": "t_uint256"
					}
				],
				"types": {
					"t_address": {
						"encoding": "inplace",
						"label": "address",
						"numberOfBytes": "20"
					},
					"t_uint256": {
						"encoding": "inplace",
						"label": "uint256",
						"numberOfBytes": "32"
					}
				}
			},
			"userdoc": {
				"kind": "user",
				"methods": {},
				"version": 1
			}
		}
	}
}