{
	"Contracts/PaymentProcessingDemo.sol": {
		"PaymentProcessor": {
			"abi": [
				{
					"inputs": [
						{
							"internalType": "address",
							"name": "_aaveLendingProcessor",
							"type": "address"
						}
					],
					"stateMutability": "nonpayable",
					"type": "constructor"
				},
				{
					"anonymous": false,
					"inputs": [
						{
							"indexed": false,
							"internalType": "uint256",
							"name": "amount",
							"type": "uint256"
						}
					],
					"name": "FundsLentToAave",
					"type": "event"
				},
				{
					"anonymous": false,
					"inputs": [
						{
							"indexed": false,
							"internalType": "uint256",
							"name": "amount",
							"type": "uint256"
						},
						{
							"indexed": false,
							"internalType": "address",
							"name": "sender",
							"type": "address"
						}
					],
					"name": "FundsReceived",
					"type": "event"
				},
				{
					"anonymous": false,
					"inputs": [
						{
							"indexed": false,
							"internalType": "uint256",
							"name": "amount",
							"type": "uint256"
						}
					],
					"name": "FundsRetrievedFromAave",
					"type": "event"
				},
				{
					"anonymous": false,
					"inputs": [
						{
							"indexed": true,
							"internalType": "address",
							"name": "merchant",
							"type": "address"
						},
						{
							"indexed": false,
							"internalType": "uint256",
							"name": "amount",
							"type": "uint256"
						},
						{
							"indexed": true,
							"internalType": "address",
							"name": "recipient",
							"type": "address"
						}
					],
					"name": "FundsWithdrawn",
					"type": "event"
				},
				{
					"anonymous": false,
					"inputs": [
						{
							"indexed": true,
							"internalType": "address",
							"name": "merchant",
							"type": "address"
						},
						{
							"indexed": false,
							"internalType": "uint256",
							"name": "merchantId",
							"type": "uint256"
						},
						{
							"indexed": false,
							"internalType": "address",
							"name": "custodialWallet",
							"type": "address"
						}
					],
					"name": "MerchantRegistered",
					"type": "event"
				},
				{
					"anonymous": false,
					"inputs": [
						{
							"indexed": true,
							"internalType": "address",
							"name": "merchant",
							"type": "address"
						},
						{
							"indexed": true,
							"internalType": "address",
							"name": "customer",
							"type": "address"
						},
						{
							"indexed": false,
							"internalType": "uint256",
							"name": "amount",
							"type": "uint256"
						}
					],
					"name": "PaymentProcessed",
					"type": "event"
				},
				{
					"stateMutability": "payable",
					"type": "fallback"
				},
				{
					"inputs": [],
					"name": "aaveLendingProcessor",
					"outputs": [
						{
							"internalType": "contract IAaveLendingProcessor",
							"name": "",
							"type": "address"
						}
					],
					"stateMutability": "view",
					"type": "function"
				},
				{
					"inputs": [],
					"name": "collectAaveInterest",
					"outputs": [],
					"stateMutability": "view",
					"type": "function"
				},
				{
					"inputs": [],
					"name": "emergencyWithdraw",
					"outputs": [],
					"stateMutability": "nonpayable",
					"type": "function"
				},
				{
					"inputs": [
						{
							"internalType": "uint256",
							"name": "_merchantId",
							"type": "uint256"
						}
					],
					"name": "getMerchantById",
					"outputs": [
						{
							"components": [
								{
									"internalType": "uint256",
									"name": "merchantId",
									"type": "uint256"
								},
								{
									"internalType": "string",
									"name": "merchantName",
									"type": "string"
								},
								{
									"internalType": "address",
									"name": "custodialWallet",
									"type": "address"
								},
								{
									"internalType": "uint256",
									"name": "balance",
									"type": "uint256"
								},
								{
									"internalType": "bool",
									"name": "isRegistered",
									"type": "bool"
								}
							],
							"internalType": "struct PaymentProcessor.Merchant",
							"name": "",
							"type": "tuple"
						}
					],
					"stateMutability": "view",
					"type": "function"
				},
				{
					"inputs": [
						{
							"internalType": "address payable",
							"name": "_customer",
							"type": "address"
						},
						{
							"internalType": "uint256",
							"name": "_amount",
							"type": "uint256"
						}
					],
					"name": "issueRefund",
					"outputs": [],
					"stateMutability": "nonpayable",
					"type": "function"
				},
				{
					"inputs": [],
					"name": "lendFundsBatch",
					"outputs": [],
					"stateMutability": "nonpayable",
					"type": "function"
				},
				{
					"inputs": [],
					"name": "owner",
					"outputs": [
						{
							"internalType": "address",
							"name": "",
							"type": "address"
						}
					],
					"stateMutability": "view",
					"type": "function"
				},
				{
					"inputs": [
						{
							"internalType": "address",
							"name": "_merchant",
							"type": "address"
						}
					],
					"name": "processPayment",
					"outputs": [],
					"stateMutability": "payable",
					"type": "function"
				},
				{
					"inputs": [
						{
							"internalType": "string",
							"name": "_merchantName",
							"type": "string"
						},
						{
							"internalType": "address",
							"name": "_custodialWallet",
							"type": "address"
						}
					],
					"name": "registerMerchant",
					"outputs": [],
					"stateMutability": "nonpayable",
					"type": "function"
				},
				{
					"inputs": [
						{
							"internalType": "uint256",
							"name": "amount",
							"type": "uint256"
						}
					],
					"name": "requestRetrieveFunds",
					"outputs": [],
					"stateMutability": "nonpayable",
					"type": "function"
				},
				{
					"inputs": [
						{
							"internalType": "uint256",
							"name": "amount",
							"type": "uint256"
						}
					],
					"name": "retrieveLentFundsBatch",
					"outputs": [],
					"stateMutability": "nonpayable",
					"type": "function"
				},
				{
					"inputs": [
						{
							"internalType": "uint256",
							"name": "_newLendingThreshold",
							"type": "uint256"
						}
					],
					"name": "setLendingThreshold",
					"outputs": [],
					"stateMutability": "nonpayable",
					"type": "function"
				},
				{
					"inputs": [
						{
							"internalType": "uint256",
							"name": "_newRetrieveThreshold",
							"type": "uint256"
						}
					],
					"name": "setRetrieveThreshold",
					"outputs": [],
					"stateMutability": "nonpayable",
					"type": "function"
				},
				{
					"inputs": [
						{
							"internalType": "address payable",
							"name": "_recipient",
							"type": "address"
						},
						{
							"internalType": "uint256",
							"name": "amount",
							"type": "uint256"
						}
					],
					"name": "withdrawFunds",
					"outputs": [],
					"stateMutability": "nonpayable",
					"type": "function"
				},
				{
					"stateMutability": "payable",
					"type": "receive"
				}
			],
			"devdoc": {
				"kind": "dev",
				"methods": {},
				"version": 1
			},
			"evm": {
				"assembly": "    /* \"Contracts/PaymentProcessingDemo.sol\":314:7030  contract PaymentProcessor {... */\n  mstore(0x40, 0xa0)\n    /* \"Contracts/PaymentProcessingDemo.sol\":597:604  1 ether */\n  0x0de0b6b3a7640000\n    /* \"Contracts/PaymentProcessingDemo.sol\":570:604  uint256 lendingThreshold = 1 ether */\n  0x03\n  sstore\n    /* \"Contracts/PaymentProcessingDemo.sol\":638:645  1 ether */\n  0x0de0b6b3a7640000\n    /* \"Contracts/PaymentProcessingDemo.sol\":610:645  uint256 retrieveThreshold = 1 ether */\n  0x04\n  sstore\n    /* \"Contracts/PaymentProcessingDemo.sol\":2009:2192  constructor(address _aaveLendingProcessor) {... */\n  callvalue\n  dup1\n  iszero\n  tag_1\n  jumpi\n  revert(0x00, 0x00)\ntag_1:\n  pop\n  mload(0x40)\n  sub(codesize, bytecodeSize)\n  dup1\n  bytecodeSize\n  dup4\n  codecopy\n  dup2\n  dup2\n  add\n  0x40\n  mstore\n  dup2\n  add\n  swap1\n  tag_2\n  swap2\n  swap1\n  tag_3\n  jump\t// in\ntag_2:\n    /* \"Contracts/PaymentProcessingDemo.sol\":2070:2080  msg.sender */\n  caller\n    /* \"Contracts/PaymentProcessingDemo.sol\":2062:2067  owner */\n  0x00\n  0x00\n    /* \"Contracts/PaymentProcessingDemo.sol\":2062:2080  owner = msg.sender */\n  0x0100\n  exp\n  dup2\n  sload\n  dup2\n  0xffffffffffffffffffffffffffffffffffffffff\n  mul\n  not\n  and\n  swap1\n  dup4\n  0xffffffffffffffffffffffffffffffffffffffff\n  and\n  mul\n  or\n  swap1\n  sstore\n  pop\n    /* \"Contracts/PaymentProcessingDemo.sol\":2107:2108  1 */\n  0x01\n    /* \"Contracts/PaymentProcessingDemo.sol\":2090:2104  nextMerchantId */\n  0x07\n    /* \"Contracts/PaymentProcessingDemo.sol\":2090:2108  nextMerchantId = 1 */\n  dup2\n  swap1\n  sstore\n  pop\n    /* \"Contracts/PaymentProcessingDemo.sol\":2163:2184  _aaveLendingProcessor */\n  dup1\n    /* \"Contracts/PaymentProcessingDemo.sol\":2118:2185  aaveLendingProcessor = IAaveLendingProcessor(_aaveLendingProcessor) */\n  0xffffffffffffffffffffffffffffffffffffffff\n  and\n  0x80\n  dup2\n  0xffffffffffffffffffffffffffffffffffffffff\n  and\n  dup2\n  mstore\n  pop\n  pop\n    /* \"Contracts/PaymentProcessingDemo.sol\":2009:2192  constructor(address _aaveLendingProcessor) {... */\n  pop\n    /* \"Contracts/PaymentProcessingDemo.sol\":314:7030  contract PaymentProcessor {... */\n  jump(tag_6)\n    /* \"#utility.yul\":88:205   */\ntag_8:\n    /* \"#utility.yul\":197:198   */\n  0x00\n    /* \"#utility.yul\":194:195   */\n  0x00\n    /* \"#utility.yul\":187:199   */\n  revert\n    /* \"#utility.yul\":334:460   */\ntag_10:\n    /* \"#utility.yul\":371:378   */\n  0x00\n    /* \"#utility.yul\":411:453   */\n  0xffffffffffffffffffffffffffffffffffffffff\n    /* \"#utility.yul\":404:409   */\n  dup3\n    /* \"#utility.yul\":400:454   */\n  and\n    /* \"#utility.yul\":389:454   */\n  swap1\n  pop\n    /* \"#utility.yul\":334:460   */\n  swap2\n  swap1\n  pop\n  jump\t// out\n    /* \"#utility.yul\":466:562   */\ntag_11:\n    /* \"#utility.yul\":503:510   */\n  0x00\n    /* \"#utility.yul\":532:556   */\n  tag_20\n    /* \"#utility.yul\":550:555   */\n  dup3\n    /* \"#utility.yul\":532:556   */\n  tag_10\n  jump\t// in\ntag_20:\n    /* \"#utility.yul\":521:556   */\n  swap1\n  pop\n    /* \"#utility.yul\":466:562   */\n  swap2\n  swap1\n  pop\n  jump\t// out\n    /* \"#utility.yul\":568:690   */\ntag_12:\n    /* \"#utility.yul\":641:665   */\n  tag_22\n    /* \"#utility.yul\":659:664   */\n  dup2\n    /* \"#utility.yul\":641:665   */\n  tag_11\n  jump\t// in\ntag_22:\n    /* \"#utility.yul\":634:639   */\n  dup2\n    /* \"#utility.yul\":631:666   */\n  eq\n    /* \"#utility.yul\":621:684   */\n  tag_23\n  jumpi\n    /* \"#utility.yul\":680:681   */\n  0x00\n    /* \"#utility.yul\":677:678   */\n  0x00\n    /* \"#utility.yul\":670:682   */\n  revert\n    /* \"#utility.yul\":621:684   */\ntag_23:\n    /* \"#utility.yul\":568:690   */\n  pop\n  jump\t// out\n    /* \"#utility.yul\":696:839   */\ntag_13:\n    /* \"#utility.yul\":753:758   */\n  0x00\n    /* \"#utility.yul\":784:790   */\n  dup2\n    /* \"#utility.yul\":778:791   */\n  mload\n    /* \"#utility.yul\":769:791   */\n  swap1\n  pop\n    /* \"#utility.yul\":800:833   */\n  tag_25\n    /* \"#utility.yul\":827:832   */\n  dup2\n    /* \"#utility.yul\":800:833   */\n  tag_12\n  jump\t// in\ntag_25:\n    /* \"#utility.yul\":696:839   */\n  swap3\n  swap2\n  pop\n  pop\n  jump\t// out\n    /* \"#utility.yul\":845:1196   */\ntag_3:\n    /* \"#utility.yul\":915:921   */\n  0x00\n    /* \"#utility.yul\":964:966   */\n  0x20\n    /* \"#utility.yul\":952:961   */\n  dup3\n    /* \"#utility.yul\":943:950   */\n  dup5\n    /* \"#utility.yul\":939:962   */\n  sub\n    /* \"#utility.yul\":935:967   */\n  slt\n    /* \"#utility.yul\":932:1051   */\n  iszero\n  tag_27\n  jumpi\n    /* \"#utility.yul\":970:1049   */\n  tag_28\n  tag_8\n  jump\t// in\ntag_28:\n    /* \"#utility.yul\":932:1051   */\ntag_27:\n    /* \"#utility.yul\":1090:1091   */\n  0x00\n    /* \"#utility.yul\":1115:1179   */\n  tag_29\n    /* \"#utility.yul\":1171:1178   */\n  dup5\n    /* \"#utility.yul\":1162:1168   */\n  dup3\n    /* \"#utility.yul\":1151:1160   */\n  dup6\n    /* \"#utility.yul\":1147:1169   */\n  add\n    /* \"#utility.yul\":1115:1179   */\n  tag_13\n  jump\t// in\ntag_29:\n    /* \"#utility.yul\":1105:1179   */\n  swap2\n  pop\n    /* \"#utility.yul\":1061:1189   */\n  pop\n    /* \"#utility.yul\":845:1196   */\n  swap3\n  swap2\n  pop\n  pop\n  jump\t// out\n    /* \"Contracts/PaymentProcessingDemo.sol\":314:7030  contract PaymentProcessor {... */\ntag_6:\n  mload(0x80)\n  codecopy(0x00, dataOffset(sub_0), dataSize(sub_0))\n  0x00\n  assignImmutable(\"0x37d821c64038a6deccb23b3e33cd7d06b5e697ef7f88117a0f085a4c624de237\")\n  return(0x00, dataSize(sub_0))\nstop\n\nsub_0: assembly {\n        /* \"Contracts/PaymentProcessingDemo.sol\":314:7030  contract PaymentProcessor {... */\n      mstore(0x40, 0x80)\n      jumpi(tag_1, lt(calldatasize, 0x04))\n      shr(0xe0, calldataload(0x00))\n      dup1\n      0x8da5cb5b\n      gt\n      tag_17\n      jumpi\n      dup1\n      0xabe0cd0c\n      gt\n      tag_18\n      jumpi\n      dup1\n      0xabe0cd0c\n      eq\n      tag_13\n      jumpi\n      dup1\n      0xc1075329\n      eq\n      tag_14\n      jumpi\n      dup1\n      0xdb2e21bc\n      eq\n      tag_15\n      jumpi\n      dup1\n      0xf0ab8fe2\n      eq\n      tag_16\n      jumpi\n      jump(tag_2)\n    tag_18:\n      dup1\n      0x8da5cb5b\n      eq\n      tag_10\n      jumpi\n      dup1\n      0x8fe123d7\n      eq\n      tag_11\n      jumpi\n      dup1\n      0x9e625183\n      eq\n      tag_12\n      jumpi\n      jump(tag_2)\n    tag_17:\n      dup1\n      0x668e8024\n      gt\n      tag_19\n      jumpi\n      dup1\n      0x668e8024\n      eq\n      tag_6\n      jumpi\n      dup1\n      0x738005aa\n      eq\n      tag_7\n      jumpi\n      dup1\n      0x7ae1009c\n      eq\n      tag_8\n      jumpi\n      dup1\n      0x7ee0456f\n      eq\n      tag_9\n      jumpi\n      jump(tag_2)\n    tag_19:\n      dup1\n      0x1d210cd2\n      eq\n      tag_3\n      jumpi\n      dup1\n      0x3b071872\n      eq\n      tag_4\n      jumpi\n      dup1\n      0x5641df95\n      eq\n      tag_5\n      jumpi\n      jump(tag_2)\n    tag_1:\n      jumpi(tag_2, calldatasize)\n        /* \"Contracts/PaymentProcessingDemo.sol\":6868:6904  FundsReceived(msg.value, msg.sender) */\n      0xa0b6ed69c727bcce4cfdf30bc2777d7b7007d936b4a4dea135cbf6622fe4a58c\n        /* \"Contracts/PaymentProcessingDemo.sol\":6882:6891  msg.value */\n      callvalue\n        /* \"Contracts/PaymentProcessingDemo.sol\":6893:6903  msg.sender */\n      caller\n        /* \"Contracts/PaymentProcessingDemo.sol\":6868:6904  FundsReceived(msg.value, msg.sender) */\n      mload(0x40)\n      tag_22\n      swap3\n      swap2\n      swap1\n      tag_23\n      jump\t// in\n    tag_22:\n      mload(0x40)\n      dup1\n      swap2\n      sub\n      swap1\n      log1\n        /* \"Contracts/PaymentProcessingDemo.sol\":314:7030  contract PaymentProcessor {... */\n    tag_2:\n      stop\n        /* \"Contracts/PaymentProcessingDemo.sol\":4998:5287  function getMerchantById(uint256 _merchantId) external view onlyOwner returns (Merchant memory) {... */\n    tag_3:\n      callvalue\n      dup1\n      iszero\n      tag_26\n      jumpi\n      revert(0x00, 0x00)\n    tag_26:\n      pop\n      tag_27\n      0x04\n      dup1\n      calldatasize\n      sub\n      dup2\n      add\n      swap1\n      tag_28\n      swap2\n      swap1\n      tag_29\n      jump\t// in\n    tag_28:\n      tag_30\n      jump\t// in\n    tag_27:\n      mload(0x40)\n      tag_31\n      swap2\n      swap1\n      tag_32\n      jump\t// in\n    tag_31:\n      mload(0x40)\n      dup1\n      swap2\n      sub\n      swap1\n      return\n        /* \"Contracts/PaymentProcessingDemo.sol\":5604:6109  function lendFundsBatch() external onlyOwner {... */\n    tag_4:\n      callvalue\n      dup1\n      iszero\n      tag_33\n      jumpi\n      revert(0x00, 0x00)\n    tag_33:\n      pop\n      tag_34\n      tag_35\n      jump\t// in\n    tag_34:\n      stop\n        /* \"Contracts/PaymentProcessingDemo.sol\":729:863  function setLendingThreshold(uint256 _newLendingThreshold) external onlyOwner {... */\n    tag_5:\n      callvalue\n      dup1\n      iszero\n      tag_36\n      jumpi\n      revert(0x00, 0x00)\n    tag_36:\n      pop\n      tag_37\n      0x04\n      dup1\n      calldatasize\n      sub\n      dup2\n      add\n      swap1\n      tag_38\n      swap2\n      swap1\n      tag_29\n      jump\t// in\n    tag_38:\n      tag_39\n      jump\t// in\n    tag_37:\n      stop\n        /* \"Contracts/PaymentProcessingDemo.sol\":4717:4992  function requestRetrieveFunds(uint256 amount) external onlyMerchant {... */\n    tag_6:\n      callvalue\n      dup1\n      iszero\n      tag_40\n      jumpi\n      revert(0x00, 0x00)\n    tag_40:\n      pop\n      tag_41\n      0x04\n      dup1\n      calldatasize\n      sub\n      dup2\n      add\n      swap1\n      tag_42\n      swap2\n      swap1\n      tag_29\n      jump\t// in\n    tag_42:\n      tag_43\n      jump\t// in\n    tag_41:\n      stop\n        /* \"Contracts/PaymentProcessingDemo.sol\":3054:3850  function issueRefund(address payable _customer, uint256 _amount) external onlyMerchant {... */\n    tag_7:\n      callvalue\n      dup1\n      iszero\n      tag_44\n      jumpi\n      revert(0x00, 0x00)\n    tag_44:\n      pop\n      tag_45\n      0x04\n      dup1\n      calldatasize\n      sub\n      dup2\n      add\n      swap1\n      tag_46\n      swap2\n      swap1\n      tag_47\n      jump\t// in\n    tag_46:\n      tag_48\n      jump\t// in\n    tag_45:\n      stop\n        /* \"Contracts/PaymentProcessingDemo.sol\":869:1007  function setRetrieveThreshold(uint256 _newRetrieveThreshold) external onlyOwner {... */\n    tag_8:\n      callvalue\n      dup1\n      iszero\n      tag_49\n      jumpi\n      revert(0x00, 0x00)\n    tag_49:\n      pop\n      tag_50\n      0x04\n      dup1\n      calldatasize\n      sub\n      dup2\n      add\n      swap1\n      tag_51\n      swap2\n      swap1\n      tag_29\n      jump\t// in\n    tag_51:\n      tag_52\n      jump\t// in\n    tag_50:\n      stop\n        /* \"Contracts/PaymentProcessingDemo.sol\":382:441  IAaveLendingProcessor public immutable aaveLendingProcessor */\n    tag_9:\n      callvalue\n      dup1\n      iszero\n      tag_53\n      jumpi\n      revert(0x00, 0x00)\n    tag_53:\n      pop\n      tag_54\n      tag_55\n      jump\t// in\n    tag_54:\n      mload(0x40)\n      tag_56\n      swap2\n      swap1\n      tag_57\n      jump\t// in\n    tag_56:\n      mload(0x40)\n      dup1\n      swap2\n      sub\n      swap1\n      return\n        /* \"Contracts/PaymentProcessingDemo.sol\":351:371  address public owner */\n    tag_10:\n      callvalue\n      dup1\n      iszero\n      tag_58\n      jumpi\n      revert(0x00, 0x00)\n    tag_58:\n      pop\n      tag_59\n      tag_60\n      jump\t// in\n    tag_59:\n      mload(0x40)\n      tag_61\n      swap2\n      swap1\n      tag_62\n      jump\t// in\n    tag_61:\n      mload(0x40)\n      dup1\n      swap2\n      sub\n      swap1\n      return\n        /* \"Contracts/PaymentProcessingDemo.sol\":2709:3048  function processPayment(address _merchant) external payable {... */\n    tag_11:\n      tag_63\n      0x04\n      dup1\n      calldatasize\n      sub\n      dup2\n      add\n      swap1\n      tag_64\n      swap2\n      swap1\n      tag_65\n      jump\t// in\n    tag_64:\n      tag_66\n      jump\t// in\n    tag_63:\n      stop\n        /* \"Contracts/PaymentProcessingDemo.sol\":6147:6783  function retrieveLentFundsBatch(uint256 amount) external onlyOwner {... */\n    tag_12:\n      callvalue\n      dup1\n      iszero\n      tag_67\n      jumpi\n      revert(0x00, 0x00)\n    tag_67:\n      pop\n      tag_68\n      0x04\n      dup1\n      calldatasize\n      sub\n      dup2\n      add\n      swap1\n      tag_69\n      swap2\n      swap1\n      tag_29\n      jump\t// in\n    tag_69:\n      tag_70\n      jump\t// in\n    tag_68:\n      stop\n        /* \"Contracts/PaymentProcessingDemo.sol\":2198:2703  function registerMerchant(string memory _merchantName, address _custodialWallet) external onlyOwner {... */\n    tag_13:\n      callvalue\n      dup1\n      iszero\n      tag_71\n      jumpi\n      revert(0x00, 0x00)\n    tag_71:\n      pop\n      tag_72\n      0x04\n      dup1\n      calldatasize\n      sub\n      dup2\n      add\n      swap1\n      tag_73\n      swap2\n      swap1\n      tag_74\n      jump\t// in\n    tag_73:\n      tag_75\n      jump\t// in\n    tag_72:\n      stop\n        /* \"Contracts/PaymentProcessingDemo.sol\":3927:4408  function withdrawFunds(address payable _recipient, uint256 amount) external onlyMerchant {... */\n    tag_14:\n      callvalue\n      dup1\n      iszero\n      tag_76\n      jumpi\n      revert(0x00, 0x00)\n    tag_76:\n      pop\n      tag_77\n      0x04\n      dup1\n      calldatasize\n      sub\n      dup2\n      add\n      swap1\n      tag_78\n      swap2\n      swap1\n      tag_47\n      jump\t// in\n    tag_78:\n      tag_79\n      jump\t// in\n    tag_77:\n      stop\n        /* \"Contracts/PaymentProcessingDemo.sol\":4414:4711  function emergencyWithdraw() external onlyOwner {... */\n    tag_15:\n      callvalue\n      dup1\n      iszero\n      tag_80\n      jumpi\n      revert(0x00, 0x00)\n    tag_80:\n      pop\n      tag_81\n      tag_82\n      jump\t// in\n    tag_81:\n      stop\n        /* \"Contracts/PaymentProcessingDemo.sol\":5293:5568  function collectAaveInterest() external view onlyOwner {... */\n    tag_16:\n      callvalue\n      dup1\n      iszero\n      tag_83\n      jumpi\n      revert(0x00, 0x00)\n    tag_83:\n      pop\n      tag_84\n      tag_85\n      jump\t// in\n    tag_84:\n      stop\n        /* \"Contracts/PaymentProcessingDemo.sol\":4998:5287  function getMerchantById(uint256 _merchantId) external view onlyOwner returns (Merchant memory) {... */\n    tag_30:\n        /* \"Contracts/PaymentProcessingDemo.sol\":5077:5092  Merchant memory */\n      tag_86\n      tag_87\n      jump\t// in\n    tag_86:\n        /* \"Contracts/PaymentProcessingDemo.sol\":1798:1803  owner */\n      0x00\n      0x00\n      swap1\n      sload\n      swap1\n      0x0100\n      exp\n      swap1\n      div\n      0xffffffffffffffffffffffffffffffffffffffff\n      and\n        /* \"Contracts/PaymentProcessingDemo.sol\":1784:1803  msg.sender == owner */\n      0xffffffffffffffffffffffffffffffffffffffff\n      and\n        /* \"Contracts/PaymentProcessingDemo.sol\":1784:1794  msg.sender */\n      caller\n        /* \"Contracts/PaymentProcessingDemo.sol\":1784:1803  msg.sender == owner */\n      0xffffffffffffffffffffffffffffffffffffffff\n      and\n      eq\n        /* \"Contracts/PaymentProcessingDemo.sol\":1776:1841  require(msg.sender == owner, \"Only owner can call this function\") */\n      tag_89\n      jumpi\n      mload(0x40)\n      0x08c379a000000000000000000000000000000000000000000000000000000000\n      dup2\n      mstore\n      0x04\n      add\n      tag_90\n      swap1\n      tag_91\n      jump\t// in\n    tag_90:\n      mload(0x40)\n      dup1\n      swap2\n      sub\n      swap1\n      revert\n    tag_89:\n        /* \"Contracts/PaymentProcessingDemo.sol\":5104:5127  address merchantAddress */\n      0x00\n        /* \"Contracts/PaymentProcessingDemo.sol\":5130:5141  merchantIds */\n      0x06\n        /* \"Contracts/PaymentProcessingDemo.sol\":5130:5154  merchantIds[_merchantId] */\n      0x00\n        /* \"Contracts/PaymentProcessingDemo.sol\":5142:5153  _merchantId */\n      dup5\n        /* \"Contracts/PaymentProcessingDemo.sol\":5130:5154  merchantIds[_merchantId] */\n      dup2\n      mstore\n      0x20\n      add\n      swap1\n      dup2\n      mstore\n      0x20\n      add\n      0x00\n      keccak256\n      0x00\n      swap1\n      sload\n      swap1\n      0x0100\n      exp\n      swap1\n      div\n      0xffffffffffffffffffffffffffffffffffffffff\n      and\n        /* \"Contracts/PaymentProcessingDemo.sol\":5104:5154  address merchantAddress = merchantIds[_merchantId] */\n      swap1\n      pop\n        /* \"Contracts/PaymentProcessingDemo.sol\":5172:5181  merchants */\n      0x05\n        /* \"Contracts/PaymentProcessingDemo.sol\":5172:5198  merchants[merchantAddress] */\n      0x00\n        /* \"Contracts/PaymentProcessingDemo.sol\":5182:5197  merchantAddress */\n      dup3\n        /* \"Contracts/PaymentProcessingDemo.sol\":5172:5198  merchants[merchantAddress] */\n      0xffffffffffffffffffffffffffffffffffffffff\n      and\n      0xffffffffffffffffffffffffffffffffffffffff\n      and\n      dup2\n      mstore\n      0x20\n      add\n      swap1\n      dup2\n      mstore\n      0x20\n      add\n      0x00\n      keccak256\n        /* \"Contracts/PaymentProcessingDemo.sol\":5172:5211  merchants[merchantAddress].isRegistered */\n      0x04\n      add\n      0x00\n      swap1\n      sload\n      swap1\n      0x0100\n      exp\n      swap1\n      div\n      0xff\n      and\n        /* \"Contracts/PaymentProcessingDemo.sol\":5164:5237  require(merchants[merchantAddress].isRegistered, \"Merchant ID not found\") */\n      tag_93\n      jumpi\n      mload(0x40)\n      0x08c379a000000000000000000000000000000000000000000000000000000000\n      dup2\n      mstore\n      0x04\n      add\n      tag_94\n      swap1\n      tag_95\n      jump\t// in\n    tag_94:\n      mload(0x40)\n      dup1\n      swap2\n      sub\n      swap1\n      revert\n    tag_93:\n        /* \"Contracts/PaymentProcessingDemo.sol\":5254:5263  merchants */\n      0x05\n        /* \"Contracts/PaymentProcessingDemo.sol\":5254:5280  merchants[merchantAddress] */\n      0x00\n        /* \"Contracts/PaymentProcessingDemo.sol\":5264:5279  merchantAddress */\n      dup3\n        /* \"Contracts/PaymentProcessingDemo.sol\":5254:5280  merchants[merchantAddress] */\n      0xffffffffffffffffffffffffffffffffffffffff\n      and\n      0xffffffffffffffffffffffffffffffffffffffff\n      and\n      dup2\n      mstore\n      0x20\n      add\n      swap1\n      dup2\n      mstore\n      0x20\n      add\n      0x00\n      keccak256\n        /* \"Contracts/PaymentProcessingDemo.sol\":5247:5280  return merchants[merchantAddress] */\n      mload(0x40)\n      dup1\n      0xa0\n      add\n      0x40\n      mstore\n      swap1\n      dup2\n      0x00\n      dup3\n      add\n      sload\n      dup2\n      mstore\n      0x20\n      add\n      0x01\n      dup3\n      add\n      dup1\n      sload\n      tag_96\n      swap1\n      tag_97\n      jump\t// in\n    tag_96:\n      dup1\n      0x1f\n      add\n      0x20\n      dup1\n      swap2\n      div\n      mul\n      0x20\n      add\n      mload(0x40)\n      swap1\n      dup2\n      add\n      0x40\n      mstore\n      dup1\n      swap3\n      swap2\n      swap1\n      dup2\n      dup2\n      mstore\n      0x20\n      add\n      dup3\n      dup1\n      sload\n      tag_98\n      swap1\n      tag_97\n      jump\t// in\n    tag_98:\n      dup1\n      iszero\n      tag_99\n      jumpi\n      dup1\n      0x1f\n      lt\n      tag_100\n      jumpi\n      0x0100\n      dup1\n      dup4\n      sload\n      div\n      mul\n      dup4\n      mstore\n      swap2\n      0x20\n      add\n      swap2\n      jump(tag_99)\n    tag_100:\n      dup3\n      add\n      swap2\n      swap1\n      0x00\n      mstore\n      keccak256(0x00, 0x20)\n      swap1\n    tag_101:\n      dup2\n      sload\n      dup2\n      mstore\n      swap1\n      0x01\n      add\n      swap1\n      0x20\n      add\n      dup1\n      dup4\n      gt\n      tag_101\n      jumpi\n      dup3\n      swap1\n      sub\n      0x1f\n      and\n      dup3\n      add\n      swap2\n    tag_99:\n      pop\n      pop\n      pop\n      pop\n      pop\n      dup2\n      mstore\n      0x20\n      add\n      0x02\n      dup3\n      add\n      0x00\n      swap1\n      sload\n      swap1\n      0x0100\n      exp\n      swap1\n      div\n      0xffffffffffffffffffffffffffffffffffffffff\n      and\n      0xffffffffffffffffffffffffffffffffffffffff\n      and\n      0xffffffffffffffffffffffffffffffffffffffff\n      and\n      dup2\n      mstore\n      0x20\n      add\n      0x03\n      dup3\n      add\n      sload\n      dup2\n      mstore\n      0x20\n      add\n      0x04\n      dup3\n      add\n      0x00\n      swap1\n      sload\n      swap1\n      0x0100\n      exp\n      swap1\n      div\n      0xff\n      and\n      iszero\n      iszero\n      iszero\n      iszero\n      dup2\n      mstore\n      pop\n      pop\n      swap2\n      pop\n      pop\n        /* \"Contracts/PaymentProcessingDemo.sol\":4998:5287  function getMerchantById(uint256 _merchantId) external view onlyOwner returns (Merchant memory) {... */\n      swap2\n      swap1\n      pop\n      jump\t// out\n        /* \"Contracts/PaymentProcessingDemo.sol\":5604:6109  function lendFundsBatch() external onlyOwner {... */\n    tag_35:\n        /* \"Contracts/PaymentProcessingDemo.sol\":1798:1803  owner */\n      0x00\n      0x00\n      swap1\n      sload\n      swap1\n      0x0100\n      exp\n      swap1\n      div\n      0xffffffffffffffffffffffffffffffffffffffff\n      and\n        /* \"Contracts/PaymentProcessingDemo.sol\":1784:1803  msg.sender == owner */\n      0xffffffffffffffffffffffffffffffffffffffff\n      and\n        /* \"Contracts/PaymentProcessingDemo.sol\":1784:1794  msg.sender */\n      caller\n        /* \"Contracts/PaymentProcessingDemo.sol\":1784:1803  msg.sender == owner */\n      0xffffffffffffffffffffffffffffffffffffffff\n      and\n      eq\n        /* \"Contracts/PaymentProcessingDemo.sol\":1776:1841  require(msg.sender == owner, \"Only owner can call this function\") */\n      tag_103\n      jumpi\n      mload(0x40)\n      0x08c379a000000000000000000000000000000000000000000000000000000000\n      dup2\n      mstore\n      0x04\n      add\n      tag_104\n      swap1\n      tag_91\n      jump\t// in\n    tag_104:\n      mload(0x40)\n      dup1\n      swap2\n      sub\n      swap1\n      revert\n    tag_103:\n        /* \"Contracts/PaymentProcessingDemo.sol\":5706:5713  1 hours */\n      0x0e10\n        /* \"Contracts/PaymentProcessingDemo.sol\":5686:5703  lastLendTimestamp */\n      sload(0x01)\n        /* \"Contracts/PaymentProcessingDemo.sol\":5686:5713  lastLendTimestamp + 1 hours */\n      tag_106\n      swap2\n      swap1\n      tag_107\n      jump\t// in\n    tag_106:\n        /* \"Contracts/PaymentProcessingDemo.sol\":5667:5682  block.timestamp */\n      timestamp\n        /* \"Contracts/PaymentProcessingDemo.sol\":5667:5713  block.timestamp >= lastLendTimestamp + 1 hours */\n      lt\n      iszero\n        /* \"Contracts/PaymentProcessingDemo.sol\":5659:5734  require(block.timestamp >= lastLendTimestamp + 1 hours, \"Lending too soon\") */\n      tag_108\n      jumpi\n      mload(0x40)\n      0x08c379a000000000000000000000000000000000000000000000000000000000\n      dup2\n      mstore\n      0x04\n      add\n      tag_109\n      swap1\n      tag_110\n      jump\t// in\n    tag_109:\n      mload(0x40)\n      dup1\n      swap2\n      sub\n      swap1\n      revert\n    tag_108:\n        /* \"Contracts/PaymentProcessingDemo.sol\":5777:5793  lendingThreshold */\n      sload(0x03)\n        /* \"Contracts/PaymentProcessingDemo.sol\":5752:5773  address(this).balance */\n      selfbalance\n        /* \"Contracts/PaymentProcessingDemo.sol\":5752:5793  address(this).balance >= lendingThreshold */\n      lt\n      iszero\n        /* \"Contracts/PaymentProcessingDemo.sol\":5744:5822  require(address(this).balance >= lendingThreshold, \"Not enough funds to lend\") */\n      tag_111\n      jumpi\n      mload(0x40)\n      0x08c379a000000000000000000000000000000000000000000000000000000000\n      dup2\n      mstore\n      0x04\n      add\n      tag_112\n      swap1\n      tag_113\n      jump\t// in\n    tag_112:\n      mload(0x40)\n      dup1\n      swap2\n      sub\n      swap1\n      revert\n    tag_111:\n        /* \"Contracts/PaymentProcessingDemo.sol\":5833:5853  uint256 amountToLend */\n      0x00\n        /* \"Contracts/PaymentProcessingDemo.sol\":5856:5877  address(this).balance */\n      selfbalance\n        /* \"Contracts/PaymentProcessingDemo.sol\":5833:5877  uint256 amountToLend = address(this).balance */\n      swap1\n      pop\n        /* \"Contracts/PaymentProcessingDemo.sol\":5954:5974  aaveLendingProcessor */\n      immutable(\"0x37d821c64038a6deccb23b3e33cd7d06b5e697ef7f88117a0f085a4c624de237\")\n        /* \"Contracts/PaymentProcessingDemo.sol\":5954:5984  aaveLendingProcessor.lendFunds */\n      0xffffffffffffffffffffffffffffffffffffffff\n      and\n      0x1a878577\n        /* \"Contracts/PaymentProcessingDemo.sol\":5992:6004  amountToLend */\n      dup3\n        /* \"Contracts/PaymentProcessingDemo.sol\":5954:6007  aaveLendingProcessor.lendFunds{value: amountToLend}() */\n      mload(0x40)\n      dup3\n      0xffffffff\n      and\n      0xe0\n      shl\n      dup2\n      mstore\n      0x04\n      add\n      0x00\n      mload(0x40)\n      dup1\n      dup4\n      sub\n      dup2\n      dup6\n      dup9\n      dup1\n      extcodesize\n      iszero\n      dup1\n      iszero\n      tag_114\n      jumpi\n      revert(0x00, 0x00)\n    tag_114:\n      pop\n      gas\n      call\n      iszero\n      dup1\n      iszero\n      tag_116\n      jumpi\n      returndatacopy(0x00, 0x00, returndatasize)\n      revert(0x00, returndatasize)\n    tag_116:\n      pop\n      pop\n      pop\n      pop\n      pop\n        /* \"Contracts/PaymentProcessingDemo.sol\":6042:6057  block.timestamp */\n      timestamp\n        /* \"Contracts/PaymentProcessingDemo.sol\":6022:6039  lastLendTimestamp */\n      0x01\n        /* \"Contracts/PaymentProcessingDemo.sol\":6022:6057  lastLendTimestamp = block.timestamp */\n      dup2\n      swap1\n      sstore\n      pop\n        /* \"Contracts/PaymentProcessingDemo.sol\":6073:6102  FundsLentToAave(amountToLend) */\n      0xe95dff13cfeb27c914a4d03686b999a715a3270f0b70753cfb95a0ea7fa3219c\n        /* \"Contracts/PaymentProcessingDemo.sol\":6089:6101  amountToLend */\n      dup2\n        /* \"Contracts/PaymentProcessingDemo.sol\":6073:6102  FundsLentToAave(amountToLend) */\n      mload(0x40)\n      tag_117\n      swap2\n      swap1\n      tag_118\n      jump\t// in\n    tag_117:\n      mload(0x40)\n      dup1\n      swap2\n      sub\n      swap1\n      log1\n        /* \"Contracts/PaymentProcessingDemo.sol\":5649:6109  {... */\n      pop\n        /* \"Contracts/PaymentProcessingDemo.sol\":5604:6109  function lendFundsBatch() external onlyOwner {... */\n      jump\t// out\n        /* \"Contracts/PaymentProcessingDemo.sol\":729:863  function setLendingThreshold(uint256 _newLendingThreshold) external onlyOwner {... */\n    tag_39:\n        /* \"Contracts/PaymentProcessingDemo.sol\":1798:1803  owner */\n      0x00\n      0x00\n      swap1\n      sload\n      swap1\n      0x0100\n      exp\n      swap1\n      div\n      0xffffffffffffffffffffffffffffffffffffffff\n      and\n        /* \"Contracts/PaymentProcessingDemo.sol\":1784:1803  msg.sender == owner */\n      0xffffffffffffffffffffffffffffffffffffffff\n      and\n        /* \"Contracts/PaymentProcessingDemo.sol\":1784:1794  msg.sender */\n      caller\n        /* \"Contracts/PaymentProcessingDemo.sol\":1784:1803  msg.sender == owner */\n      0xffffffffffffffffffffffffffffffffffffffff\n      and\n      eq\n        /* \"Contracts/PaymentProcessingDemo.sol\":1776:1841  require(msg.sender == owner, \"Only owner can call this function\") */\n      tag_120\n      jumpi\n      mload(0x40)\n      0x08c379a000000000000000000000000000000000000000000000000000000000\n      dup2\n      mstore\n      0x04\n      add\n      tag_121\n      swap1\n      tag_91\n      jump\t// in\n    tag_121:\n      mload(0x40)\n      dup1\n      swap2\n      sub\n      swap1\n      revert\n    tag_120:\n        /* \"Contracts/PaymentProcessingDemo.sol\":836:856  _newLendingThreshold */\n      dup1\n        /* \"Contracts/PaymentProcessingDemo.sol\":817:833  lendingThreshold */\n      0x03\n        /* \"Contracts/PaymentProcessingDemo.sol\":817:856  lendingThreshold = _newLendingThreshold */\n      dup2\n      swap1\n      sstore\n      pop\n        /* \"Contracts/PaymentProcessingDemo.sol\":729:863  function setLendingThreshold(uint256 _newLendingThreshold) external onlyOwner {... */\n      pop\n      jump\t// out\n        /* \"Contracts/PaymentProcessingDemo.sol\":4717:4992  function requestRetrieveFunds(uint256 amount) external onlyMerchant {... */\n    tag_43:\n        /* \"Contracts/PaymentProcessingDemo.sol\":1907:1916  merchants */\n      0x05\n        /* \"Contracts/PaymentProcessingDemo.sol\":1907:1928  merchants[msg.sender] */\n      0x00\n        /* \"Contracts/PaymentProcessingDemo.sol\":1917:1927  msg.sender */\n      caller\n        /* \"Contracts/PaymentProcessingDemo.sol\":1907:1928  merchants[msg.sender] */\n      0xffffffffffffffffffffffffffffffffffffffff\n      and\n      0xffffffffffffffffffffffffffffffffffffffff\n      and\n      dup2\n      mstore\n      0x20\n      add\n      swap1\n      dup2\n      mstore\n      0x20\n      add\n      0x00\n      keccak256\n        /* \"Contracts/PaymentProcessingDemo.sol\":1907:1941  merchants[msg.sender].isRegistered */\n      0x04\n      add\n      0x00\n      swap1\n      sload\n      swap1\n      0x0100\n      exp\n      swap1\n      div\n      0xff\n      and\n        /* \"Contracts/PaymentProcessingDemo.sol\":1899:1985  require(merchants[msg.sender].isRegistered, \"Only registered merchants can call this\") */\n      tag_124\n      jumpi\n      mload(0x40)\n      0x08c379a000000000000000000000000000000000000000000000000000000000\n      dup2\n      mstore\n      0x04\n      add\n      tag_125\n      swap1\n      tag_126\n      jump\t// in\n    tag_125:\n      mload(0x40)\n      dup1\n      swap2\n      sub\n      swap1\n      revert\n    tag_124:\n        /* \"Contracts/PaymentProcessingDemo.sol\":4813:4830  retrieveThreshold */\n      sload(0x04)\n        /* \"Contracts/PaymentProcessingDemo.sol\":4803:4809  amount */\n      dup2\n        /* \"Contracts/PaymentProcessingDemo.sol\":4803:4830  amount >= retrieveThreshold */\n      lt\n      iszero\n        /* \"Contracts/PaymentProcessingDemo.sol\":4795:4863  require(amount >= retrieveThreshold, \"Amount too small to retrieve\") */\n      tag_128\n      jumpi\n      mload(0x40)\n      0x08c379a000000000000000000000000000000000000000000000000000000000\n      dup2\n      mstore\n      0x04\n      add\n      tag_129\n      swap1\n      tag_130\n      jump\t// in\n    tag_129:\n      mload(0x40)\n      dup1\n      swap2\n      sub\n      swap1\n      revert\n    tag_128:\n        /* \"Contracts/PaymentProcessingDemo.sol\":4878:4898  aaveLendingProcessor */\n      immutable(\"0x37d821c64038a6deccb23b3e33cd7d06b5e697ef7f88117a0f085a4c624de237\")\n        /* \"Contracts/PaymentProcessingDemo.sol\":4878:4916  aaveLendingProcessor.retrieveLentFunds */\n      0xffffffffffffffffffffffffffffffffffffffff\n      and\n      0xda75793a\n        /* \"Contracts/PaymentProcessingDemo.sol\":4917:4923  amount */\n      dup3\n        /* \"Contracts/PaymentProcessingDemo.sol\":4933:4937  this */\n      address\n        /* \"Contracts/PaymentProcessingDemo.sol\":4878:4939  aaveLendingProcessor.retrieveLentFunds(amount, address(this)) */\n      mload(0x40)\n      dup4\n      0xffffffff\n      and\n      0xe0\n      shl\n      dup2\n      mstore\n      0x04\n      add\n      tag_131\n      swap3\n      swap2\n      swap1\n      tag_23\n      jump\t// in\n    tag_131:\n      0x00\n      mload(0x40)\n      dup1\n      dup4\n      sub\n      dup2\n      0x00\n      dup8\n      dup1\n      extcodesize\n      iszero\n      dup1\n      iszero\n      tag_132\n      jumpi\n      revert(0x00, 0x00)\n    tag_132:\n      pop\n      gas\n      call\n      iszero\n      dup1\n      iszero\n      tag_134\n      jumpi\n      returndatacopy(0x00, 0x00, returndatasize)\n      revert(0x00, returndatasize)\n    tag_134:\n      pop\n      pop\n      pop\n      pop\n        /* \"Contracts/PaymentProcessingDemo.sol\":4955:4985  FundsRetrievedFromAave(amount) */\n      0xd93b4b006708e5478cee61ef37aa4eb01c50f3943f00b0437cc172c33d0e93a2\n        /* \"Contracts/PaymentProcessingDemo.sol\":4978:4984  amount */\n      dup2\n        /* \"Contracts/PaymentProcessingDemo.sol\":4955:4985  FundsRetrievedFromAave(amount) */\n      mload(0x40)\n      tag_135\n      swap2\n      swap1\n      tag_118\n      jump\t// in\n    tag_135:\n      mload(0x40)\n      dup1\n      swap2\n      sub\n      swap1\n      log1\n        /* \"Contracts/PaymentProcessingDemo.sol\":4717:4992  function requestRetrieveFunds(uint256 amount) external onlyMerchant {... */\n      pop\n      jump\t// out\n        /* \"Contracts/PaymentProcessingDemo.sol\":3054:3850  function issueRefund(address payable _customer, uint256 _amount) external onlyMerchant {... */\n    tag_48:\n        /* \"Contracts/PaymentProcessingDemo.sol\":1907:1916  merchants */\n      0x05\n        /* \"Contracts/PaymentProcessingDemo.sol\":1907:1928  merchants[msg.sender] */\n      0x00\n        /* \"Contracts/PaymentProcessingDemo.sol\":1917:1927  msg.sender */\n      caller\n        /* \"Contracts/PaymentProcessingDemo.sol\":1907:1928  merchants[msg.sender] */\n      0xffffffffffffffffffffffffffffffffffffffff\n      and\n      0xffffffffffffffffffffffffffffffffffffffff\n      and\n      dup2\n      mstore\n      0x20\n      add\n      swap1\n      dup2\n      mstore\n      0x20\n      add\n      0x00\n      keccak256\n        /* \"Contracts/PaymentProcessingDemo.sol\":1907:1941  merchants[msg.sender].isRegistered */\n      0x04\n      add\n      0x00\n      swap1\n      sload\n      swap1\n      0x0100\n      exp\n      swap1\n      div\n      0xff\n      and\n        /* \"Contracts/PaymentProcessingDemo.sol\":1899:1985  require(merchants[msg.sender].isRegistered, \"Only registered merchants can call this\") */\n      tag_137\n      jumpi\n      mload(0x40)\n      0x08c379a000000000000000000000000000000000000000000000000000000000\n      dup2\n      mstore\n      0x04\n      add\n      tag_138\n      swap1\n      tag_126\n      jump\t// in\n    tag_138:\n      mload(0x40)\n      dup1\n      swap2\n      sub\n      swap1\n      revert\n    tag_137:\n        /* \"Contracts/PaymentProcessingDemo.sol\":3192:3199  _amount */\n      dup1\n        /* \"Contracts/PaymentProcessingDemo.sol\":3159:3168  merchants */\n      0x05\n        /* \"Contracts/PaymentProcessingDemo.sol\":3159:3180  merchants[msg.sender] */\n      0x00\n        /* \"Contracts/PaymentProcessingDemo.sol\":3169:3179  msg.sender */\n      caller\n        /* \"Contracts/PaymentProcessingDemo.sol\":3159:3180  merchants[msg.sender] */\n      0xffffffffffffffffffffffffffffffffffffffff\n      and\n      0xffffffffffffffffffffffffffffffffffffffff\n      and\n      dup2\n      mstore\n      0x20\n      add\n      swap1\n      dup2\n      mstore\n      0x20\n      add\n      0x00\n      keccak256\n        /* \"Contracts/PaymentProcessingDemo.sol\":3159:3188  merchants[msg.sender].balance */\n      0x03\n      add\n      sload\n        /* \"Contracts/PaymentProcessingDemo.sol\":3159:3199  merchants[msg.sender].balance >= _amount */\n      lt\n      iszero\n        /* \"Contracts/PaymentProcessingDemo.sol\":3151:3244  require(merchants[msg.sender].balance >= _amount, \"Insufficient funds in merchant's balance\") */\n      tag_140\n      jumpi\n      mload(0x40)\n      0x08c379a000000000000000000000000000000000000000000000000000000000\n      dup2\n      mstore\n      0x04\n      add\n      tag_141\n      swap1\n      tag_142\n      jump\t// in\n    tag_141:\n      mload(0x40)\n      dup1\n      swap2\n      sub\n      swap1\n      revert\n    tag_140:\n        /* \"Contracts/PaymentProcessingDemo.sol\":3283:3284  0 */\n      0x00\n        /* \"Contracts/PaymentProcessingDemo.sol\":3262:3285  _customer != address(0) */\n      0xffffffffffffffffffffffffffffffffffffffff\n      and\n        /* \"Contracts/PaymentProcessingDemo.sol\":3262:3271  _customer */\n      dup3\n        /* \"Contracts/PaymentProcessingDemo.sol\":3262:3285  _customer != address(0) */\n      0xffffffffffffffffffffffffffffffffffffffff\n      and\n      sub\n        /* \"Contracts/PaymentProcessingDemo.sol\":3254:3314  require(_customer != address(0), \"Invalid customer address\") */\n      tag_143\n      jumpi\n      mload(0x40)\n      0x08c379a000000000000000000000000000000000000000000000000000000000\n      dup2\n      mstore\n      0x04\n      add\n      tag_144\n      swap1\n      tag_145\n      jump\t// in\n    tag_144:\n      mload(0x40)\n      dup1\n      swap2\n      sub\n      swap1\n      revert\n    tag_143:\n        /* \"Contracts/PaymentProcessingDemo.sol\":3411:3418  _amount */\n      dup1\n        /* \"Contracts/PaymentProcessingDemo.sol\":3378:3387  merchants */\n      0x05\n        /* \"Contracts/PaymentProcessingDemo.sol\":3378:3399  merchants[msg.sender] */\n      0x00\n        /* \"Contracts/PaymentProcessingDemo.sol\":3388:3398  msg.sender */\n      caller\n        /* \"Contracts/PaymentProcessingDemo.sol\":3378:3399  merchants[msg.sender] */\n      0xffffffffffffffffffffffffffffffffffffffff\n      and\n      0xffffffffffffffffffffffffffffffffffffffff\n      and\n      dup2\n      mstore\n      0x20\n      add\n      swap1\n      dup2\n      mstore\n      0x20\n      add\n      0x00\n      keccak256\n        /* \"Contracts/PaymentProcessingDemo.sol\":3378:3407  merchants[msg.sender].balance */\n      0x03\n      add\n      0x00\n        /* \"Contracts/PaymentProcessingDemo.sol\":3378:3418  merchants[msg.sender].balance -= _amount */\n      dup3\n      dup3\n      sload\n      tag_146\n      swap2\n      swap1\n      tag_147\n      jump\t// in\n    tag_146:\n      swap3\n      pop\n      pop\n      dup2\n      swap1\n      sstore\n      pop\n        /* \"Contracts/PaymentProcessingDemo.sol\":3477:3489  bool success */\n      0x00\n        /* \"Contracts/PaymentProcessingDemo.sol\":3495:3504  _customer */\n      dup3\n        /* \"Contracts/PaymentProcessingDemo.sol\":3495:3509  _customer.call */\n      0xffffffffffffffffffffffffffffffffffffffff\n      and\n        /* \"Contracts/PaymentProcessingDemo.sol\":3517:3524  _amount */\n      dup3\n        /* \"Contracts/PaymentProcessingDemo.sol\":3495:3529  _customer.call{value: _amount}(\"\") */\n      mload(0x40)\n      tag_148\n      swap1\n      tag_149\n      jump\t// in\n    tag_148:\n      0x00\n      mload(0x40)\n      dup1\n      dup4\n      sub\n      dup2\n      dup6\n      dup8\n      gas\n      call\n      swap3\n      pop\n      pop\n      pop\n      returndatasize\n      dup1\n      0x00\n      dup2\n      eq\n      tag_152\n      jumpi\n      mload(0x40)\n      swap2\n      pop\n      and(add(returndatasize, 0x3f), not(0x1f))\n      dup3\n      add\n      0x40\n      mstore\n      returndatasize\n      dup3\n      mstore\n      returndatasize\n      0x00\n      0x20\n      dup5\n      add\n      returndatacopy\n      jump(tag_151)\n    tag_152:\n      0x60\n      swap2\n      pop\n    tag_151:\n      pop\n        /* \"Contracts/PaymentProcessingDemo.sol\":3476:3529  (bool success, ) = _customer.call{value: _amount}(\"\") */\n      pop\n      swap1\n      pop\n        /* \"Contracts/PaymentProcessingDemo.sol\":3547:3554  success */\n      dup1\n        /* \"Contracts/PaymentProcessingDemo.sol\":3539:3572  require(success, \"Refund failed\") */\n      tag_153\n      jumpi\n      mload(0x40)\n      0x08c379a000000000000000000000000000000000000000000000000000000000\n      dup2\n      mstore\n      0x04\n      add\n      tag_154\n      swap1\n      tag_155\n      jump\t// in\n    tag_154:\n      mload(0x40)\n      dup1\n      swap2\n      sub\n      swap1\n      revert\n    tag_153:\n        /* \"Contracts/PaymentProcessingDemo.sol\":3669:3678  _customer */\n      dup3\n        /* \"Contracts/PaymentProcessingDemo.sol\":3640:3688  PaymentProcessed(msg.sender, _customer, _amount) */\n      0xffffffffffffffffffffffffffffffffffffffff\n      and\n        /* \"Contracts/PaymentProcessingDemo.sol\":3657:3667  msg.sender */\n      caller\n        /* \"Contracts/PaymentProcessingDemo.sol\":3640:3688  PaymentProcessed(msg.sender, _customer, _amount) */\n      0xffffffffffffffffffffffffffffffffffffffff\n      and\n      0x0538ab32a957d2b55d0ec70a4029e73fdf19f500832839b1d7bafcfbca2a5630\n        /* \"Contracts/PaymentProcessingDemo.sol\":3680:3687  _amount */\n      dup5\n        /* \"Contracts/PaymentProcessingDemo.sol\":3640:3688  PaymentProcessed(msg.sender, _customer, _amount) */\n      mload(0x40)\n      tag_156\n      swap2\n      swap1\n      tag_118\n      jump\t// in\n    tag_156:\n      mload(0x40)\n      dup1\n      swap2\n      sub\n      swap1\n      log3\n        /* \"Contracts/PaymentProcessingDemo.sol\":3791:3800  _customer */\n      dup3\n        /* \"Contracts/PaymentProcessingDemo.sol\":3755:3801  FundsWithdrawn(msg.sender, _amount, _customer) */\n      0xffffffffffffffffffffffffffffffffffffffff\n      and\n        /* \"Contracts/PaymentProcessingDemo.sol\":3770:3780  msg.sender */\n      caller\n        /* \"Contracts/PaymentProcessingDemo.sol\":3755:3801  FundsWithdrawn(msg.sender, _amount, _customer) */\n      0xffffffffffffffffffffffffffffffffffffffff\n      and\n      0xe9171aeff46c37ab955b8aff908e14ae9732bd06634fa131226cfe5c25bfd2fb\n        /* \"Contracts/PaymentProcessingDemo.sol\":3782:3789  _amount */\n      dup5\n        /* \"Contracts/PaymentProcessingDemo.sol\":3755:3801  FundsWithdrawn(msg.sender, _amount, _customer) */\n      mload(0x40)\n      tag_157\n      swap2\n      swap1\n      tag_118\n      jump\t// in\n    tag_157:\n      mload(0x40)\n      dup1\n      swap2\n      sub\n      swap1\n      log3\n        /* \"Contracts/PaymentProcessingDemo.sol\":3141:3850  {... */\n      pop\n        /* \"Contracts/PaymentProcessingDemo.sol\":3054:3850  function issueRefund(address payable _customer, uint256 _amount) external onlyMerchant {... */\n      pop\n      pop\n      jump\t// out\n        /* \"Contracts/PaymentProcessingDemo.sol\":869:1007  function setRetrieveThreshold(uint256 _newRetrieveThreshold) external onlyOwner {... */\n    tag_52:\n        /* \"Contracts/PaymentProcessingDemo.sol\":1798:1803  owner */\n      0x00\n      0x00\n      swap1\n      sload\n      swap1\n      0x0100\n      exp\n      swap1\n      div\n      0xffffffffffffffffffffffffffffffffffffffff\n      and\n        /* \"Contracts/PaymentProcessingDemo.sol\":1784:1803  msg.sender == owner */\n      0xffffffffffffffffffffffffffffffffffffffff\n      and\n        /* \"Contracts/PaymentProcessingDemo.sol\":1784:1794  msg.sender */\n      caller\n        /* \"Contracts/PaymentProcessingDemo.sol\":1784:1803  msg.sender == owner */\n      0xffffffffffffffffffffffffffffffffffffffff\n      and\n      eq\n        /* \"Contracts/PaymentProcessingDemo.sol\":1776:1841  require(msg.sender == owner, \"Only owner can call this function\") */\n      tag_159\n      jumpi\n      mload(0x40)\n      0x08c379a000000000000000000000000000000000000000000000000000000000\n      dup2\n      mstore\n      0x04\n      add\n      tag_160\n      swap1\n      tag_91\n      jump\t// in\n    tag_160:\n      mload(0x40)\n      dup1\n      swap2\n      sub\n      swap1\n      revert\n    tag_159:\n        /* \"Contracts/PaymentProcessingDemo.sol\":979:1000  _newRetrieveThreshold */\n      dup1\n        /* \"Contracts/PaymentProcessingDemo.sol\":959:976  retrieveThreshold */\n      0x04\n        /* \"Contracts/PaymentProcessingDemo.sol\":959:1000  retrieveThreshold = _newRetrieveThreshold */\n      dup2\n      swap1\n      sstore\n      pop\n        /* \"Contracts/PaymentProcessingDemo.sol\":869:1007  function setRetrieveThreshold(uint256 _newRetrieveThreshold) external onlyOwner {... */\n      pop\n      jump\t// out\n        /* \"Contracts/PaymentProcessingDemo.sol\":382:441  IAaveLendingProcessor public immutable aaveLendingProcessor */\n    tag_55:\n      immutable(\"0x37d821c64038a6deccb23b3e33cd7d06b5e697ef7f88117a0f085a4c624de237\")\n      dup2\n      jump\t// out\n        /* \"Contracts/PaymentProcessingDemo.sol\":351:371  address public owner */\n    tag_60:\n      0x00\n      0x00\n      swap1\n      sload\n      swap1\n      0x0100\n      exp\n      swap1\n      div\n      0xffffffffffffffffffffffffffffffffffffffff\n      and\n      dup2\n      jump\t// out\n        /* \"Contracts/PaymentProcessingDemo.sol\":2709:3048  function processPayment(address _merchant) external payable {... */\n    tag_66:\n        /* \"Contracts/PaymentProcessingDemo.sol\":2787:2796  merchants */\n      0x05\n        /* \"Contracts/PaymentProcessingDemo.sol\":2787:2807  merchants[_merchant] */\n      0x00\n        /* \"Contracts/PaymentProcessingDemo.sol\":2797:2806  _merchant */\n      dup3\n        /* \"Contracts/PaymentProcessingDemo.sol\":2787:2807  merchants[_merchant] */\n      0xffffffffffffffffffffffffffffffffffffffff\n      and\n      0xffffffffffffffffffffffffffffffffffffffff\n      and\n      dup2\n      mstore\n      0x20\n      add\n      swap1\n      dup2\n      mstore\n      0x20\n      add\n      0x00\n      keccak256\n        /* \"Contracts/PaymentProcessingDemo.sol\":2787:2820  merchants[_merchant].isRegistered */\n      0x04\n      add\n      0x00\n      swap1\n      sload\n      swap1\n      0x0100\n      exp\n      swap1\n      div\n      0xff\n      and\n        /* \"Contracts/PaymentProcessingDemo.sol\":2779:2848  require(merchants[_merchant].isRegistered, \"Merchant not registered\") */\n      tag_163\n      jumpi\n      mload(0x40)\n      0x08c379a000000000000000000000000000000000000000000000000000000000\n      dup2\n      mstore\n      0x04\n      add\n      tag_164\n      swap1\n      tag_165\n      jump\t// in\n    tag_164:\n      mload(0x40)\n      dup1\n      swap2\n      sub\n      swap1\n      revert\n    tag_163:\n        /* \"Contracts/PaymentProcessingDemo.sol\":2878:2879  0 */\n      0x00\n        /* \"Contracts/PaymentProcessingDemo.sol\":2866:2875  msg.value */\n      callvalue\n        /* \"Contracts/PaymentProcessingDemo.sol\":2866:2879  msg.value > 0 */\n      gt\n        /* \"Contracts/PaymentProcessingDemo.sol\":2858:2924  require(msg.value > 0, \"Payment amount must be greater than zero\") */\n      tag_166\n      jumpi\n      mload(0x40)\n      0x08c379a000000000000000000000000000000000000000000000000000000000\n      dup2\n      mstore\n      0x04\n      add\n      tag_167\n      swap1\n      tag_168\n      jump\t// in\n    tag_167:\n      mload(0x40)\n      dup1\n      swap2\n      sub\n      swap1\n      revert\n    tag_166:\n        /* \"Contracts/PaymentProcessingDemo.sol\":2967:2976  msg.value */\n      callvalue\n        /* \"Contracts/PaymentProcessingDemo.sol\":2935:2944  merchants */\n      0x05\n        /* \"Contracts/PaymentProcessingDemo.sol\":2935:2955  merchants[_merchant] */\n      0x00\n        /* \"Contracts/PaymentProcessingDemo.sol\":2945:2954  _merchant */\n      dup4\n        /* \"Contracts/PaymentProcessingDemo.sol\":2935:2955  merchants[_merchant] */\n      0xffffffffffffffffffffffffffffffffffffffff\n      and\n      0xffffffffffffffffffffffffffffffffffffffff\n      and\n      dup2\n      mstore\n      0x20\n      add\n      swap1\n      dup2\n      mstore\n      0x20\n      add\n      0x00\n      keccak256\n        /* \"Contracts/PaymentProcessingDemo.sol\":2935:2963  merchants[_merchant].balance */\n      0x03\n      add\n      0x00\n        /* \"Contracts/PaymentProcessingDemo.sol\":2935:2976  merchants[_merchant].balance += msg.value */\n      dup3\n      dup3\n      sload\n      tag_169\n      swap2\n      swap1\n      tag_107\n      jump\t// in\n    tag_169:\n      swap3\n      pop\n      pop\n      dup2\n      swap1\n      sstore\n      pop\n        /* \"Contracts/PaymentProcessingDemo.sol\":3019:3029  msg.sender */\n      caller\n        /* \"Contracts/PaymentProcessingDemo.sol\":2991:3041  PaymentProcessed(_merchant, msg.sender, msg.value) */\n      0xffffffffffffffffffffffffffffffffffffffff\n      and\n        /* \"Contracts/PaymentProcessingDemo.sol\":3008:3017  _merchant */\n      dup2\n        /* \"Contracts/PaymentProcessingDemo.sol\":2991:3041  PaymentProcessed(_merchant, msg.sender, msg.value) */\n      0xffffffffffffffffffffffffffffffffffffffff\n      and\n      0x0538ab32a957d2b55d0ec70a4029e73fdf19f500832839b1d7bafcfbca2a5630\n        /* \"Contracts/PaymentProcessingDemo.sol\":3031:3040  msg.value */\n      callvalue\n        /* \"Contracts/PaymentProcessingDemo.sol\":2991:3041  PaymentProcessed(_merchant, msg.sender, msg.value) */\n      mload(0x40)\n      tag_170\n      swap2\n      swap1\n      tag_118\n      jump\t// in\n    tag_170:\n      mload(0x40)\n      dup1\n      swap2\n      sub\n      swap1\n      log3\n        /* \"Contracts/PaymentProcessingDemo.sol\":2709:3048  function processPayment(address _merchant) external payable {... */\n      pop\n      jump\t// out\n        /* \"Contracts/PaymentProcessingDemo.sol\":6147:6783  function retrieveLentFundsBatch(uint256 amount) external onlyOwner {... */\n    tag_70:\n        /* \"Contracts/PaymentProcessingDemo.sol\":1798:1803  owner */\n      0x00\n      0x00\n      swap1\n      sload\n      swap1\n      0x0100\n      exp\n      swap1\n      div\n      0xffffffffffffffffffffffffffffffffffffffff\n      and\n        /* \"Contracts/PaymentProcessingDemo.sol\":1784:1803  msg.sender == owner */\n      0xffffffffffffffffffffffffffffffffffffffff\n      and\n        /* \"Contracts/PaymentProcessingDemo.sol\":1784:1794  msg.sender */\n      caller\n        /* \"Contracts/PaymentProcessingDemo.sol\":1784:1803  msg.sender == owner */\n      0xffffffffffffffffffffffffffffffffffffffff\n      and\n      eq\n        /* \"Contracts/PaymentProcessingDemo.sol\":1776:1841  require(msg.sender == owner, \"Only owner can call this function\") */\n      tag_172\n      jumpi\n      mload(0x40)\n      0x08c379a000000000000000000000000000000000000000000000000000000000\n      dup2\n      mstore\n      0x04\n      add\n      tag_173\n      swap1\n      tag_91\n      jump\t// in\n    tag_173:\n      mload(0x40)\n      dup1\n      swap2\n      sub\n      swap1\n      revert\n    tag_172:\n        /* \"Contracts/PaymentProcessingDemo.sol\":6275:6282  1 hours */\n      0x0e10\n        /* \"Contracts/PaymentProcessingDemo.sol\":6251:6272  lastRetrieveTimestamp */\n      sload(0x02)\n        /* \"Contracts/PaymentProcessingDemo.sol\":6251:6282  lastRetrieveTimestamp + 1 hours */\n      tag_175\n      swap2\n      swap1\n      tag_107\n      jump\t// in\n    tag_175:\n        /* \"Contracts/PaymentProcessingDemo.sol\":6232:6247  block.timestamp */\n      timestamp\n        /* \"Contracts/PaymentProcessingDemo.sol\":6232:6282  block.timestamp >= lastRetrieveTimestamp + 1 hours */\n      lt\n      iszero\n        /* \"Contracts/PaymentProcessingDemo.sol\":6224:6306  require(block.timestamp >= lastRetrieveTimestamp + 1 hours, \"Retrieving too soon\") */\n      tag_176\n      jumpi\n      mload(0x40)\n      0x08c379a000000000000000000000000000000000000000000000000000000000\n      dup2\n      mstore\n      0x04\n      add\n      tag_177\n      swap1\n      tag_178\n      jump\t// in\n    tag_177:\n      mload(0x40)\n      dup1\n      swap2\n      sub\n      swap1\n      revert\n    tag_176:\n        /* \"Contracts/PaymentProcessingDemo.sol\":6334:6351  retrieveThreshold */\n      sload(0x04)\n        /* \"Contracts/PaymentProcessingDemo.sol\":6324:6330  amount */\n      dup2\n        /* \"Contracts/PaymentProcessingDemo.sol\":6324:6351  amount >= retrieveThreshold */\n      lt\n      iszero\n        /* \"Contracts/PaymentProcessingDemo.sol\":6316:6384  require(amount >= retrieveThreshold, \"Amount too small to retrieve\") */\n      tag_179\n      jumpi\n      mload(0x40)\n      0x08c379a000000000000000000000000000000000000000000000000000000000\n      dup2\n      mstore\n      0x04\n      add\n      tag_180\n      swap1\n      tag_130\n      jump\t// in\n    tag_180:\n      mload(0x40)\n      dup1\n      swap2\n      sub\n      swap1\n      revert\n    tag_179:\n        /* \"Contracts/PaymentProcessingDemo.sol\":6395:6416  uint256 balanceBefore */\n      0x00\n        /* \"Contracts/PaymentProcessingDemo.sol\":6419:6440  address(this).balance */\n      selfbalance\n        /* \"Contracts/PaymentProcessingDemo.sol\":6395:6440  uint256 balanceBefore = address(this).balance */\n      swap1\n      pop\n        /* \"Contracts/PaymentProcessingDemo.sol\":6451:6471  aaveLendingProcessor */\n      immutable(\"0x37d821c64038a6deccb23b3e33cd7d06b5e697ef7f88117a0f085a4c624de237\")\n        /* \"Contracts/PaymentProcessingDemo.sol\":6451:6489  aaveLendingProcessor.retrieveLentFunds */\n      0xffffffffffffffffffffffffffffffffffffffff\n      and\n      0xda75793a\n        /* \"Contracts/PaymentProcessingDemo.sol\":6490:6496  amount */\n      dup4\n        /* \"Contracts/PaymentProcessingDemo.sol\":6506:6510  this */\n      address\n        /* \"Contracts/PaymentProcessingDemo.sol\":6451:6512  aaveLendingProcessor.retrieveLentFunds(amount, address(this)) */\n      mload(0x40)\n      dup4\n      0xffffffff\n      and\n      0xe0\n      shl\n      dup2\n      mstore\n      0x04\n      add\n      tag_181\n      swap3\n      swap2\n      swap1\n      tag_23\n      jump\t// in\n    tag_181:\n      0x00\n      mload(0x40)\n      dup1\n      dup4\n      sub\n      dup2\n      0x00\n      dup8\n      dup1\n      extcodesize\n      iszero\n      dup1\n      iszero\n      tag_182\n      jumpi\n      revert(0x00, 0x00)\n    tag_182:\n      pop\n      gas\n      call\n      iszero\n      dup1\n      iszero\n      tag_184\n      jumpi\n      returndatacopy(0x00, 0x00, returndatasize)\n      revert(0x00, returndatasize)\n    tag_184:\n      pop\n      pop\n      pop\n      pop\n        /* \"Contracts/PaymentProcessingDemo.sol\":6523:6543  uint256 balanceAfter */\n      0x00\n        /* \"Contracts/PaymentProcessingDemo.sol\":6546:6567  address(this).balance */\n      selfbalance\n        /* \"Contracts/PaymentProcessingDemo.sol\":6523:6567  uint256 balanceAfter = address(this).balance */\n      swap1\n      pop\n        /* \"Contracts/PaymentProcessingDemo.sol\":6600:6613  balanceBefore */\n      dup2\n        /* \"Contracts/PaymentProcessingDemo.sol\":6585:6597  balanceAfter */\n      dup2\n        /* \"Contracts/PaymentProcessingDemo.sol\":6585:6613  balanceAfter > balanceBefore */\n      gt\n        /* \"Contracts/PaymentProcessingDemo.sol\":6577:6640  require(balanceAfter > balanceBefore, \"Funds retrieval failed\") */\n      tag_185\n      jumpi\n      mload(0x40)\n      0x08c379a000000000000000000000000000000000000000000000000000000000\n      dup2\n      mstore\n      0x04\n      add\n      tag_186\n      swap1\n      tag_187\n      jump\t// in\n    tag_186:\n      mload(0x40)\n      dup1\n      swap2\n      sub\n      swap1\n      revert\n    tag_185:\n        /* \"Contracts/PaymentProcessingDemo.sol\":6715:6730  block.timestamp */\n      timestamp\n        /* \"Contracts/PaymentProcessingDemo.sol\":6691:6712  lastRetrieveTimestamp */\n      0x02\n        /* \"Contracts/PaymentProcessingDemo.sol\":6691:6730  lastRetrieveTimestamp = block.timestamp */\n      dup2\n      swap1\n      sstore\n      pop\n        /* \"Contracts/PaymentProcessingDemo.sol\":6746:6776  FundsRetrievedFromAave(amount) */\n      0xd93b4b006708e5478cee61ef37aa4eb01c50f3943f00b0437cc172c33d0e93a2\n        /* \"Contracts/PaymentProcessingDemo.sol\":6769:6775  amount */\n      dup4\n        /* \"Contracts/PaymentProcessingDemo.sol\":6746:6776  FundsRetrievedFromAave(amount) */\n      mload(0x40)\n      tag_188\n      swap2\n      swap1\n      tag_118\n      jump\t// in\n    tag_188:\n      mload(0x40)\n      dup1\n      swap2\n      sub\n      swap1\n      log1\n        /* \"Contracts/PaymentProcessingDemo.sol\":6214:6783  {... */\n      pop\n      pop\n        /* \"Contracts/PaymentProcessingDemo.sol\":6147:6783  function retrieveLentFundsBatch(uint256 amount) external onlyOwner {... */\n      pop\n      jump\t// out\n        /* \"Contracts/PaymentProcessingDemo.sol\":2198:2703  function registerMerchant(string memory _merchantName, address _custodialWallet) external onlyOwner {... */\n    tag_75:\n        /* \"Contracts/PaymentProcessingDemo.sol\":1798:1803  owner */\n      0x00\n      0x00\n      swap1\n      sload\n      swap1\n      0x0100\n      exp\n      swap1\n      div\n      0xffffffffffffffffffffffffffffffffffffffff\n      and\n        /* \"Contracts/PaymentProcessingDemo.sol\":1784:1803  msg.sender == owner */\n      0xffffffffffffffffffffffffffffffffffffffff\n      and\n        /* \"Contracts/PaymentProcessingDemo.sol\":1784:1794  msg.sender */\n      caller\n        /* \"Contracts/PaymentProcessingDemo.sol\":1784:1803  msg.sender == owner */\n      0xffffffffffffffffffffffffffffffffffffffff\n      and\n      eq\n        /* \"Contracts/PaymentProcessingDemo.sol\":1776:1841  require(msg.sender == owner, \"Only owner can call this function\") */\n      tag_190\n      jumpi\n      mload(0x40)\n      0x08c379a000000000000000000000000000000000000000000000000000000000\n      dup2\n      mstore\n      0x04\n      add\n      tag_191\n      swap1\n      tag_91\n      jump\t// in\n    tag_191:\n      mload(0x40)\n      dup1\n      swap2\n      sub\n      swap1\n      revert\n    tag_190:\n        /* \"Contracts/PaymentProcessingDemo.sol\":2317:2326  merchants */\n      0x05\n        /* \"Contracts/PaymentProcessingDemo.sol\":2317:2344  merchants[_custodialWallet] */\n      0x00\n        /* \"Contracts/PaymentProcessingDemo.sol\":2327:2343  _custodialWallet */\n      dup3\n        /* \"Contracts/PaymentProcessingDemo.sol\":2317:2344  merchants[_custodialWallet] */\n      0xffffffffffffffffffffffffffffffffffffffff\n      and\n      0xffffffffffffffffffffffffffffffffffffffff\n      and\n      dup2\n      mstore\n      0x20\n      add\n      swap1\n      dup2\n      mstore\n      0x20\n      add\n      0x00\n      keccak256\n        /* \"Contracts/PaymentProcessingDemo.sol\":2317:2357  merchants[_custodialWallet].isRegistered */\n      0x04\n      add\n      0x00\n      swap1\n      sload\n      swap1\n      0x0100\n      exp\n      swap1\n      div\n      0xff\n      and\n        /* \"Contracts/PaymentProcessingDemo.sol\":2316:2357  !merchants[_custodialWallet].isRegistered */\n      iszero\n        /* \"Contracts/PaymentProcessingDemo.sol\":2308:2389  require(!merchants[_custodialWallet].isRegistered, \"Merchant already registered\") */\n      tag_193\n      jumpi\n      mload(0x40)\n      0x08c379a000000000000000000000000000000000000000000000000000000000\n      dup2\n      mstore\n      0x04\n      add\n      tag_194\n      swap1\n      tag_195\n      jump\t// in\n    tag_194:\n      mload(0x40)\n      dup1\n      swap2\n      sub\n      swap1\n      revert\n    tag_193:\n        /* \"Contracts/PaymentProcessingDemo.sol\":2429:2495  Merchant(nextMerchantId, _merchantName, _custodialWallet, 0, true) */\n      mload(0x40)\n      dup1\n      0xa0\n      add\n      0x40\n      mstore\n      dup1\n        /* \"Contracts/PaymentProcessingDemo.sol\":2438:2452  nextMerchantId */\n      sload(0x07)\n        /* \"Contracts/PaymentProcessingDemo.sol\":2429:2495  Merchant(nextMerchantId, _merchantName, _custodialWallet, 0, true) */\n      dup2\n      mstore\n      0x20\n      add\n        /* \"Contracts/PaymentProcessingDemo.sol\":2454:2467  _merchantName */\n      dup4\n        /* \"Contracts/PaymentProcessingDemo.sol\":2429:2495  Merchant(nextMerchantId, _merchantName, _custodialWallet, 0, true) */\n      dup2\n      mstore\n      0x20\n      add\n        /* \"Contracts/PaymentProcessingDemo.sol\":2469:2485  _custodialWallet */\n      dup3\n        /* \"Contracts/PaymentProcessingDemo.sol\":2429:2495  Merchant(nextMerchantId, _merchantName, _custodialWallet, 0, true) */\n      0xffffffffffffffffffffffffffffffffffffffff\n      and\n      dup2\n      mstore\n      0x20\n      add\n        /* \"Contracts/PaymentProcessingDemo.sol\":2487:2488  0 */\n      0x00\n        /* \"Contracts/PaymentProcessingDemo.sol\":2429:2495  Merchant(nextMerchantId, _merchantName, _custodialWallet, 0, true) */\n      dup2\n      mstore\n      0x20\n      add\n        /* \"Contracts/PaymentProcessingDemo.sol\":2490:2494  true */\n      0x01\n        /* \"Contracts/PaymentProcessingDemo.sol\":2429:2495  Merchant(nextMerchantId, _merchantName, _custodialWallet, 0, true) */\n      iszero\n      iszero\n      dup2\n      mstore\n      pop\n        /* \"Contracts/PaymentProcessingDemo.sol\":2399:2408  merchants */\n      0x05\n        /* \"Contracts/PaymentProcessingDemo.sol\":2399:2426  merchants[_custodialWallet] */\n      0x00\n        /* \"Contracts/PaymentProcessingDemo.sol\":2409:2425  _custodialWallet */\n      dup4\n        /* \"Contracts/PaymentProcessingDemo.sol\":2399:2426  merchants[_custodialWallet] */\n      0xffffffffffffffffffffffffffffffffffffffff\n      and\n      0xffffffffffffffffffffffffffffffffffffffff\n      and\n      dup2\n      mstore\n      0x20\n      add\n      swap1\n      dup2\n      mstore\n      0x20\n      add\n      0x00\n      keccak256\n        /* \"Contracts/PaymentProcessingDemo.sol\":2399:2495  merchants[_custodialWallet] = Merchant(nextMerchantId, _merchantName, _custodialWallet, 0, true) */\n      0x00\n      dup3\n      add\n      mload\n      dup2\n      0x00\n      add\n      sstore\n      0x20\n      dup3\n      add\n      mload\n      dup2\n      0x01\n      add\n      swap1\n      dup2\n      tag_196\n      swap2\n      swap1\n      tag_197\n      jump\t// in\n    tag_196:\n      pop\n      0x40\n      dup3\n      add\n      mload\n      dup2\n      0x02\n      add\n      exp(0x0100, 0x00)\n      dup2\n      sload\n      dup2\n      0xffffffffffffffffffffffffffffffffffffffff\n      mul\n      not\n      and\n      swap1\n      dup4\n      0xffffffffffffffffffffffffffffffffffffffff\n      and\n      mul\n      or\n      swap1\n      sstore\n      pop\n      0x60\n      dup3\n      add\n      mload\n      dup2\n      0x03\n      add\n      sstore\n      0x80\n      dup3\n      add\n      mload\n      dup2\n      0x04\n      add\n      exp(0x0100, 0x00)\n      dup2\n      sload\n      dup2\n      0xff\n      mul\n      not\n      and\n      swap1\n      dup4\n      iszero\n      iszero\n      mul\n      or\n      swap1\n      sstore\n      pop\n      swap1\n      pop\n      pop\n        /* \"Contracts/PaymentProcessingDemo.sol\":2535:2551  _custodialWallet */\n      dup1\n        /* \"Contracts/PaymentProcessingDemo.sol\":2505:2516  merchantIds */\n      0x06\n        /* \"Contracts/PaymentProcessingDemo.sol\":2505:2532  merchantIds[nextMerchantId] */\n      0x00\n        /* \"Contracts/PaymentProcessingDemo.sol\":2517:2531  nextMerchantId */\n      sload(0x07)\n        /* \"Contracts/PaymentProcessingDemo.sol\":2505:2532  merchantIds[nextMerchantId] */\n      dup2\n      mstore\n      0x20\n      add\n      swap1\n      dup2\n      mstore\n      0x20\n      add\n      0x00\n      keccak256\n      0x00\n        /* \"Contracts/PaymentProcessingDemo.sol\":2505:2551  merchantIds[nextMerchantId] = _custodialWallet */\n      0x0100\n      exp\n      dup2\n      sload\n      dup2\n      0xffffffffffffffffffffffffffffffffffffffff\n      mul\n      not\n      and\n      swap1\n      dup4\n      0xffffffffffffffffffffffffffffffffffffffff\n      and\n      mul\n      or\n      swap1\n      sstore\n      pop\n        /* \"Contracts/PaymentProcessingDemo.sol\":2585:2601  _custodialWallet */\n      dup1\n        /* \"Contracts/PaymentProcessingDemo.sol\":2566:2636  MerchantRegistered(_custodialWallet, nextMerchantId, _custodialWallet) */\n      0xffffffffffffffffffffffffffffffffffffffff\n      and\n      0xc143c72014f0d06ea74582b0087db64eb875cf286f85f8b4b5810d8438c8b5a4\n        /* \"Contracts/PaymentProcessingDemo.sol\":2603:2617  nextMerchantId */\n      sload(0x07)\n        /* \"Contracts/PaymentProcessingDemo.sol\":2619:2635  _custodialWallet */\n      dup4\n        /* \"Contracts/PaymentProcessingDemo.sol\":2566:2636  MerchantRegistered(_custodialWallet, nextMerchantId, _custodialWallet) */\n      mload(0x40)\n      tag_198\n      swap3\n      swap2\n      swap1\n      tag_23\n      jump\t// in\n    tag_198:\n      mload(0x40)\n      dup1\n      swap2\n      sub\n      swap1\n      log2\n        /* \"Contracts/PaymentProcessingDemo.sol\":2670:2684  nextMerchantId */\n      0x07\n      0x00\n        /* \"Contracts/PaymentProcessingDemo.sol\":2670:2686  nextMerchantId++ */\n      dup2\n      sload\n      dup1\n      swap3\n      swap2\n      swap1\n      0x01\n      add\n      swap2\n      swap1\n      pop\n      sstore\n      pop\n        /* \"Contracts/PaymentProcessingDemo.sol\":2198:2703  function registerMerchant(string memory _merchantName, address _custodialWallet) external onlyOwner {... */\n      pop\n      pop\n      jump\t// out\n        /* \"Contracts/PaymentProcessingDemo.sol\":3927:4408  function withdrawFunds(address payable _recipient, uint256 amount) external onlyMerchant {... */\n    tag_79:\n        /* \"Contracts/PaymentProcessingDemo.sol\":1907:1916  merchants */\n      0x05\n        /* \"Contracts/PaymentProcessingDemo.sol\":1907:1928  merchants[msg.sender] */\n      0x00\n        /* \"Contracts/PaymentProcessingDemo.sol\":1917:1927  msg.sender */\n      caller\n        /* \"Contracts/PaymentProcessingDemo.sol\":1907:1928  merchants[msg.sender] */\n      0xffffffffffffffffffffffffffffffffffffffff\n      and\n      0xffffffffffffffffffffffffffffffffffffffff\n      and\n      dup2\n      mstore\n      0x20\n      add\n      swap1\n      dup2\n      mstore\n      0x20\n      add\n      0x00\n      keccak256\n        /* \"Contracts/PaymentProcessingDemo.sol\":1907:1941  merchants[msg.sender].isRegistered */\n      0x04\n      add\n      0x00\n      swap1\n      sload\n      swap1\n      0x0100\n      exp\n      swap1\n      div\n      0xff\n      and\n        /* \"Contracts/PaymentProcessingDemo.sol\":1899:1985  require(merchants[msg.sender].isRegistered, \"Only registered merchants can call this\") */\n      tag_200\n      jumpi\n      mload(0x40)\n      0x08c379a000000000000000000000000000000000000000000000000000000000\n      dup2\n      mstore\n      0x04\n      add\n      tag_201\n      swap1\n      tag_126\n      jump\t// in\n    tag_201:\n      mload(0x40)\n      dup1\n      swap2\n      sub\n      swap1\n      revert\n    tag_200:\n        /* \"Contracts/PaymentProcessingDemo.sol\":4067:4073  amount */\n      dup1\n        /* \"Contracts/PaymentProcessingDemo.sol\":4034:4043  merchants */\n      0x05\n        /* \"Contracts/PaymentProcessingDemo.sol\":4034:4055  merchants[msg.sender] */\n      0x00\n        /* \"Contracts/PaymentProcessingDemo.sol\":4044:4054  msg.sender */\n      caller\n        /* \"Contracts/PaymentProcessingDemo.sol\":4034:4055  merchants[msg.sender] */\n      0xffffffffffffffffffffffffffffffffffffffff\n      and\n      0xffffffffffffffffffffffffffffffffffffffff\n      and\n      dup2\n      mstore\n      0x20\n      add\n      swap1\n      dup2\n      mstore\n      0x20\n      add\n      0x00\n      keccak256\n        /* \"Contracts/PaymentProcessingDemo.sol\":4034:4063  merchants[msg.sender].balance */\n      0x03\n      add\n      sload\n        /* \"Contracts/PaymentProcessingDemo.sol\":4034:4073  merchants[msg.sender].balance >= amount */\n      lt\n      iszero\n        /* \"Contracts/PaymentProcessingDemo.sol\":4026:4098  require(merchants[msg.sender].balance >= amount, \"Insufficient balance\") */\n      tag_203\n      jumpi\n      mload(0x40)\n      0x08c379a000000000000000000000000000000000000000000000000000000000\n      dup2\n      mstore\n      0x04\n      add\n      tag_204\n      swap1\n      tag_205\n      jump\t// in\n    tag_204:\n      mload(0x40)\n      dup1\n      swap2\n      sub\n      swap1\n      revert\n    tag_203:\n        /* \"Contracts/PaymentProcessingDemo.sol\":4141:4147  amount */\n      dup1\n        /* \"Contracts/PaymentProcessingDemo.sol\":4116:4137  address(this).balance */\n      selfbalance\n        /* \"Contracts/PaymentProcessingDemo.sol\":4116:4147  address(this).balance >= amount */\n      lt\n      iszero\n        /* \"Contracts/PaymentProcessingDemo.sol\":4108:4204  require(address(this).balance >= amount, \"Not enough liquidity available, retrieve funds first\") */\n      tag_206\n      jumpi\n      mload(0x40)\n      0x08c379a000000000000000000000000000000000000000000000000000000000\n      dup2\n      mstore\n      0x04\n      add\n      tag_207\n      swap1\n      tag_208\n      jump\t// in\n    tag_207:\n      mload(0x40)\n      dup1\n      swap2\n      sub\n      swap1\n      revert\n    tag_206:\n        /* \"Contracts/PaymentProcessingDemo.sol\":4248:4254  amount */\n      dup1\n        /* \"Contracts/PaymentProcessingDemo.sol\":4215:4224  merchants */\n      0x05\n        /* \"Contracts/PaymentProcessingDemo.sol\":4215:4236  merchants[msg.sender] */\n      0x00\n        /* \"Contracts/PaymentProcessingDemo.sol\":4225:4235  msg.sender */\n      caller\n        /* \"Contracts/PaymentProcessingDemo.sol\":4215:4236  merchants[msg.sender] */\n      0xffffffffffffffffffffffffffffffffffffffff\n      and\n      0xffffffffffffffffffffffffffffffffffffffff\n      and\n      dup2\n      mstore\n      0x20\n      add\n      swap1\n      dup2\n      mstore\n      0x20\n      add\n      0x00\n      keccak256\n        /* \"Contracts/PaymentProcessingDemo.sol\":4215:4244  merchants[msg.sender].balance */\n      0x03\n      add\n      0x00\n        /* \"Contracts/PaymentProcessingDemo.sol\":4215:4254  merchants[msg.sender].balance -= amount */\n      dup3\n      dup3\n      sload\n      tag_209\n      swap2\n      swap1\n      tag_147\n      jump\t// in\n    tag_209:\n      swap3\n      pop\n      pop\n      dup2\n      swap1\n      sstore\n      pop\n        /* \"Contracts/PaymentProcessingDemo.sol\":4312:4322  _recipient */\n      dup2\n        /* \"Contracts/PaymentProcessingDemo.sol\":4312:4331  _recipient.transfer */\n      0xffffffffffffffffffffffffffffffffffffffff\n      and\n        /* \"Contracts/PaymentProcessingDemo.sol\":4312:4339  _recipient.transfer(amount) */\n      0x08fc\n        /* \"Contracts/PaymentProcessingDemo.sol\":4332:4338  amount */\n      dup3\n        /* \"Contracts/PaymentProcessingDemo.sol\":4312:4339  _recipient.transfer(amount) */\n      swap1\n      dup2\n      iszero\n      mul\n      swap1\n      mload(0x40)\n      0x00\n      mload(0x40)\n      dup1\n      dup4\n      sub\n      dup2\n      dup6\n      dup9\n      dup9\n      call\n      swap4\n      pop\n      pop\n      pop\n      pop\n      iszero\n      dup1\n      iszero\n      tag_211\n      jumpi\n      returndatacopy(0x00, 0x00, returndatasize)\n      revert(0x00, returndatasize)\n    tag_211:\n      pop\n        /* \"Contracts/PaymentProcessingDemo.sol\":4390:4400  _recipient */\n      dup2\n        /* \"Contracts/PaymentProcessingDemo.sol\":4355:4401  FundsWithdrawn(msg.sender, amount, _recipient) */\n      0xffffffffffffffffffffffffffffffffffffffff\n      and\n        /* \"Contracts/PaymentProcessingDemo.sol\":4370:4380  msg.sender */\n      caller\n        /* \"Contracts/PaymentProcessingDemo.sol\":4355:4401  FundsWithdrawn(msg.sender, amount, _recipient) */\n      0xffffffffffffffffffffffffffffffffffffffff\n      and\n      0xe9171aeff46c37ab955b8aff908e14ae9732bd06634fa131226cfe5c25bfd2fb\n        /* \"Contracts/PaymentProcessingDemo.sol\":4382:4388  amount */\n      dup4\n        /* \"Contracts/PaymentProcessingDemo.sol\":4355:4401  FundsWithdrawn(msg.sender, amount, _recipient) */\n      mload(0x40)\n      tag_212\n      swap2\n      swap1\n      tag_118\n      jump\t// in\n    tag_212:\n      mload(0x40)\n      dup1\n      swap2\n      sub\n      swap1\n      log3\n        /* \"Contracts/PaymentProcessingDemo.sol\":3927:4408  function withdrawFunds(address payable _recipient, uint256 amount) external onlyMerchant {... */\n      pop\n      pop\n      jump\t// out\n        /* \"Contracts/PaymentProcessingDemo.sol\":4414:4711  function emergencyWithdraw() external onlyOwner {... */\n    tag_82:\n        /* \"Contracts/PaymentProcessingDemo.sol\":1798:1803  owner */\n      0x00\n      0x00\n      swap1\n      sload\n      swap1\n      0x0100\n      exp\n      swap1\n      div\n      0xffffffffffffffffffffffffffffffffffffffff\n      and\n        /* \"Contracts/PaymentProcessingDemo.sol\":1784:1803  msg.sender == owner */\n      0xffffffffffffffffffffffffffffffffffffffff\n      and\n        /* \"Contracts/PaymentProcessingDemo.sol\":1784:1794  msg.sender */\n      caller\n        /* \"Contracts/PaymentProcessingDemo.sol\":1784:1803  msg.sender == owner */\n      0xffffffffffffffffffffffffffffffffffffffff\n      and\n      eq\n        /* \"Contracts/PaymentProcessingDemo.sol\":1776:1841  require(msg.sender == owner, \"Only owner can call this function\") */\n      tag_214\n      jumpi\n      mload(0x40)\n      0x08c379a000000000000000000000000000000000000000000000000000000000\n      dup2\n      mstore\n      0x04\n      add\n      tag_215\n      swap1\n      tag_91\n      jump\t// in\n    tag_215:\n      mload(0x40)\n      dup1\n      swap2\n      sub\n      swap1\n      revert\n    tag_214:\n        /* \"Contracts/PaymentProcessingDemo.sol\":4472:4495  uint256 contractBalance */\n      0x00\n        /* \"Contracts/PaymentProcessingDemo.sol\":4498:4519  address(this).balance */\n      selfbalance\n        /* \"Contracts/PaymentProcessingDemo.sol\":4472:4519  uint256 contractBalance = address(this).balance */\n      swap1\n      pop\n        /* \"Contracts/PaymentProcessingDemo.sol\":4555:4556  0 */\n      0x00\n        /* \"Contracts/PaymentProcessingDemo.sol\":4537:4552  contractBalance */\n      dup2\n        /* \"Contracts/PaymentProcessingDemo.sol\":4537:4556  contractBalance > 0 */\n      gt\n        /* \"Contracts/PaymentProcessingDemo.sol\":4529:4579  require(contractBalance > 0, \"No funds available\") */\n      tag_217\n      jumpi\n      mload(0x40)\n      0x08c379a000000000000000000000000000000000000000000000000000000000\n      dup2\n      mstore\n      0x04\n      add\n      tag_218\n      swap1\n      tag_219\n      jump\t// in\n    tag_218:\n      mload(0x40)\n      dup1\n      swap2\n      sub\n      swap1\n      revert\n    tag_217:\n        /* \"Contracts/PaymentProcessingDemo.sol\":4591:4603  bool success */\n      0x00\n        /* \"Contracts/PaymentProcessingDemo.sol\":4609:4614  owner */\n      0x00\n      0x00\n      swap1\n      sload\n      swap1\n      0x0100\n      exp\n      swap1\n      div\n      0xffffffffffffffffffffffffffffffffffffffff\n      and\n        /* \"Contracts/PaymentProcessingDemo.sol\":4609:4619  owner.call */\n      0xffffffffffffffffffffffffffffffffffffffff\n      and\n        /* \"Contracts/PaymentProcessingDemo.sol\":4627:4642  contractBalance */\n      dup3\n        /* \"Contracts/PaymentProcessingDemo.sol\":4609:4647  owner.call{value: contractBalance}(\"\") */\n      mload(0x40)\n      tag_220\n      swap1\n      tag_149\n      jump\t// in\n    tag_220:\n      0x00\n      mload(0x40)\n      dup1\n      dup4\n      sub\n      dup2\n      dup6\n      dup8\n      gas\n      call\n      swap3\n      pop\n      pop\n      pop\n      returndatasize\n      dup1\n      0x00\n      dup2\n      eq\n      tag_223\n      jumpi\n      mload(0x40)\n      swap2\n      pop\n      and(add(returndatasize, 0x3f), not(0x1f))\n      dup3\n      add\n      0x40\n      mstore\n      returndatasize\n      dup3\n      mstore\n      returndatasize\n      0x00\n      0x20\n      dup5\n      add\n      returndatacopy\n      jump(tag_222)\n    tag_223:\n      0x60\n      swap2\n      pop\n    tag_222:\n      pop\n        /* \"Contracts/PaymentProcessingDemo.sol\":4590:4647  (bool success, ) = owner.call{value: contractBalance}(\"\") */\n      pop\n      swap1\n      pop\n        /* \"Contracts/PaymentProcessingDemo.sol\":4665:4672  success */\n      dup1\n        /* \"Contracts/PaymentProcessingDemo.sol\":4657:4704  require(success, \"Emergency withdrawal failed\") */\n      tag_224\n      jumpi\n      mload(0x40)\n      0x08c379a000000000000000000000000000000000000000000000000000000000\n      dup2\n      mstore\n      0x04\n      add\n      tag_225\n      swap1\n      tag_226\n      jump\t// in\n    tag_225:\n      mload(0x40)\n      dup1\n      swap2\n      sub\n      swap1\n      revert\n    tag_224:\n        /* \"Contracts/PaymentProcessingDemo.sol\":4462:4711  {... */\n      pop\n      pop\n        /* \"Contracts/PaymentProcessingDemo.sol\":4414:4711  function emergencyWithdraw() external onlyOwner {... */\n      jump\t// out\n        /* \"Contracts/PaymentProcessingDemo.sol\":5293:5568  function collectAaveInterest() external view onlyOwner {... */\n    tag_85:\n        /* \"Contracts/PaymentProcessingDemo.sol\":1798:1803  owner */\n      0x00\n      0x00\n      swap1\n      sload\n      swap1\n      0x0100\n      exp\n      swap1\n      div\n      0xffffffffffffffffffffffffffffffffffffffff\n      and\n        /* \"Contracts/PaymentProcessingDemo.sol\":1784:1803  msg.sender == owner */\n      0xffffffffffffffffffffffffffffffffffffffff\n      and\n        /* \"Contracts/PaymentProcessingDemo.sol\":1784:1794  msg.sender */\n      caller\n        /* \"Contracts/PaymentProcessingDemo.sol\":1784:1803  msg.sender == owner */\n      0xffffffffffffffffffffffffffffffffffffffff\n      and\n      eq\n        /* \"Contracts/PaymentProcessingDemo.sol\":1776:1841  require(msg.sender == owner, \"Only owner can call this function\") */\n      tag_228\n      jumpi\n      mload(0x40)\n      0x08c379a000000000000000000000000000000000000000000000000000000000\n      dup2\n      mstore\n      0x04\n      add\n      tag_229\n      swap1\n      tag_91\n      jump\t// in\n    tag_229:\n      mload(0x40)\n      dup1\n      swap2\n      sub\n      swap1\n      revert\n    tag_228:\n        /* \"Contracts/PaymentProcessingDemo.sol\":5358:5374  uint256 interest */\n      0x00\n        /* \"Contracts/PaymentProcessingDemo.sol\":5377:5397  aaveLendingProcessor */\n      immutable(\"0x37d821c64038a6deccb23b3e33cd7d06b5e697ef7f88117a0f085a4c624de237\")\n        /* \"Contracts/PaymentProcessingDemo.sol\":5377:5413  aaveLendingProcessor.collectInterest */\n      0xffffffffffffffffffffffffffffffffffffffff\n      and\n      0x2a2fab22\n        /* \"Contracts/PaymentProcessingDemo.sol\":5377:5415  aaveLendingProcessor.collectInterest() */\n      mload(0x40)\n      dup2\n      0xffffffff\n      and\n      0xe0\n      shl\n      dup2\n      mstore\n      0x04\n      add\n      0x20\n      mload(0x40)\n      dup1\n      dup4\n      sub\n      dup2\n      dup7\n      gas\n      staticcall\n      iszero\n      dup1\n      iszero\n      tag_232\n      jumpi\n      returndatacopy(0x00, 0x00, returndatasize)\n      revert(0x00, returndatasize)\n    tag_232:\n      pop\n      pop\n      pop\n      pop\n      mload(0x40)\n      returndatasize\n      not(0x1f)\n      0x1f\n      dup3\n      add\n      and\n      dup3\n      add\n      dup1\n      0x40\n      mstore\n      pop\n      dup2\n      add\n      swap1\n      tag_233\n      swap2\n      swap1\n      tag_234\n      jump\t// in\n    tag_233:\n        /* \"Contracts/PaymentProcessingDemo.sol\":5358:5415  uint256 interest = aaveLendingProcessor.collectInterest() */\n      swap1\n      pop\n        /* \"Contracts/PaymentProcessingDemo.sol\":5444:5445  0 */\n      0x00\n        /* \"Contracts/PaymentProcessingDemo.sol\":5433:5441  interest */\n      dup2\n        /* \"Contracts/PaymentProcessingDemo.sol\":5433:5445  interest > 0 */\n      gt\n        /* \"Contracts/PaymentProcessingDemo.sol\":5425:5471  require(interest > 0, \"No interest available\") */\n      tag_235\n      jumpi\n      mload(0x40)\n      0x08c379a000000000000000000000000000000000000000000000000000000000\n      dup2\n      mstore\n      0x04\n      add\n      tag_236\n      swap1\n      tag_237\n      jump\t// in\n    tag_236:\n      mload(0x40)\n      dup1\n      swap2\n      sub\n      swap1\n      revert\n    tag_235:\n        /* \"Contracts/PaymentProcessingDemo.sol\":5348:5568  {... */\n      pop\n        /* \"Contracts/PaymentProcessingDemo.sol\":5293:5568  function collectAaveInterest() external view onlyOwner {... */\n      jump\t// out\n    tag_87:\n      mload(0x40)\n      dup1\n      0xa0\n      add\n      0x40\n      mstore\n      dup1\n      0x00\n      dup2\n      mstore\n      0x20\n      add\n      0x60\n      dup2\n      mstore\n      0x20\n      add\n      and(0xffffffffffffffffffffffffffffffffffffffff, 0x00)\n      dup2\n      mstore\n      0x20\n      add\n      0x00\n      dup2\n      mstore\n      0x20\n      add\n      iszero(iszero(0x00))\n      dup2\n      mstore\n      pop\n      swap1\n      jump\t// out\n        /* \"#utility.yul\":7:84   */\n    tag_238:\n        /* \"#utility.yul\":44:51   */\n      0x00\n        /* \"#utility.yul\":73:78   */\n      dup2\n        /* \"#utility.yul\":62:78   */\n      swap1\n      pop\n        /* \"#utility.yul\":7:84   */\n      swap2\n      swap1\n      pop\n      jump\t// out\n        /* \"#utility.yul\":90:208   */\n    tag_239:\n        /* \"#utility.yul\":177:201   */\n      tag_339\n        /* \"#utility.yul\":195:200   */\n      dup2\n        /* \"#utility.yul\":177:201   */\n      tag_238\n      jump\t// in\n    tag_339:\n        /* \"#utility.yul\":172:175   */\n      dup3\n        /* \"#utility.yul\":165:202   */\n      mstore\n        /* \"#utility.yul\":90:208   */\n      pop\n      pop\n      jump\t// out\n        /* \"#utility.yul\":214:340   */\n    tag_240:\n        /* \"#utility.yul\":251:258   */\n      0x00\n        /* \"#utility.yul\":291:333   */\n      0xffffffffffffffffffffffffffffffffffffffff\n        /* \"#utility.yul\":284:289   */\n      dup3\n        /* \"#utility.yul\":280:334   */\n      and\n        /* \"#utility.yul\":269:334   */\n      swap1\n      pop\n        /* \"#utility.yul\":214:340   */\n      swap2\n      swap1\n      pop\n      jump\t// out\n        /* \"#utility.yul\":346:442   */\n    tag_241:\n        /* \"#utility.yul\":383:390   */\n      0x00\n        /* \"#utility.yul\":412:436   */\n      tag_342\n        /* \"#utility.yul\":430:435   */\n      dup3\n        /* \"#utility.yul\":412:436   */\n      tag_240\n      jump\t// in\n    tag_342:\n        /* \"#utility.yul\":401:436   */\n      swap1\n      pop\n        /* \"#utility.yul\":346:442   */\n      swap2\n      swap1\n      pop\n      jump\t// out\n        /* \"#utility.yul\":448:566   */\n    tag_242:\n        /* \"#utility.yul\":535:559   */\n      tag_344\n        /* \"#utility.yul\":553:558   */\n      dup2\n        /* \"#utility.yul\":535:559   */\n      tag_241\n      jump\t// in\n    tag_344:\n        /* \"#utility.yul\":530:533   */\n      dup3\n        /* \"#utility.yul\":523:560   */\n      mstore\n        /* \"#utility.yul\":448:566   */\n      pop\n      pop\n      jump\t// out\n        /* \"#utility.yul\":572:904   */\n    tag_23:\n        /* \"#utility.yul\":693:697   */\n      0x00\n        /* \"#utility.yul\":731:733   */\n      0x40\n        /* \"#utility.yul\":720:729   */\n      dup3\n        /* \"#utility.yul\":716:734   */\n      add\n        /* \"#utility.yul\":708:734   */\n      swap1\n      pop\n        /* \"#utility.yul\":744:815   */\n      tag_346\n        /* \"#utility.yul\":812:813   */\n      0x00\n        /* \"#utility.yul\":801:810   */\n      dup4\n        /* \"#utility.yul\":797:814   */\n      add\n        /* \"#utility.yul\":788:794   */\n      dup6\n        /* \"#utility.yul\":744:815   */\n      tag_239\n      jump\t// in\n    tag_346:\n        /* \"#utility.yul\":825:897   */\n      tag_347\n        /* \"#utility.yul\":893:895   */\n      0x20\n        /* \"#utility.yul\":882:891   */\n      dup4\n        /* \"#utility.yul\":878:896   */\n      add\n        /* \"#utility.yul\":869:875   */\n      dup5\n        /* \"#utility.yul\":825:897   */\n      tag_242\n      jump\t// in\n    tag_347:\n        /* \"#utility.yul\":572:904   */\n      swap4\n      swap3\n      pop\n      pop\n      pop\n      jump\t// out\n        /* \"#utility.yul\":910:985   */\n    tag_243:\n        /* \"#utility.yul\":943:949   */\n      0x00\n        /* \"#utility.yul\":976:978   */\n      0x40\n        /* \"#utility.yul\":970:979   */\n      mload\n        /* \"#utility.yul\":960:979   */\n      swap1\n      pop\n        /* \"#utility.yul\":910:985   */\n      swap1\n      jump\t// out\n        /* \"#utility.yul\":991:1108   */\n    tag_244:\n        /* \"#utility.yul\":1100:1101   */\n      0x00\n        /* \"#utility.yul\":1097:1098   */\n      0x00\n        /* \"#utility.yul\":1090:1102   */\n      revert\n        /* \"#utility.yul\":1114:1231   */\n    tag_245:\n        /* \"#utility.yul\":1223:1224   */\n      0x00\n        /* \"#utility.yul\":1220:1221   */\n      0x00\n        /* \"#utility.yul\":1213:1225   */\n      revert\n        /* \"#utility.yul\":1237:1359   */\n    tag_246:\n        /* \"#utility.yul\":1310:1334   */\n      tag_352\n        /* \"#utility.yul\":1328:1333   */\n      dup2\n        /* \"#utility.yul\":1310:1334   */\n      tag_238\n      jump\t// in\n    tag_352:\n        /* \"#utility.yul\":1303:1308   */\n      dup2\n        /* \"#utility.yul\":1300:1335   */\n      eq\n        /* \"#utility.yul\":1290:1353   */\n      tag_353\n      jumpi\n        /* \"#utility.yul\":1349:1350   */\n      0x00\n        /* \"#utility.yul\":1346:1347   */\n      0x00\n        /* \"#utility.yul\":1339:1351   */\n      revert\n        /* \"#utility.yul\":1290:1353   */\n    tag_353:\n        /* \"#utility.yul\":1237:1359   */\n      pop\n      jump\t// out\n        /* \"#utility.yul\":1365:1504   */\n    tag_247:\n        /* \"#utility.yul\":1411:1416   */\n      0x00\n        /* \"#utility.yul\":1449:1455   */\n      dup2\n        /* \"#utility.yul\":1436:1456   */\n      calldataload\n        /* \"#utility.yul\":1427:1456   */\n      swap1\n      pop\n        /* \"#utility.yul\":1465:1498   */\n      tag_355\n        /* \"#utility.yul\":1492:1497   */\n      dup2\n        /* \"#utility.yul\":1465:1498   */\n      tag_246\n      jump\t// in\n    tag_355:\n        /* \"#utility.yul\":1365:1504   */\n      swap3\n      swap2\n      pop\n      pop\n      jump\t// out\n        /* \"#utility.yul\":1510:1839   */\n    tag_29:\n        /* \"#utility.yul\":1569:1575   */\n      0x00\n        /* \"#utility.yul\":1618:1620   */\n      0x20\n        /* \"#utility.yul\":1606:1615   */\n      dup3\n        /* \"#utility.yul\":1597:1604   */\n      dup5\n        /* \"#utility.yul\":1593:1616   */\n      sub\n        /* \"#utility.yul\":1589:1621   */\n      slt\n        /* \"#utility.yul\":1586:1705   */\n      iszero\n      tag_357\n      jumpi\n        /* \"#utility.yul\":1624:1703   */\n      tag_358\n      tag_244\n      jump\t// in\n    tag_358:\n        /* \"#utility.yul\":1586:1705   */\n    tag_357:\n        /* \"#utility.yul\":1744:1745   */\n      0x00\n        /* \"#utility.yul\":1769:1822   */\n      tag_359\n        /* \"#utility.yul\":1814:1821   */\n      dup5\n        /* \"#utility.yul\":1805:1811   */\n      dup3\n        /* \"#utility.yul\":1794:1803   */\n      dup6\n        /* \"#utility.yul\":1790:1812   */\n      add\n        /* \"#utility.yul\":1769:1822   */\n      tag_247\n      jump\t// in\n    tag_359:\n        /* \"#utility.yul\":1759:1822   */\n      swap2\n      pop\n        /* \"#utility.yul\":1715:1832   */\n      pop\n        /* \"#utility.yul\":1510:1839   */\n      swap3\n      swap2\n      pop\n      pop\n      jump\t// out\n        /* \"#utility.yul\":1845:1953   */\n    tag_248:\n        /* \"#utility.yul\":1922:1946   */\n      tag_361\n        /* \"#utility.yul\":1940:1945   */\n      dup2\n        /* \"#utility.yul\":1922:1946   */\n      tag_238\n      jump\t// in\n    tag_361:\n        /* \"#utility.yul\":1917:1920   */\n      dup3\n        /* \"#utility.yul\":1910:1947   */\n      mstore\n        /* \"#utility.yul\":1845:1953   */\n      pop\n      pop\n      jump\t// out\n        /* \"#utility.yul\":1959:2058   */\n    tag_249:\n        /* \"#utility.yul\":2011:2017   */\n      0x00\n        /* \"#utility.yul\":2045:2050   */\n      dup2\n        /* \"#utility.yul\":2039:2051   */\n      mload\n        /* \"#utility.yul\":2029:2051   */\n      swap1\n      pop\n        /* \"#utility.yul\":1959:2058   */\n      swap2\n      swap1\n      pop\n      jump\t// out\n        /* \"#utility.yul\":2064:2223   */\n    tag_250:\n        /* \"#utility.yul\":2138:2149   */\n      0x00\n        /* \"#utility.yul\":2172:2178   */\n      dup3\n        /* \"#utility.yul\":2167:2170   */\n      dup3\n        /* \"#utility.yul\":2160:2179   */\n      mstore\n        /* \"#utility.yul\":2212:2216   */\n      0x20\n        /* \"#utility.yul\":2207:2210   */\n      dup3\n        /* \"#utility.yul\":2203:2217   */\n      add\n        /* \"#utility.yul\":2188:2217   */\n      swap1\n      pop\n        /* \"#utility.yul\":2064:2223   */\n      swap3\n      swap2\n      pop\n      pop\n      jump\t// out\n        /* \"#utility.yul\":2229:2368   */\n    tag_251:\n        /* \"#utility.yul\":2318:2324   */\n      dup3\n        /* \"#utility.yul\":2313:2316   */\n      dup2\n        /* \"#utility.yul\":2308:2311   */\n      dup4\n        /* \"#utility.yul\":2302:2325   */\n      mcopy\n        /* \"#utility.yul\":2359:2360   */\n      0x00\n        /* \"#utility.yul\":2350:2356   */\n      dup4\n        /* \"#utility.yul\":2345:2348   */\n      dup4\n        /* \"#utility.yul\":2341:2357   */\n      add\n        /* \"#utility.yul\":2334:2361   */\n      mstore\n        /* \"#utility.yul\":2229:2368   */\n      pop\n      pop\n      pop\n      jump\t// out\n        /* \"#utility.yul\":2374:2476   */\n    tag_252:\n        /* \"#utility.yul\":2415:2421   */\n      0x00\n        /* \"#utility.yul\":2466:2468   */\n      0x1f\n        /* \"#utility.yul\":2462:2469   */\n      not\n        /* \"#utility.yul\":2457:2459   */\n      0x1f\n        /* \"#utility.yul\":2450:2455   */\n      dup4\n        /* \"#utility.yul\":2446:2460   */\n      add\n        /* \"#utility.yul\":2442:2470   */\n      and\n        /* \"#utility.yul\":2432:2470   */\n      swap1\n      pop\n        /* \"#utility.yul\":2374:2476   */\n      swap2\n      swap1\n      pop\n      jump\t// out\n        /* \"#utility.yul\":2482:2839   */\n    tag_253:\n        /* \"#utility.yul\":2560:2563   */\n      0x00\n        /* \"#utility.yul\":2588:2627   */\n      tag_367\n        /* \"#utility.yul\":2621:2626   */\n      dup3\n        /* \"#utility.yul\":2588:2627   */\n      tag_249\n      jump\t// in\n    tag_367:\n        /* \"#utility.yul\":2643:2704   */\n      tag_368\n        /* \"#utility.yul\":2697:2703   */\n      dup2\n        /* \"#utility.yul\":2692:2695   */\n      dup6\n        /* \"#utility.yul\":2643:2704   */\n      tag_250\n      jump\t// in\n    tag_368:\n        /* \"#utility.yul\":2636:2704   */\n      swap4\n      pop\n        /* \"#utility.yul\":2713:2778   */\n      tag_369\n        /* \"#utility.yul\":2771:2777   */\n      dup2\n        /* \"#utility.yul\":2766:2769   */\n      dup6\n        /* \"#utility.yul\":2759:2763   */\n      0x20\n        /* \"#utility.yul\":2752:2757   */\n      dup7\n        /* \"#utility.yul\":2748:2764   */\n      add\n        /* \"#utility.yul\":2713:2778   */\n      tag_251\n      jump\t// in\n    tag_369:\n        /* \"#utility.yul\":2803:2832   */\n      tag_370\n        /* \"#utility.yul\":2825:2831   */\n      dup2\n        /* \"#utility.yul\":2803:2832   */\n      tag_252\n      jump\t// in\n    tag_370:\n        /* \"#utility.yul\":2798:2801   */\n      dup5\n        /* \"#utility.yul\":2794:2833   */\n      add\n        /* \"#utility.yul\":2787:2833   */\n      swap2\n      pop\n        /* \"#utility.yul\":2564:2839   */\n      pop\n        /* \"#utility.yul\":2482:2839   */\n      swap3\n      swap2\n      pop\n      pop\n      jump\t// out\n        /* \"#utility.yul\":2845:2953   */\n    tag_254:\n        /* \"#utility.yul\":2922:2946   */\n      tag_372\n        /* \"#utility.yul\":2940:2945   */\n      dup2\n        /* \"#utility.yul\":2922:2946   */\n      tag_241\n      jump\t// in\n    tag_372:\n        /* \"#utility.yul\":2917:2920   */\n      dup3\n        /* \"#utility.yul\":2910:2947   */\n      mstore\n        /* \"#utility.yul\":2845:2953   */\n      pop\n      pop\n      jump\t// out\n        /* \"#utility.yul\":2959:3049   */\n    tag_255:\n        /* \"#utility.yul\":2993:3000   */\n      0x00\n        /* \"#utility.yul\":3036:3041   */\n      dup2\n        /* \"#utility.yul\":3029:3042   */\n      iszero\n        /* \"#utility.yul\":3022:3043   */\n      iszero\n        /* \"#utility.yul\":3011:3043   */\n      swap1\n      pop\n        /* \"#utility.yul\":2959:3049   */\n      swap2\n      swap1\n      pop\n      jump\t// out\n        /* \"#utility.yul\":3055:3154   */\n    tag_256:\n        /* \"#utility.yul\":3126:3147   */\n      tag_375\n        /* \"#utility.yul\":3141:3146   */\n      dup2\n        /* \"#utility.yul\":3126:3147   */\n      tag_255\n      jump\t// in\n    tag_375:\n        /* \"#utility.yul\":3121:3124   */\n      dup3\n        /* \"#utility.yul\":3114:3148   */\n      mstore\n        /* \"#utility.yul\":3055:3154   */\n      pop\n      pop\n      jump\t// out\n        /* \"#utility.yul\":3236:4394   */\n    tag_257:\n        /* \"#utility.yul\":3355:3358   */\n      0x00\n        /* \"#utility.yul\":3391:3395   */\n      0xa0\n        /* \"#utility.yul\":3386:3389   */\n      dup4\n        /* \"#utility.yul\":3382:3396   */\n      add\n        /* \"#utility.yul\":3484:3488   */\n      0x00\n        /* \"#utility.yul\":3477:3482   */\n      dup4\n        /* \"#utility.yul\":3473:3489   */\n      add\n        /* \"#utility.yul\":3467:3490   */\n      mload\n        /* \"#utility.yul\":3503:3566   */\n      tag_377\n        /* \"#utility.yul\":3560:3564   */\n      0x00\n        /* \"#utility.yul\":3555:3558   */\n      dup7\n        /* \"#utility.yul\":3551:3565   */\n      add\n        /* \"#utility.yul\":3537:3549   */\n      dup3\n        /* \"#utility.yul\":3503:3566   */\n      tag_248\n      jump\t// in\n    tag_377:\n        /* \"#utility.yul\":3406:3576   */\n      pop\n        /* \"#utility.yul\":3666:3670   */\n      0x20\n        /* \"#utility.yul\":3659:3664   */\n      dup4\n        /* \"#utility.yul\":3655:3671   */\n      add\n        /* \"#utility.yul\":3649:3672   */\n      mload\n        /* \"#utility.yul\":3719:3722   */\n      dup5\n        /* \"#utility.yul\":3713:3717   */\n      dup3\n        /* \"#utility.yul\":3709:3723   */\n      sub\n        /* \"#utility.yul\":3702:3706   */\n      0x20\n        /* \"#utility.yul\":3697:3700   */\n      dup7\n        /* \"#utility.yul\":3693:3707   */\n      add\n        /* \"#utility.yul\":3686:3724   */\n      mstore\n        /* \"#utility.yul\":3745:3818   */\n      tag_378\n        /* \"#utility.yul\":3813:3817   */\n      dup3\n        /* \"#utility.yul\":3799:3811   */\n      dup3\n        /* \"#utility.yul\":3745:3818   */\n      tag_253\n      jump\t// in\n    tag_378:\n        /* \"#utility.yul\":3737:3818   */\n      swap2\n      pop\n        /* \"#utility.yul\":3586:3829   */\n      pop\n        /* \"#utility.yul\":3922:3926   */\n      0x40\n        /* \"#utility.yul\":3915:3920   */\n      dup4\n        /* \"#utility.yul\":3911:3927   */\n      add\n        /* \"#utility.yul\":3905:3928   */\n      mload\n        /* \"#utility.yul\":3941:4004   */\n      tag_379\n        /* \"#utility.yul\":3998:4002   */\n      0x40\n        /* \"#utility.yul\":3993:3996   */\n      dup7\n        /* \"#utility.yul\":3989:4003   */\n      add\n        /* \"#utility.yul\":3975:3987   */\n      dup3\n        /* \"#utility.yul\":3941:4004   */\n      tag_254\n      jump\t// in\n    tag_379:\n        /* \"#utility.yul\":3839:4014   */\n      pop\n        /* \"#utility.yul\":4099:4103   */\n      0x60\n        /* \"#utility.yul\":4092:4097   */\n      dup4\n        /* \"#utility.yul\":4088:4104   */\n      add\n        /* \"#utility.yul\":4082:4105   */\n      mload\n        /* \"#utility.yul\":4118:4181   */\n      tag_380\n        /* \"#utility.yul\":4175:4179   */\n      0x60\n        /* \"#utility.yul\":4170:4173   */\n      dup7\n        /* \"#utility.yul\":4166:4180   */\n      add\n        /* \"#utility.yul\":4152:4164   */\n      dup3\n        /* \"#utility.yul\":4118:4181   */\n      tag_248\n      jump\t// in\n    tag_380:\n        /* \"#utility.yul\":4024:4191   */\n      pop\n        /* \"#utility.yul\":4281:4285   */\n      0x80\n        /* \"#utility.yul\":4274:4279   */\n      dup4\n        /* \"#utility.yul\":4270:4286   */\n      add\n        /* \"#utility.yul\":4264:4287   */\n      mload\n        /* \"#utility.yul\":4300:4357   */\n      tag_381\n        /* \"#utility.yul\":4351:4355   */\n      0x80\n        /* \"#utility.yul\":4346:4349   */\n      dup7\n        /* \"#utility.yul\":4342:4356   */\n      add\n        /* \"#utility.yul\":4328:4340   */\n      dup3\n        /* \"#utility.yul\":4300:4357   */\n      tag_256\n      jump\t// in\n    tag_381:\n        /* \"#utility.yul\":4201:4367   */\n      pop\n        /* \"#utility.yul\":4384:4388   */\n      dup1\n        /* \"#utility.yul\":4377:4388   */\n      swap2\n      pop\n        /* \"#utility.yul\":3360:4394   */\n      pop\n        /* \"#utility.yul\":3236:4394   */\n      swap3\n      swap2\n      pop\n      pop\n      jump\t// out\n        /* \"#utility.yul\":4400:4773   */\n    tag_32:\n        /* \"#utility.yul\":4543:4547   */\n      0x00\n        /* \"#utility.yul\":4581:4583   */\n      0x20\n        /* \"#utility.yul\":4570:4579   */\n      dup3\n        /* \"#utility.yul\":4566:4584   */\n      add\n        /* \"#utility.yul\":4558:4584   */\n      swap1\n      pop\n        /* \"#utility.yul\":4630:4639   */\n      dup2\n        /* \"#utility.yul\":4624:4628   */\n      dup2\n        /* \"#utility.yul\":4620:4640   */\n      sub\n        /* \"#utility.yul\":4616:4617   */\n      0x00\n        /* \"#utility.yul\":4605:4614   */\n      dup4\n        /* \"#utility.yul\":4601:4618   */\n      add\n        /* \"#utility.yul\":4594:4641   */\n      mstore\n        /* \"#utility.yul\":4658:4766   */\n      tag_383\n        /* \"#utility.yul\":4761:4765   */\n      dup2\n        /* \"#utility.yul\":4752:4758   */\n      dup5\n        /* \"#utility.yul\":4658:4766   */\n      tag_257\n      jump\t// in\n    tag_383:\n        /* \"#utility.yul\":4650:4766   */\n      swap1\n      pop\n        /* \"#utility.yul\":4400:4773   */\n      swap3\n      swap2\n      pop\n      pop\n      jump\t// out\n        /* \"#utility.yul\":4779:4883   */\n    tag_258:\n        /* \"#utility.yul\":4824:4831   */\n      0x00\n        /* \"#utility.yul\":4853:4877   */\n      tag_385\n        /* \"#utility.yul\":4871:4876   */\n      dup3\n        /* \"#utility.yul\":4853:4877   */\n      tag_240\n      jump\t// in\n    tag_385:\n        /* \"#utility.yul\":4842:4877   */\n      swap1\n      pop\n        /* \"#utility.yul\":4779:4883   */\n      swap2\n      swap1\n      pop\n      jump\t// out\n        /* \"#utility.yul\":4889:5027   */\n    tag_259:\n        /* \"#utility.yul\":4970:5002   */\n      tag_387\n        /* \"#utility.yul\":4996:5001   */\n      dup2\n        /* \"#utility.yul\":4970:5002   */\n      tag_258\n      jump\t// in\n    tag_387:\n        /* \"#utility.yul\":4963:4968   */\n      dup2\n        /* \"#utility.yul\":4960:5003   */\n      eq\n        /* \"#utility.yul\":4950:5021   */\n      tag_388\n      jumpi\n        /* \"#utility.yul\":5017:5018   */\n      0x00\n        /* \"#utility.yul\":5014:5015   */\n      0x00\n        /* \"#utility.yul\":5007:5019   */\n      revert\n        /* \"#utility.yul\":4950:5021   */\n    tag_388:\n        /* \"#utility.yul\":4889:5027   */\n      pop\n      jump\t// out\n        /* \"#utility.yul\":5033:5188   */\n    tag_260:\n        /* \"#utility.yul\":5087:5092   */\n      0x00\n        /* \"#utility.yul\":5125:5131   */\n      dup2\n        /* \"#utility.yul\":5112:5132   */\n      calldataload\n        /* \"#utility.yul\":5103:5132   */\n      swap1\n      pop\n        /* \"#utility.yul\":5141:5182   */\n      tag_390\n        /* \"#utility.yul\":5176:5181   */\n      dup2\n        /* \"#utility.yul\":5141:5182   */\n      tag_259\n      jump\t// in\n    tag_390:\n        /* \"#utility.yul\":5033:5188   */\n      swap3\n      swap2\n      pop\n      pop\n      jump\t// out\n        /* \"#utility.yul\":5194:5684   */\n    tag_47:\n        /* \"#utility.yul\":5270:5276   */\n      0x00\n        /* \"#utility.yul\":5278:5284   */\n      0x00\n        /* \"#utility.yul\":5327:5329   */\n      0x40\n        /* \"#utility.yul\":5315:5324   */\n      dup4\n        /* \"#utility.yul\":5306:5313   */\n      dup6\n        /* \"#utility.yul\":5302:5325   */\n      sub\n        /* \"#utility.yul\":5298:5330   */\n      slt\n        /* \"#utility.yul\":5295:5414   */\n      iszero\n      tag_392\n      jumpi\n        /* \"#utility.yul\":5333:5412   */\n      tag_393\n      tag_244\n      jump\t// in\n    tag_393:\n        /* \"#utility.yul\":5295:5414   */\n    tag_392:\n        /* \"#utility.yul\":5453:5454   */\n      0x00\n        /* \"#utility.yul\":5478:5539   */\n      tag_394\n        /* \"#utility.yul\":5531:5538   */\n      dup6\n        /* \"#utility.yul\":5522:5528   */\n      dup3\n        /* \"#utility.yul\":5511:5520   */\n      dup7\n        /* \"#utility.yul\":5507:5529   */\n      add\n        /* \"#utility.yul\":5478:5539   */\n      tag_260\n      jump\t// in\n    tag_394:\n        /* \"#utility.yul\":5468:5539   */\n      swap3\n      pop\n        /* \"#utility.yul\":5424:5549   */\n      pop\n        /* \"#utility.yul\":5588:5590   */\n      0x20\n        /* \"#utility.yul\":5614:5667   */\n      tag_395\n        /* \"#utility.yul\":5659:5666   */\n      dup6\n        /* \"#utility.yul\":5650:5656   */\n      dup3\n        /* \"#utility.yul\":5639:5648   */\n      dup7\n        /* \"#utility.yul\":5635:5657   */\n      add\n        /* \"#utility.yul\":5614:5667   */\n      tag_247\n      jump\t// in\n    tag_395:\n        /* \"#utility.yul\":5604:5667   */\n      swap2\n      pop\n        /* \"#utility.yul\":5559:5677   */\n      pop\n        /* \"#utility.yul\":5194:5684   */\n      swap3\n      pop\n      swap3\n      swap1\n      pop\n      jump\t// out\n        /* \"#utility.yul\":5690:5750   */\n    tag_261:\n        /* \"#utility.yul\":5718:5721   */\n      0x00\n        /* \"#utility.yul\":5739:5744   */\n      dup2\n        /* \"#utility.yul\":5732:5744   */\n      swap1\n      pop\n        /* \"#utility.yul\":5690:5750   */\n      swap2\n      swap1\n      pop\n      jump\t// out\n        /* \"#utility.yul\":5756:5898   */\n    tag_262:\n        /* \"#utility.yul\":5806:5815   */\n      0x00\n        /* \"#utility.yul\":5839:5892   */\n      tag_398\n        /* \"#utility.yul\":5857:5891   */\n      tag_399\n        /* \"#utility.yul\":5866:5890   */\n      tag_400\n        /* \"#utility.yul\":5884:5889   */\n      dup5\n        /* \"#utility.yul\":5866:5890   */\n      tag_240\n      jump\t// in\n    tag_400:\n        /* \"#utility.yul\":5857:5891   */\n      tag_261\n      jump\t// in\n    tag_399:\n        /* \"#utility.yul\":5839:5892   */\n      tag_240\n      jump\t// in\n    tag_398:\n        /* \"#utility.yul\":5826:5892   */\n      swap1\n      pop\n        /* \"#utility.yul\":5756:5898   */\n      swap2\n      swap1\n      pop\n      jump\t// out\n        /* \"#utility.yul\":5904:6030   */\n    tag_263:\n        /* \"#utility.yul\":5954:5963   */\n      0x00\n        /* \"#utility.yul\":5987:6024   */\n      tag_402\n        /* \"#utility.yul\":6018:6023   */\n      dup3\n        /* \"#utility.yul\":5987:6024   */\n      tag_262\n      jump\t// in\n    tag_402:\n        /* \"#utility.yul\":5974:6024   */\n      swap1\n      pop\n        /* \"#utility.yul\":5904:6030   */\n      swap2\n      swap1\n      pop\n      jump\t// out\n        /* \"#utility.yul\":6036:6190   */\n    tag_264:\n        /* \"#utility.yul\":6114:6123   */\n      0x00\n        /* \"#utility.yul\":6147:6184   */\n      tag_404\n        /* \"#utility.yul\":6178:6183   */\n      dup3\n        /* \"#utility.yul\":6147:6184   */\n      tag_263\n      jump\t// in\n    tag_404:\n        /* \"#utility.yul\":6134:6184   */\n      swap1\n      pop\n        /* \"#utility.yul\":6036:6190   */\n      swap2\n      swap1\n      pop\n      jump\t// out\n        /* \"#utility.yul\":6196:6383   */\n    tag_265:\n        /* \"#utility.yul\":6311:6376   */\n      tag_406\n        /* \"#utility.yul\":6370:6375   */\n      dup2\n        /* \"#utility.yul\":6311:6376   */\n      tag_264\n      jump\t// in\n    tag_406:\n        /* \"#utility.yul\":6306:6309   */\n      dup3\n        /* \"#utility.yul\":6299:6377   */\n      mstore\n        /* \"#utility.yul\":6196:6383   */\n      pop\n      pop\n      jump\t// out\n        /* \"#utility.yul\":6389:6667   */\n    tag_57:\n        /* \"#utility.yul\":6510:6514   */\n      0x00\n        /* \"#utility.yul\":6548:6550   */\n      0x20\n        /* \"#utility.yul\":6537:6546   */\n      dup3\n        /* \"#utility.yul\":6533:6551   */\n      add\n        /* \"#utility.yul\":6525:6551   */\n      swap1\n      pop\n        /* \"#utility.yul\":6561:6660   */\n      tag_408\n        /* \"#utility.yul\":6657:6658   */\n      0x00\n        /* \"#utility.yul\":6646:6655   */\n      dup4\n        /* \"#utility.yul\":6642:6659   */\n      add\n        /* \"#utility.yul\":6633:6639   */\n      dup5\n        /* \"#utility.yul\":6561:6660   */\n      tag_265\n      jump\t// in\n    tag_408:\n        /* \"#utility.yul\":6389:6667   */\n      swap3\n      swap2\n      pop\n      pop\n      jump\t// out\n        /* \"#utility.yul\":6673:6895   */\n    tag_62:\n        /* \"#utility.yul\":6766:6770   */\n      0x00\n        /* \"#utility.yul\":6804:6806   */\n      0x20\n        /* \"#utility.yul\":6793:6802   */\n      dup3\n        /* \"#utility.yul\":6789:6807   */\n      add\n        /* \"#utility.yul\":6781:6807   */\n      swap1\n      pop\n        /* \"#utility.yul\":6817:6888   */\n      tag_410\n        /* \"#utility.yul\":6885:6886   */\n      0x00\n        /* \"#utility.yul\":6874:6883   */\n      dup4\n        /* \"#utility.yul\":6870:6887   */\n      add\n        /* \"#utility.yul\":6861:6867   */\n      dup5\n        /* \"#utility.yul\":6817:6888   */\n      tag_242\n      jump\t// in\n    tag_410:\n        /* \"#utility.yul\":6673:6895   */\n      swap3\n      swap2\n      pop\n      pop\n      jump\t// out\n        /* \"#utility.yul\":6901:7023   */\n    tag_266:\n        /* \"#utility.yul\":6974:6998   */\n      tag_412\n        /* \"#utility.yul\":6992:6997   */\n      dup2\n        /* \"#utility.yul\":6974:6998   */\n      tag_241\n      jump\t// in\n    tag_412:\n        /* \"#utility.yul\":6967:6972   */\n      dup2\n        /* \"#utility.yul\":6964:6999   */\n      eq\n        /* \"#utility.yul\":6954:7017   */\n      tag_413\n      jumpi\n        /* \"#utility.yul\":7013:7014   */\n      0x00\n        /* \"#utility.yul\":7010:7011   */\n      0x00\n        /* \"#utility.yul\":7003:7015   */\n      revert\n        /* \"#utility.yul\":6954:7017   */\n    tag_413:\n        /* \"#utility.yul\":6901:7023   */\n      pop\n      jump\t// out\n        /* \"#utility.yul\":7029:7168   */\n    tag_267:\n        /* \"#utility.yul\":7075:7080   */\n      0x00\n        /* \"#utility.yul\":7113:7119   */\n      dup2\n        /* \"#utility.yul\":7100:7120   */\n      calldataload\n        /* \"#utility.yul\":7091:7120   */\n      swap1\n      pop\n        /* \"#utility.yul\":7129:7162   */\n      tag_415\n        /* \"#utility.yul\":7156:7161   */\n      dup2\n        /* \"#utility.yul\":7129:7162   */\n      tag_266\n      jump\t// in\n    tag_415:\n        /* \"#utility.yul\":7029:7168   */\n      swap3\n      swap2\n      pop\n      pop\n      jump\t// out\n        /* \"#utility.yul\":7174:7503   */\n    tag_65:\n        /* \"#utility.yul\":7233:7239   */\n      0x00\n        /* \"#utility.yul\":7282:7284   */\n      0x20\n        /* \"#utility.yul\":7270:7279   */\n      dup3\n        /* \"#utility.yul\":7261:7268   */\n      dup5\n        /* \"#utility.yul\":7257:7280   */\n      sub\n        /* \"#utility.yul\":7253:7285   */\n      slt\n        /* \"#utility.yul\":7250:7369   */\n      iszero\n      tag_417\n      jumpi\n        /* \"#utility.yul\":7288:7367   */\n      tag_418\n      tag_244\n      jump\t// in\n    tag_418:\n        /* \"#utility.yul\":7250:7369   */\n    tag_417:\n        /* \"#utility.yul\":7408:7409   */\n      0x00\n        /* \"#utility.yul\":7433:7486   */\n      tag_419\n        /* \"#utility.yul\":7478:7485   */\n      dup5\n        /* \"#utility.yul\":7469:7475   */\n      dup3\n        /* \"#utility.yul\":7458:7467   */\n      dup6\n        /* \"#utility.yul\":7454:7476   */\n      add\n        /* \"#utility.yul\":7433:7486   */\n      tag_267\n      jump\t// in\n    tag_419:\n        /* \"#utility.yul\":7423:7486   */\n      swap2\n      pop\n        /* \"#utility.yul\":7379:7496   */\n      pop\n        /* \"#utility.yul\":7174:7503   */\n      swap3\n      swap2\n      pop\n      pop\n      jump\t// out\n        /* \"#utility.yul\":7509:7626   */\n    tag_268:\n        /* \"#utility.yul\":7618:7619   */\n      0x00\n        /* \"#utility.yul\":7615:7616   */\n      0x00\n        /* \"#utility.yul\":7608:7620   */\n      revert\n        /* \"#utility.yul\":7632:7749   */\n    tag_269:\n        /* \"#utility.yul\":7741:7742   */\n      0x00\n        /* \"#utility.yul\":7738:7739   */\n      0x00\n        /* \"#utility.yul\":7731:7743   */\n      revert\n        /* \"#utility.yul\":7755:7935   */\n    tag_270:\n        /* \"#utility.yul\":7803:7880   */\n      0x4e487b7100000000000000000000000000000000000000000000000000000000\n        /* \"#utility.yul\":7800:7801   */\n      0x00\n        /* \"#utility.yul\":7793:7881   */\n      mstore\n        /* \"#utility.yul\":7900:7904   */\n      0x41\n        /* \"#utility.yul\":7897:7898   */\n      0x04\n        /* \"#utility.yul\":7890:7905   */\n      mstore\n        /* \"#utility.yul\":7924:7928   */\n      0x24\n        /* \"#utility.yul\":7921:7922   */\n      0x00\n        /* \"#utility.yul\":7914:7929   */\n      revert\n        /* \"#utility.yul\":7941:8222   */\n    tag_271:\n        /* \"#utility.yul\":8024:8051   */\n      tag_424\n        /* \"#utility.yul\":8046:8050   */\n      dup3\n        /* \"#utility.yul\":8024:8051   */\n      tag_252\n      jump\t// in\n    tag_424:\n        /* \"#utility.yul\":8016:8022   */\n      dup2\n        /* \"#utility.yul\":8012:8052   */\n      add\n        /* \"#utility.yul\":8154:8160   */\n      dup2\n        /* \"#utility.yul\":8142:8152   */\n      dup2\n        /* \"#utility.yul\":8139:8161   */\n      lt\n        /* \"#utility.yul\":8118:8136   */\n      0xffffffffffffffff\n        /* \"#utility.yul\":8106:8116   */\n      dup3\n        /* \"#utility.yul\":8103:8137   */\n      gt\n        /* \"#utility.yul\":8100:8162   */\n      or\n        /* \"#utility.yul\":8097:8185   */\n      iszero\n      tag_425\n      jumpi\n        /* \"#utility.yul\":8165:8183   */\n      tag_426\n      tag_270\n      jump\t// in\n    tag_426:\n        /* \"#utility.yul\":8097:8185   */\n    tag_425:\n        /* \"#utility.yul\":8205:8215   */\n      dup1\n        /* \"#utility.yul\":8201:8203   */\n      0x40\n        /* \"#utility.yul\":8194:8216   */\n      mstore\n        /* \"#utility.yul\":7984:8222   */\n      pop\n        /* \"#utility.yul\":7941:8222   */\n      pop\n      pop\n      jump\t// out\n        /* \"#utility.yul\":8228:8357   */\n    tag_272:\n        /* \"#utility.yul\":8262:8268   */\n      0x00\n        /* \"#utility.yul\":8289:8309   */\n      tag_428\n      tag_243\n      jump\t// in\n    tag_428:\n        /* \"#utility.yul\":8279:8309   */\n      swap1\n      pop\n        /* \"#utility.yul\":8318:8351   */\n      tag_429\n        /* \"#utility.yul\":8346:8350   */\n      dup3\n        /* \"#utility.yul\":8338:8344   */\n      dup3\n        /* \"#utility.yul\":8318:8351   */\n      tag_271\n      jump\t// in\n    tag_429:\n        /* \"#utility.yul\":8228:8357   */\n      swap2\n      swap1\n      pop\n      jump\t// out\n        /* \"#utility.yul\":8363:8671   */\n    tag_273:\n        /* \"#utility.yul\":8425:8429   */\n      0x00\n        /* \"#utility.yul\":8515:8533   */\n      0xffffffffffffffff\n        /* \"#utility.yul\":8507:8513   */\n      dup3\n        /* \"#utility.yul\":8504:8534   */\n      gt\n        /* \"#utility.yul\":8501:8557   */\n      iszero\n      tag_431\n      jumpi\n        /* \"#utility.yul\":8537:8555   */\n      tag_432\n      tag_270\n      jump\t// in\n    tag_432:\n        /* \"#utility.yul\":8501:8557   */\n    tag_431:\n        /* \"#utility.yul\":8575:8604   */\n      tag_433\n        /* \"#utility.yul\":8597:8603   */\n      dup3\n        /* \"#utility.yul\":8575:8604   */\n      tag_252\n      jump\t// in\n    tag_433:\n        /* \"#utility.yul\":8567:8604   */\n      swap1\n      pop\n        /* \"#utility.yul\":8659:8663   */\n      0x20\n        /* \"#utility.yul\":8653:8657   */\n      dup2\n        /* \"#utility.yul\":8649:8664   */\n      add\n        /* \"#utility.yul\":8641:8664   */\n      swap1\n      pop\n        /* \"#utility.yul\":8363:8671   */\n      swap2\n      swap1\n      pop\n      jump\t// out\n        /* \"#utility.yul\":8677:8825   */\n    tag_274:\n        /* \"#utility.yul\":8775:8781   */\n      dup3\n        /* \"#utility.yul\":8770:8773   */\n      dup2\n        /* \"#utility.yul\":8765:8768   */\n      dup4\n        /* \"#utility.yul\":8752:8782   */\n      calldatacopy\n        /* \"#utility.yul\":8816:8817   */\n      0x00\n        /* \"#utility.yul\":8807:8813   */\n      dup4\n        /* \"#utility.yul\":8802:8805   */\n      dup4\n        /* \"#utility.yul\":8798:8814   */\n      add\n        /* \"#utility.yul\":8791:8818   */\n      mstore\n        /* \"#utility.yul\":8677:8825   */\n      pop\n      pop\n      pop\n      jump\t// out\n        /* \"#utility.yul\":8831:9256   */\n    tag_275:\n        /* \"#utility.yul\":8909:8914   */\n      0x00\n        /* \"#utility.yul\":8934:9000   */\n      tag_436\n        /* \"#utility.yul\":8950:8999   */\n      tag_437\n        /* \"#utility.yul\":8992:8998   */\n      dup5\n        /* \"#utility.yul\":8950:8999   */\n      tag_273\n      jump\t// in\n    tag_437:\n        /* \"#utility.yul\":8934:9000   */\n      tag_272\n      jump\t// in\n    tag_436:\n        /* \"#utility.yul\":8925:9000   */\n      swap1\n      pop\n        /* \"#utility.yul\":9023:9029   */\n      dup3\n        /* \"#utility.yul\":9016:9021   */\n      dup2\n        /* \"#utility.yul\":9009:9030   */\n      mstore\n        /* \"#utility.yul\":9061:9065   */\n      0x20\n        /* \"#utility.yul\":9054:9059   */\n      dup2\n        /* \"#utility.yul\":9050:9066   */\n      add\n        /* \"#utility.yul\":9099:9102   */\n      dup5\n        /* \"#utility.yul\":9090:9096   */\n      dup5\n        /* \"#utility.yul\":9085:9088   */\n      dup5\n        /* \"#utility.yul\":9081:9097   */\n      add\n        /* \"#utility.yul\":9078:9103   */\n      gt\n        /* \"#utility.yul\":9075:9187   */\n      iszero\n      tag_438\n      jumpi\n        /* \"#utility.yul\":9106:9185   */\n      tag_439\n      tag_269\n      jump\t// in\n    tag_439:\n        /* \"#utility.yul\":9075:9187   */\n    tag_438:\n        /* \"#utility.yul\":9196:9250   */\n      tag_440\n        /* \"#utility.yul\":9243:9249   */\n      dup5\n        /* \"#utility.yul\":9238:9241   */\n      dup3\n        /* \"#utility.yul\":9233:9236   */\n      dup6\n        /* \"#utility.yul\":9196:9250   */\n      tag_274\n      jump\t// in\n    tag_440:\n        /* \"#utility.yul\":8915:9256   */\n      pop\n        /* \"#utility.yul\":8831:9256   */\n      swap4\n      swap3\n      pop\n      pop\n      pop\n      jump\t// out\n        /* \"#utility.yul\":9276:9616   */\n    tag_276:\n        /* \"#utility.yul\":9332:9337   */\n      0x00\n        /* \"#utility.yul\":9381:9384   */\n      dup3\n        /* \"#utility.yul\":9374:9378   */\n      0x1f\n        /* \"#utility.yul\":9366:9372   */\n      dup4\n        /* \"#utility.yul\":9362:9379   */\n      add\n        /* \"#utility.yul\":9358:9385   */\n      slt\n        /* \"#utility.yul\":9348:9470   */\n      tag_442\n      jumpi\n        /* \"#utility.yul\":9389:9468   */\n      tag_443\n      tag_268\n      jump\t// in\n    tag_443:\n        /* \"#utility.yul\":9348:9470   */\n    tag_442:\n        /* \"#utility.yul\":9506:9512   */\n      dup2\n        /* \"#utility.yul\":9493:9513   */\n      calldataload\n        /* \"#utility.yul\":9531:9610   */\n      tag_444\n        /* \"#utility.yul\":9606:9609   */\n      dup5\n        /* \"#utility.yul\":9598:9604   */\n      dup3\n        /* \"#utility.yul\":9591:9595   */\n      0x20\n        /* \"#utility.yul\":9583:9589   */\n      dup7\n        /* \"#utility.yul\":9579:9596   */\n      add\n        /* \"#utility.yul\":9531:9610   */\n      tag_275\n      jump\t// in\n    tag_444:\n        /* \"#utility.yul\":9522:9610   */\n      swap2\n      pop\n        /* \"#utility.yul\":9338:9616   */\n      pop\n        /* \"#utility.yul\":9276:9616   */\n      swap3\n      swap2\n      pop\n      pop\n      jump\t// out\n        /* \"#utility.yul\":9622:10276   */\n    tag_74:\n        /* \"#utility.yul\":9700:9706   */\n      0x00\n        /* \"#utility.yul\":9708:9714   */\n      0x00\n        /* \"#utility.yul\":9757:9759   */\n      0x40\n        /* \"#utility.yul\":9745:9754   */\n      dup4\n        /* \"#utility.yul\":9736:9743   */\n      dup6\n        /* \"#utility.yul\":9732:9755   */\n      sub\n        /* \"#utility.yul\":9728:9760   */\n      slt\n        /* \"#utility.yul\":9725:9844   */\n      iszero\n      tag_446\n      jumpi\n        /* \"#utility.yul\":9763:9842   */\n      tag_447\n      tag_244\n      jump\t// in\n    tag_447:\n        /* \"#utility.yul\":9725:9844   */\n    tag_446:\n        /* \"#utility.yul\":9911:9912   */\n      0x00\n        /* \"#utility.yul\":9900:9909   */\n      dup4\n        /* \"#utility.yul\":9896:9913   */\n      add\n        /* \"#utility.yul\":9883:9914   */\n      calldataload\n        /* \"#utility.yul\":9941:9959   */\n      0xffffffffffffffff\n        /* \"#utility.yul\":9933:9939   */\n      dup2\n        /* \"#utility.yul\":9930:9960   */\n      gt\n        /* \"#utility.yul\":9927:10044   */\n      iszero\n      tag_448\n      jumpi\n        /* \"#utility.yul\":9963:10042   */\n      tag_449\n      tag_245\n      jump\t// in\n    tag_449:\n        /* \"#utility.yul\":9927:10044   */\n    tag_448:\n        /* \"#utility.yul\":10068:10131   */\n      tag_450\n        /* \"#utility.yul\":10123:10130   */\n      dup6\n        /* \"#utility.yul\":10114:10120   */\n      dup3\n        /* \"#utility.yul\":10103:10112   */\n      dup7\n        /* \"#utility.yul\":10099:10121   */\n      add\n        /* \"#utility.yul\":10068:10131   */\n      tag_276\n      jump\t// in\n    tag_450:\n        /* \"#utility.yul\":10058:10131   */\n      swap3\n      pop\n        /* \"#utility.yul\":9854:10141   */\n      pop\n        /* \"#utility.yul\":10180:10182   */\n      0x20\n        /* \"#utility.yul\":10206:10259   */\n      tag_451\n        /* \"#utility.yul\":10251:10258   */\n      dup6\n        /* \"#utility.yul\":10242:10248   */\n      dup3\n        /* \"#utility.yul\":10231:10240   */\n      dup7\n        /* \"#utility.yul\":10227:10249   */\n      add\n        /* \"#utility.yul\":10206:10259   */\n      tag_267\n      jump\t// in\n    tag_451:\n        /* \"#utility.yul\":10196:10259   */\n      swap2\n      pop\n        /* \"#utility.yul\":10151:10269   */\n      pop\n        /* \"#utility.yul\":9622:10276   */\n      swap3\n      pop\n      swap3\n      swap1\n      pop\n      jump\t// out\n        /* \"#utility.yul\":10282:10451   */\n    tag_277:\n        /* \"#utility.yul\":10366:10377   */\n      0x00\n        /* \"#utility.yul\":10400:10406   */\n      dup3\n        /* \"#utility.yul\":10395:10398   */\n      dup3\n        /* \"#utility.yul\":10388:10407   */\n      mstore\n        /* \"#utility.yul\":10440:10444   */\n      0x20\n        /* \"#utility.yul\":10435:10438   */\n      dup3\n        /* \"#utility.yul\":10431:10445   */\n      add\n        /* \"#utility.yul\":10416:10445   */\n      swap1\n      pop\n        /* \"#utility.yul\":10282:10451   */\n      swap3\n      swap2\n      pop\n      pop\n      jump\t// out\n        /* \"#utility.yul\":10457:10677   */\n    tag_278:\n        /* \"#utility.yul\":10597:10631   */\n      0x4f6e6c79206f776e65722063616e2063616c6c20746869732066756e6374696f\n        /* \"#utility.yul\":10593:10594   */\n      0x00\n        /* \"#utility.yul\":10585:10591   */\n      dup3\n        /* \"#utility.yul\":10581:10595   */\n      add\n        /* \"#utility.yul\":10574:10632   */\n      mstore\n        /* \"#utility.yul\":10666:10669   */\n      0x6e00000000000000000000000000000000000000000000000000000000000000\n        /* \"#utility.yul\":10661:10663   */\n      0x20\n        /* \"#utility.yul\":10653:10659   */\n      dup3\n        /* \"#utility.yul\":10649:10664   */\n      add\n        /* \"#utility.yul\":10642:10670   */\n      mstore\n        /* \"#utility.yul\":10457:10677   */\n      pop\n      jump\t// out\n        /* \"#utility.yul\":10683:11049   */\n    tag_279:\n        /* \"#utility.yul\":10825:10828   */\n      0x00\n        /* \"#utility.yul\":10846:10913   */\n      tag_455\n        /* \"#utility.yul\":10910:10912   */\n      0x21\n        /* \"#utility.yul\":10905:10908   */\n      dup4\n        /* \"#utility.yul\":10846:10913   */\n      tag_277\n      jump\t// in\n    tag_455:\n        /* \"#utility.yul\":10839:10913   */\n      swap2\n      pop\n        /* \"#utility.yul\":10922:11015   */\n      tag_456\n        /* \"#utility.yul\":11011:11014   */\n      dup3\n        /* \"#utility.yul\":10922:11015   */\n      tag_278\n      jump\t// in\n    tag_456:\n        /* \"#utility.yul\":11040:11042   */\n      0x40\n        /* \"#utility.yul\":11035:11038   */\n      dup3\n        /* \"#utility.yul\":11031:11043   */\n      add\n        /* \"#utility.yul\":11024:11043   */\n      swap1\n      pop\n        /* \"#utility.yul\":10683:11049   */\n      swap2\n      swap1\n      pop\n      jump\t// out\n        /* \"#utility.yul\":11055:11474   */\n    tag_91:\n        /* \"#utility.yul\":11221:11225   */\n      0x00\n        /* \"#utility.yul\":11259:11261   */\n      0x20\n        /* \"#utility.yul\":11248:11257   */\n      dup3\n        /* \"#utility.yul\":11244:11262   */\n      add\n        /* \"#utility.yul\":11236:11262   */\n      swap1\n      pop\n        /* \"#utility.yul\":11308:11317   */\n      dup2\n        /* \"#utility.yul\":11302:11306   */\n      dup2\n        /* \"#utility.yul\":11298:11318   */\n      sub\n        /* \"#utility.yul\":11294:11295   */\n      0x00\n        /* \"#utility.yul\":11283:11292   */\n      dup4\n        /* \"#utility.yul\":11279:11296   */\n      add\n        /* \"#utility.yul\":11272:11319   */\n      mstore\n        /* \"#utility.yul\":11336:11467   */\n      tag_458\n        /* \"#utility.yul\":11462:11466   */\n      dup2\n        /* \"#utility.yul\":11336:11467   */\n      tag_279\n      jump\t// in\n    tag_458:\n        /* \"#utility.yul\":11328:11467   */\n      swap1\n      pop\n        /* \"#utility.yul\":11055:11474   */\n      swap2\n      swap1\n      pop\n      jump\t// out\n        /* \"#utility.yul\":11480:11651   */\n    tag_280:\n        /* \"#utility.yul\":11620:11643   */\n      0x4d65726368616e74204944206e6f7420666f756e640000000000000000000000\n        /* \"#utility.yul\":11616:11617   */\n      0x00\n        /* \"#utility.yul\":11608:11614   */\n      dup3\n        /* \"#utility.yul\":11604:11618   */\n      add\n        /* \"#utility.yul\":11597:11644   */\n      mstore\n        /* \"#utility.yul\":11480:11651   */\n      pop\n      jump\t// out\n        /* \"#utility.yul\":11657:12023   */\n    tag_281:\n        /* \"#utility.yul\":11799:11802   */\n      0x00\n        /* \"#utility.yul\":11820:11887   */\n      tag_461\n        /* \"#utility.yul\":11884:11886   */\n      0x15\n        /* \"#utility.yul\":11879:11882   */\n      dup4\n        /* \"#utility.yul\":11820:11887   */\n      tag_277\n      jump\t// in\n    tag_461:\n        /* \"#utility.yul\":11813:11887   */\n      swap2\n      pop\n        /* \"#utility.yul\":11896:11989   */\n      tag_462\n        /* \"#utility.yul\":11985:11988   */\n      dup3\n        /* \"#utility.yul\":11896:11989   */\n      tag_280\n      jump\t// in\n    tag_462:\n        /* \"#utility.yul\":12014:12016   */\n      0x20\n        /* \"#utility.yul\":12009:12012   */\n      dup3\n        /* \"#utility.yul\":12005:12017   */\n      add\n        /* \"#utility.yul\":11998:12017   */\n      swap1\n      pop\n        /* \"#utility.yul\":11657:12023   */\n      swap2\n      swap1\n      pop\n      jump\t// out\n        /* \"#utility.yul\":12029:12448   */\n    tag_95:\n        /* \"#utility.yul\":12195:12199   */\n      0x00\n        /* \"#utility.yul\":12233:12235   */\n      0x20\n        /* \"#utility.yul\":12222:12231   */\n      dup3\n        /* \"#utility.yul\":12218:12236   */\n      add\n        /* \"#utility.yul\":12210:12236   */\n      swap1\n      pop\n        /* \"#utility.yul\":12282:12291   */\n      dup2\n        /* \"#utility.yul\":12276:12280   */\n      dup2\n        /* \"#utility.yul\":12272:12292   */\n      sub\n        /* \"#utility.yul\":12268:12269   */\n      0x00\n        /* \"#utility.yul\":12257:12266   */\n      dup4\n        /* \"#utility.yul\":12253:12270   */\n      add\n        /* \"#utility.yul\":12246:12293   */\n      mstore\n        /* \"#utility.yul\":12310:12441   */\n      tag_464\n        /* \"#utility.yul\":12436:12440   */\n      dup2\n        /* \"#utility.yul\":12310:12441   */\n      tag_281\n      jump\t// in\n    tag_464:\n        /* \"#utility.yul\":12302:12441   */\n      swap1\n      pop\n        /* \"#utility.yul\":12029:12448   */\n      swap2\n      swap1\n      pop\n      jump\t// out\n        /* \"#utility.yul\":12454:12634   */\n    tag_282:\n        /* \"#utility.yul\":12502:12579   */\n      0x4e487b7100000000000000000000000000000000000000000000000000000000\n        /* \"#utility.yul\":12499:12500   */\n      0x00\n        /* \"#utility.yul\":12492:12580   */\n      mstore\n        /* \"#utility.yul\":12599:12603   */\n      0x22\n        /* \"#utility.yul\":12596:12597   */\n      0x04\n        /* \"#utility.yul\":12589:12604   */\n      mstore\n        /* \"#utility.yul\":12623:12627   */\n      0x24\n        /* \"#utility.yul\":12620:12621   */\n      0x00\n        /* \"#utility.yul\":12613:12628   */\n      revert\n        /* \"#utility.yul\":12640:12960   */\n    tag_97:\n        /* \"#utility.yul\":12684:12690   */\n      0x00\n        /* \"#utility.yul\":12721:12722   */\n      0x02\n        /* \"#utility.yul\":12715:12719   */\n      dup3\n        /* \"#utility.yul\":12711:12723   */\n      div\n        /* \"#utility.yul\":12701:12723   */\n      swap1\n      pop\n        /* \"#utility.yul\":12768:12769   */\n      0x01\n        /* \"#utility.yul\":12762:12766   */\n      dup3\n        /* \"#utility.yul\":12758:12770   */\n      and\n        /* \"#utility.yul\":12789:12807   */\n      dup1\n        /* \"#utility.yul\":12779:12860   */\n      tag_467\n      jumpi\n        /* \"#utility.yul\":12845:12849   */\n      0x7f\n        /* \"#utility.yul\":12837:12843   */\n      dup3\n        /* \"#utility.yul\":12833:12850   */\n      and\n        /* \"#utility.yul\":12823:12850   */\n      swap2\n      pop\n        /* \"#utility.yul\":12779:12860   */\n    tag_467:\n        /* \"#utility.yul\":12907:12909   */\n      0x20\n        /* \"#utility.yul\":12899:12905   */\n      dup3\n        /* \"#utility.yul\":12896:12910   */\n      lt\n        /* \"#utility.yul\":12876:12894   */\n      dup2\n        /* \"#utility.yul\":12873:12911   */\n      sub\n        /* \"#utility.yul\":12870:12954   */\n      tag_468\n      jumpi\n        /* \"#utility.yul\":12926:12944   */\n      tag_469\n      tag_282\n      jump\t// in\n    tag_469:\n        /* \"#utility.yul\":12870:12954   */\n    tag_468:\n        /* \"#utility.yul\":12691:12960   */\n      pop\n        /* \"#utility.yul\":12640:12960   */\n      swap2\n      swap1\n      pop\n      jump\t// out\n        /* \"#utility.yul\":12966:13146   */\n    tag_283:\n        /* \"#utility.yul\":13014:13091   */\n      0x4e487b7100000000000000000000000000000000000000000000000000000000\n        /* \"#utility.yul\":13011:13012   */\n      0x00\n        /* \"#utility.yul\":13004:13092   */\n      mstore\n        /* \"#utility.yul\":13111:13115   */\n      0x11\n        /* \"#utility.yul\":13108:13109   */\n      0x04\n        /* \"#utility.yul\":13101:13116   */\n      mstore\n        /* \"#utility.yul\":13135:13139   */\n      0x24\n        /* \"#utility.yul\":13132:13133   */\n      0x00\n        /* \"#utility.yul\":13125:13140   */\n      revert\n        /* \"#utility.yul\":13152:13343   */\n    tag_107:\n        /* \"#utility.yul\":13192:13195   */\n      0x00\n        /* \"#utility.yul\":13211:13231   */\n      tag_472\n        /* \"#utility.yul\":13229:13230   */\n      dup3\n        /* \"#utility.yul\":13211:13231   */\n      tag_238\n      jump\t// in\n    tag_472:\n        /* \"#utility.yul\":13206:13231   */\n      swap2\n      pop\n        /* \"#utility.yul\":13245:13265   */\n      tag_473\n        /* \"#utility.yul\":13263:13264   */\n      dup4\n        /* \"#utility.yul\":13245:13265   */\n      tag_238\n      jump\t// in\n    tag_473:\n        /* \"#utility.yul\":13240:13265   */\n      swap3\n      pop\n        /* \"#utility.yul\":13288:13289   */\n      dup3\n        /* \"#utility.yul\":13285:13286   */\n      dup3\n        /* \"#utility.yul\":13281:13290   */\n      add\n        /* \"#utility.yul\":13274:13290   */\n      swap1\n      pop\n        /* \"#utility.yul\":13309:13312   */\n      dup1\n        /* \"#utility.yul\":13306:13307   */\n      dup3\n        /* \"#utility.yul\":13303:13313   */\n      gt\n        /* \"#utility.yul\":13300:13336   */\n      iszero\n      tag_474\n      jumpi\n        /* \"#utility.yul\":13316:13334   */\n      tag_475\n      tag_283\n      jump\t// in\n    tag_475:\n        /* \"#utility.yul\":13300:13336   */\n    tag_474:\n        /* \"#utility.yul\":13152:13343   */\n      swap3\n      swap2\n      pop\n      pop\n      jump\t// out\n        /* \"#utility.yul\":13349:13515   */\n    tag_284:\n        /* \"#utility.yul\":13489:13507   */\n      0x4c656e64696e6720746f6f20736f6f6e00000000000000000000000000000000\n        /* \"#utility.yul\":13485:13486   */\n      0x00\n        /* \"#utility.yul\":13477:13483   */\n      dup3\n        /* \"#utility.yul\":13473:13487   */\n      add\n        /* \"#utility.yul\":13466:13508   */\n      mstore\n        /* \"#utility.yul\":13349:13515   */\n      pop\n      jump\t// out\n        /* \"#utility.yul\":13521:13887   */\n    tag_285:\n        /* \"#utility.yul\":13663:13666   */\n      0x00\n        /* \"#utility.yul\":13684:13751   */\n      tag_478\n        /* \"#utility.yul\":13748:13750   */\n      0x10\n        /* \"#utility.yul\":13743:13746   */\n      dup4\n        /* \"#utility.yul\":13684:13751   */\n      tag_277\n      jump\t// in\n    tag_478:\n        /* \"#utility.yul\":13677:13751   */\n      swap2\n      pop\n        /* \"#utility.yul\":13760:13853   */\n      tag_479\n        /* \"#utility.yul\":13849:13852   */\n      dup3\n        /* \"#utility.yul\":13760:13853   */\n      tag_284\n      jump\t// in\n    tag_479:\n        /* \"#utility.yul\":13878:13880   */\n      0x20\n        /* \"#utility.yul\":13873:13876   */\n      dup3\n        /* \"#utility.yul\":13869:13881   */\n      add\n        /* \"#utility.yul\":13862:13881   */\n      swap1\n      pop\n        /* \"#utility.yul\":13521:13887   */\n      swap2\n      swap1\n      pop\n      jump\t// out\n        /* \"#utility.yul\":13893:14312   */\n    tag_110:\n        /* \"#utility.yul\":14059:14063   */\n      0x00\n        /* \"#utility.yul\":14097:14099   */\n      0x20\n        /* \"#utility.yul\":14086:14095   */\n      dup3\n        /* \"#utility.yul\":14082:14100   */\n      add\n        /* \"#utility.yul\":14074:14100   */\n      swap1\n      pop\n        /* \"#utility.yul\":14146:14155   */\n      dup2\n        /* \"#utility.yul\":14140:14144   */\n      dup2\n        /* \"#utility.yul\":14136:14156   */\n      sub\n        /* \"#utility.yul\":14132:14133   */\n      0x00\n        /* \"#utility.yul\":14121:14130   */\n      dup4\n        /* \"#utility.yul\":14117:14134   */\n      add\n        /* \"#utility.yul\":14110:14157   */\n      mstore\n        /* \"#utility.yul\":14174:14305   */\n      tag_481\n        /* \"#utility.yul\":14300:14304   */\n      dup2\n        /* \"#utility.yul\":14174:14305   */\n      tag_285\n      jump\t// in\n    tag_481:\n        /* \"#utility.yul\":14166:14305   */\n      swap1\n      pop\n        /* \"#utility.yul\":13893:14312   */\n      swap2\n      swap1\n      pop\n      jump\t// out\n        /* \"#utility.yul\":14318:14492   */\n    tag_286:\n        /* \"#utility.yul\":14458:14484   */\n      0x4e6f7420656e6f7567682066756e647320746f206c656e640000000000000000\n        /* \"#utility.yul\":14454:14455   */\n      0x00\n        /* \"#utility.yul\":14446:14452   */\n      dup3\n        /* \"#utility.yul\":14442:14456   */\n      add\n        /* \"#utility.yul\":14435:14485   */\n      mstore\n        /* \"#utility.yul\":14318:14492   */\n      pop\n      jump\t// out\n        /* \"#utility.yul\":14498:14864   */\n    tag_287:\n        /* \"#utility.yul\":14640:14643   */\n      0x00\n        /* \"#utility.yul\":14661:14728   */\n      tag_484\n        /* \"#utility.yul\":14725:14727   */\n      0x18\n        /* \"#utility.yul\":14720:14723   */\n      dup4\n        /* \"#utility.yul\":14661:14728   */\n      tag_277\n      jump\t// in\n    tag_484:\n        /* \"#utility.yul\":14654:14728   */\n      swap2\n      pop\n        /* \"#utility.yul\":14737:14830   */\n      tag_485\n        /* \"#utility.yul\":14826:14829   */\n      dup3\n        /* \"#utility.yul\":14737:14830   */\n      tag_286\n      jump\t// in\n    tag_485:\n        /* \"#utility.yul\":14855:14857   */\n      0x20\n        /* \"#utility.yul\":14850:14853   */\n      dup3\n        /* \"#utility.yul\":14846:14858   */\n      add\n        /* \"#utility.yul\":14839:14858   */\n      swap1\n      pop\n        /* \"#utility.yul\":14498:14864   */\n      swap2\n      swap1\n      pop\n      jump\t// out\n        /* \"#utility.yul\":14870:15289   */\n    tag_113:\n        /* \"#utility.yul\":15036:15040   */\n      0x00\n        /* \"#utility.yul\":15074:15076   */\n      0x20\n        /* \"#utility.yul\":15063:15072   */\n      dup3\n        /* \"#utility.yul\":15059:15077   */\n      add\n        /* \"#utility.yul\":15051:15077   */\n      swap1\n      pop\n        /* \"#utility.yul\":15123:15132   */\n      dup2\n        /* \"#utility.yul\":15117:15121   */\n      dup2\n        /* \"#utility.yul\":15113:15133   */\n      sub\n        /* \"#utility.yul\":15109:15110   */\n      0x00\n        /* \"#utility.yul\":15098:15107   */\n      dup4\n        /* \"#utility.yul\":15094:15111   */\n      add\n        /* \"#utility.yul\":15087:15134   */\n      mstore\n        /* \"#utility.yul\":15151:15282   */\n      tag_487\n        /* \"#utility.yul\":15277:15281   */\n      dup2\n        /* \"#utility.yul\":15151:15282   */\n      tag_287\n      jump\t// in\n    tag_487:\n        /* \"#utility.yul\":15143:15282   */\n      swap1\n      pop\n        /* \"#utility.yul\":14870:15289   */\n      swap2\n      swap1\n      pop\n      jump\t// out\n        /* \"#utility.yul\":15295:15517   */\n    tag_118:\n        /* \"#utility.yul\":15388:15392   */\n      0x00\n        /* \"#utility.yul\":15426:15428   */\n      0x20\n        /* \"#utility.yul\":15415:15424   */\n      dup3\n        /* \"#utility.yul\":15411:15429   */\n      add\n        /* \"#utility.yul\":15403:15429   */\n      swap1\n      pop\n        /* \"#utility.yul\":15439:15510   */\n      tag_489\n        /* \"#utility.yul\":15507:15508   */\n      0x00\n        /* \"#utility.yul\":15496:15505   */\n      dup4\n        /* \"#utility.yul\":15492:15509   */\n      add\n        /* \"#utility.yul\":15483:15489   */\n      dup5\n        /* \"#utility.yul\":15439:15510   */\n      tag_239\n      jump\t// in\n    tag_489:\n        /* \"#utility.yul\":15295:15517   */\n      swap3\n      swap2\n      pop\n      pop\n      jump\t// out\n        /* \"#utility.yul\":15523:15749   */\n    tag_288:\n        /* \"#utility.yul\":15663:15697   */\n      0x4f6e6c792072656769737465726564206d65726368616e74732063616e206361\n        /* \"#utility.yul\":15659:15660   */\n      0x00\n        /* \"#utility.yul\":15651:15657   */\n      dup3\n        /* \"#utility.yul\":15647:15661   */\n      add\n        /* \"#utility.yul\":15640:15698   */\n      mstore\n        /* \"#utility.yul\":15732:15741   */\n      0x6c6c207468697300000000000000000000000000000000000000000000000000\n        /* \"#utility.yul\":15727:15729   */\n      0x20\n        /* \"#utility.yul\":15719:15725   */\n      dup3\n        /* \"#utility.yul\":15715:15730   */\n      add\n        /* \"#utility.yul\":15708:15742   */\n      mstore\n        /* \"#utility.yul\":15523:15749   */\n      pop\n      jump\t// out\n        /* \"#utility.yul\":15755:16121   */\n    tag_289:\n        /* \"#utility.yul\":15897:15900   */\n      0x00\n        /* \"#utility.yul\":15918:15985   */\n      tag_492\n        /* \"#utility.yul\":15982:15984   */\n      0x27\n        /* \"#utility.yul\":15977:15980   */\n      dup4\n        /* \"#utility.yul\":15918:15985   */\n      tag_277\n      jump\t// in\n    tag_492:\n        /* \"#utility.yul\":15911:15985   */\n      swap2\n      pop\n        /* \"#utility.yul\":15994:16087   */\n      tag_493\n        /* \"#utility.yul\":16083:16086   */\n      dup3\n        /* \"#utility.yul\":15994:16087   */\n      tag_288\n      jump\t// in\n    tag_493:\n        /* \"#utility.yul\":16112:16114   */\n      0x40\n        /* \"#utility.yul\":16107:16110   */\n      dup3\n        /* \"#utility.yul\":16103:16115   */\n      add\n        /* \"#utility.yul\":16096:16115   */\n      swap1\n      pop\n        /* \"#utility.yul\":15755:16121   */\n      swap2\n      swap1\n      pop\n      jump\t// out\n        /* \"#utility.yul\":16127:16546   */\n    tag_126:\n        /* \"#utility.yul\":16293:16297   */\n      0x00\n        /* \"#utility.yul\":16331:16333   */\n      0x20\n        /* \"#utility.yul\":16320:16329   */\n      dup3\n        /* \"#utility.yul\":16316:16334   */\n      add\n        /* \"#utility.yul\":16308:16334   */\n      swap1\n      pop\n        /* \"#utility.yul\":16380:16389   */\n      dup2\n        /* \"#utility.yul\":16374:16378   */\n      dup2\n        /* \"#utility.yul\":16370:16390   */\n      sub\n        /* \"#utility.yul\":16366:16367   */\n      0x00\n        /* \"#utility.yul\":16355:16364   */\n      dup4\n        /* \"#utility.yul\":16351:16368   */\n      add\n        /* \"#utility.yul\":16344:16391   */\n      mstore\n        /* \"#utility.yul\":16408:16539   */\n      tag_495\n        /* \"#utility.yul\":16534:16538   */\n      dup2\n        /* \"#utility.yul\":16408:16539   */\n      tag_289\n      jump\t// in\n    tag_495:\n        /* \"#utility.yul\":16400:16539   */\n      swap1\n      pop\n        /* \"#utility.yul\":16127:16546   */\n      swap2\n      swap1\n      pop\n      jump\t// out\n        /* \"#utility.yul\":16552:16730   */\n    tag_290:\n        /* \"#utility.yul\":16692:16722   */\n      0x416d6f756e7420746f6f20736d616c6c20746f20726574726965766500000000\n        /* \"#utility.yul\":16688:16689   */\n      0x00\n        /* \"#utility.yul\":16680:16686   */\n      dup3\n        /* \"#utility.yul\":16676:16690   */\n      add\n        /* \"#utility.yul\":16669:16723   */\n      mstore\n        /* \"#utility.yul\":16552:16730   */\n      pop\n      jump\t// out\n        /* \"#utility.yul\":16736:17102   */\n    tag_291:\n        /* \"#utility.yul\":16878:16881   */\n      0x00\n        /* \"#utility.yul\":16899:16966   */\n      tag_498\n        /* \"#utility.yul\":16963:16965   */\n      0x1c\n        /* \"#utility.yul\":16958:16961   */\n      dup4\n        /* \"#utility.yul\":16899:16966   */\n      tag_277\n      jump\t// in\n    tag_498:\n        /* \"#utility.yul\":16892:16966   */\n      swap2\n      pop\n        /* \"#utility.yul\":16975:17068   */\n      tag_499\n        /* \"#utility.yul\":17064:17067   */\n      dup3\n        /* \"#utility.yul\":16975:17068   */\n      tag_290\n      jump\t// in\n    tag_499:\n        /* \"#utility.yul\":17093:17095   */\n      0x20\n        /* \"#utility.yul\":17088:17091   */\n      dup3\n        /* \"#utility.yul\":17084:17096   */\n      add\n        /* \"#utility.yul\":17077:17096   */\n      swap1\n      pop\n        /* \"#utility.yul\":16736:17102   */\n      swap2\n      swap1\n      pop\n      jump\t// out\n        /* \"#utility.yul\":17108:17527   */\n    tag_130:\n        /* \"#utility.yul\":17274:17278   */\n      0x00\n        /* \"#utility.yul\":17312:17314   */\n      0x20\n        /* \"#utility.yul\":17301:17310   */\n      dup3\n        /* \"#utility.yul\":17297:17315   */\n      add\n        /* \"#utility.yul\":17289:17315   */\n      swap1\n      pop\n        /* \"#utility.yul\":17361:17370   */\n      dup2\n        /* \"#utility.yul\":17355:17359   */\n      dup2\n        /* \"#utility.yul\":17351:17371   */\n      sub\n        /* \"#utility.yul\":17347:17348   */\n      0x00\n        /* \"#utility.yul\":17336:17345   */\n      dup4\n        /* \"#utility.yul\":17332:17349   */\n      add\n        /* \"#utility.yul\":17325:17372   */\n      mstore\n        /* \"#utility.yul\":17389:17520   */\n      tag_501\n        /* \"#utility.yul\":17515:17519   */\n      dup2\n        /* \"#utility.yul\":17389:17520   */\n      tag_291\n      jump\t// in\n    tag_501:\n        /* \"#utility.yul\":17381:17520   */\n      swap1\n      pop\n        /* \"#utility.yul\":17108:17527   */\n      swap2\n      swap1\n      pop\n      jump\t// out\n        /* \"#utility.yul\":17533:17760   */\n    tag_292:\n        /* \"#utility.yul\":17673:17707   */\n      0x496e73756666696369656e742066756e647320696e206d65726368616e742773\n        /* \"#utility.yul\":17669:17670   */\n      0x00\n        /* \"#utility.yul\":17661:17667   */\n      dup3\n        /* \"#utility.yul\":17657:17671   */\n      add\n        /* \"#utility.yul\":17650:17708   */\n      mstore\n        /* \"#utility.yul\":17742:17752   */\n      0x2062616c616e6365000000000000000000000000000000000000000000000000\n        /* \"#utility.yul\":17737:17739   */\n      0x20\n        /* \"#utility.yul\":17729:17735   */\n      dup3\n        /* \"#utility.yul\":17725:17740   */\n      add\n        /* \"#utility.yul\":17718:17753   */\n      mstore\n        /* \"#utility.yul\":17533:17760   */\n      pop\n      jump\t// out\n        /* \"#utility.yul\":17766:18132   */\n    tag_293:\n        /* \"#utility.yul\":17908:17911   */\n      0x00\n        /* \"#utility.yul\":17929:17996   */\n      tag_504\n        /* \"#utility.yul\":17993:17995   */\n      0x28\n        /* \"#utility.yul\":17988:17991   */\n      dup4\n        /* \"#utility.yul\":17929:17996   */\n      tag_277\n      jump\t// in\n    tag_504:\n        /* \"#utility.yul\":17922:17996   */\n      swap2\n      pop\n        /* \"#utility.yul\":18005:18098   */\n      tag_505\n        /* \"#utility.yul\":18094:18097   */\n      dup3\n        /* \"#utility.yul\":18005:18098   */\n      tag_292\n      jump\t// in\n    tag_505:\n        /* \"#utility.yul\":18123:18125   */\n      0x40\n        /* \"#utility.yul\":18118:18121   */\n      dup3\n        /* \"#utility.yul\":18114:18126   */\n      add\n        /* \"#utility.yul\":18107:18126   */\n      swap1\n      pop\n        /* \"#utility.yul\":17766:18132   */\n      swap2\n      swap1\n      pop\n      jump\t// out\n        /* \"#utility.yul\":18138:18557   */\n    tag_142:\n        /* \"#utility.yul\":18304:18308   */\n      0x00\n        /* \"#utility.yul\":18342:18344   */\n      0x20\n        /* \"#utility.yul\":18331:18340   */\n      dup3\n        /* \"#utility.yul\":18327:18345   */\n      add\n        /* \"#utility.yul\":18319:18345   */\n      swap1\n      pop\n        /* \"#utility.yul\":18391:18400   */\n      dup2\n        /* \"#utility.yul\":18385:18389   */\n      dup2\n        /* \"#utility.yul\":18381:18401   */\n      sub\n        /* \"#utility.yul\":18377:18378   */\n      0x00\n        /* \"#utility.yul\":18366:18375   */\n      dup4\n        /* \"#utility.yul\":18362:18379   */\n      add\n        /* \"#utility.yul\":18355:18402   */\n      mstore\n        /* \"#utility.yul\":18419:18550   */\n      tag_507\n        /* \"#utility.yul\":18545:18549   */\n      dup2\n        /* \"#utility.yul\":18419:18550   */\n      tag_293\n      jump\t// in\n    tag_507:\n        /* \"#utility.yul\":18411:18550   */\n      swap1\n      pop\n        /* \"#utility.yul\":18138:18557   */\n      swap2\n      swap1\n      pop\n      jump\t// out\n        /* \"#utility.yul\":18563:18737   */\n    tag_294:\n        /* \"#utility.yul\":18703:18729   */\n      0x496e76616c696420637573746f6d657220616464726573730000000000000000\n        /* \"#utility.yul\":18699:18700   */\n      0x00\n        /* \"#utility.yul\":18691:18697   */\n      dup3\n        /* \"#utility.yul\":18687:18701   */\n      add\n        /* \"#utility.yul\":18680:18730   */\n      mstore\n        /* \"#utility.yul\":18563:18737   */\n      pop\n      jump\t// out\n        /* \"#utility.yul\":18743:19109   */\n    tag_295:\n        /* \"#utility.yul\":18885:18888   */\n      0x00\n        /* \"#utility.yul\":18906:18973   */\n      tag_510\n        /* \"#utility.yul\":18970:18972   */\n      0x18\n        /* \"#utility.yul\":18965:18968   */\n      dup4\n        /* \"#utility.yul\":18906:18973   */\n      tag_277\n      jump\t// in\n    tag_510:\n        /* \"#utility.yul\":18899:18973   */\n      swap2\n      pop\n        /* \"#utility.yul\":18982:19075   */\n      tag_511\n        /* \"#utility.yul\":19071:19074   */\n      dup3\n        /* \"#utility.yul\":18982:19075   */\n      tag_294\n      jump\t// in\n    tag_511:\n        /* \"#utility.yul\":19100:19102   */\n      0x20\n        /* \"#utility.yul\":19095:19098   */\n      dup3\n        /* \"#utility.yul\":19091:19103   */\n      add\n        /* \"#utility.yul\":19084:19103   */\n      swap1\n      pop\n        /* \"#utility.yul\":18743:19109   */\n      swap2\n      swap1\n      pop\n      jump\t// out\n        /* \"#utility.yul\":19115:19534   */\n    tag_145:\n        /* \"#utility.yul\":19281:19285   */\n      0x00\n        /* \"#utility.yul\":19319:19321   */\n      0x20\n        /* \"#utility.yul\":19308:19317   */\n      dup3\n        /* \"#utility.yul\":19304:19322   */\n      add\n        /* \"#utility.yul\":19296:19322   */\n      swap1\n      pop\n        /* \"#utility.yul\":19368:19377   */\n      dup2\n        /* \"#utility.yul\":19362:19366   */\n      dup2\n        /* \"#utility.yul\":19358:19378   */\n      sub\n        /* \"#utility.yul\":19354:19355   */\n      0x00\n        /* \"#utility.yul\":19343:19352   */\n      dup4\n        /* \"#utility.yul\":19339:19356   */\n      add\n        /* \"#utility.yul\":19332:19379   */\n      mstore\n        /* \"#utility.yul\":19396:19527   */\n      tag_513\n        /* \"#utility.yul\":19522:19526   */\n      dup2\n        /* \"#utility.yul\":19396:19527   */\n      tag_295\n      jump\t// in\n    tag_513:\n        /* \"#utility.yul\":19388:19527   */\n      swap1\n      pop\n        /* \"#utility.yul\":19115:19534   */\n      swap2\n      swap1\n      pop\n      jump\t// out\n        /* \"#utility.yul\":19540:19734   */\n    tag_147:\n        /* \"#utility.yul\":19580:19584   */\n      0x00\n        /* \"#utility.yul\":19600:19620   */\n      tag_515\n        /* \"#utility.yul\":19618:19619   */\n      dup3\n        /* \"#utility.yul\":19600:19620   */\n      tag_238\n      jump\t// in\n    tag_515:\n        /* \"#utility.yul\":19595:19620   */\n      swap2\n      pop\n        /* \"#utility.yul\":19634:19654   */\n      tag_516\n        /* \"#utility.yul\":19652:19653   */\n      dup4\n        /* \"#utility.yul\":19634:19654   */\n      tag_238\n      jump\t// in\n    tag_516:\n        /* \"#utility.yul\":19629:19654   */\n      swap3\n      pop\n        /* \"#utility.yul\":19678:19679   */\n      dup3\n        /* \"#utility.yul\":19675:19676   */\n      dup3\n        /* \"#utility.yul\":19671:19680   */\n      sub\n        /* \"#utility.yul\":19663:19680   */\n      swap1\n      pop\n        /* \"#utility.yul\":19702:19703   */\n      dup2\n        /* \"#utility.yul\":19696:19700   */\n      dup2\n        /* \"#utility.yul\":19693:19704   */\n      gt\n        /* \"#utility.yul\":19690:19727   */\n      iszero\n      tag_517\n      jumpi\n        /* \"#utility.yul\":19707:19725   */\n      tag_518\n      tag_283\n      jump\t// in\n    tag_518:\n        /* \"#utility.yul\":19690:19727   */\n    tag_517:\n        /* \"#utility.yul\":19540:19734   */\n      swap3\n      swap2\n      pop\n      pop\n      jump\t// out\n        /* \"#utility.yul\":19740:19887   */\n    tag_296:\n        /* \"#utility.yul\":19841:19852   */\n      0x00\n        /* \"#utility.yul\":19878:19881   */\n      dup2\n        /* \"#utility.yul\":19863:19881   */\n      swap1\n      pop\n        /* \"#utility.yul\":19740:19887   */\n      swap3\n      swap2\n      pop\n      pop\n      jump\t// out\n        /* \"#utility.yul\":19893:20007   */\n    tag_297:\n      pop\n      jump\t// out\n        /* \"#utility.yul\":20013:20411   */\n    tag_298:\n        /* \"#utility.yul\":20172:20175   */\n      0x00\n        /* \"#utility.yul\":20193:20276   */\n      tag_522\n        /* \"#utility.yul\":20274:20275   */\n      0x00\n        /* \"#utility.yul\":20269:20272   */\n      dup4\n        /* \"#utility.yul\":20193:20276   */\n      tag_296\n      jump\t// in\n    tag_522:\n        /* \"#utility.yul\":20186:20276   */\n      swap2\n      pop\n        /* \"#utility.yul\":20285:20378   */\n      tag_523\n        /* \"#utility.yul\":20374:20377   */\n      dup3\n        /* \"#utility.yul\":20285:20378   */\n      tag_297\n      jump\t// in\n    tag_523:\n        /* \"#utility.yul\":20403:20404   */\n      0x00\n        /* \"#utility.yul\":20398:20401   */\n      dup3\n        /* \"#utility.yul\":20394:20405   */\n      add\n        /* \"#utility.yul\":20387:20405   */\n      swap1\n      pop\n        /* \"#utility.yul\":20013:20411   */\n      swap2\n      swap1\n      pop\n      jump\t// out\n        /* \"#utility.yul\":20417:20796   */\n    tag_149:\n        /* \"#utility.yul\":20601:20604   */\n      0x00\n        /* \"#utility.yul\":20623:20770   */\n      tag_525\n        /* \"#utility.yul\":20766:20769   */\n      dup3\n        /* \"#utility.yul\":20623:20770   */\n      tag_298\n      jump\t// in\n    tag_525:\n        /* \"#utility.yul\":20616:20770   */\n      swap2\n      pop\n        /* \"#utility.yul\":20787:20790   */\n      dup2\n        /* \"#utility.yul\":20780:20790   */\n      swap1\n      pop\n        /* \"#utility.yul\":20417:20796   */\n      swap2\n      swap1\n      pop\n      jump\t// out\n        /* \"#utility.yul\":20802:20965   */\n    tag_299:\n        /* \"#utility.yul\":20942:20957   */\n      0x526566756e64206661696c656400000000000000000000000000000000000000\n        /* \"#utility.yul\":20938:20939   */\n      0x00\n        /* \"#utility.yul\":20930:20936   */\n      dup3\n        /* \"#utility.yul\":20926:20940   */\n      add\n        /* \"#utility.yul\":20919:20958   */\n      mstore\n        /* \"#utility.yul\":20802:20965   */\n      pop\n      jump\t// out\n        /* \"#utility.yul\":20971:21337   */\n    tag_300:\n        /* \"#utility.yul\":21113:21116   */\n      0x00\n        /* \"#utility.yul\":21134:21201   */\n      tag_528\n        /* \"#utility.yul\":21198:21200   */\n      0x0d\n        /* \"#utility.yul\":21193:21196   */\n      dup4\n        /* \"#utility.yul\":21134:21201   */\n      tag_277\n      jump\t// in\n    tag_528:\n        /* \"#utility.yul\":21127:21201   */\n      swap2\n      pop\n        /* \"#utility.yul\":21210:21303   */\n      tag_529\n        /* \"#utility.yul\":21299:21302   */\n      dup3\n        /* \"#utility.yul\":21210:21303   */\n      tag_299\n      jump\t// in\n    tag_529:\n        /* \"#utility.yul\":21328:21330   */\n      0x20\n        /* \"#utility.yul\":21323:21326   */\n      dup3\n        /* \"#utility.yul\":21319:21331   */\n      add\n        /* \"#utility.yul\":21312:21331   */\n      swap1\n      pop\n        /* \"#utility.yul\":20971:21337   */\n      swap2\n      swap1\n      pop\n      jump\t// out\n        /* \"#utility.yul\":21343:21762   */\n    tag_155:\n        /* \"#utility.yul\":21509:21513   */\n      0x00\n        /* \"#utility.yul\":21547:21549   */\n      0x20\n        /* \"#utility.yul\":21536:21545   */\n      dup3\n        /* \"#utility.yul\":21532:21550   */\n      add\n        /* \"#utility.yul\":21524:21550   */\n      swap1\n      pop\n        /* \"#utility.yul\":21596:21605   */\n      dup2\n        /* \"#utility.yul\":21590:21594   */\n      dup2\n        /* \"#utility.yul\":21586:21606   */\n      sub\n        /* \"#utility.yul\":21582:21583   */\n      0x00\n        /* \"#utility.yul\":21571:21580   */\n      dup4\n        /* \"#utility.yul\":21567:21584   */\n      add\n        /* \"#utility.yul\":21560:21607   */\n      mstore\n        /* \"#utility.yul\":21624:21755   */\n      tag_531\n        /* \"#utility.yul\":21750:21754   */\n      dup2\n        /* \"#utility.yul\":21624:21755   */\n      tag_300\n      jump\t// in\n    tag_531:\n        /* \"#utility.yul\":21616:21755   */\n      swap1\n      pop\n        /* \"#utility.yul\":21343:21762   */\n      swap2\n      swap1\n      pop\n      jump\t// out\n        /* \"#utility.yul\":21768:21941   */\n    tag_301:\n        /* \"#utility.yul\":21908:21933   */\n      0x4d65726368616e74206e6f742072656769737465726564000000000000000000\n        /* \"#utility.yul\":21904:21905   */\n      0x00\n        /* \"#utility.yul\":21896:21902   */\n      dup3\n        /* \"#utility.yul\":21892:21906   */\n      add\n        /* \"#utility.yul\":21885:21934   */\n      mstore\n        /* \"#utility.yul\":21768:21941   */\n      pop\n      jump\t// out\n        /* \"#utility.yul\":21947:22313   */\n    tag_302:\n        /* \"#utility.yul\":22089:22092   */\n      0x00\n        /* \"#utility.yul\":22110:22177   */\n      tag_534\n        /* \"#utility.yul\":22174:22176   */\n      0x17\n        /* \"#utility.yul\":22169:22172   */\n      dup4\n        /* \"#utility.yul\":22110:22177   */\n      tag_277\n      jump\t// in\n    tag_534:\n        /* \"#utility.yul\":22103:22177   */\n      swap2\n      pop\n        /* \"#utility.yul\":22186:22279   */\n      tag_535\n        /* \"#utility.yul\":22275:22278   */\n      dup3\n        /* \"#utility.yul\":22186:22279   */\n      tag_301\n      jump\t// in\n    tag_535:\n        /* \"#utility.yul\":22304:22306   */\n      0x20\n        /* \"#utility.yul\":22299:22302   */\n      dup3\n        /* \"#utility.yul\":22295:22307   */\n      add\n        /* \"#utility.yul\":22288:22307   */\n      swap1\n      pop\n        /* \"#utility.yul\":21947:22313   */\n      swap2\n      swap1\n      pop\n      jump\t// out\n        /* \"#utility.yul\":22319:22738   */\n    tag_165:\n        /* \"#utility.yul\":22485:22489   */\n      0x00\n        /* \"#utility.yul\":22523:22525   */\n      0x20\n        /* \"#utility.yul\":22512:22521   */\n      dup3\n        /* \"#utility.yul\":22508:22526   */\n      add\n        /* \"#utility.yul\":22500:22526   */\n      swap1\n      pop\n        /* \"#utility.yul\":22572:22581   */\n      dup2\n        /* \"#utility.yul\":22566:22570   */\n      dup2\n        /* \"#utility.yul\":22562:22582   */\n      sub\n        /* \"#utility.yul\":22558:22559   */\n      0x00\n        /* \"#utility.yul\":22547:22556   */\n      dup4\n        /* \"#utility.yul\":22543:22560   */\n      add\n        /* \"#utility.yul\":22536:22583   */\n      mstore\n        /* \"#utility.yul\":22600:22731   */\n      tag_537\n        /* \"#utility.yul\":22726:22730   */\n      dup2\n        /* \"#utility.yul\":22600:22731   */\n      tag_302\n      jump\t// in\n    tag_537:\n        /* \"#utility.yul\":22592:22731   */\n      swap1\n      pop\n        /* \"#utility.yul\":22319:22738   */\n      swap2\n      swap1\n      pop\n      jump\t// out\n        /* \"#utility.yul\":22744:22971   */\n    tag_303:\n        /* \"#utility.yul\":22884:22918   */\n      0x5061796d656e7420616d6f756e74206d75737420626520677265617465722074\n        /* \"#utility.yul\":22880:22881   */\n      0x00\n        /* \"#utility.yul\":22872:22878   */\n      dup3\n        /* \"#utility.yul\":22868:22882   */\n      add\n        /* \"#utility.yul\":22861:22919   */\n      mstore\n        /* \"#utility.yul\":22953:22963   */\n      0x68616e207a65726f000000000000000000000000000000000000000000000000\n        /* \"#utility.yul\":22948:22950   */\n      0x20\n        /* \"#utility.yul\":22940:22946   */\n      dup3\n        /* \"#utility.yul\":22936:22951   */\n      add\n        /* \"#utility.yul\":22929:22964   */\n      mstore\n        /* \"#utility.yul\":22744:22971   */\n      pop\n      jump\t// out\n        /* \"#utility.yul\":22977:23343   */\n    tag_304:\n        /* \"#utility.yul\":23119:23122   */\n      0x00\n        /* \"#utility.yul\":23140:23207   */\n      tag_540\n        /* \"#utility.yul\":23204:23206   */\n      0x28\n        /* \"#utility.yul\":23199:23202   */\n      dup4\n        /* \"#utility.yul\":23140:23207   */\n      tag_277\n      jump\t// in\n    tag_540:\n        /* \"#utility.yul\":23133:23207   */\n      swap2\n      pop\n        /* \"#utility.yul\":23216:23309   */\n      tag_541\n        /* \"#utility.yul\":23305:23308   */\n      dup3\n        /* \"#utility.yul\":23216:23309   */\n      tag_303\n      jump\t// in\n    tag_541:\n        /* \"#utility.yul\":23334:23336   */\n      0x40\n        /* \"#utility.yul\":23329:23332   */\n      dup3\n        /* \"#utility.yul\":23325:23337   */\n      add\n        /* \"#utility.yul\":23318:23337   */\n      swap1\n      pop\n        /* \"#utility.yul\":22977:23343   */\n      swap2\n      swap1\n      pop\n      jump\t// out\n        /* \"#utility.yul\":23349:23768   */\n    tag_168:\n        /* \"#utility.yul\":23515:23519   */\n      0x00\n        /* \"#utility.yul\":23553:23555   */\n      0x20\n        /* \"#utility.yul\":23542:23551   */\n      dup3\n        /* \"#utility.yul\":23538:23556   */\n      add\n        /* \"#utility.yul\":23530:23556   */\n      swap1\n      pop\n        /* \"#utility.yul\":23602:23611   */\n      dup2\n        /* \"#utility.yul\":23596:23600   */\n      dup2\n        /* \"#utility.yul\":23592:23612   */\n      sub\n        /* \"#utility.yul\":23588:23589   */\n      0x00\n        /* \"#utility.yul\":23577:23586   */\n      dup4\n        /* \"#utility.yul\":23573:23590   */\n      add\n        /* \"#utility.yul\":23566:23613   */\n      mstore\n        /* \"#utility.yul\":23630:23761   */\n      tag_543\n        /* \"#utility.yul\":23756:23760   */\n      dup2\n        /* \"#utility.yul\":23630:23761   */\n      tag_304\n      jump\t// in\n    tag_543:\n        /* \"#utility.yul\":23622:23761   */\n      swap1\n      pop\n        /* \"#utility.yul\":23349:23768   */\n      swap2\n      swap1\n      pop\n      jump\t// out\n        /* \"#utility.yul\":23774:23943   */\n    tag_305:\n        /* \"#utility.yul\":23914:23935   */\n      0x52657472696576696e6720746f6f20736f6f6e00000000000000000000000000\n        /* \"#utility.yul\":23910:23911   */\n      0x00\n        /* \"#utility.yul\":23902:23908   */\n      dup3\n        /* \"#utility.yul\":23898:23912   */\n      add\n        /* \"#utility.yul\":23891:23936   */\n      mstore\n        /* \"#utility.yul\":23774:23943   */\n      pop\n      jump\t// out\n        /* \"#utility.yul\":23949:24315   */\n    tag_306:\n        /* \"#utility.yul\":24091:24094   */\n      0x00\n        /* \"#utility.yul\":24112:24179   */\n      tag_546\n        /* \"#utility.yul\":24176:24178   */\n      0x13\n        /* \"#utility.yul\":24171:24174   */\n      dup4\n        /* \"#utility.yul\":24112:24179   */\n      tag_277\n      jump\t// in\n    tag_546:\n        /* \"#utility.yul\":24105:24179   */\n      swap2\n      pop\n        /* \"#utility.yul\":24188:24281   */\n      tag_547\n        /* \"#utility.yul\":24277:24280   */\n      dup3\n        /* \"#utility.yul\":24188:24281   */\n      tag_305\n      jump\t// in\n    tag_547:\n        /* \"#utility.yul\":24306:24308   */\n      0x20\n        /* \"#utility.yul\":24301:24304   */\n      dup3\n        /* \"#utility.yul\":24297:24309   */\n      add\n        /* \"#utility.yul\":24290:24309   */\n      swap1\n      pop\n        /* \"#utility.yul\":23949:24315   */\n      swap2\n      swap1\n      pop\n      jump\t// out\n        /* \"#utility.yul\":24321:24740   */\n    tag_178:\n        /* \"#utility.yul\":24487:24491   */\n      0x00\n        /* \"#utility.yul\":24525:24527   */\n      0x20\n        /* \"#utility.yul\":24514:24523   */\n      dup3\n        /* \"#utility.yul\":24510:24528   */\n      add\n        /* \"#utility.yul\":24502:24528   */\n      swap1\n      pop\n        /* \"#utility.yul\":24574:24583   */\n      dup2\n        /* \"#utility.yul\":24568:24572   */\n      dup2\n        /* \"#utility.yul\":24564:24584   */\n      sub\n        /* \"#utility.yul\":24560:24561   */\n      0x00\n        /* \"#utility.yul\":24549:24558   */\n      dup4\n        /* \"#utility.yul\":24545:24562   */\n      add\n        /* \"#utility.yul\":24538:24585   */\n      mstore\n        /* \"#utility.yul\":24602:24733   */\n      tag_549\n        /* \"#utility.yul\":24728:24732   */\n      dup2\n        /* \"#utility.yul\":24602:24733   */\n      tag_306\n      jump\t// in\n    tag_549:\n        /* \"#utility.yul\":24594:24733   */\n      swap1\n      pop\n        /* \"#utility.yul\":24321:24740   */\n      swap2\n      swap1\n      pop\n      jump\t// out\n        /* \"#utility.yul\":24746:24918   */\n    tag_307:\n        /* \"#utility.yul\":24886:24910   */\n      0x46756e64732072657472696576616c206661696c656400000000000000000000\n        /* \"#utility.yul\":24882:24883   */\n      0x00\n        /* \"#utility.yul\":24874:24880   */\n      dup3\n        /* \"#utility.yul\":24870:24884   */\n      add\n        /* \"#utility.yul\":24863:24911   */\n      mstore\n        /* \"#utility.yul\":24746:24918   */\n      pop\n      jump\t// out\n        /* \"#utility.yul\":24924:25290   */\n    tag_308:\n        /* \"#utility.yul\":25066:25069   */\n      0x00\n        /* \"#utility.yul\":25087:25154   */\n      tag_552\n        /* \"#utility.yul\":25151:25153   */\n      0x16\n        /* \"#utility.yul\":25146:25149   */\n      dup4\n        /* \"#utility.yul\":25087:25154   */\n      tag_277\n      jump\t// in\n    tag_552:\n        /* \"#utility.yul\":25080:25154   */\n      swap2\n      pop\n        /* \"#utility.yul\":25163:25256   */\n      tag_553\n        /* \"#utility.yul\":25252:25255   */\n      dup3\n        /* \"#utility.yul\":25163:25256   */\n      tag_307\n      jump\t// in\n    tag_553:\n        /* \"#utility.yul\":25281:25283   */\n      0x20\n        /* \"#utility.yul\":25276:25279   */\n      dup3\n        /* \"#utility.yul\":25272:25284   */\n      add\n        /* \"#utility.yul\":25265:25284   */\n      swap1\n      pop\n        /* \"#utility.yul\":24924:25290   */\n      swap2\n      swap1\n      pop\n      jump\t// out\n        /* \"#utility.yul\":25296:25715   */\n    tag_187:\n        /* \"#utility.yul\":25462:25466   */\n      0x00\n        /* \"#utility.yul\":25500:25502   */\n      0x20\n        /* \"#utility.yul\":25489:25498   */\n      dup3\n        /* \"#utility.yul\":25485:25503   */\n      add\n        /* \"#utility.yul\":25477:25503   */\n      swap1\n      pop\n        /* \"#utility.yul\":25549:25558   */\n      dup2\n        /* \"#utility.yul\":25543:25547   */\n      dup2\n        /* \"#utility.yul\":25539:25559   */\n      sub\n        /* \"#utility.yul\":25535:25536   */\n      0x00\n        /* \"#utility.yul\":25524:25533   */\n      dup4\n        /* \"#utility.yul\":25520:25537   */\n      add\n        /* \"#utility.yul\":25513:25560   */\n      mstore\n        /* \"#utility.yul\":25577:25708   */\n      tag_555\n        /* \"#utility.yul\":25703:25707   */\n      dup2\n        /* \"#utility.yul\":25577:25708   */\n      tag_308\n      jump\t// in\n    tag_555:\n        /* \"#utility.yul\":25569:25708   */\n      swap1\n      pop\n        /* \"#utility.yul\":25296:25715   */\n      swap2\n      swap1\n      pop\n      jump\t// out\n        /* \"#utility.yul\":25721:25898   */\n    tag_309:\n        /* \"#utility.yul\":25861:25890   */\n      0x4d65726368616e7420616c726561647920726567697374657265640000000000\n        /* \"#utility.yul\":25857:25858   */\n      0x00\n        /* \"#utility.yul\":25849:25855   */\n      dup3\n        /* \"#utility.yul\":25845:25859   */\n      add\n        /* \"#utility.yul\":25838:25891   */\n      mstore\n        /* \"#utility.yul\":25721:25898   */\n      pop\n      jump\t// out\n        /* \"#utility.yul\":25904:26270   */\n    tag_310:\n        /* \"#utility.yul\":26046:26049   */\n      0x00\n        /* \"#utility.yul\":26067:26134   */\n      tag_558\n        /* \"#utility.yul\":26131:26133   */\n      0x1b\n        /* \"#utility.yul\":26126:26129   */\n      dup4\n        /* \"#utility.yul\":26067:26134   */\n      tag_277\n      jump\t// in\n    tag_558:\n        /* \"#utility.yul\":26060:26134   */\n      swap2\n      pop\n        /* \"#utility.yul\":26143:26236   */\n      tag_559\n        /* \"#utility.yul\":26232:26235   */\n      dup3\n        /* \"#utility.yul\":26143:26236   */\n      tag_309\n      jump\t// in\n    tag_559:\n        /* \"#utility.yul\":26261:26263   */\n      0x20\n        /* \"#utility.yul\":26256:26259   */\n      dup3\n        /* \"#utility.yul\":26252:26264   */\n      add\n        /* \"#utility.yul\":26245:26264   */\n      swap1\n      pop\n        /* \"#utility.yul\":25904:26270   */\n      swap2\n      swap1\n      pop\n      jump\t// out\n        /* \"#utility.yul\":26276:26695   */\n    tag_195:\n        /* \"#utility.yul\":26442:26446   */\n      0x00\n        /* \"#utility.yul\":26480:26482   */\n      0x20\n        /* \"#utility.yul\":26469:26478   */\n      dup3\n        /* \"#utility.yul\":26465:26483   */\n      add\n        /* \"#utility.yul\":26457:26483   */\n      swap1\n      pop\n        /* \"#utility.yul\":26529:26538   */\n      dup2\n        /* \"#utility.yul\":26523:26527   */\n      dup2\n        /* \"#utility.yul\":26519:26539   */\n      sub\n        /* \"#utility.yul\":26515:26516   */\n      0x00\n        /* \"#utility.yul\":26504:26513   */\n      dup4\n        /* \"#utility.yul\":26500:26517   */\n      add\n        /* \"#utility.yul\":26493:26540   */\n      mstore\n        /* \"#utility.yul\":26557:26688   */\n      tag_561\n        /* \"#utility.yul\":26683:26687   */\n      dup2\n        /* \"#utility.yul\":26557:26688   */\n      tag_310\n      jump\t// in\n    tag_561:\n        /* \"#utility.yul\":26549:26688   */\n      swap1\n      pop\n        /* \"#utility.yul\":26276:26695   */\n      swap2\n      swap1\n      pop\n      jump\t// out\n        /* \"#utility.yul\":26701:26842   */\n    tag_311:\n        /* \"#utility.yul\":26750:26754   */\n      0x00\n        /* \"#utility.yul\":26773:26776   */\n      dup2\n        /* \"#utility.yul\":26765:26776   */\n      swap1\n      pop\n        /* \"#utility.yul\":26796:26799   */\n      dup2\n        /* \"#utility.yul\":26793:26794   */\n      0x00\n        /* \"#utility.yul\":26786:26800   */\n      mstore\n        /* \"#utility.yul\":26830:26834   */\n      0x20\n        /* \"#utility.yul\":26827:26828   */\n      0x00\n        /* \"#utility.yul\":26817:26835   */\n      keccak256\n        /* \"#utility.yul\":26809:26835   */\n      swap1\n      pop\n        /* \"#utility.yul\":26701:26842   */\n      swap2\n      swap1\n      pop\n      jump\t// out\n        /* \"#utility.yul\":26848:26941   */\n    tag_312:\n        /* \"#utility.yul\":26885:26891   */\n      0x00\n        /* \"#utility.yul\":26932:26934   */\n      0x20\n        /* \"#utility.yul\":26927:26929   */\n      0x1f\n        /* \"#utility.yul\":26920:26925   */\n      dup4\n        /* \"#utility.yul\":26916:26930   */\n      add\n        /* \"#utility.yul\":26912:26935   */\n      div\n        /* \"#utility.yul\":26902:26935   */\n      swap1\n      pop\n        /* \"#utility.yul\":26848:26941   */\n      swap2\n      swap1\n      pop\n      jump\t// out\n        /* \"#utility.yul\":26947:27054   */\n    tag_313:\n        /* \"#utility.yul\":26991:26999   */\n      0x00\n        /* \"#utility.yul\":27041:27046   */\n      dup3\n        /* \"#utility.yul\":27035:27039   */\n      dup3\n        /* \"#utility.yul\":27031:27047   */\n      shl\n        /* \"#utility.yul\":27010:27047   */\n      swap1\n      pop\n        /* \"#utility.yul\":26947:27054   */\n      swap3\n      swap2\n      pop\n      pop\n      jump\t// out\n        /* \"#utility.yul\":27060:27453   */\n    tag_314:\n        /* \"#utility.yul\":27129:27135   */\n      0x00\n        /* \"#utility.yul\":27179:27180   */\n      0x08\n        /* \"#utility.yul\":27167:27177   */\n      dup4\n        /* \"#utility.yul\":27163:27181   */\n      mul\n        /* \"#utility.yul\":27202:27299   */\n      tag_566\n        /* \"#utility.yul\":27232:27298   */\n      0xffffffffffffffffffffffffffffffffffffffffffffffffffffffffffffffff\n        /* \"#utility.yul\":27221:27230   */\n      dup3\n        /* \"#utility.yul\":27202:27299   */\n      tag_313\n      jump\t// in\n    tag_566:\n        /* \"#utility.yul\":27320:27359   */\n      tag_567\n        /* \"#utility.yul\":27350:27358   */\n      dup7\n        /* \"#utility.yul\":27339:27348   */\n      dup4\n        /* \"#utility.yul\":27320:27359   */\n      tag_313\n      jump\t// in\n    tag_567:\n        /* \"#utility.yul\":27308:27359   */\n      swap6\n      pop\n        /* \"#utility.yul\":27392:27396   */\n      dup1\n        /* \"#utility.yul\":27388:27397   */\n      not\n        /* \"#utility.yul\":27381:27386   */\n      dup5\n        /* \"#utility.yul\":27377:27398   */\n      and\n        /* \"#utility.yul\":27368:27398   */\n      swap4\n      pop\n        /* \"#utility.yul\":27441:27445   */\n      dup1\n        /* \"#utility.yul\":27431:27439   */\n      dup7\n        /* \"#utility.yul\":27427:27446   */\n      and\n        /* \"#utility.yul\":27420:27425   */\n      dup5\n        /* \"#utility.yul\":27417:27447   */\n      or\n        /* \"#utility.yul\":27407:27447   */\n      swap3\n      pop\n        /* \"#utility.yul\":27136:27453   */\n      pop\n      pop\n        /* \"#utility.yul\":27060:27453   */\n      swap4\n      swap3\n      pop\n      pop\n      pop\n      jump\t// out\n        /* \"#utility.yul\":27459:27601   */\n    tag_315:\n        /* \"#utility.yul\":27509:27518   */\n      0x00\n        /* \"#utility.yul\":27542:27595   */\n      tag_569\n        /* \"#utility.yul\":27560:27594   */\n      tag_570\n        /* \"#utility.yul\":27569:27593   */\n      tag_571\n        /* \"#utility.yul\":27587:27592   */\n      dup5\n        /* \"#utility.yul\":27569:27593   */\n      tag_238\n      jump\t// in\n    tag_571:\n        /* \"#utility.yul\":27560:27594   */\n      tag_261\n      jump\t// in\n    tag_570:\n        /* \"#utility.yul\":27542:27595   */\n      tag_238\n      jump\t// in\n    tag_569:\n        /* \"#utility.yul\":27529:27595   */\n      swap1\n      pop\n        /* \"#utility.yul\":27459:27601   */\n      swap2\n      swap1\n      pop\n      jump\t// out\n        /* \"#utility.yul\":27607:27682   */\n    tag_316:\n        /* \"#utility.yul\":27650:27653   */\n      0x00\n        /* \"#utility.yul\":27671:27676   */\n      dup2\n        /* \"#utility.yul\":27664:27676   */\n      swap1\n      pop\n        /* \"#utility.yul\":27607:27682   */\n      swap2\n      swap1\n      pop\n      jump\t// out\n        /* \"#utility.yul\":27688:27957   */\n    tag_317:\n        /* \"#utility.yul\":27798:27837   */\n      tag_574\n        /* \"#utility.yul\":27829:27836   */\n      dup4\n        /* \"#utility.yul\":27798:27837   */\n      tag_315\n      jump\t// in\n    tag_574:\n        /* \"#utility.yul\":27859:27950   */\n      tag_575\n        /* \"#utility.yul\":27908:27949   */\n      tag_576\n        /* \"#utility.yul\":27932:27948   */\n      dup3\n        /* \"#utility.yul\":27908:27949   */\n      tag_316\n      jump\t// in\n    tag_576:\n        /* \"#utility.yul\":27900:27906   */\n      dup5\n        /* \"#utility.yul\":27893:27897   */\n      dup5\n        /* \"#utility.yul\":27887:27898   */\n      sload\n        /* \"#utility.yul\":27859:27950   */\n      tag_314\n      jump\t// in\n    tag_575:\n        /* \"#utility.yul\":27853:27857   */\n      dup3\n        /* \"#utility.yul\":27846:27951   */\n      sstore\n        /* \"#utility.yul\":27764:27957   */\n      pop\n        /* \"#utility.yul\":27688:27957   */\n      pop\n      pop\n      pop\n      jump\t// out\n        /* \"#utility.yul\":27963:28036   */\n    tag_318:\n        /* \"#utility.yul\":28008:28011   */\n      0x00\n        /* \"#utility.yul\":28029:28030   */\n      0x00\n        /* \"#utility.yul\":28022:28030   */\n      swap1\n      pop\n        /* \"#utility.yul\":27963:28036   */\n      swap1\n      jump\t// out\n        /* \"#utility.yul\":28042:28231   */\n    tag_319:\n        /* \"#utility.yul\":28119:28151   */\n      tag_579\n      tag_318\n      jump\t// in\n    tag_579:\n        /* \"#utility.yul\":28160:28225   */\n      tag_580\n        /* \"#utility.yul\":28218:28224   */\n      dup2\n        /* \"#utility.yul\":28210:28216   */\n      dup5\n        /* \"#utility.yul\":28204:28208   */\n      dup5\n        /* \"#utility.yul\":28160:28225   */\n      tag_317\n      jump\t// in\n    tag_580:\n        /* \"#utility.yul\":28095:28231   */\n      pop\n        /* \"#utility.yul\":28042:28231   */\n      pop\n      pop\n      jump\t// out\n        /* \"#utility.yul\":28237:28423   */\n    tag_320:\n        /* \"#utility.yul\":28297:28417   */\n    tag_582:\n        /* \"#utility.yul\":28314:28317   */\n      dup2\n        /* \"#utility.yul\":28307:28312   */\n      dup2\n        /* \"#utility.yul\":28304:28318   */\n      lt\n        /* \"#utility.yul\":28297:28417   */\n      iszero\n      tag_584\n      jumpi\n        /* \"#utility.yul\":28368:28407   */\n      tag_585\n        /* \"#utility.yul\":28405:28406   */\n      0x00\n        /* \"#utility.yul\":28398:28403   */\n      dup3\n        /* \"#utility.yul\":28368:28407   */\n      tag_319\n      jump\t// in\n    tag_585:\n        /* \"#utility.yul\":28341:28342   */\n      0x01\n        /* \"#utility.yul\":28334:28339   */\n      dup2\n        /* \"#utility.yul\":28330:28343   */\n      add\n        /* \"#utility.yul\":28321:28343   */\n      swap1\n      pop\n        /* \"#utility.yul\":28297:28417   */\n      jump(tag_582)\n    tag_584:\n        /* \"#utility.yul\":28237:28423   */\n      pop\n      pop\n      jump\t// out\n        /* \"#utility.yul\":28429:28972   */\n    tag_321:\n        /* \"#utility.yul\":28530:28532   */\n      0x1f\n        /* \"#utility.yul\":28525:28528   */\n      dup3\n        /* \"#utility.yul\":28522:28533   */\n      gt\n        /* \"#utility.yul\":28519:28965   */\n      iszero\n      tag_587\n      jumpi\n        /* \"#utility.yul\":28564:28602   */\n      tag_588\n        /* \"#utility.yul\":28596:28601   */\n      dup2\n        /* \"#utility.yul\":28564:28602   */\n      tag_311\n      jump\t// in\n    tag_588:\n        /* \"#utility.yul\":28648:28677   */\n      tag_589\n        /* \"#utility.yul\":28666:28676   */\n      dup5\n        /* \"#utility.yul\":28648:28677   */\n      tag_312\n      jump\t// in\n    tag_589:\n        /* \"#utility.yul\":28638:28646   */\n      dup2\n        /* \"#utility.yul\":28634:28678   */\n      add\n        /* \"#utility.yul\":28831:28833   */\n      0x20\n        /* \"#utility.yul\":28819:28829   */\n      dup6\n        /* \"#utility.yul\":28816:28834   */\n      lt\n        /* \"#utility.yul\":28813:28862   */\n      iszero\n      tag_590\n      jumpi\n        /* \"#utility.yul\":28852:28860   */\n      dup2\n        /* \"#utility.yul\":28837:28860   */\n      swap1\n      pop\n        /* \"#utility.yul\":28813:28862   */\n    tag_590:\n        /* \"#utility.yul\":28875:28955   */\n      tag_591\n        /* \"#utility.yul\":28931:28953   */\n      tag_592\n        /* \"#utility.yul\":28949:28952   */\n      dup6\n        /* \"#utility.yul\":28931:28953   */\n      tag_312\n      jump\t// in\n    tag_592:\n        /* \"#utility.yul\":28921:28929   */\n      dup4\n        /* \"#utility.yul\":28917:28954   */\n      add\n        /* \"#utility.yul\":28904:28915   */\n      dup3\n        /* \"#utility.yul\":28875:28955   */\n      tag_320\n      jump\t// in\n    tag_591:\n        /* \"#utility.yul\":28534:28965   */\n      pop\n      pop\n        /* \"#utility.yul\":28519:28965   */\n    tag_587:\n        /* \"#utility.yul\":28429:28972   */\n      pop\n      pop\n      pop\n      jump\t// out\n        /* \"#utility.yul\":28978:29095   */\n    tag_322:\n        /* \"#utility.yul\":29032:29040   */\n      0x00\n        /* \"#utility.yul\":29082:29087   */\n      dup3\n        /* \"#utility.yul\":29076:29080   */\n      dup3\n        /* \"#utility.yul\":29072:29088   */\n      shr\n        /* \"#utility.yul\":29051:29088   */\n      swap1\n      pop\n        /* \"#utility.yul\":28978:29095   */\n      swap3\n      swap2\n      pop\n      pop\n      jump\t// out\n        /* \"#utility.yul\":29101:29270   */\n    tag_323:\n        /* \"#utility.yul\":29145:29151   */\n      0x00\n        /* \"#utility.yul\":29178:29229   */\n      tag_595\n        /* \"#utility.yul\":29226:29227   */\n      0x00\n        /* \"#utility.yul\":29222:29228   */\n      not\n        /* \"#utility.yul\":29214:29219   */\n      dup5\n        /* \"#utility.yul\":29211:29212   */\n      0x08\n        /* \"#utility.yul\":29207:29220   */\n      mul\n        /* \"#utility.yul\":29178:29229   */\n      tag_322\n      jump\t// in\n    tag_595:\n        /* \"#utility.yul\":29174:29230   */\n      not\n        /* \"#utility.yul\":29259:29263   */\n      dup1\n        /* \"#utility.yul\":29253:29257   */\n      dup4\n        /* \"#utility.yul\":29249:29264   */\n      and\n        /* \"#utility.yul\":29239:29264   */\n      swap2\n      pop\n        /* \"#utility.yul\":29152:29270   */\n      pop\n        /* \"#utility.yul\":29101:29270   */\n      swap3\n      swap2\n      pop\n      pop\n      jump\t// out\n        /* \"#utility.yul\":29275:29570   */\n    tag_324:\n        /* \"#utility.yul\":29351:29355   */\n      0x00\n        /* \"#utility.yul\":29497:29526   */\n      tag_597\n        /* \"#utility.yul\":29522:29525   */\n      dup4\n        /* \"#utility.yul\":29516:29520   */\n      dup4\n        /* \"#utility.yul\":29497:29526   */\n      tag_323\n      jump\t// in\n    tag_597:\n        /* \"#utility.yul\":29489:29526   */\n      swap2\n      pop\n        /* \"#utility.yul\":29559:29562   */\n      dup3\n        /* \"#utility.yul\":29556:29557   */\n      0x02\n        /* \"#utility.yul\":29552:29563   */\n      mul\n        /* \"#utility.yul\":29546:29550   */\n      dup3\n        /* \"#utility.yul\":29543:29564   */\n      or\n        /* \"#utility.yul\":29535:29564   */\n      swap1\n      pop\n        /* \"#utility.yul\":29275:29570   */\n      swap3\n      swap2\n      pop\n      pop\n      jump\t// out\n        /* \"#utility.yul\":29575:30970   */\n    tag_197:\n        /* \"#utility.yul\":29692:29729   */\n      tag_599\n        /* \"#utility.yul\":29725:29728   */\n      dup3\n        /* \"#utility.yul\":29692:29729   */\n      tag_249\n      jump\t// in\n    tag_599:\n        /* \"#utility.yul\":29794:29812   */\n      0xffffffffffffffff\n        /* \"#utility.yul\":29786:29792   */\n      dup2\n        /* \"#utility.yul\":29783:29813   */\n      gt\n        /* \"#utility.yul\":29780:29836   */\n      iszero\n      tag_600\n      jumpi\n        /* \"#utility.yul\":29816:29834   */\n      tag_601\n      tag_270\n      jump\t// in\n    tag_601:\n        /* \"#utility.yul\":29780:29836   */\n    tag_600:\n        /* \"#utility.yul\":29860:29898   */\n      tag_602\n        /* \"#utility.yul\":29892:29896   */\n      dup3\n        /* \"#utility.yul\":29886:29897   */\n      sload\n        /* \"#utility.yul\":29860:29898   */\n      tag_97\n      jump\t// in\n    tag_602:\n        /* \"#utility.yul\":29945:30012   */\n      tag_603\n        /* \"#utility.yul\":30005:30011   */\n      dup3\n        /* \"#utility.yul\":29997:30003   */\n      dup3\n        /* \"#utility.yul\":29991:29995   */\n      dup6\n        /* \"#utility.yul\":29945:30012   */\n      tag_321\n      jump\t// in\n    tag_603:\n        /* \"#utility.yul\":30039:30040   */\n      0x00\n        /* \"#utility.yul\":30063:30067   */\n      0x20\n        /* \"#utility.yul\":30050:30067   */\n      swap1\n      pop\n        /* \"#utility.yul\":30095:30097   */\n      0x1f\n        /* \"#utility.yul\":30087:30093   */\n      dup4\n        /* \"#utility.yul\":30084:30098   */\n      gt\n        /* \"#utility.yul\":30112:30113   */\n      0x01\n        /* \"#utility.yul\":30107:30725   */\n      dup2\n      eq\n      tag_605\n      jumpi\n        /* \"#utility.yul\":30769:30770   */\n      0x00\n        /* \"#utility.yul\":30786:30792   */\n      dup5\n        /* \"#utility.yul\":30783:30860   */\n      iszero\n      tag_606\n      jumpi\n        /* \"#utility.yul\":30835:30844   */\n      dup3\n        /* \"#utility.yul\":30830:30833   */\n      dup8\n        /* \"#utility.yul\":30826:30845   */\n      add\n        /* \"#utility.yul\":30820:30846   */\n      mload\n        /* \"#utility.yul\":30811:30846   */\n      swap1\n      pop\n        /* \"#utility.yul\":30783:30860   */\n    tag_606:\n        /* \"#utility.yul\":30886:30953   */\n      tag_607\n        /* \"#utility.yul\":30946:30952   */\n      dup6\n        /* \"#utility.yul\":30939:30944   */\n      dup3\n        /* \"#utility.yul\":30886:30953   */\n      tag_324\n      jump\t// in\n    tag_607:\n        /* \"#utility.yul\":30880:30884   */\n      dup7\n        /* \"#utility.yul\":30873:30954   */\n      sstore\n        /* \"#utility.yul\":30742:30964   */\n      pop\n        /* \"#utility.yul\":30077:30964   */\n      jump(tag_604)\n        /* \"#utility.yul\":30107:30725   */\n    tag_605:\n        /* \"#utility.yul\":30159:30163   */\n      0x1f\n        /* \"#utility.yul\":30155:30164   */\n      not\n        /* \"#utility.yul\":30147:30153   */\n      dup5\n        /* \"#utility.yul\":30143:30165   */\n      and\n        /* \"#utility.yul\":30193:30230   */\n      tag_608\n        /* \"#utility.yul\":30225:30229   */\n      dup7\n        /* \"#utility.yul\":30193:30230   */\n      tag_311\n      jump\t// in\n    tag_608:\n        /* \"#utility.yul\":30252:30253   */\n      0x00\n        /* \"#utility.yul\":30266:30474   */\n    tag_609:\n        /* \"#utility.yul\":30280:30287   */\n      dup3\n        /* \"#utility.yul\":30277:30278   */\n      dup2\n        /* \"#utility.yul\":30274:30288   */\n      lt\n        /* \"#utility.yul\":30266:30474   */\n      iszero\n      tag_611\n      jumpi\n        /* \"#utility.yul\":30359:30368   */\n      dup5\n        /* \"#utility.yul\":30354:30357   */\n      dup10\n        /* \"#utility.yul\":30350:30369   */\n      add\n        /* \"#utility.yul\":30344:30370   */\n      mload\n        /* \"#utility.yul\":30336:30342   */\n      dup3\n        /* \"#utility.yul\":30329:30371   */\n      sstore\n        /* \"#utility.yul\":30410:30411   */\n      0x01\n        /* \"#utility.yul\":30402:30408   */\n      dup3\n        /* \"#utility.yul\":30398:30412   */\n      add\n        /* \"#utility.yul\":30388:30412   */\n      swap2\n      pop\n        /* \"#utility.yul\":30457:30459   */\n      0x20\n        /* \"#utility.yul\":30446:30455   */\n      dup6\n        /* \"#utility.yul\":30442:30460   */\n      add\n        /* \"#utility.yul\":30429:30460   */\n      swap5\n      pop\n        /* \"#utility.yul\":30303:30307   */\n      0x20\n        /* \"#utility.yul\":30300:30301   */\n      dup2\n        /* \"#utility.yul\":30296:30308   */\n      add\n        /* \"#utility.yul\":30291:30308   */\n      swap1\n      pop\n        /* \"#utility.yul\":30266:30474   */\n      jump(tag_609)\n    tag_611:\n        /* \"#utility.yul\":30502:30508   */\n      dup7\n        /* \"#utility.yul\":30493:30500   */\n      dup4\n        /* \"#utility.yul\":30490:30509   */\n      lt\n        /* \"#utility.yul\":30487:30666   */\n      iszero\n      tag_612\n      jumpi\n        /* \"#utility.yul\":30560:30569   */\n      dup5\n        /* \"#utility.yul\":30555:30558   */\n      dup10\n        /* \"#utility.yul\":30551:30570   */\n      add\n        /* \"#utility.yul\":30545:30571   */\n      mload\n        /* \"#utility.yul\":30603:30651   */\n      tag_613\n        /* \"#utility.yul\":30645:30649   */\n      0x1f\n        /* \"#utility.yul\":30637:30643   */\n      dup10\n        /* \"#utility.yul\":30633:30650   */\n      and\n        /* \"#utility.yul\":30622:30631   */\n      dup3\n        /* \"#utility.yul\":30603:30651   */\n      tag_323\n      jump\t// in\n    tag_613:\n        /* \"#utility.yul\":30595:30601   */\n      dup4\n        /* \"#utility.yul\":30588:30652   */\n      sstore\n        /* \"#utility.yul\":30510:30666   */\n      pop\n        /* \"#utility.yul\":30487:30666   */\n    tag_612:\n        /* \"#utility.yul\":30712:30713   */\n      0x01\n        /* \"#utility.yul\":30708:30709   */\n      0x02\n        /* \"#utility.yul\":30700:30706   */\n      dup9\n        /* \"#utility.yul\":30696:30710   */\n      mul\n        /* \"#utility.yul\":30692:30714   */\n      add\n        /* \"#utility.yul\":30686:30690   */\n      dup9\n        /* \"#utility.yul\":30679:30715   */\n      sstore\n        /* \"#utility.yul\":30114:30725   */\n      pop\n      pop\n      pop\n        /* \"#utility.yul\":30077:30964   */\n    tag_604:\n      pop\n        /* \"#utility.yul\":29667:30970   */\n      pop\n      pop\n      pop\n        /* \"#utility.yul\":29575:30970   */\n      pop\n      pop\n      jump\t// out\n        /* \"#utility.yul\":30976:31146   */\n    tag_325:\n        /* \"#utility.yul\":31116:31138   */\n      0x496e73756666696369656e742062616c616e6365000000000000000000000000\n        /* \"#utility.yul\":31112:31113   */\n      0x00\n        /* \"#utility.yul\":31104:31110   */\n      dup3\n        /* \"#utility.yul\":31100:31114   */\n      add\n        /* \"#utility.yul\":31093:31139   */\n      mstore\n        /* \"#utility.yul\":30976:31146   */\n      pop\n      jump\t// out\n        /* \"#utility.yul\":31152:31518   */\n    tag_326:\n        /* \"#utility.yul\":31294:31297   */\n      0x00\n        /* \"#utility.yul\":31315:31382   */\n      tag_616\n        /* \"#utility.yul\":31379:31381   */\n      0x14\n        /* \"#utility.yul\":31374:31377   */\n      dup4\n        /* \"#utility.yul\":31315:31382   */\n      tag_277\n      jump\t// in\n    tag_616:\n        /* \"#utility.yul\":31308:31382   */\n      swap2\n      pop\n        /* \"#utility.yul\":31391:31484   */\n      tag_617\n        /* \"#utility.yul\":31480:31483   */\n      dup3\n        /* \"#utility.yul\":31391:31484   */\n      tag_325\n      jump\t// in\n    tag_617:\n        /* \"#utility.yul\":31509:31511   */\n      0x20\n        /* \"#utility.yul\":31504:31507   */\n      dup3\n        /* \"#utility.yul\":31500:31512   */\n      add\n        /* \"#utility.yul\":31493:31512   */\n      swap1\n      pop\n        /* \"#utility.yul\":31152:31518   */\n      swap2\n      swap1\n      pop\n      jump\t// out\n        /* \"#utility.yul\":31524:31943   */\n    tag_205:\n        /* \"#utility.yul\":31690:31694   */\n      0x00\n        /* \"#utility.yul\":31728:31730   */\n      0x20\n        /* \"#utility.yul\":31717:31726   */\n      dup3\n        /* \"#utility.yul\":31713:31731   */\n      add\n        /* \"#utility.yul\":31705:31731   */\n      swap1\n      pop\n        /* \"#utility.yul\":31777:31786   */\n      dup2\n        /* \"#utility.yul\":31771:31775   */\n      dup2\n        /* \"#utility.yul\":31767:31787   */\n      sub\n        /* \"#utility.yul\":31763:31764   */\n      0x00\n        /* \"#utility.yul\":31752:31761   */\n      dup4\n        /* \"#utility.yul\":31748:31765   */\n      add\n        /* \"#utility.yul\":31741:31788   */\n      mstore\n        /* \"#utility.yul\":31805:31936   */\n      tag_619\n        /* \"#utility.yul\":31931:31935   */\n      dup2\n        /* \"#utility.yul\":31805:31936   */\n      tag_326\n      jump\t// in\n    tag_619:\n        /* \"#utility.yul\":31797:31936   */\n      swap1\n      pop\n        /* \"#utility.yul\":31524:31943   */\n      swap2\n      swap1\n      pop\n      jump\t// out\n        /* \"#utility.yul\":31949:32188   */\n    tag_327:\n        /* \"#utility.yul\":32089:32123   */\n      0x4e6f7420656e6f756768206c697175696469747920617661696c61626c652c20\n        /* \"#utility.yul\":32085:32086   */\n      0x00\n        /* \"#utility.yul\":32077:32083   */\n      dup3\n        /* \"#utility.yul\":32073:32087   */\n      add\n        /* \"#utility.yul\":32066:32124   */\n      mstore\n        /* \"#utility.yul\":32158:32180   */\n      0x72657472696576652066756e6473206669727374000000000000000000000000\n        /* \"#utility.yul\":32153:32155   */\n      0x20\n        /* \"#utility.yul\":32145:32151   */\n      dup3\n        /* \"#utility.yul\":32141:32156   */\n      add\n        /* \"#utility.yul\":32134:32181   */\n      mstore\n        /* \"#utility.yul\":31949:32188   */\n      pop\n      jump\t// out\n        /* \"#utility.yul\":32194:32560   */\n    tag_328:\n        /* \"#utility.yul\":32336:32339   */\n      0x00\n        /* \"#utility.yul\":32357:32424   */\n      tag_622\n        /* \"#utility.yul\":32421:32423   */\n      0x34\n        /* \"#utility.yul\":32416:32419   */\n      dup4\n        /* \"#utility.yul\":32357:32424   */\n      tag_277\n      jump\t// in\n    tag_622:\n        /* \"#utility.yul\":32350:32424   */\n      swap2\n      pop\n        /* \"#utility.yul\":32433:32526   */\n      tag_623\n        /* \"#utility.yul\":32522:32525   */\n      dup3\n        /* \"#utility.yul\":32433:32526   */\n      tag_327\n      jump\t// in\n    tag_623:\n        /* \"#utility.yul\":32551:32553   */\n      0x40\n        /* \"#utility.yul\":32546:32549   */\n      dup3\n        /* \"#utility.yul\":32542:32554   */\n      add\n        /* \"#utility.yul\":32535:32554   */\n      swap1\n      pop\n        /* \"#utility.yul\":32194:32560   */\n      swap2\n      swap1\n      pop\n      jump\t// out\n        /* \"#utility.yul\":32566:32985   */\n    tag_208:\n        /* \"#utility.yul\":32732:32736   */\n      0x00\n        /* \"#utility.yul\":32770:32772   */\n      0x20\n        /* \"#utility.yul\":32759:32768   */\n      dup3\n        /* \"#utility.yul\":32755:32773   */\n      add\n        /* \"#utility.yul\":32747:32773   */\n      swap1\n      pop\n        /* \"#utility.yul\":32819:32828   */\n      dup2\n        /* \"#utility.yul\":32813:32817   */\n      dup2\n        /* \"#utility.yul\":32809:32829   */\n      sub\n        /* \"#utility.yul\":32805:32806   */\n      0x00\n        /* \"#utility.yul\":32794:32803   */\n      dup4\n        /* \"#utility.yul\":32790:32807   */\n      add\n        /* \"#utility.yul\":32783:32830   */\n      mstore\n        /* \"#utility.yul\":32847:32978   */\n      tag_625\n        /* \"#utility.yul\":32973:32977   */\n      dup2\n        /* \"#utility.yul\":32847:32978   */\n      tag_328\n      jump\t// in\n    tag_625:\n        /* \"#utility.yul\":32839:32978   */\n      swap1\n      pop\n        /* \"#utility.yul\":32566:32985   */\n      swap2\n      swap1\n      pop\n      jump\t// out\n        /* \"#utility.yul\":32991:33159   */\n    tag_329:\n        /* \"#utility.yul\":33131:33151   */\n      0x4e6f2066756e647320617661696c61626c650000000000000000000000000000\n        /* \"#utility.yul\":33127:33128   */\n      0x00\n        /* \"#utility.yul\":33119:33125   */\n      dup3\n        /* \"#utility.yul\":33115:33129   */\n      add\n        /* \"#utility.yul\":33108:33152   */\n      mstore\n        /* \"#utility.yul\":32991:33159   */\n      pop\n      jump\t// out\n        /* \"#utility.yul\":33165:33531   */\n    tag_330:\n        /* \"#utility.yul\":33307:33310   */\n      0x00\n        /* \"#utility.yul\":33328:33395   */\n      tag_628\n        /* \"#utility.yul\":33392:33394   */\n      0x12\n        /* \"#utility.yul\":33387:33390   */\n      dup4\n        /* \"#utility.yul\":33328:33395   */\n      tag_277\n      jump\t// in\n    tag_628:\n        /* \"#utility.yul\":33321:33395   */\n      swap2\n      pop\n        /* \"#utility.yul\":33404:33497   */\n      tag_629\n        /* \"#utility.yul\":33493:33496   */\n      dup3\n        /* \"#utility.yul\":33404:33497   */\n      tag_329\n      jump\t// in\n    tag_629:\n        /* \"#utility.yul\":33522:33524   */\n      0x20\n        /* \"#utility.yul\":33517:33520   */\n      dup3\n        /* \"#utility.yul\":33513:33525   */\n      add\n        /* \"#utility.yul\":33506:33525   */\n      swap1\n      pop\n        /* \"#utility.yul\":33165:33531   */\n      swap2\n      swap1\n      pop\n      jump\t// out\n        /* \"#utility.yul\":33537:33956   */\n    tag_219:\n        /* \"#utility.yul\":33703:33707   */\n      0x00\n        /* \"#utility.yul\":33741:33743   */\n      0x20\n        /* \"#utility.yul\":33730:33739   */\n      dup3\n        /* \"#utility.yul\":33726:33744   */\n      add\n        /* \"#utility.yul\":33718:33744   */\n      swap1\n      pop\n        /* \"#utility.yul\":33790:33799   */\n      dup2\n        /* \"#utility.yul\":33784:33788   */\n      dup2\n        /* \"#utility.yul\":33780:33800   */\n      sub\n        /* \"#utility.yul\":33776:33777   */\n      0x00\n        /* \"#utility.yul\":33765:33774   */\n      dup4\n        /* \"#utility.yul\":33761:33778   */\n      add\n        /* \"#utility.yul\":33754:33801   */\n      mstore\n        /* \"#utility.yul\":33818:33949   */\n      tag_631\n        /* \"#utility.yul\":33944:33948   */\n      dup2\n        /* \"#utility.yul\":33818:33949   */\n      tag_330\n      jump\t// in\n    tag_631:\n        /* \"#utility.yul\":33810:33949   */\n      swap1\n      pop\n        /* \"#utility.yul\":33537:33956   */\n      swap2\n      swap1\n      pop\n      jump\t// out\n        /* \"#utility.yul\":33962:34139   */\n    tag_331:\n        /* \"#utility.yul\":34102:34131   */\n      0x456d657267656e6379207769746864726177616c206661696c65640000000000\n        /* \"#utility.yul\":34098:34099   */\n      0x00\n        /* \"#utility.yul\":34090:34096   */\n      dup3\n        /* \"#utility.yul\":34086:34100   */\n      add\n        /* \"#utility.yul\":34079:34132   */\n      mstore\n        /* \"#utility.yul\":33962:34139   */\n      pop\n      jump\t// out\n        /* \"#utility.yul\":34145:34511   */\n    tag_332:\n        /* \"#utility.yul\":34287:34290   */\n      0x00\n        /* \"#utility.yul\":34308:34375   */\n      tag_634\n        /* \"#utility.yul\":34372:34374   */\n      0x1b\n        /* \"#utility.yul\":34367:34370   */\n      dup4\n        /* \"#utility.yul\":34308:34375   */\n      tag_277\n      jump\t// in\n    tag_634:\n        /* \"#utility.yul\":34301:34375   */\n      swap2\n      pop\n        /* \"#utility.yul\":34384:34477   */\n      tag_635\n        /* \"#utility.yul\":34473:34476   */\n      dup3\n        /* \"#utility.yul\":34384:34477   */\n      tag_331\n      jump\t// in\n    tag_635:\n        /* \"#utility.yul\":34502:34504   */\n      0x20\n        /* \"#utility.yul\":34497:34500   */\n      dup3\n        /* \"#utility.yul\":34493:34505   */\n      add\n        /* \"#utility.yul\":34486:34505   */\n      swap1\n      pop\n        /* \"#utility.yul\":34145:34511   */\n      swap2\n      swap1\n      pop\n      jump\t// out\n        /* \"#utility.yul\":34517:34936   */\n    tag_226:\n        /* \"#utility.yul\":34683:34687   */\n      0x00\n        /* \"#utility.yul\":34721:34723   */\n      0x20\n        /* \"#utility.yul\":34710:34719   */\n      dup3\n        /* \"#utility.yul\":34706:34724   */\n      add\n        /* \"#utility.yul\":34698:34724   */\n      swap1\n      pop\n        /* \"#utility.yul\":34770:34779   */\n      dup2\n        /* \"#utility.yul\":34764:34768   */\n      dup2\n        /* \"#utility.yul\":34760:34780   */\n      sub\n        /* \"#utility.yul\":34756:34757   */\n      0x00\n        /* \"#utility.yul\":34745:34754   */\n      dup4\n        /* \"#utility.yul\":34741:34758   */\n      add\n        /* \"#utility.yul\":34734:34781   */\n      mstore\n        /* \"#utility.yul\":34798:34929   */\n      tag_637\n        /* \"#utility.yul\":34924:34928   */\n      dup2\n        /* \"#utility.yul\":34798:34929   */\n      tag_332\n      jump\t// in\n    tag_637:\n        /* \"#utility.yul\":34790:34929   */\n      swap1\n      pop\n        /* \"#utility.yul\":34517:34936   */\n      swap2\n      swap1\n      pop\n      jump\t// out\n        /* \"#utility.yul\":34942:35085   */\n    tag_333:\n        /* \"#utility.yul\":34999:35004   */\n      0x00\n        /* \"#utility.yul\":35030:35036   */\n      dup2\n        /* \"#utility.yul\":35024:35037   */\n      mload\n        /* \"#utility.yul\":35015:35037   */\n      swap1\n      pop\n        /* \"#utility.yul\":35046:35079   */\n      tag_639\n        /* \"#utility.yul\":35073:35078   */\n      dup2\n        /* \"#utility.yul\":35046:35079   */\n      tag_246\n      jump\t// in\n    tag_639:\n        /* \"#utility.yul\":34942:35085   */\n      swap3\n      swap2\n      pop\n      pop\n      jump\t// out\n        /* \"#utility.yul\":35091:35442   */\n    tag_234:\n        /* \"#utility.yul\":35161:35167   */\n      0x00\n        /* \"#utility.yul\":35210:35212   */\n      0x20\n        /* \"#utility.yul\":35198:35207   */\n      dup3\n        /* \"#utility.yul\":35189:35196   */\n      dup5\n        /* \"#utility.yul\":35185:35208   */\n      sub\n        /* \"#utility.yul\":35181:35213   */\n      slt\n        /* \"#utility.yul\":35178:35297   */\n      iszero\n      tag_641\n      jumpi\n        /* \"#utility.yul\":35216:35295   */\n      tag_642\n      tag_244\n      jump\t// in\n    tag_642:\n        /* \"#utility.yul\":35178:35297   */\n    tag_641:\n        /* \"#utility.yul\":35336:35337   */\n      0x00\n        /* \"#utility.yul\":35361:35425   */\n      tag_643\n        /* \"#utility.yul\":35417:35424   */\n      dup5\n        /* \"#utility.yul\":35408:35414   */\n      dup3\n        /* \"#utility.yul\":35397:35406   */\n      dup6\n        /* \"#utility.yul\":35393:35415   */\n      add\n        /* \"#utility.yul\":35361:35425   */\n      tag_333\n      jump\t// in\n    tag_643:\n        /* \"#utility.yul\":35351:35425   */\n      swap2\n      pop\n        /* \"#utility.yul\":35307:35435   */\n      pop\n        /* \"#utility.yul\":35091:35442   */\n      swap3\n      swap2\n      pop\n      pop\n      jump\t// out\n        /* \"#utility.yul\":35448:35619   */\n    tag_334:\n        /* \"#utility.yul\":35588:35611   */\n      0x4e6f20696e74657265737420617661696c61626c650000000000000000000000\n        /* \"#utility.yul\":35584:35585   */\n      0x00\n        /* \"#utility.yul\":35576:35582   */\n      dup3\n        /* \"#utility.yul\":35572:35586   */\n      add\n        /* \"#utility.yul\":35565:35612   */\n      mstore\n        /* \"#utility.yul\":35448:35619   */\n      pop\n      jump\t// out\n        /* \"#utility.yul\":35625:35991   */\n    tag_335:\n        /* \"#utility.yul\":35767:35770   */\n      0x00\n        /* \"#utility.yul\":35788:35855   */\n      tag_646\n        /* \"#utility.yul\":35852:35854   */\n      0x15\n        /* \"#utility.yul\":35847:35850   */\n      dup4\n        /* \"#utility.yul\":35788:35855   */\n      tag_277\n      jump\t// in\n    tag_646:\n        /* \"#utility.yul\":35781:35855   */\n      swap2\n      pop\n        /* \"#utility.yul\":35864:35957   */\n      tag_647\n        /* \"#utility.yul\":35953:35956   */\n      dup3\n        /* \"#utility.yul\":35864:35957   */\n      tag_334\n      jump\t// in\n    tag_647:\n        /* \"#utility.yul\":35982:35984   */\n      0x20\n        /* \"#utility.yul\":35977:35980   */\n      dup3\n        /* \"#utility.yul\":35973:35985   */\n      add\n        /* \"#utility.yul\":35966:35985   */\n      swap1\n      pop\n        /* \"#utility.yul\":35625:35991   */\n      swap2\n      swap1\n      pop\n      jump\t// out\n        /* \"#utility.yul\":35997:36416   */\n    tag_237:\n        /* \"#utility.yul\":36163:36167   */\n      0x00\n        /* \"#utility.yul\":36201:36203   */\n      0x20\n        /* \"#utility.yul\":36190:36199   */\n      dup3\n        /* \"#utility.yul\":36186:36204   */\n      add\n        /* \"#utility.yul\":36178:36204   */\n      swap1\n      pop\n        /* \"#utility.yul\":36250:36259   */\n      dup2\n        /* \"#utility.yul\":36244:36248   */\n      dup2\n        /* \"#utility.yul\":36240:36260   */\n      sub\n        /* \"#utility.yul\":36236:36237   */\n      0x00\n        /* \"#utility.yul\":36225:36234   */\n      dup4\n        /* \"#utility.yul\":36221:36238   */\n      add\n        /* \"#utility.yul\":36214:36261   */\n      mstore\n        /* \"#utility.yul\":36278:36409   */\n      tag_649\n        /* \"#utility.yul\":36404:36408   */\n      dup2\n        /* \"#utility.yul\":36278:36409   */\n      tag_335\n      jump\t// in\n    tag_649:\n        /* \"#utility.yul\":36270:36409   */\n      swap1\n      pop\n        /* \"#utility.yul\":35997:36416   */\n      swap2\n      swap1\n      pop\n      jump\t// out\n\n    auxdata: 0xa2646970667358221220ea9e83da728fe059efcab2b8b7b77b3d7720f354e658a1c3d4ba7af4d3a318ea64736f6c634300081c0033\n}\n",
				"bytecode": {
					"linkReferences": {},
					"object": "60a0604052670de0b6b3a7640000600355670de0b6b3a7640000600455348015610027575f5ffd5b50604051612d90380380612d9083398181016040528101906100499190610128565b335f5f6101000a81548173ffffffffffffffffffffffffffffffffffffffff021916908373ffffffffffffffffffffffffffffffffffffffff16021790555060016007819055508073ffffffffffffffffffffffffffffffffffffffff1660808173ffffffffffffffffffffffffffffffffffffffff168152505050610153565b5f5ffd5b5f73ffffffffffffffffffffffffffffffffffffffff82169050919050565b5f6100f7826100ce565b9050919050565b610107816100ed565b8114610111575f5ffd5b50565b5f81519050610122816100fe565b92915050565b5f6020828403121561013d5761013c6100ca565b5b5f61014a84828501610114565b91505092915050565b608051612c096101875f395f818161070a0152818161093101528181610dd5015281816110d201526119490152612c095ff3fe6080604052600436106100e0575f3560e01c80638da5cb5b1161007e578063abe0cd0c11610058578063abe0cd0c146102ab578063c1075329146102d3578063db2e21bc146102fb578063f0ab8fe2146103115761011f565b80638da5cb5b1461023d5780638fe123d7146102675780639e625183146102835761011f565b8063668e8024116100ba578063668e80241461019b578063738005aa146101c35780637ae1009c146101eb5780637ee0456f146102135761011f565b80631d210cd2146101215780633b0718721461015d5780635641df95146101735761011f565b3661011f577fa0b6ed69c727bcce4cfdf30bc2777d7b7007d936b4a4dea135cbf6622fe4a58c3433604051610116929190611ab5565b60405180910390a15b005b34801561012c575f5ffd5b5061014760048036038101906101429190611b17565b610327565b6040516101549190611c5d565b60405180910390f35b348015610168575f5ffd5b506101716105df565b005b34801561017e575f5ffd5b5061019960048036038101906101949190611b17565b6107c6565b005b3480156101a6575f5ffd5b506101c160048036038101906101bc9190611b17565b61085e565b005b3480156101ce575f5ffd5b506101e960048036038101906101e49190611cb8565b6109f1565b005b3480156101f6575f5ffd5b50610211600480360381019061020c9190611b17565b610d3b565b005b34801561021e575f5ffd5b50610227610dd3565b6040516102349190611d51565b60405180910390f35b348015610248575f5ffd5b50610251610df7565b60405161025e9190611d6a565b60405180910390f35b610281600480360381019061027c9190611dad565b610e1b565b005b34801561028e575f5ffd5b506102a960048036038101906102a49190611b17565b610fa7565b005b3480156102b6575f5ffd5b506102d160048036038101906102cc9190611f04565b6111e1565b005b3480156102de575f5ffd5b506102f960048036038101906102f49190611cb8565b6114c3565b005b348015610306575f5ffd5b5061030f611718565b005b34801561031c575f5ffd5b506103256118b8565b005b61032f611a1b565b5f5f9054906101000a900473ffffffffffffffffffffffffffffffffffffffff1673ffffffffffffffffffffffffffffffffffffffff163373ffffffffffffffffffffffffffffffffffffffff16146103bd576040517f08c379a00000000000000000000000000000000000000000000000000000000081526004016103b490611fde565b60405180910390fd5b5f60065f8481526020019081526020015f205f9054906101000a900473ffffffffffffffffffffffffffffffffffffffff16905060055f8273ffffffffffffffffffffffffffffffffffffffff1673ffffffffffffffffffffffffffffffffffffffff1681526020019081526020015f206004015f9054906101000a900460ff1661047d576040517f08c379a000000000000000000000000000000000000000000000000000000000815260040161047490612046565b60405180910390fd5b60055f8273ffffffffffffffffffffffffffffffffffffffff1673ffffffffffffffffffffffffffffffffffffffff1681526020019081526020015f206040518060a00160405290815f82015481526020016001820180546104de90612091565b80601f016020809104026020016040519081016040528092919081815260200182805461050a90612091565b80156105555780601f1061052c57610100808354040283529160200191610555565b820191905f5260205f20905b81548152906001019060200180831161053857829003601f168201915b50505050508152602001600282015f9054906101000a900473ffffffffffffffffffffffffffffffffffffffff1673ffffffffffffffffffffffffffffffffffffffff1673ffffffffffffffffffffffffffffffffffffffff16815260200160038201548152602001600482015f9054906101000a900460ff161515151581525050915050919050565b5f5f9054906101000a900473ffffffffffffffffffffffffffffffffffffffff1673ffffffffffffffffffffffffffffffffffffffff163373ffffffffffffffffffffffffffffffffffffffff161461066d576040517f08c379a000000000000000000000000000000000000000000000000000000000815260040161066490611fde565b60405180910390fd5b610e1060015461067d91906120ee565b4210156106bf576040517f08c379a00000000000000000000000000000000000000000000000000000000081526004016106b69061216b565b60405180910390fd5b600354471015610704576040517f08c379a00000000000000000000000000000000000000000000000000000000081526004016106fb906121d3565b60405180910390fd5b5f4790507f000000000000000000000000000000000000000000000000000000000000000073ffffffffffffffffffffffffffffffffffffffff16631a878577826040518263ffffffff1660e01b81526004015f604051808303818588803b15801561076e575f5ffd5b505af1158015610780573d5f5f3e3d5ffd5b5050505050426001819055507fe95dff13cfeb27c914a4d03686b999a715a3270f0b70753cfb95a0ea7fa3219c816040516107bb91906121f1565b60405180910390a150565b5f5f9054906101000a900473ffffffffffffffffffffffffffffffffffffffff1673ffffffffffffffffffffffffffffffffffffffff163373ffffffffffffffffffffffffffffffffffffffff1614610854576040517f08c379a000000000000000000000000000000000000000000000000000000000815260040161084b90611fde565b60405180910390fd5b8060038190555050565b60055f3373ffffffffffffffffffffffffffffffffffffffff1673ffffffffffffffffffffffffffffffffffffffff1681526020019081526020015f206004015f9054906101000a900460ff166108ea576040517f08c379a00000000000000000000000000000000000000000000000000000000081526004016108e19061227a565b60405180910390fd5b60045481101561092f576040517f08c379a0000000000000000000000000000000000000000000000000000000008152600401610926906122e2565b60405180910390fd5b7f000000000000000000000000000000000000000000000000000000000000000073ffffffffffffffffffffffffffffffffffffffff1663da75793a82306040518363ffffffff1660e01b815260040161098a929190611ab5565b5f604051808303815f87803b1580156109a1575f5ffd5b505af11580156109b3573d5f5f3e3d5ffd5b505050507fd93b4b006708e5478cee61ef37aa4eb01c50f3943f00b0437cc172c33d0e93a2816040516109e691906121f1565b60405180910390a150565b60055f3373ffffffffffffffffffffffffffffffffffffffff1673ffffffffffffffffffffffffffffffffffffffff1681526020019081526020015f206004015f9054906101000a900460ff16610a7d576040517f08c379a0000000000000000000000000000000000000000000000000000000008152600401610a749061227a565b60405180910390fd5b8060055f3373ffffffffffffffffffffffffffffffffffffffff1673ffffffffffffffffffffffffffffffffffffffff1681526020019081526020015f20600301541015610b00576040517f08c379a0000000000000000000000000000000000000000000000000000000008152600401610af790612370565b60405180910390fd5b5f73ffffffffffffffffffffffffffffffffffffffff168273ffffffffffffffffffffffffffffffffffffffff1603610b6e576040517f08c379a0000000000000000000000000000000000000000000000000000000008152600401610b65906123d8565b60405180910390fd5b8060055f3373ffffffffffffffffffffffffffffffffffffffff1673ffffffffffffffffffffffffffffffffffffffff1681526020019081526020015f206003015f828254610bbd91906123f6565b925050819055505f8273ffffffffffffffffffffffffffffffffffffffff1682604051610be990612456565b5f6040518083038185875af1925050503d805f8114610c23576040519150601f19603f3d011682016040523d82523d5f602084013e610c28565b606091505b5050905080610c6c576040517f08c379a0000000000000000000000000000000000000000000000000000000008152600401610c63906124b4565b60405180910390fd5b8273ffffffffffffffffffffffffffffffffffffffff163373ffffffffffffffffffffffffffffffffffffffff167f0538ab32a957d2b55d0ec70a4029e73fdf19f500832839b1d7bafcfbca2a563084604051610cc991906121f1565b60405180910390a38273ffffffffffffffffffffffffffffffffffffffff163373ffffffffffffffffffffffffffffffffffffffff167fe9171aeff46c37ab955b8aff908e14ae9732bd06634fa131226cfe5c25bfd2fb84604051610d2e91906121f1565b60405180910390a3505050565b5f5f9054906101000a900473ffffffffffffffffffffffffffffffffffffffff1673ffffffffffffffffffffffffffffffffffffffff163373ffffffffffffffffffffffffffffffffffffffff1614610dc9576040517f08c379a0000000000000000000000000000000000000000000000000000000008152600401610dc090611fde565b60405180910390fd5b8060048190555050565b7f000000000000000000000000000000000000000000000000000000000000000081565b5f5f9054906101000a900473ffffffffffffffffffffffffffffffffffffffff1681565b60055f8273ffffffffffffffffffffffffffffffffffffffff1673ffffffffffffffffffffffffffffffffffffffff1681526020019081526020015f206004015f9054906101000a900460ff16610ea7576040517f08c379a0000000000000000000000000000000000000000000000000000000008152600401610e9e9061251c565b60405180910390fd5b5f3411610ee9576040517f08c379a0000000000000000000000000000000000000000000000000000000008152600401610ee0906125aa565b60405180910390fd5b3460055f8373ffffffffffffffffffffffffffffffffffffffff1673ffffffffffffffffffffffffffffffffffffffff1681526020019081526020015f206003015f828254610f3891906120ee565b925050819055503373ffffffffffffffffffffffffffffffffffffffff168173ffffffffffffffffffffffffffffffffffffffff167f0538ab32a957d2b55d0ec70a4029e73fdf19f500832839b1d7bafcfbca2a563034604051610f9c91906121f1565b60405180910390a350565b5f5f9054906101000a900473ffffffffffffffffffffffffffffffffffffffff1673ffffffffffffffffffffffffffffffffffffffff163373ffffffffffffffffffffffffffffffffffffffff1614611035576040517f08c379a000000000000000000000000000000000000000000000000000000000815260040161102c90611fde565b60405180910390fd5b610e1060025461104591906120ee565b421015611087576040517f08c379a000000000000000000000000000000000000000000000000000000000815260040161107e90612612565b60405180910390fd5b6004548110156110cc576040517f08c379a00000000000000000000000000000000000000000000000000000000081526004016110c3906122e2565b60405180910390fd5b5f4790507f000000000000000000000000000000000000000000000000000000000000000073ffffffffffffffffffffffffffffffffffffffff1663da75793a83306040518363ffffffff1660e01b815260040161112b929190611ab5565b5f604051808303815f87803b158015611142575f5ffd5b505af1158015611154573d5f5f3e3d5ffd5b505050505f47905081811161119e576040517f08c379a00000000000000000000000000000000000000000000000000000000081526004016111959061267a565b60405180910390fd5b426002819055507fd93b4b006708e5478cee61ef37aa4eb01c50f3943f00b0437cc172c33d0e93a2836040516111d491906121f1565b60405180910390a1505050565b5f5f9054906101000a900473ffffffffffffffffffffffffffffffffffffffff1673ffffffffffffffffffffffffffffffffffffffff163373ffffffffffffffffffffffffffffffffffffffff161461126f576040517f08c379a000000000000000000000000000000000000000000000000000000000815260040161126690611fde565b60405180910390fd5b60055f8273ffffffffffffffffffffffffffffffffffffffff1673ffffffffffffffffffffffffffffffffffffffff1681526020019081526020015f206004015f9054906101000a900460ff16156112fc576040517f08c379a00000000000000000000000000000000000000000000000000000000081526004016112f3906126e2565b60405180910390fd5b6040518060a0016040528060075481526020018381526020018273ffffffffffffffffffffffffffffffffffffffff1681526020015f81526020016001151581525060055f8373ffffffffffffffffffffffffffffffffffffffff1673ffffffffffffffffffffffffffffffffffffffff1681526020019081526020015f205f820151815f015560208201518160010190816113989190612897565b506040820151816002015f6101000a81548173ffffffffffffffffffffffffffffffffffffffff021916908373ffffffffffffffffffffffffffffffffffffffff160217905550606082015181600301556080820151816004015f6101000a81548160ff0219169083151502179055509050508060065f60075481526020019081526020015f205f6101000a81548173ffffffffffffffffffffffffffffffffffffffff021916908373ffffffffffffffffffffffffffffffffffffffff1602179055508073ffffffffffffffffffffffffffffffffffffffff167fc143c72014f0d06ea74582b0087db64eb875cf286f85f8b4b5810d8438c8b5a4600754836040516114a6929190611ab5565b60405180910390a260075f81548092919060010191905055505050565b60055f3373ffffffffffffffffffffffffffffffffffffffff1673ffffffffffffffffffffffffffffffffffffffff1681526020019081526020015f206004015f9054906101000a900460ff1661154f576040517f08c379a00000000000000000000000000000000000000000000000000000000081526004016115469061227a565b60405180910390fd5b8060055f3373ffffffffffffffffffffffffffffffffffffffff1673ffffffffffffffffffffffffffffffffffffffff1681526020019081526020015f206003015410156115d2576040517f08c379a00000000000000000000000000000000000000000000000000000000081526004016115c9906129b0565b60405180910390fd5b80471015611615576040517f08c379a000000000000000000000000000000000000000000000000000000000815260040161160c90612a3e565b60405180910390fd5b8060055f3373ffffffffffffffffffffffffffffffffffffffff1673ffffffffffffffffffffffffffffffffffffffff1681526020019081526020015f206003015f82825461166491906123f6565b925050819055508173ffffffffffffffffffffffffffffffffffffffff166108fc8290811502906040515f60405180830381858888f193505050501580156116ae573d5f5f3e3d5ffd5b508173ffffffffffffffffffffffffffffffffffffffff163373ffffffffffffffffffffffffffffffffffffffff167fe9171aeff46c37ab955b8aff908e14ae9732bd06634fa131226cfe5c25bfd2fb8360405161170c91906121f1565b60405180910390a35050565b5f5f9054906101000a900473ffffffffffffffffffffffffffffffffffffffff1673ffffffffffffffffffffffffffffffffffffffff163373ffffffffffffffffffffffffffffffffffffffff16146117a6576040517f08c379a000000000000000000000000000000000000000000000000000000000815260040161179d90611fde565b60405180910390fd5b5f4790505f81116117ec576040517f08c379a00000000000000000000000000000000000000000000000000000000081526004016117e390612aa6565b60405180910390fd5b5f5f5f9054906101000a900473ffffffffffffffffffffffffffffffffffffffff1673ffffffffffffffffffffffffffffffffffffffff168260405161183190612456565b5f6040518083038185875af1925050503d805f811461186b576040519150601f19603f3d011682016040523d82523d5f602084013e611870565b606091505b50509050806118b4576040517f08c379a00000000000000000000000000000000000000000000000000000000081526004016118ab90612b0e565b60405180910390fd5b5050565b5f5f9054906101000a900473ffffffffffffffffffffffffffffffffffffffff1673ffffffffffffffffffffffffffffffffffffffff163373ffffffffffffffffffffffffffffffffffffffff1614611946576040517f08c379a000000000000000000000000000000000000000000000000000000000815260040161193d90611fde565b60405180910390fd5b5f7f000000000000000000000000000000000000000000000000000000000000000073ffffffffffffffffffffffffffffffffffffffff16632a2fab226040518163ffffffff1660e01b8152600401602060405180830381865afa1580156119b0573d5f5f3e3d5ffd5b505050506040513d601f19601f820116820180604052508101906119d49190612b40565b90505f8111611a18576040517f08c379a0000000000000000000000000000000000000000000000000000000008152600401611a0f90612bb5565b60405180910390fd5b50565b6040518060a001604052805f8152602001606081526020015f73ffffffffffffffffffffffffffffffffffffffff1681526020015f81526020015f151581525090565b5f819050919050565b611a7081611a5e565b82525050565b5f73ffffffffffffffffffffffffffffffffffffffff82169050919050565b5f611a9f82611a76565b9050919050565b611aaf81611a95565b82525050565b5f604082019050611ac85f830185611a67565b611ad56020830184611aa6565b9392505050565b5f604051905090565b5f5ffd5b5f5ffd5b611af681611a5e565b8114611b00575f5ffd5b50565b5f81359050611b1181611aed565b92915050565b5f60208284031215611b2c57611b2b611ae5565b5b5f611b3984828501611b03565b91505092915050565b611b4b81611a5e565b82525050565b5f81519050919050565b5f82825260208201905092915050565b8281835e5f83830152505050565b5f601f19601f8301169050919050565b5f611b9382611b51565b611b9d8185611b5b565b9350611bad818560208601611b6b565b611bb681611b79565b840191505092915050565b611bca81611a95565b82525050565b5f8115159050919050565b611be481611bd0565b82525050565b5f60a083015f830151611bff5f860182611b42565b5060208301518482036020860152611c178282611b89565b9150506040830151611c2c6040860182611bc1565b506060830151611c3f6060860182611b42565b506080830151611c526080860182611bdb565b508091505092915050565b5f6020820190508181035f830152611c758184611bea565b905092915050565b5f611c8782611a76565b9050919050565b611c9781611c7d565b8114611ca1575f5ffd5b50565b5f81359050611cb281611c8e565b92915050565b5f5f60408385031215611cce57611ccd611ae5565b5b5f611cdb85828601611ca4565b9250506020611cec85828601611b03565b9150509250929050565b5f819050919050565b5f611d19611d14611d0f84611a76565b611cf6565b611a76565b9050919050565b5f611d2a82611cff565b9050919050565b5f611d3b82611d20565b9050919050565b611d4b81611d31565b82525050565b5f602082019050611d645f830184611d42565b92915050565b5f602082019050611d7d5f830184611aa6565b92915050565b611d8c81611a95565b8114611d96575f5ffd5b50565b5f81359050611da781611d83565b92915050565b5f60208284031215611dc257611dc1611ae5565b5b5f611dcf84828501611d99565b91505092915050565b5f5ffd5b5f5ffd5b7f4e487b71000000000000000000000000000000000000000000000000000000005f52604160045260245ffd5b611e1682611b79565b810181811067ffffffffffffffff82111715611e3557611e34611de0565b5b80604052505050565b5f611e47611adc565b9050611e538282611e0d565b919050565b5f67ffffffffffffffff821115611e7257611e71611de0565b5b611e7b82611b79565b9050602081019050919050565b828183375f83830152505050565b5f611ea8611ea384611e58565b611e3e565b905082815260208101848484011115611ec457611ec3611ddc565b5b611ecf848285611e88565b509392505050565b5f82601f830112611eeb57611eea611dd8565b5b8135611efb848260208601611e96565b91505092915050565b5f5f60408385031215611f1a57611f19611ae5565b5b5f83013567ffffffffffffffff811115611f3757611f36611ae9565b5b611f4385828601611ed7565b9250506020611f5485828601611d99565b9150509250929050565b5f82825260208201905092915050565b7f4f6e6c79206f776e65722063616e2063616c6c20746869732066756e6374696f5f8201527f6e00000000000000000000000000000000000000000000000000000000000000602082015250565b5f611fc8602183611f5e565b9150611fd382611f6e565b604082019050919050565b5f6020820190508181035f830152611ff581611fbc565b9050919050565b7f4d65726368616e74204944206e6f7420666f756e6400000000000000000000005f82015250565b5f612030601583611f5e565b915061203b82611ffc565b602082019050919050565b5f6020820190508181035f83015261205d81612024565b9050919050565b7f4e487b71000000000000000000000000000000000000000000000000000000005f52602260045260245ffd5b5f60028204905060018216806120a857607f821691505b6020821081036120bb576120ba612064565b5b50919050565b7f4e487b71000000000000000000000000000000000000000000000000000000005f52601160045260245ffd5b5f6120f882611a5e565b915061210383611a5e565b925082820190508082111561211b5761211a6120c1565b5b92915050565b7f4c656e64696e6720746f6f20736f6f6e000000000000000000000000000000005f82015250565b5f612155601083611f5e565b915061216082612121565b602082019050919050565b5f6020820190508181035f83015261218281612149565b9050919050565b7f4e6f7420656e6f7567682066756e647320746f206c656e6400000000000000005f82015250565b5f6121bd601883611f5e565b91506121c882612189565b602082019050919050565b5f6020820190508181035f8301526121ea816121b1565b9050919050565b5f6020820190506122045f830184611a67565b92915050565b7f4f6e6c792072656769737465726564206d65726368616e74732063616e2063615f8201527f6c6c207468697300000000000000000000000000000000000000000000000000602082015250565b5f612264602783611f5e565b915061226f8261220a565b604082019050919050565b5f6020820190508181035f83015261229181612258565b9050919050565b7f416d6f756e7420746f6f20736d616c6c20746f207265747269657665000000005f82015250565b5f6122cc601c83611f5e565b91506122d782612298565b602082019050919050565b5f6020820190508181035f8301526122f9816122c0565b9050919050565b7f496e73756666696369656e742066756e647320696e206d65726368616e7427735f8201527f2062616c616e6365000000000000000000000000000000000000000000000000602082015250565b5f61235a602883611f5e565b915061236582612300565b604082019050919050565b5f6020820190508181035f8301526123878161234e565b9050919050565b7f496e76616c696420637573746f6d6572206164647265737300000000000000005f82015250565b5f6123c2601883611f5e565b91506123cd8261238e565b602082019050919050565b5f6020820190508181035f8301526123ef816123b6565b9050919050565b5f61240082611a5e565b915061240b83611a5e565b9250828203905081811115612423576124226120c1565b5b92915050565b5f81905092915050565b50565b5f6124415f83612429565b915061244c82612433565b5f82019050919050565b5f61246082612436565b9150819050919050565b7f526566756e64206661696c6564000000000000000000000000000000000000005f82015250565b5f61249e600d83611f5e565b91506124a98261246a565b602082019050919050565b5f6020820190508181035f8301526124cb81612492565b9050919050565b7f4d65726368616e74206e6f7420726567697374657265640000000000000000005f82015250565b5f612506601783611f5e565b9150612511826124d2565b602082019050919050565b5f6020820190508181035f830152612533816124fa565b9050919050565b7f5061796d656e7420616d6f756e74206d757374206265206772656174657220745f8201527f68616e207a65726f000000000000000000000000000000000000000000000000602082015250565b5f612594602883611f5e565b915061259f8261253a565b604082019050919050565b5f6020820190508181035f8301526125c181612588565b9050919050565b7f52657472696576696e6720746f6f20736f6f6e000000000000000000000000005f82015250565b5f6125fc601383611f5e565b9150612607826125c8565b602082019050919050565b5f6020820190508181035f830152612629816125f0565b9050919050565b7f46756e64732072657472696576616c206661696c6564000000000000000000005f82015250565b5f612664601683611f5e565b915061266f82612630565b602082019050919050565b5f6020820190508181035f83015261269181612658565b9050919050565b7f4d65726368616e7420616c7265616479207265676973746572656400000000005f82015250565b5f6126cc601b83611f5e565b91506126d782612698565b602082019050919050565b5f6020820190508181035f8301526126f9816126c0565b9050919050565b5f819050815f5260205f209050919050565b5f6020601f8301049050919050565b5f82821b905092915050565b5f6008830261275c7fffffffffffffffffffffffffffffffffffffffffffffffffffffffffffffffff82612721565b6127668683612721565b95508019841693508086168417925050509392505050565b5f61279861279361278e84611a5e565b611cf6565b611a5e565b9050919050565b5f819050919050565b6127b18361277e565b6127c56127bd8261279f565b84845461272d565b825550505050565b5f5f905090565b6127dc6127cd565b6127e78184846127a8565b505050565b5b8181101561280a576127ff5f826127d4565b6001810190506127ed565b5050565b601f82111561284f5761282081612700565b61282984612712565b81016020851015612838578190505b61284c61284485612712565b8301826127ec565b50505b505050565b5f82821c905092915050565b5f61286f5f1984600802612854565b1980831691505092915050565b5f6128878383612860565b9150826002028217905092915050565b6128a082611b51565b67ffffffffffffffff8111156128b9576128b8611de0565b5b6128c38254612091565b6128ce82828561280e565b5f60209050601f8311600181146128ff575f84156128ed578287015190505b6128f7858261287c565b86555061295e565b601f19841661290d86612700565b5f5b828110156129345784890151825560018201915060208501945060208101905061290f565b86831015612951578489015161294d601f891682612860565b8355505b6001600288020188555050505b505050505050565b7f496e73756666696369656e742062616c616e63650000000000000000000000005f82015250565b5f61299a601483611f5e565b91506129a582612966565b602082019050919050565b5f6020820190508181035f8301526129c78161298e565b9050919050565b7f4e6f7420656e6f756768206c697175696469747920617661696c61626c652c205f8201527f72657472696576652066756e6473206669727374000000000000000000000000602082015250565b5f612a28603483611f5e565b9150612a33826129ce565b604082019050919050565b5f6020820190508181035f830152612a5581612a1c565b9050919050565b7f4e6f2066756e647320617661696c61626c6500000000000000000000000000005f82015250565b5f612a90601283611f5e565b9150612a9b82612a5c565b602082019050919050565b5f6020820190508181035f830152612abd81612a84565b9050919050565b7f456d657267656e6379207769746864726177616c206661696c656400000000005f82015250565b5f612af8601b83611f5e565b9150612b0382612ac4565b602082019050919050565b5f6020820190508181035f830152612b2581612aec565b9050919050565b5f81519050612b3a81611aed565b92915050565b5f60208284031215612b5557612b54611ae5565b5b5f612b6284828501612b2c565b91505092915050565b7f4e6f20696e74657265737420617661696c61626c6500000000000000000000005f82015250565b5f612b9f601583611f5e565b9150612baa82612b6b565b602082019050919050565b5f6020820190508181035f830152612bcc81612b93565b905091905056fea2646970667358221220ea9e83da728fe059efcab2b8b7b77b3d7720f354e658a1c3d4ba7af4d3a318ea64736f6c634300081c0033",
					"opcodes": "PUSH1 0xA0 PUSH1 0x40 MSTORE PUSH8 0xDE0B6B3A7640000 PUSH1 0x3 SSTORE PUSH8 0xDE0B6B3A7640000 PUSH1 0x4 SSTORE CALLVALUE DUP1 ISZERO PUSH2 0x27 JUMPI PUSH0 PUSH0 REVERT JUMPDEST POP PUSH1 0x40 MLOAD PUSH2 0x2D90 CODESIZE SUB DUP1 PUSH2 0x2D90 DUP4 CODECOPY DUP2 DUP2 ADD PUSH1 0x40 MSTORE DUP2 ADD SWAP1 PUSH2 0x49 SWAP2 SWAP1 PUSH2 0x128 JUMP JUMPDEST CALLER PUSH0 PUSH0 PUSH2 0x100 EXP DUP2 SLOAD DUP2 PUSH20 0xFFFFFFFFFFFFFFFFFFFFFFFFFFFFFFFFFFFFFFFF MUL NOT AND SWAP1 DUP4 PUSH20 0xFFFFFFFFFFFFFFFFFFFFFFFFFFFFFFFFFFFFFFFF AND MUL OR SWAP1 SSTORE POP PUSH1 0x1 PUSH1 0x7 DUP2 SWAP1 SSTORE POP DUP1 PUSH20 0xFFFFFFFFFFFFFFFFFFFFFFFFFFFFFFFFFFFFFFFF AND PUSH1 0x80 DUP2 PUSH20 0xFFFFFFFFFFFFFFFFFFFFFFFFFFFFFFFFFFFFFFFF AND DUP2 MSTORE POP POP POP PUSH2 0x153 JUMP JUMPDEST PUSH0 PUSH0 REVERT JUMPDEST PUSH0 PUSH20 0xFFFFFFFFFFFFFFFFFFFFFFFFFFFFFFFFFFFFFFFF DUP3 AND SWAP1 POP SWAP2 SWAP1 POP JUMP JUMPDEST PUSH0 PUSH2 0xF7 DUP3 PUSH2 0xCE JUMP JUMPDEST SWAP1 POP SWAP2 SWAP1 POP JUMP JUMPDEST PUSH2 0x107 DUP2 PUSH2 0xED JUMP JUMPDEST DUP2 EQ PUSH2 0x111 JUMPI PUSH0 PUSH0 REVERT JUMPDEST POP JUMP JUMPDEST PUSH0 DUP2 MLOAD SWAP1 POP PUSH2 0x122 DUP2 PUSH2 0xFE JUMP JUMPDEST SWAP3 SWAP2 POP POP JUMP JUMPDEST PUSH0 PUSH1 0x20 DUP3 DUP5 SUB SLT ISZERO PUSH2 0x13D JUMPI PUSH2 0x13C PUSH2 0xCA JUMP JUMPDEST JUMPDEST PUSH0 PUSH2 0x14A DUP5 DUP3 DUP6 ADD PUSH2 0x114 JUMP JUMPDEST SWAP2 POP POP SWAP3 SWAP2 POP POP JUMP JUMPDEST PUSH1 0x80 MLOAD PUSH2 0x2C09 PUSH2 0x187 PUSH0 CODECOPY PUSH0 DUP2 DUP2 PUSH2 0x70A ADD MSTORE DUP2 DUP2 PUSH2 0x931 ADD MSTORE DUP2 DUP2 PUSH2 0xDD5 ADD MSTORE DUP2 DUP2 PUSH2 0x10D2 ADD MSTORE PUSH2 0x1949 ADD MSTORE PUSH2 0x2C09 PUSH0 RETURN INVALID PUSH1 0x80 PUSH1 0x40 MSTORE PUSH1 0x4 CALLDATASIZE LT PUSH2 0xE0 JUMPI PUSH0 CALLDATALOAD PUSH1 0xE0 SHR DUP1 PUSH4 0x8DA5CB5B GT PUSH2 0x7E JUMPI DUP1 PUSH4 0xABE0CD0C GT PUSH2 0x58 JUMPI DUP1 PUSH4 0xABE0CD0C EQ PUSH2 0x2AB JUMPI DUP1 PUSH4 0xC1075329 EQ PUSH2 0x2D3 JUMPI DUP1 PUSH4 0xDB2E21BC EQ PUSH2 0x2FB JUMPI DUP1 PUSH4 0xF0AB8FE2 EQ PUSH2 0x311 JUMPI PUSH2 0x11F JUMP JUMPDEST DUP1 PUSH4 0x8DA5CB5B EQ PUSH2 0x23D JUMPI DUP1 PUSH4 0x8FE123D7 EQ PUSH2 0x267 JUMPI DUP1 PUSH4 0x9E625183 EQ PUSH2 0x283 JUMPI PUSH2 0x11F JUMP JUMPDEST DUP1 PUSH4 0x668E8024 GT PUSH2 0xBA JUMPI DUP1 PUSH4 0x668E8024 EQ PUSH2 0x19B JUMPI DUP1 PUSH4 0x738005AA EQ PUSH2 0x1C3 JUMPI DUP1 PUSH4 0x7AE1009C EQ PUSH2 0x1EB JUMPI DUP1 PUSH4 0x7EE0456F EQ PUSH2 0x213 JUMPI PUSH2 0x11F JUMP JUMPDEST DUP1 PUSH4 0x1D210CD2 EQ PUSH2 0x121 JUMPI DUP1 PUSH4 0x3B071872 EQ PUSH2 0x15D JUMPI DUP1 PUSH4 0x5641DF95 EQ PUSH2 0x173 JUMPI PUSH2 0x11F JUMP JUMPDEST CALLDATASIZE PUSH2 0x11F JUMPI PUSH32 0xA0B6ED69C727BCCE4CFDF30BC2777D7B7007D936B4A4DEA135CBF6622FE4A58C CALLVALUE CALLER PUSH1 0x40 MLOAD PUSH2 0x116 SWAP3 SWAP2 SWAP1 PUSH2 0x1AB5 JUMP JUMPDEST PUSH1 0x40 MLOAD DUP1 SWAP2 SUB SWAP1 LOG1 JUMPDEST STOP JUMPDEST CALLVALUE DUP1 ISZERO PUSH2 0x12C JUMPI PUSH0 PUSH0 REVERT JUMPDEST POP PUSH2 0x147 PUSH1 0x4 DUP1 CALLDATASIZE SUB DUP2 ADD SWAP1 PUSH2 0x142 SWAP2 SWAP1 PUSH2 0x1B17 JUMP JUMPDEST PUSH2 0x327 JUMP JUMPDEST PUSH1 0x40 MLOAD PUSH2 0x154 SWAP2 SWAP1 PUSH2 0x1C5D JUMP JUMPDEST PUSH1 0x40 MLOAD DUP1 SWAP2 SUB SWAP1 RETURN JUMPDEST CALLVALUE DUP1 ISZERO PUSH2 0x168 JUMPI PUSH0 PUSH0 REVERT JUMPDEST POP PUSH2 0x171 PUSH2 0x5DF JUMP JUMPDEST STOP JUMPDEST CALLVALUE DUP1 ISZERO PUSH2 0x17E JUMPI PUSH0 PUSH0 REVERT JUMPDEST POP PUSH2 0x199 PUSH1 0x4 DUP1 CALLDATASIZE SUB DUP2 ADD SWAP1 PUSH2 0x194 SWAP2 SWAP1 PUSH2 0x1B17 JUMP JUMPDEST PUSH2 0x7C6 JUMP JUMPDEST STOP JUMPDEST CALLVALUE DUP1 ISZERO PUSH2 0x1A6 JUMPI PUSH0 PUSH0 REVERT JUMPDEST POP PUSH2 0x1C1 PUSH1 0x4 DUP1 CALLDATASIZE SUB DUP2 ADD SWAP1 PUSH2 0x1BC SWAP2 SWAP1 PUSH2 0x1B17 JUMP JUMPDEST PUSH2 0x85E JUMP JUMPDEST STOP JUMPDEST CALLVALUE DUP1 ISZERO PUSH2 0x1CE JUMPI PUSH0 PUSH0 REVERT JUMPDEST POP PUSH2 0x1E9 PUSH1 0x4 DUP1 CALLDATASIZE SUB DUP2 ADD SWAP1 PUSH2 0x1E4 SWAP2 SWAP1 PUSH2 0x1CB8 JUMP JUMPDEST PUSH2 0x9F1 JUMP JUMPDEST STOP JUMPDEST CALLVALUE DUP1 ISZERO PUSH2 0x1F6 JUMPI PUSH0 PUSH0 REVERT JUMPDEST POP PUSH2 0x211 PUSH1 0x4 DUP1 CALLDATASIZE SUB DUP2 ADD SWAP1 PUSH2 0x20C SWAP2 SWAP1 PUSH2 0x1B17 JUMP JUMPDEST PUSH2 0xD3B JUMP JUMPDEST STOP JUMPDEST CALLVALUE DUP1 ISZERO PUSH2 0x21E JUMPI PUSH0 PUSH0 REVERT JUMPDEST POP PUSH2 0x227 PUSH2 0xDD3 JUMP JUMPDEST PUSH1 0x40 MLOAD PUSH2 0x234 SWAP2 SWAP1 PUSH2 0x1D51 JUMP JUMPDEST PUSH1 0x40 MLOAD DUP1 SWAP2 SUB SWAP1 RETURN JUMPDEST CALLVALUE DUP1 ISZERO PUSH2 0x248 JUMPI PUSH0 PUSH0 REVERT JUMPDEST POP PUSH2 0x251 PUSH2 0xDF7 JUMP JUMPDEST PUSH1 0x40 MLOAD PUSH2 0x25E SWAP2 SWAP1 PUSH2 0x1D6A JUMP JUMPDEST PUSH1 0x40 MLOAD DUP1 SWAP2 SUB SWAP1 RETURN JUMPDEST PUSH2 0x281 PUSH1 0x4 DUP1 CALLDATASIZE SUB DUP2 ADD SWAP1 PUSH2 0x27C SWAP2 SWAP1 PUSH2 0x1DAD JUMP JUMPDEST PUSH2 0xE1B JUMP JUMPDEST STOP JUMPDEST CALLVALUE DUP1 ISZERO PUSH2 0x28E JUMPI PUSH0 PUSH0 REVERT JUMPDEST POP PUSH2 0x2A9 PUSH1 0x4 DUP1 CALLDATASIZE SUB DUP2 ADD SWAP1 PUSH2 0x2A4 SWAP2 SWAP1 PUSH2 0x1B17 JUMP JUMPDEST PUSH2 0xFA7 JUMP JUMPDEST STOP JUMPDEST CALLVALUE DUP1 ISZERO PUSH2 0x2B6 JUMPI PUSH0 PUSH0 REVERT JUMPDEST POP PUSH2 0x2D1 PUSH1 0x4 DUP1 CALLDATASIZE SUB DUP2 ADD SWAP1 PUSH2 0x2CC SWAP2 SWAP1 PUSH2 0x1F04 JUMP JUMPDEST PUSH2 0x11E1 JUMP JUMPDEST STOP JUMPDEST CALLVALUE DUP1 ISZERO PUSH2 0x2DE JUMPI PUSH0 PUSH0 REVERT JUMPDEST POP PUSH2 0x2F9 PUSH1 0x4 DUP1 CALLDATASIZE SUB DUP2 ADD SWAP1 PUSH2 0x2F4 SWAP2 SWAP1 PUSH2 0x1CB8 JUMP JUMPDEST PUSH2 0x14C3 JUMP JUMPDEST STOP JUMPDEST CALLVALUE DUP1 ISZERO PUSH2 0x306 JUMPI PUSH0 PUSH0 REVERT JUMPDEST POP PUSH2 0x30F PUSH2 0x1718 JUMP JUMPDEST STOP JUMPDEST CALLVALUE DUP1 ISZERO PUSH2 0x31C JUMPI PUSH0 PUSH0 REVERT JUMPDEST POP PUSH2 0x325 PUSH2 0x18B8 JUMP JUMPDEST STOP JUMPDEST PUSH2 0x32F PUSH2 0x1A1B JUMP JUMPDEST PUSH0 PUSH0 SWAP1 SLOAD SWAP1 PUSH2 0x100 EXP SWAP1 DIV PUSH20 0xFFFFFFFFFFFFFFFFFFFFFFFFFFFFFFFFFFFFFFFF AND PUSH20 0xFFFFFFFFFFFFFFFFFFFFFFFFFFFFFFFFFFFFFFFF AND CALLER PUSH20 0xFFFFFFFFFFFFFFFFFFFFFFFFFFFFFFFFFFFFFFFF AND EQ PUSH2 0x3BD JUMPI PUSH1 0x40 MLOAD PUSH32 0x8C379A000000000000000000000000000000000000000000000000000000000 DUP2 MSTORE PUSH1 0x4 ADD PUSH2 0x3B4 SWAP1 PUSH2 0x1FDE JUMP JUMPDEST PUSH1 0x40 MLOAD DUP1 SWAP2 SUB SWAP1 REVERT JUMPDEST PUSH0 PUSH1 0x6 PUSH0 DUP5 DUP2 MSTORE PUSH1 0x20 ADD SWAP1 DUP2 MSTORE PUSH1 0x20 ADD PUSH0 KECCAK256 PUSH0 SWAP1 SLOAD SWAP1 PUSH2 0x100 EXP SWAP1 DIV PUSH20 0xFFFFFFFFFFFFFFFFFFFFFFFFFFFFFFFFFFFFFFFF AND SWAP1 POP PUSH1 0x5 PUSH0 DUP3 PUSH20 0xFFFFFFFFFFFFFFFFFFFFFFFFFFFFFFFFFFFFFFFF AND PUSH20 0xFFFFFFFFFFFFFFFFFFFFFFFFFFFFFFFFFFFFFFFF AND DUP2 MSTORE PUSH1 0x20 ADD SWAP1 DUP2 MSTORE PUSH1 0x20 ADD PUSH0 KECCAK256 PUSH1 0x4 ADD PUSH0 SWAP1 SLOAD SWAP1 PUSH2 0x100 EXP SWAP1 DIV PUSH1 0xFF AND PUSH2 0x47D JUMPI PUSH1 0x40 MLOAD PUSH32 0x8C379A000000000000000000000000000000000000000000000000000000000 DUP2 MSTORE PUSH1 0x4 ADD PUSH2 0x474 SWAP1 PUSH2 0x2046 JUMP JUMPDEST PUSH1 0x40 MLOAD DUP1 SWAP2 SUB SWAP1 REVERT JUMPDEST PUSH1 0x5 PUSH0 DUP3 PUSH20 0xFFFFFFFFFFFFFFFFFFFFFFFFFFFFFFFFFFFFFFFF AND PUSH20 0xFFFFFFFFFFFFFFFFFFFFFFFFFFFFFFFFFFFFFFFF AND DUP2 MSTORE PUSH1 0x20 ADD SWAP1 DUP2 MSTORE PUSH1 0x20 ADD PUSH0 KECCAK256 PUSH1 0x40 MLOAD DUP1 PUSH1 0xA0 ADD PUSH1 0x40 MSTORE SWAP1 DUP2 PUSH0 DUP3 ADD SLOAD DUP2 MSTORE PUSH1 0x20 ADD PUSH1 0x1 DUP3 ADD DUP1 SLOAD PUSH2 0x4DE SWAP1 PUSH2 0x2091 JUMP JUMPDEST DUP1 PUSH1 0x1F ADD PUSH1 0x20 DUP1 SWAP2 DIV MUL PUSH1 0x20 ADD PUSH1 0x40 MLOAD SWAP1 DUP2 ADD PUSH1 0x40 MSTORE DUP1 SWAP3 SWAP2 SWAP1 DUP2 DUP2 MSTORE PUSH1 0x20 ADD DUP3 DUP1 SLOAD PUSH2 0x50A SWAP1 PUSH2 0x2091 JUMP JUMPDEST DUP1 ISZERO PUSH2 0x555 JUMPI DUP1 PUSH1 0x1F LT PUSH2 0x52C JUMPI PUSH2 0x100 DUP1 DUP4 SLOAD DIV MUL DUP4 MSTORE SWAP2 PUSH1 0x20 ADD SWAP2 PUSH2 0x555 JUMP JUMPDEST DUP3 ADD SWAP2 SWAP1 PUSH0 MSTORE PUSH1 0x20 PUSH0 KECCAK256 SWAP1 JUMPDEST DUP2 SLOAD DUP2 MSTORE SWAP1 PUSH1 0x1 ADD SWAP1 PUSH1 0x20 ADD DUP1 DUP4 GT PUSH2 0x538 JUMPI DUP3 SWAP1 SUB PUSH1 0x1F AND DUP3 ADD SWAP2 JUMPDEST POP POP POP POP POP DUP2 MSTORE PUSH1 0x20 ADD PUSH1 0x2 DUP3 ADD PUSH0 SWAP1 SLOAD SWAP1 PUSH2 0x100 EXP SWAP1 DIV PUSH20 0xFFFFFFFFFFFFFFFFFFFFFFFFFFFFFFFFFFFFFFFF AND PUSH20 0xFFFFFFFFFFFFFFFFFFFFFFFFFFFFFFFFFFFFFFFF AND PUSH20 0xFFFFFFFFFFFFFFFFFFFFFFFFFFFFFFFFFFFFFFFF AND DUP2 MSTORE PUSH1 0x20 ADD PUSH1 0x3 DUP3 ADD SLOAD DUP2 MSTORE PUSH1 0x20 ADD PUSH1 0x4 DUP3 ADD PUSH0 SWAP1 SLOAD SWAP1 PUSH2 0x100 EXP SWAP1 DIV PUSH1 0xFF AND ISZERO ISZERO ISZERO ISZERO DUP2 MSTORE POP POP SWAP2 POP POP SWAP2 SWAP1 POP JUMP JUMPDEST PUSH0 PUSH0 SWAP1 SLOAD SWAP1 PUSH2 0x100 EXP SWAP1 DIV PUSH20 0xFFFFFFFFFFFFFFFFFFFFFFFFFFFFFFFFFFFFFFFF AND PUSH20 0xFFFFFFFFFFFFFFFFFFFFFFFFFFFFFFFFFFFFFFFF AND CALLER PUSH20 0xFFFFFFFFFFFFFFFFFFFFFFFFFFFFFFFFFFFFFFFF AND EQ PUSH2 0x66D JUMPI PUSH1 0x40 MLOAD PUSH32 0x8C379A000000000000000000000000000000000000000000000000000000000 DUP2 MSTORE PUSH1 0x4 ADD PUSH2 0x664 SWAP1 PUSH2 0x1FDE JUMP JUMPDEST PUSH1 0x40 MLOAD DUP1 SWAP2 SUB SWAP1 REVERT JUMPDEST PUSH2 0xE10 PUSH1 0x1 SLOAD PUSH2 0x67D SWAP2 SWAP1 PUSH2 0x20EE JUMP JUMPDEST TIMESTAMP LT ISZERO PUSH2 0x6BF JUMPI PUSH1 0x40 MLOAD PUSH32 0x8C379A000000000000000000000000000000000000000000000000000000000 DUP2 MSTORE PUSH1 0x4 ADD PUSH2 0x6B6 SWAP1 PUSH2 0x216B JUMP JUMPDEST PUSH1 0x40 MLOAD DUP1 SWAP2 SUB SWAP1 REVERT JUMPDEST PUSH1 0x3 SLOAD SELFBALANCE LT ISZERO PUSH2 0x704 JUMPI PUSH1 0x40 MLOAD PUSH32 0x8C379A000000000000000000000000000000000000000000000000000000000 DUP2 MSTORE PUSH1 0x4 ADD PUSH2 0x6FB SWAP1 PUSH2 0x21D3 JUMP JUMPDEST PUSH1 0x40 MLOAD DUP1 SWAP2 SUB SWAP1 REVERT JUMPDEST PUSH0 SELFBALANCE SWAP1 POP PUSH32 0x0 PUSH20 0xFFFFFFFFFFFFFFFFFFFFFFFFFFFFFFFFFFFFFFFF AND PUSH4 0x1A878577 DUP3 PUSH1 0x40 MLOAD DUP3 PUSH4 0xFFFFFFFF AND PUSH1 0xE0 SHL DUP2 MSTORE PUSH1 0x4 ADD PUSH0 PUSH1 0x40 MLOAD DUP1 DUP4 SUB DUP2 DUP6 DUP9 DUP1 EXTCODESIZE ISZERO DUP1 ISZERO PUSH2 0x76E JUMPI PUSH0 PUSH0 REVERT JUMPDEST POP GAS CALL ISZERO DUP1 ISZERO PUSH2 0x780 JUMPI RETURNDATASIZE PUSH0 PUSH0 RETURNDATACOPY RETURNDATASIZE PUSH0 REVERT JUMPDEST POP POP POP POP POP TIMESTAMP PUSH1 0x1 DUP2 SWAP1 SSTORE POP PUSH32 0xE95DFF13CFEB27C914A4D03686B999A715A3270F0B70753CFB95A0EA7FA3219C DUP2 PUSH1 0x40 MLOAD PUSH2 0x7BB SWAP2 SWAP1 PUSH2 0x21F1 JUMP JUMPDEST PUSH1 0x40 MLOAD DUP1 SWAP2 SUB SWAP1 LOG1 POP JUMP JUMPDEST PUSH0 PUSH0 SWAP1 SLOAD SWAP1 PUSH2 0x100 EXP SWAP1 DIV PUSH20 0xFFFFFFFFFFFFFFFFFFFFFFFFFFFFFFFFFFFFFFFF AND PUSH20 0xFFFFFFFFFFFFFFFFFFFFFFFFFFFFFFFFFFFFFFFF AND CALLER PUSH20 0xFFFFFFFFFFFFFFFFFFFFFFFFFFFFFFFFFFFFFFFF AND EQ PUSH2 0x854 JUMPI PUSH1 0x40 MLOAD PUSH32 0x8C379A000000000000000000000000000000000000000000000000000000000 DUP2 MSTORE PUSH1 0x4 ADD PUSH2 0x84B SWAP1 PUSH2 0x1FDE JUMP JUMPDEST PUSH1 0x40 MLOAD DUP1 SWAP2 SUB SWAP1 REVERT JUMPDEST DUP1 PUSH1 0x3 DUP2 SWAP1 SSTORE POP POP JUMP JUMPDEST PUSH1 0x5 PUSH0 CALLER PUSH20 0xFFFFFFFFFFFFFFFFFFFFFFFFFFFFFFFFFFFFFFFF AND PUSH20 0xFFFFFFFFFFFFFFFFFFFFFFFFFFFFFFFFFFFFFFFF AND DUP2 MSTORE PUSH1 0x20 ADD SWAP1 DUP2 MSTORE PUSH1 0x20 ADD PUSH0 KECCAK256 PUSH1 0x4 ADD PUSH0 SWAP1 SLOAD SWAP1 PUSH2 0x100 EXP SWAP1 DIV PUSH1 0xFF AND PUSH2 0x8EA JUMPI PUSH1 0x40 MLOAD PUSH32 0x8C379A000000000000000000000000000000000000000000000000000000000 DUP2 MSTORE PUSH1 0x4 ADD PUSH2 0x8E1 SWAP1 PUSH2 0x227A JUMP JUMPDEST PUSH1 0x40 MLOAD DUP1 SWAP2 SUB SWAP1 REVERT JUMPDEST PUSH1 0x4 SLOAD DUP2 LT ISZERO PUSH2 0x92F JUMPI PUSH1 0x40 MLOAD PUSH32 0x8C379A000000000000000000000000000000000000000000000000000000000 DUP2 MSTORE PUSH1 0x4 ADD PUSH2 0x926 SWAP1 PUSH2 0x22E2 JUMP JUMPDEST PUSH1 0x40 MLOAD DUP1 SWAP2 SUB SWAP1 REVERT JUMPDEST PUSH32 0x0 PUSH20 0xFFFFFFFFFFFFFFFFFFFFFFFFFFFFFFFFFFFFFFFF AND PUSH4 0xDA75793A DUP3 ADDRESS PUSH1 0x40 MLOAD DUP4 PUSH4 0xFFFFFFFF AND PUSH1 0xE0 SHL DUP2 MSTORE PUSH1 0x4 ADD PUSH2 0x98A SWAP3 SWAP2 SWAP1 PUSH2 0x1AB5 JUMP JUMPDEST PUSH0 PUSH1 0x40 MLOAD DUP1 DUP4 SUB DUP2 PUSH0 DUP8 DUP1 EXTCODESIZE ISZERO DUP1 ISZERO PUSH2 0x9A1 JUMPI PUSH0 PUSH0 REVERT JUMPDEST POP GAS CALL ISZERO DUP1 ISZERO PUSH2 0x9B3 JUMPI RETURNDATASIZE PUSH0 PUSH0 RETURNDATACOPY RETURNDATASIZE PUSH0 REVERT JUMPDEST POP POP POP POP PUSH32 0xD93B4B006708E5478CEE61EF37AA4EB01C50F3943F00B0437CC172C33D0E93A2 DUP2 PUSH1 0x40 MLOAD PUSH2 0x9E6 SWAP2 SWAP1 PUSH2 0x21F1 JUMP JUMPDEST PUSH1 0x40 MLOAD DUP1 SWAP2 SUB SWAP1 LOG1 POP JUMP JUMPDEST PUSH1 0x5 PUSH0 CALLER PUSH20 0xFFFFFFFFFFFFFFFFFFFFFFFFFFFFFFFFFFFFFFFF AND PUSH20 0xFFFFFFFFFFFFFFFFFFFFFFFFFFFFFFFFFFFFFFFF AND DUP2 MSTORE PUSH1 0x20 ADD SWAP1 DUP2 MSTORE PUSH1 0x20 ADD PUSH0 KECCAK256 PUSH1 0x4 ADD PUSH0 SWAP1 SLOAD SWAP1 PUSH2 0x100 EXP SWAP1 DIV PUSH1 0xFF AND PUSH2 0xA7D JUMPI PUSH1 0x40 MLOAD PUSH32 0x8C379A000000000000000000000000000000000000000000000000000000000 DUP2 MSTORE PUSH1 0x4 ADD PUSH2 0xA74 SWAP1 PUSH2 0x227A JUMP JUMPDEST PUSH1 0x40 MLOAD DUP1 SWAP2 SUB SWAP1 REVERT JUMPDEST DUP1 PUSH1 0x5 PUSH0 CALLER PUSH20 0xFFFFFFFFFFFFFFFFFFFFFFFFFFFFFFFFFFFFFFFF AND PUSH20 0xFFFFFFFFFFFFFFFFFFFFFFFFFFFFFFFFFFFFFFFF AND DUP2 MSTORE PUSH1 0x20 ADD SWAP1 DUP2 MSTORE PUSH1 0x20 ADD PUSH0 KECCAK256 PUSH1 0x3 ADD SLOAD LT ISZERO PUSH2 0xB00 JUMPI PUSH1 0x40 MLOAD PUSH32 0x8C379A000000000000000000000000000000000000000000000000000000000 DUP2 MSTORE PUSH1 0x4 ADD PUSH2 0xAF7 SWAP1 PUSH2 0x2370 JUMP JUMPDEST PUSH1 0x40 MLOAD DUP1 SWAP2 SUB SWAP1 REVERT JUMPDEST PUSH0 PUSH20 0xFFFFFFFFFFFFFFFFFFFFFFFFFFFFFFFFFFFFFFFF AND DUP3 PUSH20 0xFFFFFFFFFFFFFFFFFFFFFFFFFFFFFFFFFFFFFFFF AND SUB PUSH2 0xB6E JUMPI PUSH1 0x40 MLOAD PUSH32 0x8C379A000000000000000000000000000000000000000000000000000000000 DUP2 MSTORE PUSH1 0x4 ADD PUSH2 0xB65 SWAP1 PUSH2 0x23D8 JUMP JUMPDEST PUSH1 0x40 MLOAD DUP1 SWAP2 SUB SWAP1 REVERT JUMPDEST DUP1 PUSH1 0x5 PUSH0 CALLER PUSH20 0xFFFFFFFFFFFFFFFFFFFFFFFFFFFFFFFFFFFFFFFF AND PUSH20 0xFFFFFFFFFFFFFFFFFFFFFFFFFFFFFFFFFFFFFFFF AND DUP2 MSTORE PUSH1 0x20 ADD SWAP1 DUP2 MSTORE PUSH1 0x20 ADD PUSH0 KECCAK256 PUSH1 0x3 ADD PUSH0 DUP3 DUP3 SLOAD PUSH2 0xBBD SWAP2 SWAP1 PUSH2 0x23F6 JUMP JUMPDEST SWAP3 POP POP DUP2 SWAP1 SSTORE POP PUSH0 DUP3 PUSH20 0xFFFFFFFFFFFFFFFFFFFFFFFFFFFFFFFFFFFFFFFF AND DUP3 PUSH1 0x40 MLOAD PUSH2 0xBE9 SWAP1 PUSH2 0x2456 JUMP JUMPDEST PUSH0 PUSH1 0x40 MLOAD DUP1 DUP4 SUB DUP2 DUP6 DUP8 GAS CALL SWAP3 POP POP POP RETURNDATASIZE DUP1 PUSH0 DUP2 EQ PUSH2 0xC23 JUMPI PUSH1 0x40 MLOAD SWAP2 POP PUSH1 0x1F NOT PUSH1 0x3F RETURNDATASIZE ADD AND DUP3 ADD PUSH1 0x40 MSTORE RETURNDATASIZE DUP3 MSTORE RETURNDATASIZE PUSH0 PUSH1 0x20 DUP5 ADD RETURNDATACOPY PUSH2 0xC28 JUMP JUMPDEST PUSH1 0x60 SWAP2 POP JUMPDEST POP POP SWAP1 POP DUP1 PUSH2 0xC6C JUMPI PUSH1 0x40 MLOAD PUSH32 0x8C379A000000000000000000000000000000000000000000000000000000000 DUP2 MSTORE PUSH1 0x4 ADD PUSH2 0xC63 SWAP1 PUSH2 0x24B4 JUMP JUMPDEST PUSH1 0x40 MLOAD DUP1 SWAP2 SUB SWAP1 REVERT JUMPDEST DUP3 PUSH20 0xFFFFFFFFFFFFFFFFFFFFFFFFFFFFFFFFFFFFFFFF AND CALLER PUSH20 0xFFFFFFFFFFFFFFFFFFFFFFFFFFFFFFFFFFFFFFFF AND PUSH32 0x538AB32A957D2B55D0EC70A4029E73FDF19F500832839B1D7BAFCFBCA2A5630 DUP5 PUSH1 0x40 MLOAD PUSH2 0xCC9 SWAP2 SWAP1 PUSH2 0x21F1 JUMP JUMPDEST PUSH1 0x40 MLOAD DUP1 SWAP2 SUB SWAP1 LOG3 DUP3 PUSH20 0xFFFFFFFFFFFFFFFFFFFFFFFFFFFFFFFFFFFFFFFF AND CALLER PUSH20 0xFFFFFFFFFFFFFFFFFFFFFFFFFFFFFFFFFFFFFFFF AND PUSH32 0xE9171AEFF46C37AB955B8AFF908E14AE9732BD06634FA131226CFE5C25BFD2FB DUP5 PUSH1 0x40 MLOAD PUSH2 0xD2E SWAP2 SWAP1 PUSH2 0x21F1 JUMP JUMPDEST PUSH1 0x40 MLOAD DUP1 SWAP2 SUB SWAP1 LOG3 POP POP POP JUMP JUMPDEST PUSH0 PUSH0 SWAP1 SLOAD SWAP1 PUSH2 0x100 EXP SWAP1 DIV PUSH20 0xFFFFFFFFFFFFFFFFFFFFFFFFFFFFFFFFFFFFFFFF AND PUSH20 0xFFFFFFFFFFFFFFFFFFFFFFFFFFFFFFFFFFFFFFFF AND CALLER PUSH20 0xFFFFFFFFFFFFFFFFFFFFFFFFFFFFFFFFFFFFFFFF AND EQ PUSH2 0xDC9 JUMPI PUSH1 0x40 MLOAD PUSH32 0x8C379A000000000000000000000000000000000000000000000000000000000 DUP2 MSTORE PUSH1 0x4 ADD PUSH2 0xDC0 SWAP1 PUSH2 0x1FDE JUMP JUMPDEST PUSH1 0x40 MLOAD DUP1 SWAP2 SUB SWAP1 REVERT JUMPDEST DUP1 PUSH1 0x4 DUP2 SWAP1 SSTORE POP POP JUMP JUMPDEST PUSH32 0x0 DUP2 JUMP JUMPDEST PUSH0 PUSH0 SWAP1 SLOAD SWAP1 PUSH2 0x100 EXP SWAP1 DIV PUSH20 0xFFFFFFFFFFFFFFFFFFFFFFFFFFFFFFFFFFFFFFFF AND DUP2 JUMP JUMPDEST PUSH1 0x5 PUSH0 DUP3 PUSH20 0xFFFFFFFFFFFFFFFFFFFFFFFFFFFFFFFFFFFFFFFF AND PUSH20 0xFFFFFFFFFFFFFFFFFFFFFFFFFFFFFFFFFFFFFFFF AND DUP2 MSTORE PUSH1 0x20 ADD SWAP1 DUP2 MSTORE PUSH1 0x20 ADD PUSH0 KECCAK256 PUSH1 0x4 ADD PUSH0 SWAP1 SLOAD SWAP1 PUSH2 0x100 EXP SWAP1 DIV PUSH1 0xFF AND PUSH2 0xEA7 JUMPI PUSH1 0x40 MLOAD PUSH32 0x8C379A000000000000000000000000000000000000000000000000000000000 DUP2 MSTORE PUSH1 0x4 ADD PUSH2 0xE9E SWAP1 PUSH2 0x251C JUMP JUMPDEST PUSH1 0x40 MLOAD DUP1 SWAP2 SUB SWAP1 REVERT JUMPDEST PUSH0 CALLVALUE GT PUSH2 0xEE9 JUMPI PUSH1 0x40 MLOAD PUSH32 0x8C379A000000000000000000000000000000000000000000000000000000000 DUP2 MSTORE PUSH1 0x4 ADD PUSH2 0xEE0 SWAP1 PUSH2 0x25AA JUMP JUMPDEST PUSH1 0x40 MLOAD DUP1 SWAP2 SUB SWAP1 REVERT JUMPDEST CALLVALUE PUSH1 0x5 PUSH0 DUP4 PUSH20 0xFFFFFFFFFFFFFFFFFFFFFFFFFFFFFFFFFFFFFFFF AND PUSH20 0xFFFFFFFFFFFFFFFFFFFFFFFFFFFFFFFFFFFFFFFF AND DUP2 MSTORE PUSH1 0x20 ADD SWAP1 DUP2 MSTORE PUSH1 0x20 ADD PUSH0 KECCAK256 PUSH1 0x3 ADD PUSH0 DUP3 DUP3 SLOAD PUSH2 0xF38 SWAP2 SWAP1 PUSH2 0x20EE JUMP JUMPDEST SWAP3 POP POP DUP2 SWAP1 SSTORE POP CALLER PUSH20 0xFFFFFFFFFFFFFFFFFFFFFFFFFFFFFFFFFFFFFFFF AND DUP2 PUSH20 0xFFFFFFFFFFFFFFFFFFFFFFFFFFFFFFFFFFFFFFFF AND PUSH32 0x538AB32A957D2B55D0EC70A4029E73FDF19F500832839B1D7BAFCFBCA2A5630 CALLVALUE PUSH1 0x40 MLOAD PUSH2 0xF9C SWAP2 SWAP1 PUSH2 0x21F1 JUMP JUMPDEST PUSH1 0x40 MLOAD DUP1 SWAP2 SUB SWAP1 LOG3 POP JUMP JUMPDEST PUSH0 PUSH0 SWAP1 SLOAD SWAP1 PUSH2 0x100 EXP SWAP1 DIV PUSH20 0xFFFFFFFFFFFFFFFFFFFFFFFFFFFFFFFFFFFFFFFF AND PUSH20 0xFFFFFFFFFFFFFFFFFFFFFFFFFFFFFFFFFFFFFFFF AND CALLER PUSH20 0xFFFFFFFFFFFFFFFFFFFFFFFFFFFFFFFFFFFFFFFF AND EQ PUSH2 0x1035 JUMPI PUSH1 0x40 MLOAD PUSH32 0x8C379A000000000000000000000000000000000000000000000000000000000 DUP2 MSTORE PUSH1 0x4 ADD PUSH2 0x102C SWAP1 PUSH2 0x1FDE JUMP JUMPDEST PUSH1 0x40 MLOAD DUP1 SWAP2 SUB SWAP1 REVERT JUMPDEST PUSH2 0xE10 PUSH1 0x2 SLOAD PUSH2 0x1045 SWAP2 SWAP1 PUSH2 0x20EE JUMP JUMPDEST TIMESTAMP LT ISZERO PUSH2 0x1087 JUMPI PUSH1 0x40 MLOAD PUSH32 0x8C379A000000000000000000000000000000000000000000000000000000000 DUP2 MSTORE PUSH1 0x4 ADD PUSH2 0x107E SWAP1 PUSH2 0x2612 JUMP JUMPDEST PUSH1 0x40 MLOAD DUP1 SWAP2 SUB SWAP1 REVERT JUMPDEST PUSH1 0x4 SLOAD DUP2 LT ISZERO PUSH2 0x10CC JUMPI PUSH1 0x40 MLOAD PUSH32 0x8C379A000000000000000000000000000000000000000000000000000000000 DUP2 MSTORE PUSH1 0x4 ADD PUSH2 0x10C3 SWAP1 PUSH2 0x22E2 JUMP JUMPDEST PUSH1 0x40 MLOAD DUP1 SWAP2 SUB SWAP1 REVERT JUMPDEST PUSH0 SELFBALANCE SWAP1 POP PUSH32 0x0 PUSH20 0xFFFFFFFFFFFFFFFFFFFFFFFFFFFFFFFFFFFFFFFF AND PUSH4 0xDA75793A DUP4 ADDRESS PUSH1 0x40 MLOAD DUP4 PUSH4 0xFFFFFFFF AND PUSH1 0xE0 SHL DUP2 MSTORE PUSH1 0x4 ADD PUSH2 0x112B SWAP3 SWAP2 SWAP1 PUSH2 0x1AB5 JUMP JUMPDEST PUSH0 PUSH1 0x40 MLOAD DUP1 DUP4 SUB DUP2 PUSH0 DUP8 DUP1 EXTCODESIZE ISZERO DUP1 ISZERO PUSH2 0x1142 JUMPI PUSH0 PUSH0 REVERT JUMPDEST POP GAS CALL ISZERO DUP1 ISZERO PUSH2 0x1154 JUMPI RETURNDATASIZE PUSH0 PUSH0 RETURNDATACOPY RETURNDATASIZE PUSH0 REVERT JUMPDEST POP POP POP POP PUSH0 SELFBALANCE SWAP1 POP DUP2 DUP2 GT PUSH2 0x119E JUMPI PUSH1 0x40 MLOAD PUSH32 0x8C379A000000000000000000000000000000000000000000000000000000000 DUP2 MSTORE PUSH1 0x4 ADD PUSH2 0x1195 SWAP1 PUSH2 0x267A JUMP JUMPDEST PUSH1 0x40 MLOAD DUP1 SWAP2 SUB SWAP1 REVERT JUMPDEST TIMESTAMP PUSH1 0x2 DUP2 SWAP1 SSTORE POP PUSH32 0xD93B4B006708E5478CEE61EF37AA4EB01C50F3943F00B0437CC172C33D0E93A2 DUP4 PUSH1 0x40 MLOAD PUSH2 0x11D4 SWAP2 SWAP1 PUSH2 0x21F1 JUMP JUMPDEST PUSH1 0x40 MLOAD DUP1 SWAP2 SUB SWAP1 LOG1 POP POP POP JUMP JUMPDEST PUSH0 PUSH0 SWAP1 SLOAD SWAP1 PUSH2 0x100 EXP SWAP1 DIV PUSH20 0xFFFFFFFFFFFFFFFFFFFFFFFFFFFFFFFFFFFFFFFF AND PUSH20 0xFFFFFFFFFFFFFFFFFFFFFFFFFFFFFFFFFFFFFFFF AND CALLER PUSH20 0xFFFFFFFFFFFFFFFFFFFFFFFFFFFFFFFFFFFFFFFF AND EQ PUSH2 0x126F JUMPI PUSH1 0x40 MLOAD PUSH32 0x8C379A000000000000000000000000000000000000000000000000000000000 DUP2 MSTORE PUSH1 0x4 ADD PUSH2 0x1266 SWAP1 PUSH2 0x1FDE JUMP JUMPDEST PUSH1 0x40 MLOAD DUP1 SWAP2 SUB SWAP1 REVERT JUMPDEST PUSH1 0x5 PUSH0 DUP3 PUSH20 0xFFFFFFFFFFFFFFFFFFFFFFFFFFFFFFFFFFFFFFFF AND PUSH20 0xFFFFFFFFFFFFFFFFFFFFFFFFFFFFFFFFFFFFFFFF AND DUP2 MSTORE PUSH1 0x20 ADD SWAP1 DUP2 MSTORE PUSH1 0x20 ADD PUSH0 KECCAK256 PUSH1 0x4 ADD PUSH0 SWAP1 SLOAD SWAP1 PUSH2 0x100 EXP SWAP1 DIV PUSH1 0xFF AND ISZERO PUSH2 0x12FC JUMPI PUSH1 0x40 MLOAD PUSH32 0x8C379A000000000000000000000000000000000000000000000000000000000 DUP2 MSTORE PUSH1 0x4 ADD PUSH2 0x12F3 SWAP1 PUSH2 0x26E2 JUMP JUMPDEST PUSH1 0x40 MLOAD DUP1 SWAP2 SUB SWAP1 REVERT JUMPDEST PUSH1 0x40 MLOAD DUP1 PUSH1 0xA0 ADD PUSH1 0x40 MSTORE DUP1 PUSH1 0x7 SLOAD DUP2 MSTORE PUSH1 0x20 ADD DUP4 DUP2 MSTORE PUSH1 0x20 ADD DUP3 PUSH20 0xFFFFFFFFFFFFFFFFFFFFFFFFFFFFFFFFFFFFFFFF AND DUP2 MSTORE PUSH1 0x20 ADD PUSH0 DUP2 MSTORE PUSH1 0x20 ADD PUSH1 0x1 ISZERO ISZERO DUP2 MSTORE POP PUSH1 0x5 PUSH0 DUP4 PUSH20 0xFFFFFFFFFFFFFFFFFFFFFFFFFFFFFFFFFFFFFFFF AND PUSH20 0xFFFFFFFFFFFFFFFFFFFFFFFFFFFFFFFFFFFFFFFF AND DUP2 MSTORE PUSH1 0x20 ADD SWAP1 DUP2 MSTORE PUSH1 0x20 ADD PUSH0 KECCAK256 PUSH0 DUP3 ADD MLOAD DUP2 PUSH0 ADD SSTORE PUSH1 0x20 DUP3 ADD MLOAD DUP2 PUSH1 0x1 ADD SWAP1 DUP2 PUSH2 0x1398 SWAP2 SWAP1 PUSH2 0x2897 JUMP JUMPDEST POP PUSH1 0x40 DUP3 ADD MLOAD DUP2 PUSH1 0x2 ADD PUSH0 PUSH2 0x100 EXP DUP2 SLOAD DUP2 PUSH20 0xFFFFFFFFFFFFFFFFFFFFFFFFFFFFFFFFFFFFFFFF MUL NOT AND SWAP1 DUP4 PUSH20 0xFFFFFFFFFFFFFFFFFFFFFFFFFFFFFFFFFFFFFFFF AND MUL OR SWAP1 SSTORE POP PUSH1 0x60 DUP3 ADD MLOAD DUP2 PUSH1 0x3 ADD SSTORE PUSH1 0x80 DUP3 ADD MLOAD DUP2 PUSH1 0x4 ADD PUSH0 PUSH2 0x100 EXP DUP2 SLOAD DUP2 PUSH1 0xFF MUL NOT AND SWAP1 DUP4 ISZERO ISZERO MUL OR SWAP1 SSTORE POP SWAP1 POP POP DUP1 PUSH1 0x6 PUSH0 PUSH1 0x7 SLOAD DUP2 MSTORE PUSH1 0x20 ADD SWAP1 DUP2 MSTORE PUSH1 0x20 ADD PUSH0 KECCAK256 PUSH0 PUSH2 0x100 EXP DUP2 SLOAD DUP2 PUSH20 0xFFFFFFFFFFFFFFFFFFFFFFFFFFFFFFFFFFFFFFFF MUL NOT AND SWAP1 DUP4 PUSH20 0xFFFFFFFFFFFFFFFFFFFFFFFFFFFFFFFFFFFFFFFF AND MUL OR SWAP1 SSTORE POP DUP1 PUSH20 0xFFFFFFFFFFFFFFFFFFFFFFFFFFFFFFFFFFFFFFFF AND PUSH32 0xC143C72014F0D06EA74582B0087DB64EB875CF286F85F8B4B5810D8438C8B5A4 PUSH1 0x7 SLOAD DUP4 PUSH1 0x40 MLOAD PUSH2 0x14A6 SWAP3 SWAP2 SWAP1 PUSH2 0x1AB5 JUMP JUMPDEST PUSH1 0x40 MLOAD DUP1 SWAP2 SUB SWAP1 LOG2 PUSH1 0x7 PUSH0 DUP2 SLOAD DUP1 SWAP3 SWAP2 SWAP1 PUSH1 0x1 ADD SWAP2 SWAP1 POP SSTORE POP POP POP JUMP JUMPDEST PUSH1 0x5 PUSH0 CALLER PUSH20 0xFFFFFFFFFFFFFFFFFFFFFFFFFFFFFFFFFFFFFFFF AND PUSH20 0xFFFFFFFFFFFFFFFFFFFFFFFFFFFFFFFFFFFFFFFF AND DUP2 MSTORE PUSH1 0x20 ADD SWAP1 DUP2 MSTORE PUSH1 0x20 ADD PUSH0 KECCAK256 PUSH1 0x4 ADD PUSH0 SWAP1 SLOAD SWAP1 PUSH2 0x100 EXP SWAP1 DIV PUSH1 0xFF AND PUSH2 0x154F JUMPI PUSH1 0x40 MLOAD PUSH32 0x8C379A000000000000000000000000000000000000000000000000000000000 DUP2 MSTORE PUSH1 0x4 ADD PUSH2 0x1546 SWAP1 PUSH2 0x227A JUMP JUMPDEST PUSH1 0x40 MLOAD DUP1 SWAP2 SUB SWAP1 REVERT JUMPDEST DUP1 PUSH1 0x5 PUSH0 CALLER PUSH20 0xFFFFFFFFFFFFFFFFFFFFFFFFFFFFFFFFFFFFFFFF AND PUSH20 0xFFFFFFFFFFFFFFFFFFFFFFFFFFFFFFFFFFFFFFFF AND DUP2 MSTORE PUSH1 0x20 ADD SWAP1 DUP2 MSTORE PUSH1 0x20 ADD PUSH0 KECCAK256 PUSH1 0x3 ADD SLOAD LT ISZERO PUSH2 0x15D2 JUMPI PUSH1 0x40 MLOAD PUSH32 0x8C379A000000000000000000000000000000000000000000000000000000000 DUP2 MSTORE PUSH1 0x4 ADD PUSH2 0x15C9 SWAP1 PUSH2 0x29B0 JUMP JUMPDEST PUSH1 0x40 MLOAD DUP1 SWAP2 SUB SWAP1 REVERT JUMPDEST DUP1 SELFBALANCE LT ISZERO PUSH2 0x1615 JUMPI PUSH1 0x40 MLOAD PUSH32 0x8C379A000000000000000000000000000000000000000000000000000000000 DUP2 MSTORE PUSH1 0x4 ADD PUSH2 0x160C SWAP1 PUSH2 0x2A3E JUMP JUMPDEST PUSH1 0x40 MLOAD DUP1 SWAP2 SUB SWAP1 REVERT JUMPDEST DUP1 PUSH1 0x5 PUSH0 CALLER PUSH20 0xFFFFFFFFFFFFFFFFFFFFFFFFFFFFFFFFFFFFFFFF AND PUSH20 0xFFFFFFFFFFFFFFFFFFFFFFFFFFFFFFFFFFFFFFFF AND DUP2 MSTORE PUSH1 0x20 ADD SWAP1 DUP2 MSTORE PUSH1 0x20 ADD PUSH0 KECCAK256 PUSH1 0x3 ADD PUSH0 DUP3 DUP3 SLOAD PUSH2 0x1664 SWAP2 SWAP1 PUSH2 0x23F6 JUMP JUMPDEST SWAP3 POP POP DUP2 SWAP1 SSTORE POP DUP2 PUSH20 0xFFFFFFFFFFFFFFFFFFFFFFFFFFFFFFFFFFFFFFFF AND PUSH2 0x8FC DUP3 SWAP1 DUP2 ISZERO MUL SWAP1 PUSH1 0x40 MLOAD PUSH0 PUSH1 0x40 MLOAD DUP1 DUP4 SUB DUP2 DUP6 DUP9 DUP9 CALL SWAP4 POP POP POP POP ISZERO DUP1 ISZERO PUSH2 0x16AE JUMPI RETURNDATASIZE PUSH0 PUSH0 RETURNDATACOPY RETURNDATASIZE PUSH0 REVERT JUMPDEST POP DUP2 PUSH20 0xFFFFFFFFFFFFFFFFFFFFFFFFFFFFFFFFFFFFFFFF AND CALLER PUSH20 0xFFFFFFFFFFFFFFFFFFFFFFFFFFFFFFFFFFFFFFFF AND PUSH32 0xE9171AEFF46C37AB955B8AFF908E14AE9732BD06634FA131226CFE5C25BFD2FB DUP4 PUSH1 0x40 MLOAD PUSH2 0x170C SWAP2 SWAP1 PUSH2 0x21F1 JUMP JUMPDEST PUSH1 0x40 MLOAD DUP1 SWAP2 SUB SWAP1 LOG3 POP POP JUMP JUMPDEST PUSH0 PUSH0 SWAP1 SLOAD SWAP1 PUSH2 0x100 EXP SWAP1 DIV PUSH20 0xFFFFFFFFFFFFFFFFFFFFFFFFFFFFFFFFFFFFFFFF AND PUSH20 0xFFFFFFFFFFFFFFFFFFFFFFFFFFFFFFFFFFFFFFFF AND CALLER PUSH20 0xFFFFFFFFFFFFFFFFFFFFFFFFFFFFFFFFFFFFFFFF AND EQ PUSH2 0x17A6 JUMPI PUSH1 0x40 MLOAD PUSH32 0x8C379A000000000000000000000000000000000000000000000000000000000 DUP2 MSTORE PUSH1 0x4 ADD PUSH2 0x179D SWAP1 PUSH2 0x1FDE JUMP JUMPDEST PUSH1 0x40 MLOAD DUP1 SWAP2 SUB SWAP1 REVERT JUMPDEST PUSH0 SELFBALANCE SWAP1 POP PUSH0 DUP2 GT PUSH2 0x17EC JUMPI PUSH1 0x40 MLOAD PUSH32 0x8C379A000000000000000000000000000000000000000000000000000000000 DUP2 MSTORE PUSH1 0x4 ADD PUSH2 0x17E3 SWAP1 PUSH2 0x2AA6 JUMP JUMPDEST PUSH1 0x40 MLOAD DUP1 SWAP2 SUB SWAP1 REVERT JUMPDEST PUSH0 PUSH0 PUSH0 SWAP1 SLOAD SWAP1 PUSH2 0x100 EXP SWAP1 DIV PUSH20 0xFFFFFFFFFFFFFFFFFFFFFFFFFFFFFFFFFFFFFFFF AND PUSH20 0xFFFFFFFFFFFFFFFFFFFFFFFFFFFFFFFFFFFFFFFF AND DUP3 PUSH1 0x40 MLOAD PUSH2 0x1831 SWAP1 PUSH2 0x2456 JUMP JUMPDEST PUSH0 PUSH1 0x40 MLOAD DUP1 DUP4 SUB DUP2 DUP6 DUP8 GAS CALL SWAP3 POP POP POP RETURNDATASIZE DUP1 PUSH0 DUP2 EQ PUSH2 0x186B JUMPI PUSH1 0x40 MLOAD SWAP2 POP PUSH1 0x1F NOT PUSH1 0x3F RETURNDATASIZE ADD AND DUP3 ADD PUSH1 0x40 MSTORE RETURNDATASIZE DUP3 MSTORE RETURNDATASIZE PUSH0 PUSH1 0x20 DUP5 ADD RETURNDATACOPY PUSH2 0x1870 JUMP JUMPDEST PUSH1 0x60 SWAP2 POP JUMPDEST POP POP SWAP1 POP DUP1 PUSH2 0x18B4 JUMPI PUSH1 0x40 MLOAD PUSH32 0x8C379A000000000000000000000000000000000000000000000000000000000 DUP2 MSTORE PUSH1 0x4 ADD PUSH2 0x18AB SWAP1 PUSH2 0x2B0E JUMP JUMPDEST PUSH1 0x40 MLOAD DUP1 SWAP2 SUB SWAP1 REVERT JUMPDEST POP POP JUMP JUMPDEST PUSH0 PUSH0 SWAP1 SLOAD SWAP1 PUSH2 0x100 EXP SWAP1 DIV PUSH20 0xFFFFFFFFFFFFFFFFFFFFFFFFFFFFFFFFFFFFFFFF AND PUSH20 0xFFFFFFFFFFFFFFFFFFFFFFFFFFFFFFFFFFFFFFFF AND CALLER PUSH20 0xFFFFFFFFFFFFFFFFFFFFFFFFFFFFFFFFFFFFFFFF AND EQ PUSH2 0x1946 JUMPI PUSH1 0x40 MLOAD PUSH32 0x8C379A000000000000000000000000000000000000000000000000000000000 DUP2 MSTORE PUSH1 0x4 ADD PUSH2 0x193D SWAP1 PUSH2 0x1FDE JUMP JUMPDEST PUSH1 0x40 MLOAD DUP1 SWAP2 SUB SWAP1 REVERT JUMPDEST PUSH0 PUSH32 0x0 PUSH20 0xFFFFFFFFFFFFFFFFFFFFFFFFFFFFFFFFFFFFFFFF AND PUSH4 0x2A2FAB22 PUSH1 0x40 MLOAD DUP2 PUSH4 0xFFFFFFFF AND PUSH1 0xE0 SHL DUP2 MSTORE PUSH1 0x4 ADD PUSH1 0x20 PUSH1 0x40 MLOAD DUP1 DUP4 SUB DUP2 DUP7 GAS STATICCALL ISZERO DUP1 ISZERO PUSH2 0x19B0 JUMPI RETURNDATASIZE PUSH0 PUSH0 RETURNDATACOPY RETURNDATASIZE PUSH0 REVERT JUMPDEST POP POP POP POP PUSH1 0x40 MLOAD RETURNDATASIZE PUSH1 0x1F NOT PUSH1 0x1F DUP3 ADD AND DUP3 ADD DUP1 PUSH1 0x40 MSTORE POP DUP2 ADD SWAP1 PUSH2 0x19D4 SWAP2 SWAP1 PUSH2 0x2B40 JUMP JUMPDEST SWAP1 POP PUSH0 DUP2 GT PUSH2 0x1A18 JUMPI PUSH1 0x40 MLOAD PUSH32 0x8C379A000000000000000000000000000000000000000000000000000000000 DUP2 MSTORE PUSH1 0x4 ADD PUSH2 0x1A0F SWAP1 PUSH2 0x2BB5 JUMP JUMPDEST PUSH1 0x40 MLOAD DUP1 SWAP2 SUB SWAP1 REVERT JUMPDEST POP JUMP JUMPDEST PUSH1 0x40 MLOAD DUP1 PUSH1 0xA0 ADD PUSH1 0x40 MSTORE DUP1 PUSH0 DUP2 MSTORE PUSH1 0x20 ADD PUSH1 0x60 DUP2 MSTORE PUSH1 0x20 ADD PUSH0 PUSH20 0xFFFFFFFFFFFFFFFFFFFFFFFFFFFFFFFFFFFFFFFF AND DUP2 MSTORE PUSH1 0x20 ADD PUSH0 DUP2 MSTORE PUSH1 0x20 ADD PUSH0 ISZERO ISZERO DUP2 MSTORE POP SWAP1 JUMP JUMPDEST PUSH0 DUP2 SWAP1 POP SWAP2 SWAP1 POP JUMP JUMPDEST PUSH2 0x1A70 DUP2 PUSH2 0x1A5E JUMP JUMPDEST DUP3 MSTORE POP POP JUMP JUMPDEST PUSH0 PUSH20 0xFFFFFFFFFFFFFFFFFFFFFFFFFFFFFFFFFFFFFFFF DUP3 AND SWAP1 POP SWAP2 SWAP1 POP JUMP JUMPDEST PUSH0 PUSH2 0x1A9F DUP3 PUSH2 0x1A76 JUMP JUMPDEST SWAP1 POP SWAP2 SWAP1 POP JUMP JUMPDEST PUSH2 0x1AAF DUP2 PUSH2 0x1A95 JUMP JUMPDEST DUP3 MSTORE POP POP JUMP JUMPDEST PUSH0 PUSH1 0x40 DUP3 ADD SWAP1 POP PUSH2 0x1AC8 PUSH0 DUP4 ADD DUP6 PUSH2 0x1A67 JUMP JUMPDEST PUSH2 0x1AD5 PUSH1 0x20 DUP4 ADD DUP5 PUSH2 0x1AA6 JUMP JUMPDEST SWAP4 SWAP3 POP POP POP JUMP JUMPDEST PUSH0 PUSH1 0x40 MLOAD SWAP1 POP SWAP1 JUMP JUMPDEST PUSH0 PUSH0 REVERT JUMPDEST PUSH0 PUSH0 REVERT JUMPDEST PUSH2 0x1AF6 DUP2 PUSH2 0x1A5E JUMP JUMPDEST DUP2 EQ PUSH2 0x1B00 JUMPI PUSH0 PUSH0 REVERT JUMPDEST POP JUMP JUMPDEST PUSH0 DUP2 CALLDATALOAD SWAP1 POP PUSH2 0x1B11 DUP2 PUSH2 0x1AED JUMP JUMPDEST SWAP3 SWAP2 POP POP JUMP JUMPDEST PUSH0 PUSH1 0x20 DUP3 DUP5 SUB SLT ISZERO PUSH2 0x1B2C JUMPI PUSH2 0x1B2B PUSH2 0x1AE5 JUMP JUMPDEST JUMPDEST PUSH0 PUSH2 0x1B39 DUP5 DUP3 DUP6 ADD PUSH2 0x1B03 JUMP JUMPDEST SWAP2 POP POP SWAP3 SWAP2 POP POP JUMP JUMPDEST PUSH2 0x1B4B DUP2 PUSH2 0x1A5E JUMP JUMPDEST DUP3 MSTORE POP POP JUMP JUMPDEST PUSH0 DUP2 MLOAD SWAP1 POP SWAP2 SWAP1 POP JUMP JUMPDEST PUSH0 DUP3 DUP3 MSTORE PUSH1 0x20 DUP3 ADD SWAP1 POP SWAP3 SWAP2 POP POP JUMP JUMPDEST DUP3 DUP2 DUP4 MCOPY PUSH0 DUP4 DUP4 ADD MSTORE POP POP POP JUMP JUMPDEST PUSH0 PUSH1 0x1F NOT PUSH1 0x1F DUP4 ADD AND SWAP1 POP SWAP2 SWAP1 POP JUMP JUMPDEST PUSH0 PUSH2 0x1B93 DUP3 PUSH2 0x1B51 JUMP JUMPDEST PUSH2 0x1B9D DUP2 DUP6 PUSH2 0x1B5B JUMP JUMPDEST SWAP4 POP PUSH2 0x1BAD DUP2 DUP6 PUSH1 0x20 DUP7 ADD PUSH2 0x1B6B JUMP JUMPDEST PUSH2 0x1BB6 DUP2 PUSH2 0x1B79 JUMP JUMPDEST DUP5 ADD SWAP2 POP POP SWAP3 SWAP2 POP POP JUMP JUMPDEST PUSH2 0x1BCA DUP2 PUSH2 0x1A95 JUMP JUMPDEST DUP3 MSTORE POP POP JUMP JUMPDEST PUSH0 DUP2 ISZERO ISZERO SWAP1 POP SWAP2 SWAP1 POP JUMP JUMPDEST PUSH2 0x1BE4 DUP2 PUSH2 0x1BD0 JUMP JUMPDEST DUP3 MSTORE POP POP JUMP JUMPDEST PUSH0 PUSH1 0xA0 DUP4 ADD PUSH0 DUP4 ADD MLOAD PUSH2 0x1BFF PUSH0 DUP7 ADD DUP3 PUSH2 0x1B42 JUMP JUMPDEST POP PUSH1 0x20 DUP4 ADD MLOAD DUP5 DUP3 SUB PUSH1 0x20 DUP7 ADD MSTORE PUSH2 0x1C17 DUP3 DUP3 PUSH2 0x1B89 JUMP JUMPDEST SWAP2 POP POP PUSH1 0x40 DUP4 ADD MLOAD PUSH2 0x1C2C PUSH1 0x40 DUP7 ADD DUP3 PUSH2 0x1BC1 JUMP JUMPDEST POP PUSH1 0x60 DUP4 ADD MLOAD PUSH2 0x1C3F PUSH1 0x60 DUP7 ADD DUP3 PUSH2 0x1B42 JUMP JUMPDEST POP PUSH1 0x80 DUP4 ADD MLOAD PUSH2 0x1C52 PUSH1 0x80 DUP7 ADD DUP3 PUSH2 0x1BDB JUMP JUMPDEST POP DUP1 SWAP2 POP POP SWAP3 SWAP2 POP POP JUMP JUMPDEST PUSH0 PUSH1 0x20 DUP3 ADD SWAP1 POP DUP2 DUP2 SUB PUSH0 DUP4 ADD MSTORE PUSH2 0x1C75 DUP2 DUP5 PUSH2 0x1BEA JUMP JUMPDEST SWAP1 POP SWAP3 SWAP2 POP POP JUMP JUMPDEST PUSH0 PUSH2 0x1C87 DUP3 PUSH2 0x1A76 JUMP JUMPDEST SWAP1 POP SWAP2 SWAP1 POP JUMP JUMPDEST PUSH2 0x1C97 DUP2 PUSH2 0x1C7D JUMP JUMPDEST DUP2 EQ PUSH2 0x1CA1 JUMPI PUSH0 PUSH0 REVERT JUMPDEST POP JUMP JUMPDEST PUSH0 DUP2 CALLDATALOAD SWAP1 POP PUSH2 0x1CB2 DUP2 PUSH2 0x1C8E JUMP JUMPDEST SWAP3 SWAP2 POP POP JUMP JUMPDEST PUSH0 PUSH0 PUSH1 0x40 DUP4 DUP6 SUB SLT ISZERO PUSH2 0x1CCE JUMPI PUSH2 0x1CCD PUSH2 0x1AE5 JUMP JUMPDEST JUMPDEST PUSH0 PUSH2 0x1CDB DUP6 DUP3 DUP7 ADD PUSH2 0x1CA4 JUMP JUMPDEST SWAP3 POP POP PUSH1 0x20 PUSH2 0x1CEC DUP6 DUP3 DUP7 ADD PUSH2 0x1B03 JUMP JUMPDEST SWAP2 POP POP SWAP3 POP SWAP3 SWAP1 POP JUMP JUMPDEST PUSH0 DUP2 SWAP1 POP SWAP2 SWAP1 POP JUMP JUMPDEST PUSH0 PUSH2 0x1D19 PUSH2 0x1D14 PUSH2 0x1D0F DUP5 PUSH2 0x1A76 JUMP JUMPDEST PUSH2 0x1CF6 JUMP JUMPDEST PUSH2 0x1A76 JUMP JUMPDEST SWAP1 POP SWAP2 SWAP1 POP JUMP JUMPDEST PUSH0 PUSH2 0x1D2A DUP3 PUSH2 0x1CFF JUMP JUMPDEST SWAP1 POP SWAP2 SWAP1 POP JUMP JUMPDEST PUSH0 PUSH2 0x1D3B DUP3 PUSH2 0x1D20 JUMP JUMPDEST SWAP1 POP SWAP2 SWAP1 POP JUMP JUMPDEST PUSH2 0x1D4B DUP2 PUSH2 0x1D31 JUMP JUMPDEST DUP3 MSTORE POP POP JUMP JUMPDEST PUSH0 PUSH1 0x20 DUP3 ADD SWAP1 POP PUSH2 0x1D64 PUSH0 DUP4 ADD DUP5 PUSH2 0x1D42 JUMP JUMPDEST SWAP3 SWAP2 POP POP JUMP JUMPDEST PUSH0 PUSH1 0x20 DUP3 ADD SWAP1 POP PUSH2 0x1D7D PUSH0 DUP4 ADD DUP5 PUSH2 0x1AA6 JUMP JUMPDEST SWAP3 SWAP2 POP POP JUMP JUMPDEST PUSH2 0x1D8C DUP2 PUSH2 0x1A95 JUMP JUMPDEST DUP2 EQ PUSH2 0x1D96 JUMPI PUSH0 PUSH0 REVERT JUMPDEST POP JUMP JUMPDEST PUSH0 DUP2 CALLDATALOAD SWAP1 POP PUSH2 0x1DA7 DUP2 PUSH2 0x1D83 JUMP JUMPDEST SWAP3 SWAP2 POP POP JUMP JUMPDEST PUSH0 PUSH1 0x20 DUP3 DUP5 SUB SLT ISZERO PUSH2 0x1DC2 JUMPI PUSH2 0x1DC1 PUSH2 0x1AE5 JUMP JUMPDEST JUMPDEST PUSH0 PUSH2 0x1DCF DUP5 DUP3 DUP6 ADD PUSH2 0x1D99 JUMP JUMPDEST SWAP2 POP POP SWAP3 SWAP2 POP POP JUMP JUMPDEST PUSH0 PUSH0 REVERT JUMPDEST PUSH0 PUSH0 REVERT JUMPDEST PUSH32 0x4E487B7100000000000000000000000000000000000000000000000000000000 PUSH0 MSTORE PUSH1 0x41 PUSH1 0x4 MSTORE PUSH1 0x24 PUSH0 REVERT JUMPDEST PUSH2 0x1E16 DUP3 PUSH2 0x1B79 JUMP JUMPDEST DUP2 ADD DUP2 DUP2 LT PUSH8 0xFFFFFFFFFFFFFFFF DUP3 GT OR ISZERO PUSH2 0x1E35 JUMPI PUSH2 0x1E34 PUSH2 0x1DE0 JUMP JUMPDEST JUMPDEST DUP1 PUSH1 0x40 MSTORE POP POP POP JUMP JUMPDEST PUSH0 PUSH2 0x1E47 PUSH2 0x1ADC JUMP JUMPDEST SWAP1 POP PUSH2 0x1E53 DUP3 DUP3 PUSH2 0x1E0D JUMP JUMPDEST SWAP2 SWAP1 POP JUMP JUMPDEST PUSH0 PUSH8 0xFFFFFFFFFFFFFFFF DUP3 GT ISZERO PUSH2 0x1E72 JUMPI PUSH2 0x1E71 PUSH2 0x1DE0 JUMP JUMPDEST JUMPDEST PUSH2 0x1E7B DUP3 PUSH2 0x1B79 JUMP JUMPDEST SWAP1 POP PUSH1 0x20 DUP2 ADD SWAP1 POP SWAP2 SWAP1 POP JUMP JUMPDEST DUP3 DUP2 DUP4 CALLDATACOPY PUSH0 DUP4 DUP4 ADD MSTORE POP POP POP JUMP JUMPDEST PUSH0 PUSH2 0x1EA8 PUSH2 0x1EA3 DUP5 PUSH2 0x1E58 JUMP JUMPDEST PUSH2 0x1E3E JUMP JUMPDEST SWAP1 POP DUP3 DUP2 MSTORE PUSH1 0x20 DUP2 ADD DUP5 DUP5 DUP5 ADD GT ISZERO PUSH2 0x1EC4 JUMPI PUSH2 0x1EC3 PUSH2 0x1DDC JUMP JUMPDEST JUMPDEST PUSH2 0x1ECF DUP5 DUP3 DUP6 PUSH2 0x1E88 JUMP JUMPDEST POP SWAP4 SWAP3 POP POP POP JUMP JUMPDEST PUSH0 DUP3 PUSH1 0x1F DUP4 ADD SLT PUSH2 0x1EEB JUMPI PUSH2 0x1EEA PUSH2 0x1DD8 JUMP JUMPDEST JUMPDEST DUP2 CALLDATALOAD PUSH2 0x1EFB DUP5 DUP3 PUSH1 0x20 DUP7 ADD PUSH2 0x1E96 JUMP JUMPDEST SWAP2 POP POP SWAP3 SWAP2 POP POP JUMP JUMPDEST PUSH0 PUSH0 PUSH1 0x40 DUP4 DUP6 SUB SLT ISZERO PUSH2 0x1F1A JUMPI PUSH2 0x1F19 PUSH2 0x1AE5 JUMP JUMPDEST JUMPDEST PUSH0 DUP4 ADD CALLDATALOAD PUSH8 0xFFFFFFFFFFFFFFFF DUP2 GT ISZERO PUSH2 0x1F37 JUMPI PUSH2 0x1F36 PUSH2 0x1AE9 JUMP JUMPDEST JUMPDEST PUSH2 0x1F43 DUP6 DUP3 DUP7 ADD PUSH2 0x1ED7 JUMP JUMPDEST SWAP3 POP POP PUSH1 0x20 PUSH2 0x1F54 DUP6 DUP3 DUP7 ADD PUSH2 0x1D99 JUMP JUMPDEST SWAP2 POP POP SWAP3 POP SWAP3 SWAP1 POP JUMP JUMPDEST PUSH0 DUP3 DUP3 MSTORE PUSH1 0x20 DUP3 ADD SWAP1 POP SWAP3 SWAP2 POP POP JUMP JUMPDEST PUSH32 0x4F6E6C79206F776E65722063616E2063616C6C20746869732066756E6374696F PUSH0 DUP3 ADD MSTORE PUSH32 0x6E00000000000000000000000000000000000000000000000000000000000000 PUSH1 0x20 DUP3 ADD MSTORE POP JUMP JUMPDEST PUSH0 PUSH2 0x1FC8 PUSH1 0x21 DUP4 PUSH2 0x1F5E JUMP JUMPDEST SWAP2 POP PUSH2 0x1FD3 DUP3 PUSH2 0x1F6E JUMP JUMPDEST PUSH1 0x40 DUP3 ADD SWAP1 POP SWAP2 SWAP1 POP JUMP JUMPDEST PUSH0 PUSH1 0x20 DUP3 ADD SWAP1 POP DUP2 DUP2 SUB PUSH0 DUP4 ADD MSTORE PUSH2 0x1FF5 DUP2 PUSH2 0x1FBC JUMP JUMPDEST SWAP1 POP SWAP2 SWAP1 POP JUMP JUMPDEST PUSH32 0x4D65726368616E74204944206E6F7420666F756E640000000000000000000000 PUSH0 DUP3 ADD MSTORE POP JUMP JUMPDEST PUSH0 PUSH2 0x2030 PUSH1 0x15 DUP4 PUSH2 0x1F5E JUMP JUMPDEST SWAP2 POP PUSH2 0x203B DUP3 PUSH2 0x1FFC JUMP JUMPDEST PUSH1 0x20 DUP3 ADD SWAP1 POP SWAP2 SWAP1 POP JUMP JUMPDEST PUSH0 PUSH1 0x20 DUP3 ADD SWAP1 POP DUP2 DUP2 SUB PUSH0 DUP4 ADD MSTORE PUSH2 0x205D DUP2 PUSH2 0x2024 JUMP JUMPDEST SWAP1 POP SWAP2 SWAP1 POP JUMP JUMPDEST PUSH32 0x4E487B7100000000000000000000000000000000000000000000000000000000 PUSH0 MSTORE PUSH1 0x22 PUSH1 0x4 MSTORE PUSH1 0x24 PUSH0 REVERT JUMPDEST PUSH0 PUSH1 0x2 DUP3 DIV SWAP1 POP PUSH1 0x1 DUP3 AND DUP1 PUSH2 0x20A8 JUMPI PUSH1 0x7F DUP3 AND SWAP2 POP JUMPDEST PUSH1 0x20 DUP3 LT DUP2 SUB PUSH2 0x20BB JUMPI PUSH2 0x20BA PUSH2 0x2064 JUMP JUMPDEST JUMPDEST POP SWAP2 SWAP1 POP JUMP JUMPDEST PUSH32 0x4E487B7100000000000000000000000000000000000000000000000000000000 PUSH0 MSTORE PUSH1 0x11 PUSH1 0x4 MSTORE PUSH1 0x24 PUSH0 REVERT JUMPDEST PUSH0 PUSH2 0x20F8 DUP3 PUSH2 0x1A5E JUMP JUMPDEST SWAP2 POP PUSH2 0x2103 DUP4 PUSH2 0x1A5E JUMP JUMPDEST SWAP3 POP DUP3 DUP3 ADD SWAP1 POP DUP1 DUP3 GT ISZERO PUSH2 0x211B JUMPI PUSH2 0x211A PUSH2 0x20C1 JUMP JUMPDEST JUMPDEST SWAP3 SWAP2 POP POP JUMP JUMPDEST PUSH32 0x4C656E64696E6720746F6F20736F6F6E00000000000000000000000000000000 PUSH0 DUP3 ADD MSTORE POP JUMP JUMPDEST PUSH0 PUSH2 0x2155 PUSH1 0x10 DUP4 PUSH2 0x1F5E JUMP JUMPDEST SWAP2 POP PUSH2 0x2160 DUP3 PUSH2 0x2121 JUMP JUMPDEST PUSH1 0x20 DUP3 ADD SWAP1 POP SWAP2 SWAP1 POP JUMP JUMPDEST PUSH0 PUSH1 0x20 DUP3 ADD SWAP1 POP DUP2 DUP2 SUB PUSH0 DUP4 ADD MSTORE PUSH2 0x2182 DUP2 PUSH2 0x2149 JUMP JUMPDEST SWAP1 POP SWAP2 SWAP1 POP JUMP JUMPDEST PUSH32 0x4E6F7420656E6F7567682066756E647320746F206C656E640000000000000000 PUSH0 DUP3 ADD MSTORE POP JUMP JUMPDEST PUSH0 PUSH2 0x21BD PUSH1 0x18 DUP4 PUSH2 0x1F5E JUMP JUMPDEST SWAP2 POP PUSH2 0x21C8 DUP3 PUSH2 0x2189 JUMP JUMPDEST PUSH1 0x20 DUP3 ADD SWAP1 POP SWAP2 SWAP1 POP JUMP JUMPDEST PUSH0 PUSH1 0x20 DUP3 ADD SWAP1 POP DUP2 DUP2 SUB PUSH0 DUP4 ADD MSTORE PUSH2 0x21EA DUP2 PUSH2 0x21B1 JUMP JUMPDEST SWAP1 POP SWAP2 SWAP1 POP JUMP JUMPDEST PUSH0 PUSH1 0x20 DUP3 ADD SWAP1 POP PUSH2 0x2204 PUSH0 DUP4 ADD DUP5 PUSH2 0x1A67 JUMP JUMPDEST SWAP3 SWAP2 POP POP JUMP JUMPDEST PUSH32 0x4F6E6C792072656769737465726564206D65726368616E74732063616E206361 PUSH0 DUP3 ADD MSTORE PUSH32 0x6C6C207468697300000000000000000000000000000000000000000000000000 PUSH1 0x20 DUP3 ADD MSTORE POP JUMP JUMPDEST PUSH0 PUSH2 0x2264 PUSH1 0x27 DUP4 PUSH2 0x1F5E JUMP JUMPDEST SWAP2 POP PUSH2 0x226F DUP3 PUSH2 0x220A JUMP JUMPDEST PUSH1 0x40 DUP3 ADD SWAP1 POP SWAP2 SWAP1 POP JUMP JUMPDEST PUSH0 PUSH1 0x20 DUP3 ADD SWAP1 POP DUP2 DUP2 SUB PUSH0 DUP4 ADD MSTORE PUSH2 0x2291 DUP2 PUSH2 0x2258 JUMP JUMPDEST SWAP1 POP SWAP2 SWAP1 POP JUMP JUMPDEST PUSH32 0x416D6F756E7420746F6F20736D616C6C20746F20726574726965766500000000 PUSH0 DUP3 ADD MSTORE POP JUMP JUMPDEST PUSH0 PUSH2 0x22CC PUSH1 0x1C DUP4 PUSH2 0x1F5E JUMP JUMPDEST SWAP2 POP PUSH2 0x22D7 DUP3 PUSH2 0x2298 JUMP JUMPDEST PUSH1 0x20 DUP3 ADD SWAP1 POP SWAP2 SWAP1 POP JUMP JUMPDEST PUSH0 PUSH1 0x20 DUP3 ADD SWAP1 POP DUP2 DUP2 SUB PUSH0 DUP4 ADD MSTORE PUSH2 0x22F9 DUP2 PUSH2 0x22C0 JUMP JUMPDEST SWAP1 POP SWAP2 SWAP1 POP JUMP JUMPDEST PUSH32 0x496E73756666696369656E742066756E647320696E206D65726368616E742773 PUSH0 DUP3 ADD MSTORE PUSH32 0x2062616C616E6365000000000000000000000000000000000000000000000000 PUSH1 0x20 DUP3 ADD MSTORE POP JUMP JUMPDEST PUSH0 PUSH2 0x235A PUSH1 0x28 DUP4 PUSH2 0x1F5E JUMP JUMPDEST SWAP2 POP PUSH2 0x2365 DUP3 PUSH2 0x2300 JUMP JUMPDEST PUSH1 0x40 DUP3 ADD SWAP1 POP SWAP2 SWAP1 POP JUMP JUMPDEST PUSH0 PUSH1 0x20 DUP3 ADD SWAP1 POP DUP2 DUP2 SUB PUSH0 DUP4 ADD MSTORE PUSH2 0x2387 DUP2 PUSH2 0x234E JUMP JUMPDEST SWAP1 POP SWAP2 SWAP1 POP JUMP JUMPDEST PUSH32 0x496E76616C696420637573746F6D657220616464726573730000000000000000 PUSH0 DUP3 ADD MSTORE POP JUMP JUMPDEST PUSH0 PUSH2 0x23C2 PUSH1 0x18 DUP4 PUSH2 0x1F5E JUMP JUMPDEST SWAP2 POP PUSH2 0x23CD DUP3 PUSH2 0x238E JUMP JUMPDEST PUSH1 0x20 DUP3 ADD SWAP1 POP SWAP2 SWAP1 POP JUMP JUMPDEST PUSH0 PUSH1 0x20 DUP3 ADD SWAP1 POP DUP2 DUP2 SUB PUSH0 DUP4 ADD MSTORE PUSH2 0x23EF DUP2 PUSH2 0x23B6 JUMP JUMPDEST SWAP1 POP SWAP2 SWAP1 POP JUMP JUMPDEST PUSH0 PUSH2 0x2400 DUP3 PUSH2 0x1A5E JUMP JUMPDEST SWAP2 POP PUSH2 0x240B DUP4 PUSH2 0x1A5E JUMP JUMPDEST SWAP3 POP DUP3 DUP3 SUB SWAP1 POP DUP2 DUP2 GT ISZERO PUSH2 0x2423 JUMPI PUSH2 0x2422 PUSH2 0x20C1 JUMP JUMPDEST JUMPDEST SWAP3 SWAP2 POP POP JUMP JUMPDEST PUSH0 DUP2 SWAP1 POP SWAP3 SWAP2 POP POP JUMP JUMPDEST POP JUMP JUMPDEST PUSH0 PUSH2 0x2441 PUSH0 DUP4 PUSH2 0x2429 JUMP JUMPDEST SWAP2 POP PUSH2 0x244C DUP3 PUSH2 0x2433 JUMP JUMPDEST PUSH0 DUP3 ADD SWAP1 POP SWAP2 SWAP1 POP JUMP JUMPDEST PUSH0 PUSH2 0x2460 DUP3 PUSH2 0x2436 JUMP JUMPDEST SWAP2 POP DUP2 SWAP1 POP SWAP2 SWAP1 POP JUMP JUMPDEST PUSH32 0x526566756E64206661696C656400000000000000000000000000000000000000 PUSH0 DUP3 ADD MSTORE POP JUMP JUMPDEST PUSH0 PUSH2 0x249E PUSH1 0xD DUP4 PUSH2 0x1F5E JUMP JUMPDEST SWAP2 POP PUSH2 0x24A9 DUP3 PUSH2 0x246A JUMP JUMPDEST PUSH1 0x20 DUP3 ADD SWAP1 POP SWAP2 SWAP1 POP JUMP JUMPDEST PUSH0 PUSH1 0x20 DUP3 ADD SWAP1 POP DUP2 DUP2 SUB PUSH0 DUP4 ADD MSTORE PUSH2 0x24CB DUP2 PUSH2 0x2492 JUMP JUMPDEST SWAP1 POP SWAP2 SWAP1 POP JUMP JUMPDEST PUSH32 0x4D65726368616E74206E6F742072656769737465726564000000000000000000 PUSH0 DUP3 ADD MSTORE POP JUMP JUMPDEST PUSH0 PUSH2 0x2506 PUSH1 0x17 DUP4 PUSH2 0x1F5E JUMP JUMPDEST SWAP2 POP PUSH2 0x2511 DUP3 PUSH2 0x24D2 JUMP JUMPDEST PUSH1 0x20 DUP3 ADD SWAP1 POP SWAP2 SWAP1 POP JUMP JUMPDEST PUSH0 PUSH1 0x20 DUP3 ADD SWAP1 POP DUP2 DUP2 SUB PUSH0 DUP4 ADD MSTORE PUSH2 0x2533 DUP2 PUSH2 0x24FA JUMP JUMPDEST SWAP1 POP SWAP2 SWAP1 POP JUMP JUMPDEST PUSH32 0x5061796D656E7420616D6F756E74206D75737420626520677265617465722074 PUSH0 DUP3 ADD MSTORE PUSH32 0x68616E207A65726F000000000000000000000000000000000000000000000000 PUSH1 0x20 DUP3 ADD MSTORE POP JUMP JUMPDEST PUSH0 PUSH2 0x2594 PUSH1 0x28 DUP4 PUSH2 0x1F5E JUMP JUMPDEST SWAP2 POP PUSH2 0x259F DUP3 PUSH2 0x253A JUMP JUMPDEST PUSH1 0x40 DUP3 ADD SWAP1 POP SWAP2 SWAP1 POP JUMP JUMPDEST PUSH0 PUSH1 0x20 DUP3 ADD SWAP1 POP DUP2 DUP2 SUB PUSH0 DUP4 ADD MSTORE PUSH2 0x25C1 DUP2 PUSH2 0x2588 JUMP JUMPDEST SWAP1 POP SWAP2 SWAP1 POP JUMP JUMPDEST PUSH32 0x52657472696576696E6720746F6F20736F6F6E00000000000000000000000000 PUSH0 DUP3 ADD MSTORE POP JUMP JUMPDEST PUSH0 PUSH2 0x25FC PUSH1 0x13 DUP4 PUSH2 0x1F5E JUMP JUMPDEST SWAP2 POP PUSH2 0x2607 DUP3 PUSH2 0x25C8 JUMP JUMPDEST PUSH1 0x20 DUP3 ADD SWAP1 POP SWAP2 SWAP1 POP JUMP JUMPDEST PUSH0 PUSH1 0x20 DUP3 ADD SWAP1 POP DUP2 DUP2 SUB PUSH0 DUP4 ADD MSTORE PUSH2 0x2629 DUP2 PUSH2 0x25F0 JUMP JUMPDEST SWAP1 POP SWAP2 SWAP1 POP JUMP JUMPDEST PUSH32 0x46756E64732072657472696576616C206661696C656400000000000000000000 PUSH0 DUP3 ADD MSTORE POP JUMP JUMPDEST PUSH0 PUSH2 0x2664 PUSH1 0x16 DUP4 PUSH2 0x1F5E JUMP JUMPDEST SWAP2 POP PUSH2 0x266F DUP3 PUSH2 0x2630 JUMP JUMPDEST PUSH1 0x20 DUP3 ADD SWAP1 POP SWAP2 SWAP1 POP JUMP JUMPDEST PUSH0 PUSH1 0x20 DUP3 ADD SWAP1 POP DUP2 DUP2 SUB PUSH0 DUP4 ADD MSTORE PUSH2 0x2691 DUP2 PUSH2 0x2658 JUMP JUMPDEST SWAP1 POP SWAP2 SWAP1 POP JUMP JUMPDEST PUSH32 0x4D65726368616E7420616C726561647920726567697374657265640000000000 PUSH0 DUP3 ADD MSTORE POP JUMP JUMPDEST PUSH0 PUSH2 0x26CC PUSH1 0x1B DUP4 PUSH2 0x1F5E JUMP JUMPDEST SWAP2 POP PUSH2 0x26D7 DUP3 PUSH2 0x2698 JUMP JUMPDEST PUSH1 0x20 DUP3 ADD SWAP1 POP SWAP2 SWAP1 POP JUMP JUMPDEST PUSH0 PUSH1 0x20 DUP3 ADD SWAP1 POP DUP2 DUP2 SUB PUSH0 DUP4 ADD MSTORE PUSH2 0x26F9 DUP2 PUSH2 0x26C0 JUMP JUMPDEST SWAP1 POP SWAP2 SWAP1 POP JUMP JUMPDEST PUSH0 DUP2 SWAP1 POP DUP2 PUSH0 MSTORE PUSH1 0x20 PUSH0 KECCAK256 SWAP1 POP SWAP2 SWAP1 POP JUMP JUMPDEST PUSH0 PUSH1 0x20 PUSH1 0x1F DUP4 ADD DIV SWAP1 POP SWAP2 SWAP1 POP JUMP JUMPDEST PUSH0 DUP3 DUP3 SHL SWAP1 POP SWAP3 SWAP2 POP POP JUMP JUMPDEST PUSH0 PUSH1 0x8 DUP4 MUL PUSH2 0x275C PUSH32 0xFFFFFFFFFFFFFFFFFFFFFFFFFFFFFFFFFFFFFFFFFFFFFFFFFFFFFFFFFFFFFFFF DUP3 PUSH2 0x2721 JUMP JUMPDEST PUSH2 0x2766 DUP7 DUP4 PUSH2 0x2721 JUMP JUMPDEST SWAP6 POP DUP1 NOT DUP5 AND SWAP4 POP DUP1 DUP7 AND DUP5 OR SWAP3 POP POP POP SWAP4 SWAP3 POP POP POP JUMP JUMPDEST PUSH0 PUSH2 0x2798 PUSH2 0x2793 PUSH2 0x278E DUP5 PUSH2 0x1A5E JUMP JUMPDEST PUSH2 0x1CF6 JUMP JUMPDEST PUSH2 0x1A5E JUMP JUMPDEST SWAP1 POP SWAP2 SWAP1 POP JUMP JUMPDEST PUSH0 DUP2 SWAP1 POP SWAP2 SWAP1 POP JUMP JUMPDEST PUSH2 0x27B1 DUP4 PUSH2 0x277E JUMP JUMPDEST PUSH2 0x27C5 PUSH2 0x27BD DUP3 PUSH2 0x279F JUMP JUMPDEST DUP5 DUP5 SLOAD PUSH2 0x272D JUMP JUMPDEST DUP3 SSTORE POP POP POP POP JUMP JUMPDEST PUSH0 PUSH0 SWAP1 POP SWAP1 JUMP JUMPDEST PUSH2 0x27DC PUSH2 0x27CD JUMP JUMPDEST PUSH2 0x27E7 DUP2 DUP5 DUP5 PUSH2 0x27A8 JUMP JUMPDEST POP POP POP JUMP JUMPDEST JUMPDEST DUP2 DUP2 LT ISZERO PUSH2 0x280A JUMPI PUSH2 0x27FF PUSH0 DUP3 PUSH2 0x27D4 JUMP JUMPDEST PUSH1 0x1 DUP2 ADD SWAP1 POP PUSH2 0x27ED JUMP JUMPDEST POP POP JUMP JUMPDEST PUSH1 0x1F DUP3 GT ISZERO PUSH2 0x284F JUMPI PUSH2 0x2820 DUP2 PUSH2 0x2700 JUMP JUMPDEST PUSH2 0x2829 DUP5 PUSH2 0x2712 JUMP JUMPDEST DUP2 ADD PUSH1 0x20 DUP6 LT ISZERO PUSH2 0x2838 JUMPI DUP2 SWAP1 POP JUMPDEST PUSH2 0x284C PUSH2 0x2844 DUP6 PUSH2 0x2712 JUMP JUMPDEST DUP4 ADD DUP3 PUSH2 0x27EC JUMP JUMPDEST POP POP JUMPDEST POP POP POP JUMP JUMPDEST PUSH0 DUP3 DUP3 SHR SWAP1 POP SWAP3 SWAP2 POP POP JUMP JUMPDEST PUSH0 PUSH2 0x286F PUSH0 NOT DUP5 PUSH1 0x8 MUL PUSH2 0x2854 JUMP JUMPDEST NOT DUP1 DUP4 AND SWAP2 POP POP SWAP3 SWAP2 POP POP JUMP JUMPDEST PUSH0 PUSH2 0x2887 DUP4 DUP4 PUSH2 0x2860 JUMP JUMPDEST SWAP2 POP DUP3 PUSH1 0x2 MUL DUP3 OR SWAP1 POP SWAP3 SWAP2 POP POP JUMP JUMPDEST PUSH2 0x28A0 DUP3 PUSH2 0x1B51 JUMP JUMPDEST PUSH8 0xFFFFFFFFFFFFFFFF DUP2 GT ISZERO PUSH2 0x28B9 JUMPI PUSH2 0x28B8 PUSH2 0x1DE0 JUMP JUMPDEST JUMPDEST PUSH2 0x28C3 DUP3 SLOAD PUSH2 0x2091 JUMP JUMPDEST PUSH2 0x28CE DUP3 DUP3 DUP6 PUSH2 0x280E JUMP JUMPDEST PUSH0 PUSH1 0x20 SWAP1 POP PUSH1 0x1F DUP4 GT PUSH1 0x1 DUP2 EQ PUSH2 0x28FF JUMPI PUSH0 DUP5 ISZERO PUSH2 0x28ED JUMPI DUP3 DUP8 ADD MLOAD SWAP1 POP JUMPDEST PUSH2 0x28F7 DUP6 DUP3 PUSH2 0x287C JUMP JUMPDEST DUP7 SSTORE POP PUSH2 0x295E JUMP JUMPDEST PUSH1 0x1F NOT DUP5 AND PUSH2 0x290D DUP7 PUSH2 0x2700 JUMP JUMPDEST PUSH0 JUMPDEST DUP3 DUP2 LT ISZERO PUSH2 0x2934 JUMPI DUP5 DUP10 ADD MLOAD DUP3 SSTORE PUSH1 0x1 DUP3 ADD SWAP2 POP PUSH1 0x20 DUP6 ADD SWAP5 POP PUSH1 0x20 DUP2 ADD SWAP1 POP PUSH2 0x290F JUMP JUMPDEST DUP7 DUP4 LT ISZERO PUSH2 0x2951 JUMPI DUP5 DUP10 ADD MLOAD PUSH2 0x294D PUSH1 0x1F DUP10 AND DUP3 PUSH2 0x2860 JUMP JUMPDEST DUP4 SSTORE POP JUMPDEST PUSH1 0x1 PUSH1 0x2 DUP9 MUL ADD DUP9 SSTORE POP POP POP JUMPDEST POP POP POP POP POP POP JUMP JUMPDEST PUSH32 0x496E73756666696369656E742062616C616E6365000000000000000000000000 PUSH0 DUP3 ADD MSTORE POP JUMP JUMPDEST PUSH0 PUSH2 0x299A PUSH1 0x14 DUP4 PUSH2 0x1F5E JUMP JUMPDEST SWAP2 POP PUSH2 0x29A5 DUP3 PUSH2 0x2966 JUMP JUMPDEST PUSH1 0x20 DUP3 ADD SWAP1 POP SWAP2 SWAP1 POP JUMP JUMPDEST PUSH0 PUSH1 0x20 DUP3 ADD SWAP1 POP DUP2 DUP2 SUB PUSH0 DUP4 ADD MSTORE PUSH2 0x29C7 DUP2 PUSH2 0x298E JUMP JUMPDEST SWAP1 POP SWAP2 SWAP1 POP JUMP JUMPDEST PUSH32 0x4E6F7420656E6F756768206C697175696469747920617661696C61626C652C20 PUSH0 DUP3 ADD MSTORE PUSH32 0x72657472696576652066756E6473206669727374000000000000000000000000 PUSH1 0x20 DUP3 ADD MSTORE POP JUMP JUMPDEST PUSH0 PUSH2 0x2A28 PUSH1 0x34 DUP4 PUSH2 0x1F5E JUMP JUMPDEST SWAP2 POP PUSH2 0x2A33 DUP3 PUSH2 0x29CE JUMP JUMPDEST PUSH1 0x40 DUP3 ADD SWAP1 POP SWAP2 SWAP1 POP JUMP JUMPDEST PUSH0 PUSH1 0x20 DUP3 ADD SWAP1 POP DUP2 DUP2 SUB PUSH0 DUP4 ADD MSTORE PUSH2 0x2A55 DUP2 PUSH2 0x2A1C JUMP JUMPDEST SWAP1 POP SWAP2 SWAP1 POP JUMP JUMPDEST PUSH32 0x4E6F2066756E647320617661696C61626C650000000000000000000000000000 PUSH0 DUP3 ADD MSTORE POP JUMP JUMPDEST PUSH0 PUSH2 0x2A90 PUSH1 0x12 DUP4 PUSH2 0x1F5E JUMP JUMPDEST SWAP2 POP PUSH2 0x2A9B DUP3 PUSH2 0x2A5C JUMP JUMPDEST PUSH1 0x20 DUP3 ADD SWAP1 POP SWAP2 SWAP1 POP JUMP JUMPDEST PUSH0 PUSH1 0x20 DUP3 ADD SWAP1 POP DUP2 DUP2 SUB PUSH0 DUP4 ADD MSTORE PUSH2 0x2ABD DUP2 PUSH2 0x2A84 JUMP JUMPDEST SWAP1 POP SWAP2 SWAP1 POP JUMP JUMPDEST PUSH32 0x456D657267656E6379207769746864726177616C206661696C65640000000000 PUSH0 DUP3 ADD MSTORE POP JUMP JUMPDEST PUSH0 PUSH2 0x2AF8 PUSH1 0x1B DUP4 PUSH2 0x1F5E JUMP JUMPDEST SWAP2 POP PUSH2 0x2B03 DUP3 PUSH2 0x2AC4 JUMP JUMPDEST PUSH1 0x20 DUP3 ADD SWAP1 POP SWAP2 SWAP1 POP JUMP JUMPDEST PUSH0 PUSH1 0x20 DUP3 ADD SWAP1 POP DUP2 DUP2 SUB PUSH0 DUP4 ADD MSTORE PUSH2 0x2B25 DUP2 PUSH2 0x2AEC JUMP JUMPDEST SWAP1 POP SWAP2 SWAP1 POP JUMP JUMPDEST PUSH0 DUP2 MLOAD SWAP1 POP PUSH2 0x2B3A DUP2 PUSH2 0x1AED JUMP JUMPDEST SWAP3 SWAP2 POP POP JUMP JUMPDEST PUSH0 PUSH1 0x20 DUP3 DUP5 SUB SLT ISZERO PUSH2 0x2B55 JUMPI PUSH2 0x2B54 PUSH2 0x1AE5 JUMP JUMPDEST JUMPDEST PUSH0 PUSH2 0x2B62 DUP5 DUP3 DUP6 ADD PUSH2 0x2B2C JUMP JUMPDEST SWAP2 POP POP SWAP3 SWAP2 POP POP JUMP JUMPDEST PUSH32 0x4E6F20696E74657265737420617661696C61626C650000000000000000000000 PUSH0 DUP3 ADD MSTORE POP JUMP JUMPDEST PUSH0 PUSH2 0x2B9F PUSH1 0x15 DUP4 PUSH2 0x1F5E JUMP JUMPDEST SWAP2 POP PUSH2 0x2BAA DUP3 PUSH2 0x2B6B JUMP JUMPDEST PUSH1 0x20 DUP3 ADD SWAP1 POP SWAP2 SWAP1 POP JUMP JUMPDEST PUSH0 PUSH1 0x20 DUP3 ADD SWAP1 POP DUP2 DUP2 SUB PUSH0 DUP4 ADD MSTORE PUSH2 0x2BCC DUP2 PUSH2 0x2B93 JUMP JUMPDEST SWAP1 POP SWAP2 SWAP1 POP JUMP INVALID LOG2 PUSH5 0x6970667358 0x22 SLT KECCAK256 0xEA SWAP15 DUP4 0xDA PUSH19 0x8FE059EFCAB2B8B7B77B3D7720F354E658A1C3 0xD4 0xBA PUSH27 0xF4D3A318EA64736F6C634300081C00330000000000000000000000 "
				},
				"gasEstimates": {
					"creation": {
						"codeDepositCost": "2254600",
						"executionCost": "infinite",
						"totalCost": "infinite"
					},
					"external": {
						"": "174",
						"aaveLendingProcessor()": "infinite",
						"collectAaveInterest()": "infinite",
						"emergencyWithdraw()": "infinite",
						"getMerchantById(uint256)": "infinite",
						"issueRefund(address,uint256)": "infinite",
						"lendFundsBatch()": "infinite",
						"owner()": "2530",
						"processPayment(address)": "infinite",
						"registerMerchant(string,address)": "infinite",
						"requestRetrieveFunds(uint256)": "infinite",
						"retrieveLentFundsBatch(uint256)": "infinite",
						"setLendingThreshold(uint256)": "24751",
						"setRetrieveThreshold(uint256)": "24750",
						"withdrawFunds(address,uint256)": "infinite"
					}
				},
				"methodIdentifiers": {
					"aaveLendingProcessor()": "7ee0456f",
					"collectAaveInterest()": "f0ab8fe2",
					"emergencyWithdraw()": "db2e21bc",
					"getMerchantById(uint256)": "1d210cd2",
					"issueRefund(address,uint256)": "738005aa",
					"lendFundsBatch()": "3b071872",
					"owner()": "8da5cb5b",
					"processPayment(address)": "8fe123d7",
					"registerMerchant(string,address)": "abe0cd0c",
					"requestRetrieveFunds(uint256)": "668e8024",
					"retrieveLentFundsBatch(uint256)": "9e625183",
					"setLendingThreshold(uint256)": "5641df95",
					"setRetrieveThreshold(uint256)": "7ae1009c",
					"withdrawFunds(address,uint256)": "c1075329"
				}
			},
			"storageLayout": {
				"storage": [
					{
						"astId": 250,
						"contract": "Contracts/PaymentProcessingDemo.sol:PaymentProcessor",
						"label": "owner",
						"offset": 0,
						"slot": "0",
						"type": "t_address"
					},
					{
						"astId": 255,
						"contract": "Contracts/PaymentProcessingDemo.sol:PaymentProcessor",
						"label": "lastLendTimestamp",
						"offset": 0,
						"slot": "1",
						"type": "t_uint256"
					},
					{
						"astId": 257,
						"contract": "Contracts/PaymentProcessingDemo.sol:PaymentProcessor",
						"label": "lastRetrieveTimestamp",
						"offset": 0,
						"slot": "2",
						"type": "t_uint256"
					},
					{
						"astId": 260,
						"contract": "Contracts/PaymentProcessingDemo.sol:PaymentProcessor",
						"label": "lendingThreshold",
						"offset": 0,
						"slot": "3",
						"type": "t_uint256"
					},
					{
						"astId": 263,
						"contract": "Contracts/PaymentProcessingDemo.sol:PaymentProcessor",
						"label": "retrieveThreshold",
						"offset": 0,
						"slot": "4",
						"type": "t_uint256"
					},
					{
						"astId": 303,
						"contract": "Contracts/PaymentProcessingDemo.sol:PaymentProcessor",
						"label": "merchants",
						"offset": 0,
						"slot": "5",
						"type": "t_mapping(t_address,t_struct(Merchant)298_storage)"
					},
					{
						"astId": 307,
						"contract": "Contracts/PaymentProcessingDemo.sol:PaymentProcessor",
						"label": "merchantIds",
						"offset": 0,
						"slot": "6",
						"type": "t_mapping(t_uint256,t_address)"
					},
					{
						"astId": 309,
						"contract": "Contracts/PaymentProcessingDemo.sol:PaymentProcessor",
						"label": "nextMerchantId",
						"offset": 0,
						"slot": "7",
						"type": "t_uint256"
					}
				],
				"types": {
					"t_address": {
						"encoding": "inplace",
						"label": "address",
						"numberOfBytes": "20"
					},
					"t_bool": {
						"encoding": "inplace",
						"label": "bool",
						"numberOfBytes": "1"
					},
					"t_mapping(t_address,t_struct(Merchant)298_storage)": {
						"encoding": "mapping",
						"key": "t_address",
						"label": "mapping(address => struct PaymentProcessor.Merchant)",
						"numberOfBytes": "32",
						"value": "t_struct(Merchant)298_storage"
					},
					"t_mapping(t_uint256,t_address)": {
						"encoding": "mapping",
						"key": "t_uint256",
						"label": "mapping(uint256 => address)",
						"numberOfBytes": "32",
						"value": "t_address"
					},
					"t_string_storage": {
						"encoding": "bytes",
						"label": "string",
						"numberOfBytes": "32"
					},
					"t_struct(Merchant)298_storage": {
						"encoding": "inplace",
						"label": "struct PaymentProcessor.Merchant",
						"members": [
							{
								"astId": 289,
								"contract": "Contracts/PaymentProcessingDemo.sol:PaymentProcessor",
								"label": "merchantId",
								"offset": 0,
								"slot": "0",
								"type": "t_uint256"
							},
							{
								"astId": 291,
								"contract": "Contracts/PaymentProcessingDemo.sol:PaymentProcessor",
								"label": "merchantName",
								"offset": 0,
								"slot": "1",
								"type": "t_string_storage"
							},
							{
								"astId": 293,
								"contract": "Contracts/PaymentProcessingDemo.sol:PaymentProcessor",
								"label": "custodialWallet",
								"offset": 0,
								"slot": "2",
								"type": "t_address"
							},
							{
								"astId": 295,
								"contract": "Contracts/PaymentProcessingDemo.sol:PaymentProcessor",
								"label": "balance",
								"offset": 0,
								"slot": "3",
								"type": "t_uint256"
							},
							{
								"astId": 297,
								"contract": "Contracts/PaymentProcessingDemo.sol:PaymentProcessor",
								"label": "isRegistered",
								"offset": 0,
								"slot": "4",
								"type": "t_bool"
							}
						],
						"numberOfBytes": "160"
					},
					"t_uint256": {
						"encoding": "inplace",
						"label": "uint256",
						"numberOfBytes": "32"
					}
				}
			},
			"userdoc": {
				"kind": "user",
				"methods": {},
				"version": 1
			}
		}
	}
}