{
	"data": {
		"bytecode": {
			"linkReferences": {},
			"object": "60a0604052670de0b6b3a7640000600355670de0b6b3a7640000600455348015610027575f5ffd5b50604051612e7c380380612e7c83398181016040528101906100499190610128565b335f5f6101000a81548173ffffffffffffffffffffffffffffffffffffffff021916908373ffffffffffffffffffffffffffffffffffffffff16021790555060016007819055508073ffffffffffffffffffffffffffffffffffffffff1660808173ffffffffffffffffffffffffffffffffffffffff168152505050610153565b5f5ffd5b5f73ffffffffffffffffffffffffffffffffffffffff82169050919050565b5f6100f7826100ce565b9050919050565b610107816100ed565b8114610111575f5ffd5b50565b5f81519050610122816100fe565b92915050565b5f6020828403121561013d5761013c6100ca565b5b5f61014a84828501610114565b91505092915050565b608051612cf56101875f395f81816107ea01528181610a1101528181610eb5015281816111b20152611a350152612cf55ff3fe60806040526004361061010c575f3560e01c80638da5cb5b11610094578063c107532911610063578063c107532914610353578063db2e21bc1461037b578063dc2ceb6914610391578063e9c9d887146103bb578063f0ab8fe2146103e55761014b565b80638da5cb5b146102bd5780638fe123d7146102e75780639e62518314610303578063abe0cd0c1461032b5761014b565b80635641df95116100db5780635641df95146101f3578063668e80241461021b578063738005aa146102435780637ae1009c1461026b5780637ee0456f146102935761014b565b8063026a52751461014d5780631d210cd2146101775780631f11d292146101b35780633b071872146101dd5761014b565b3661014b577fa0b6ed69c727bcce4cfdf30bc2777d7b7007d936b4a4dea135cbf6622fe4a58c3433604051610142929190611ba1565b60405180910390a15b005b348015610158575f5ffd5b506101616103fb565b60405161016e9190611bc8565b60405180910390f35b348015610182575f5ffd5b5061019d60048036038101906101989190611c1c565b610401565b6040516101aa9190611d62565b60405180910390f35b3480156101be575f5ffd5b506101c76106b9565b6040516101d49190611bc8565b60405180910390f35b3480156101e8575f5ffd5b506101f16106bf565b005b3480156101fe575f5ffd5b5061021960048036038101906102149190611c1c565b6108a6565b005b348015610226575f5ffd5b50610241600480360381019061023c9190611c1c565b61093e565b005b34801561024e575f5ffd5b5061026960048036038101906102649190611dbd565b610ad1565b005b348015610276575f5ffd5b50610291600480360381019061028c9190611c1c565b610e1b565b005b34801561029e575f5ffd5b506102a7610eb3565b6040516102b49190611e56565b60405180910390f35b3480156102c8575f5ffd5b506102d1610ed7565b6040516102de9190611e6f565b60405180910390f35b61030160048036038101906102fc9190611eb2565b610efb565b005b34801561030e575f5ffd5b5061032960048036038101906103249190611c1c565b611087565b005b348015610336575f5ffd5b50610351600480360381019061034c9190612009565b6112c1565b005b34801561035e575f5ffd5b5061037960048036038101906103749190611dbd565b6115a3565b005b348015610386575f5ffd5b5061038f6117f8565b005b34801561039c575f5ffd5b506103a5611998565b6040516103b29190611bc8565b60405180910390f35b3480156103c6575f5ffd5b506103cf61199e565b6040516103dc9190611bc8565b60405180910390f35b3480156103f0575f5ffd5b506103f96119a4565b005b60045481565b610409611b07565b5f5f9054906101000a900473ffffffffffffffffffffffffffffffffffffffff1673ffffffffffffffffffffffffffffffffffffffff163373ffffffffffffffffffffffffffffffffffffffff1614610497576040517f08c379a000000000000000000000000000000000000000000000000000000000815260040161048e906120e3565b60405180910390fd5b5f60065f8481526020019081526020015f205f9054906101000a900473ffffffffffffffffffffffffffffffffffffffff16905060055f8273ffffffffffffffffffffffffffffffffffffffff1673ffffffffffffffffffffffffffffffffffffffff1681526020019081526020015f206004015f9054906101000a900460ff16610557576040517f08c379a000000000000000000000000000000000000000000000000000000000815260040161054e9061214b565b60405180910390fd5b60055f8273ffffffffffffffffffffffffffffffffffffffff1673ffffffffffffffffffffffffffffffffffffffff1681526020019081526020015f206040518060a00160405290815f82015481526020016001820180546105b890612196565b80601f01602080910402602001604051908101604052809291908181526020018280546105e490612196565b801561062f5780601f106106065761010080835404028352916020019161062f565b820191905f5260205f20905b81548152906001019060200180831161061257829003601f168201915b50505050508152602001600282015f9054906101000a900473ffffffffffffffffffffffffffffffffffffffff1673ffffffffffffffffffffffffffffffffffffffff1673ffffffffffffffffffffffffffffffffffffffff16815260200160038201548152602001600482015f9054906101000a900460ff161515151581525050915050919050565b60015481565b5f5f9054906101000a900473ffffffffffffffffffffffffffffffffffffffff1673ffffffffffffffffffffffffffffffffffffffff163373ffffffffffffffffffffffffffffffffffffffff161461074d576040517f08c379a0000000000000000000000000000000000000000000000000000000008152600401610744906120e3565b60405180910390fd5b610e1060015461075d91906121f3565b42101561079f576040517f08c379a000000000000000000000000000000000000000000000000000000000815260040161079690612270565b60405180910390fd5b6003544710156107e4576040517f08c379a00000000000000000000000000000000000000000000000000000000081526004016107db906122d8565b60405180910390fd5b5f4790507f000000000000000000000000000000000000000000000000000000000000000073ffffffffffffffffffffffffffffffffffffffff16631a878577826040518263ffffffff1660e01b81526004015f604051808303818588803b15801561084e575f5ffd5b505af1158015610860573d5f5f3e3d5ffd5b5050505050426001819055507fe95dff13cfeb27c914a4d03686b999a715a3270f0b70753cfb95a0ea7fa3219c8160405161089b9190611bc8565b60405180910390a150565b5f5f9054906101000a900473ffffffffffffffffffffffffffffffffffffffff1673ffffffffffffffffffffffffffffffffffffffff163373ffffffffffffffffffffffffffffffffffffffff1614610934576040517f08c379a000000000000000000000000000000000000000000000000000000000815260040161092b906120e3565b60405180910390fd5b8060038190555050565b60055f3373ffffffffffffffffffffffffffffffffffffffff1673ffffffffffffffffffffffffffffffffffffffff1681526020019081526020015f206004015f9054906101000a900460ff166109ca576040517f08c379a00000000000000000000000000000000000000000000000000000000081526004016109c190612366565b60405180910390fd5b600454811015610a0f576040517f08c379a0000000000000000000000000000000000000000000000000000000008152600401610a06906123ce565b60405180910390fd5b7f000000000000000000000000000000000000000000000000000000000000000073ffffffffffffffffffffffffffffffffffffffff1663da75793a82306040518363ffffffff1660e01b8152600401610a6a929190611ba1565b5f604051808303815f87803b158015610a81575f5ffd5b505af1158015610a93573d5f5f3e3d5ffd5b505050507fd93b4b006708e5478cee61ef37aa4eb01c50f3943f00b0437cc172c33d0e93a281604051610ac69190611bc8565b60405180910390a150565b60055f3373ffffffffffffffffffffffffffffffffffffffff1673ffffffffffffffffffffffffffffffffffffffff1681526020019081526020015f206004015f9054906101000a900460ff16610b5d576040517f08c379a0000000000000000000000000000000000000000000000000000000008152600401610b5490612366565b60405180910390fd5b8060055f3373ffffffffffffffffffffffffffffffffffffffff1673ffffffffffffffffffffffffffffffffffffffff1681526020019081526020015f20600301541015610be0576040517f08c379a0000000000000000000000000000000000000000000000000000000008152600401610bd79061245c565b60405180910390fd5b5f73ffffffffffffffffffffffffffffffffffffffff168273ffffffffffffffffffffffffffffffffffffffff1603610c4e576040517f08c379a0000000000000000000000000000000000000000000000000000000008152600401610c45906124c4565b60405180910390fd5b8060055f3373ffffffffffffffffffffffffffffffffffffffff1673ffffffffffffffffffffffffffffffffffffffff1681526020019081526020015f206003015f828254610c9d91906124e2565b925050819055505f8273ffffffffffffffffffffffffffffffffffffffff1682604051610cc990612542565b5f6040518083038185875af1925050503d805f8114610d03576040519150601f19603f3d011682016040523d82523d5f602084013e610d08565b606091505b5050905080610d4c576040517f08c379a0000000000000000000000000000000000000000000000000000000008152600401610d43906125a0565b60405180910390fd5b8273ffffffffffffffffffffffffffffffffffffffff163373ffffffffffffffffffffffffffffffffffffffff167f0538ab32a957d2b55d0ec70a4029e73fdf19f500832839b1d7bafcfbca2a563084604051610da99190611bc8565b60405180910390a38273ffffffffffffffffffffffffffffffffffffffff163373ffffffffffffffffffffffffffffffffffffffff167fe9171aeff46c37ab955b8aff908e14ae9732bd06634fa131226cfe5c25bfd2fb84604051610e0e9190611bc8565b60405180910390a3505050565b5f5f9054906101000a900473ffffffffffffffffffffffffffffffffffffffff1673ffffffffffffffffffffffffffffffffffffffff163373ffffffffffffffffffffffffffffffffffffffff1614610ea9576040517f08c379a0000000000000000000000000000000000000000000000000000000008152600401610ea0906120e3565b60405180910390fd5b8060048190555050565b7f000000000000000000000000000000000000000000000000000000000000000081565b5f5f9054906101000a900473ffffffffffffffffffffffffffffffffffffffff1681565b60055f8273ffffffffffffffffffffffffffffffffffffffff1673ffffffffffffffffffffffffffffffffffffffff1681526020019081526020015f206004015f9054906101000a900460ff16610f87576040517f08c379a0000000000000000000000000000000000000000000000000000000008152600401610f7e90612608565b60405180910390fd5b5f3411610fc9576040517f08c379a0000000000000000000000000000000000000000000000000000000008152600401610fc090612696565b60405180910390fd5b3460055f8373ffffffffffffffffffffffffffffffffffffffff1673ffffffffffffffffffffffffffffffffffffffff1681526020019081526020015f206003015f82825461101891906121f3565b925050819055503373ffffffffffffffffffffffffffffffffffffffff168173ffffffffffffffffffffffffffffffffffffffff167f0538ab32a957d2b55d0ec70a4029e73fdf19f500832839b1d7bafcfbca2a56303460405161107c9190611bc8565b60405180910390a350565b5f5f9054906101000a900473ffffffffffffffffffffffffffffffffffffffff1673ffffffffffffffffffffffffffffffffffffffff163373ffffffffffffffffffffffffffffffffffffffff1614611115576040517f08c379a000000000000000000000000000000000000000000000000000000000815260040161110c906120e3565b60405180910390fd5b610e1060025461112591906121f3565b421015611167576040517f08c379a000000000000000000000000000000000000000000000000000000000815260040161115e906126fe565b60405180910390fd5b6004548110156111ac576040517f08c379a00000000000000000000000000000000000000000000000000000000081526004016111a3906123ce565b60405180910390fd5b5f4790507f000000000000000000000000000000000000000000000000000000000000000073ffffffffffffffffffffffffffffffffffffffff1663da75793a83306040518363ffffffff1660e01b815260040161120b929190611ba1565b5f604051808303815f87803b158015611222575f5ffd5b505af1158015611234573d5f5f3e3d5ffd5b505050505f47905081811161127e576040517f08c379a000000000000000000000000000000000000000000000000000000000815260040161127590612766565b60405180910390fd5b426002819055507fd93b4b006708e5478cee61ef37aa4eb01c50f3943f00b0437cc172c33d0e93a2836040516112b49190611bc8565b60405180910390a1505050565b5f5f9054906101000a900473ffffffffffffffffffffffffffffffffffffffff1673ffffffffffffffffffffffffffffffffffffffff163373ffffffffffffffffffffffffffffffffffffffff161461134f576040517f08c379a0000000000000000000000000000000000000000000000000000000008152600401611346906120e3565b60405180910390fd5b60055f8273ffffffffffffffffffffffffffffffffffffffff1673ffffffffffffffffffffffffffffffffffffffff1681526020019081526020015f206004015f9054906101000a900460ff16156113dc576040517f08c379a00000000000000000000000000000000000000000000000000000000081526004016113d3906127ce565b60405180910390fd5b6040518060a0016040528060075481526020018381526020018273ffffffffffffffffffffffffffffffffffffffff1681526020015f81526020016001151581525060055f8373ffffffffffffffffffffffffffffffffffffffff1673ffffffffffffffffffffffffffffffffffffffff1681526020019081526020015f205f820151815f015560208201518160010190816114789190612983565b506040820151816002015f6101000a81548173ffffffffffffffffffffffffffffffffffffffff021916908373ffffffffffffffffffffffffffffffffffffffff160217905550606082015181600301556080820151816004015f6101000a81548160ff0219169083151502179055509050508060065f60075481526020019081526020015f205f6101000a81548173ffffffffffffffffffffffffffffffffffffffff021916908373ffffffffffffffffffffffffffffffffffffffff1602179055508073ffffffffffffffffffffffffffffffffffffffff167fc143c72014f0d06ea74582b0087db64eb875cf286f85f8b4b5810d8438c8b5a460075483604051611586929190611ba1565b60405180910390a260075f81548092919060010191905055505050565b60055f3373ffffffffffffffffffffffffffffffffffffffff1673ffffffffffffffffffffffffffffffffffffffff1681526020019081526020015f206004015f9054906101000a900460ff1661162f576040517f08c379a000000000000000000000000000000000000000000000000000000000815260040161162690612366565b60405180910390fd5b8060055f3373ffffffffffffffffffffffffffffffffffffffff1673ffffffffffffffffffffffffffffffffffffffff1681526020019081526020015f206003015410156116b2576040517f08c379a00000000000000000000000000000000000000000000000000000000081526004016116a990612a9c565b60405180910390fd5b804710156116f5576040517f08c379a00000000000000000000000000000000000000000000000000000000081526004016116ec90612b2a565b60405180910390fd5b8060055f3373ffffffffffffffffffffffffffffffffffffffff1673ffffffffffffffffffffffffffffffffffffffff1681526020019081526020015f206003015f82825461174491906124e2565b925050819055508173ffffffffffffffffffffffffffffffffffffffff166108fc8290811502906040515f60405180830381858888f1935050505015801561178e573d5f5f3e3d5ffd5b508173ffffffffffffffffffffffffffffffffffffffff163373ffffffffffffffffffffffffffffffffffffffff167fe9171aeff46c37ab955b8aff908e14ae9732bd06634fa131226cfe5c25bfd2fb836040516117ec9190611bc8565b60405180910390a35050565b5f5f9054906101000a900473ffffffffffffffffffffffffffffffffffffffff1673ffffffffffffffffffffffffffffffffffffffff163373ffffffffffffffffffffffffffffffffffffffff1614611886576040517f08c379a000000000000000000000000000000000000000000000000000000000815260040161187d906120e3565b60405180910390fd5b5f4790505f81116118cc576040517f08c379a00000000000000000000000000000000000000000000000000000000081526004016118c390612b92565b60405180910390fd5b5f5f5f9054906101000a900473ffffffffffffffffffffffffffffffffffffffff1673ffffffffffffffffffffffffffffffffffffffff168260405161191190612542565b5f6040518083038185875af1925050503d805f811461194b576040519150601f19603f3d011682016040523d82523d5f602084013e611950565b606091505b5050905080611994576040517f08c379a000000000000000000000000000000000000000000000000000000000815260040161198b90612bfa565b60405180910390fd5b5050565b60035481565b60025481565b5f5f9054906101000a900473ffffffffffffffffffffffffffffffffffffffff1673ffffffffffffffffffffffffffffffffffffffff163373ffffffffffffffffffffffffffffffffffffffff1614611a32576040517f08c379a0000000000000000000000000000000000000000000000000000000008152600401611a29906120e3565b60405180910390fd5b5f7f000000000000000000000000000000000000000000000000000000000000000073ffffffffffffffffffffffffffffffffffffffff16632a2fab226040518163ffffffff1660e01b8152600401602060405180830381865afa158015611a9c573d5f5f3e3d5ffd5b505050506040513d601f19601f82011682018060405250810190611ac09190612c2c565b90505f8111611b04576040517f08c379a0000000000000000000000000000000000000000000000000000000008152600401611afb90612ca1565b60405180910390fd5b50565b6040518060a001604052805f8152602001606081526020015f73ffffffffffffffffffffffffffffffffffffffff1681526020015f81526020015f151581525090565b5f819050919050565b611b5c81611b4a565b82525050565b5f73ffffffffffffffffffffffffffffffffffffffff82169050919050565b5f611b8b82611b62565b9050919050565b611b9b81611b81565b82525050565b5f604082019050611bb45f830185611b53565b611bc16020830184611b92565b9392505050565b5f602082019050611bdb5f830184611b53565b92915050565b5f604051905090565b5f5ffd5b5f5ffd5b611bfb81611b4a565b8114611c05575f5ffd5b50565b5f81359050611c1681611bf2565b92915050565b5f60208284031215611c3157611c30611bea565b5b5f611c3e84828501611c08565b91505092915050565b611c5081611b4a565b82525050565b5f81519050919050565b5f82825260208201905092915050565b8281835e5f83830152505050565b5f601f19601f8301169050919050565b5f611c9882611c56565b611ca28185611c60565b9350611cb2818560208601611c70565b611cbb81611c7e565b840191505092915050565b611ccf81611b81565b82525050565b5f8115159050919050565b611ce981611cd5565b82525050565b5f60a083015f830151611d045f860182611c47565b5060208301518482036020860152611d1c8282611c8e565b9150506040830151611d316040860182611cc6565b506060830151611d446060860182611c47565b506080830151611d576080860182611ce0565b508091505092915050565b5f6020820190508181035f830152611d7a8184611cef565b905092915050565b5f611d8c82611b62565b9050919050565b611d9c81611d82565b8114611da6575f5ffd5b50565b5f81359050611db781611d93565b92915050565b5f5f60408385031215611dd357611dd2611bea565b5b5f611de085828601611da9565b9250506020611df185828601611c08565b9150509250929050565b5f819050919050565b5f611e1e611e19611e1484611b62565b611dfb565b611b62565b9050919050565b5f611e2f82611e04565b9050919050565b5f611e4082611e25565b9050919050565b611e5081611e36565b82525050565b5f602082019050611e695f830184611e47565b92915050565b5f602082019050611e825f830184611b92565b92915050565b611e9181611b81565b8114611e9b575f5ffd5b50565b5f81359050611eac81611e88565b92915050565b5f60208284031215611ec757611ec6611bea565b5b5f611ed484828501611e9e565b91505092915050565b5f5ffd5b5f5ffd5b7f4e487b71000000000000000000000000000000000000000000000000000000005f52604160045260245ffd5b611f1b82611c7e565b810181811067ffffffffffffffff82111715611f3a57611f39611ee5565b5b80604052505050565b5f611f4c611be1565b9050611f588282611f12565b919050565b5f67ffffffffffffffff821115611f7757611f76611ee5565b5b611f8082611c7e565b9050602081019050919050565b828183375f83830152505050565b5f611fad611fa884611f5d565b611f43565b905082815260208101848484011115611fc957611fc8611ee1565b5b611fd4848285611f8d565b509392505050565b5f82601f830112611ff057611fef611edd565b5b8135612000848260208601611f9b565b91505092915050565b5f5f6040838503121561201f5761201e611bea565b5b5f83013567ffffffffffffffff81111561203c5761203b611bee565b5b61204885828601611fdc565b925050602061205985828601611e9e565b9150509250929050565b5f82825260208201905092915050565b7f4f6e6c79206f776e65722063616e2063616c6c20746869732066756e6374696f5f8201527f6e00000000000000000000000000000000000000000000000000000000000000602082015250565b5f6120cd602183612063565b91506120d882612073565b604082019050919050565b5f6020820190508181035f8301526120fa816120c1565b9050919050565b7f4d65726368616e74204944206e6f7420666f756e6400000000000000000000005f82015250565b5f612135601583612063565b915061214082612101565b602082019050919050565b5f6020820190508181035f83015261216281612129565b9050919050565b7f4e487b71000000000000000000000000000000000000000000000000000000005f52602260045260245ffd5b5f60028204905060018216806121ad57607f821691505b6020821081036121c0576121bf612169565b5b50919050565b7f4e487b71000000000000000000000000000000000000000000000000000000005f52601160045260245ffd5b5f6121fd82611b4a565b915061220883611b4a565b92508282019050808211156122205761221f6121c6565b5b92915050565b7f4c656e64696e6720746f6f20736f6f6e000000000000000000000000000000005f82015250565b5f61225a601083612063565b915061226582612226565b602082019050919050565b5f6020820190508181035f8301526122878161224e565b9050919050565b7f4e6f7420656e6f7567682066756e647320746f206c656e6400000000000000005f82015250565b5f6122c2601883612063565b91506122cd8261228e565b602082019050919050565b5f6020820190508181035f8301526122ef816122b6565b9050919050565b7f4f6e6c792072656769737465726564206d65726368616e74732063616e2063615f8201527f6c6c207468697300000000000000000000000000000000000000000000000000602082015250565b5f612350602783612063565b915061235b826122f6565b604082019050919050565b5f6020820190508181035f83015261237d81612344565b9050919050565b7f416d6f756e7420746f6f20736d616c6c20746f207265747269657665000000005f82015250565b5f6123b8601c83612063565b91506123c382612384565b602082019050919050565b5f6020820190508181035f8301526123e5816123ac565b9050919050565b7f496e73756666696369656e742066756e647320696e206d65726368616e7427735f8201527f2062616c616e6365000000000000000000000000000000000000000000000000602082015250565b5f612446602883612063565b9150612451826123ec565b604082019050919050565b5f6020820190508181035f8301526124738161243a565b9050919050565b7f496e76616c696420637573746f6d6572206164647265737300000000000000005f82015250565b5f6124ae601883612063565b91506124b98261247a565b602082019050919050565b5f6020820190508181035f8301526124db816124a2565b9050919050565b5f6124ec82611b4a565b91506124f783611b4a565b925082820390508181111561250f5761250e6121c6565b5b92915050565b5f81905092915050565b50565b5f61252d5f83612515565b91506125388261251f565b5f82019050919050565b5f61254c82612522565b9150819050919050565b7f526566756e64206661696c6564000000000000000000000000000000000000005f82015250565b5f61258a600d83612063565b915061259582612556565b602082019050919050565b5f6020820190508181035f8301526125b78161257e565b9050919050565b7f4d65726368616e74206e6f7420726567697374657265640000000000000000005f82015250565b5f6125f2601783612063565b91506125fd826125be565b602082019050919050565b5f6020820190508181035f83015261261f816125e6565b9050919050565b7f5061796d656e7420616d6f756e74206d757374206265206772656174657220745f8201527f68616e207a65726f000000000000000000000000000000000000000000000000602082015250565b5f612680602883612063565b915061268b82612626565b604082019050919050565b5f6020820190508181035f8301526126ad81612674565b9050919050565b7f52657472696576696e6720746f6f20736f6f6e000000000000000000000000005f82015250565b5f6126e8601383612063565b91506126f3826126b4565b602082019050919050565b5f6020820190508181035f830152612715816126dc565b9050919050565b7f46756e64732072657472696576616c206661696c6564000000000000000000005f82015250565b5f612750601683612063565b915061275b8261271c565b602082019050919050565b5f6020820190508181035f83015261277d81612744565b9050919050565b7f4d65726368616e7420616c7265616479207265676973746572656400000000005f82015250565b5f6127b8601b83612063565b91506127c382612784565b602082019050919050565b5f6020820190508181035f8301526127e5816127ac565b9050919050565b5f819050815f5260205f209050919050565b5f6020601f8301049050919050565b5f82821b905092915050565b5f600883026128487fffffffffffffffffffffffffffffffffffffffffffffffffffffffffffffffff8261280d565b612852868361280d565b95508019841693508086168417925050509392505050565b5f61288461287f61287a84611b4a565b611dfb565b611b4a565b9050919050565b5f819050919050565b61289d8361286a565b6128b16128a98261288b565b848454612819565b825550505050565b5f5f905090565b6128c86128b9565b6128d3818484612894565b505050565b5b818110156128f6576128eb5f826128c0565b6001810190506128d9565b5050565b601f82111561293b5761290c816127ec565b612915846127fe565b81016020851015612924578190505b612938612930856127fe565b8301826128d8565b50505b505050565b5f82821c905092915050565b5f61295b5f1984600802612940565b1980831691505092915050565b5f612973838361294c565b9150826002028217905092915050565b61298c82611c56565b67ffffffffffffffff8111156129a5576129a4611ee5565b5b6129af8254612196565b6129ba8282856128fa565b5f60209050601f8311600181146129eb575f84156129d9578287015190505b6129e38582612968565b865550612a4a565b601f1984166129f9866127ec565b5f5b82811015612a20578489015182556001820191506020850194506020810190506129fb565b86831015612a3d5784890151612a39601f89168261294c565b8355505b6001600288020188555050505b505050505050565b7f496e73756666696369656e742062616c616e63650000000000000000000000005f82015250565b5f612a86601483612063565b9150612a9182612a52565b602082019050919050565b5f6020820190508181035f830152612ab381612a7a565b9050919050565b7f4e6f7420656e6f756768206c697175696469747920617661696c61626c652c205f8201527f72657472696576652066756e6473206669727374000000000000000000000000602082015250565b5f612b14603483612063565b9150612b1f82612aba565b604082019050919050565b5f6020820190508181035f830152612b4181612b08565b9050919050565b7f4e6f2066756e647320617661696c61626c6500000000000000000000000000005f82015250565b5f612b7c601283612063565b9150612b8782612b48565b602082019050919050565b5f6020820190508181035f830152612ba981612b70565b9050919050565b7f456d657267656e6379207769746864726177616c206661696c656400000000005f82015250565b5f612be4601b83612063565b9150612bef82612bb0565b602082019050919050565b5f6020820190508181035f830152612c1181612bd8565b9050919050565b5f81519050612c2681611bf2565b92915050565b5f60208284031215612c4157612c40611bea565b5b5f612c4e84828501612c18565b91505092915050565b7f4e6f20696e74657265737420617661696c61626c6500000000000000000000005f82015250565b5f612c8b601583612063565b9150612c9682612c57565b602082019050919050565b5f6020820190508181035f830152612cb881612c7f565b905091905056fea264697066735822122009c4fef3ed18f26f92660c4b806c72dc144c72f046bfc0cd37805c0d85c7ddfb64736f6c634300081c0033",
			"opcodes": "PUSH1 0xA0 PUSH1 0x40 MSTORE PUSH8 0xDE0B6B3A7640000 PUSH1 0x3 SSTORE PUSH8 0xDE0B6B3A7640000 PUSH1 0x4 SSTORE CALLVALUE DUP1 ISZERO PUSH2 0x27 JUMPI PUSH0 PUSH0 REVERT JUMPDEST POP PUSH1 0x40 MLOAD PUSH2 0x2E7C CODESIZE SUB DUP1 PUSH2 0x2E7C DUP4 CODECOPY DUP2 DUP2 ADD PUSH1 0x40 MSTORE DUP2 ADD SWAP1 PUSH2 0x49 SWAP2 SWAP1 PUSH2 0x128 JUMP JUMPDEST CALLER PUSH0 PUSH0 PUSH2 0x100 EXP DUP2 SLOAD DUP2 PUSH20 0xFFFFFFFFFFFFFFFFFFFFFFFFFFFFFFFFFFFFFFFF MUL NOT AND SWAP1 DUP4 PUSH20 0xFFFFFFFFFFFFFFFFFFFFFFFFFFFFFFFFFFFFFFFF AND MUL OR SWAP1 SSTORE POP PUSH1 0x1 PUSH1 0x7 DUP2 SWAP1 SSTORE POP DUP1 PUSH20 0xFFFFFFFFFFFFFFFFFFFFFFFFFFFFFFFFFFFFFFFF AND PUSH1 0x80 DUP2 PUSH20 0xFFFFFFFFFFFFFFFFFFFFFFFFFFFFFFFFFFFFFFFF AND DUP2 MSTORE POP POP POP PUSH2 0x153 JUMP JUMPDEST PUSH0 PUSH0 REVERT JUMPDEST PUSH0 PUSH20 0xFFFFFFFFFFFFFFFFFFFFFFFFFFFFFFFFFFFFFFFF DUP3 AND SWAP1 POP SWAP2 SWAP1 POP JUMP JUMPDEST PUSH0 PUSH2 0xF7 DUP3 PUSH2 0xCE JUMP JUMPDEST SWAP1 POP SWAP2 SWAP1 POP JUMP JUMPDEST PUSH2 0x107 DUP2 PUSH2 0xED JUMP JUMPDEST DUP2 EQ PUSH2 0x111 JUMPI PUSH0 PUSH0 REVERT JUMPDEST POP JUMP JUMPDEST PUSH0 DUP2 MLOAD SWAP1 POP PUSH2 0x122 DUP2 PUSH2 0xFE JUMP JUMPDEST SWAP3 SWAP2 POP POP JUMP JUMPDEST PUSH0 PUSH1 0x20 DUP3 DUP5 SUB SLT ISZERO PUSH2 0x13D JUMPI PUSH2 0x13C PUSH2 0xCA JUMP JUMPDEST JUMPDEST PUSH0 PUSH2 0x14A DUP5 DUP3 DUP6 ADD PUSH2 0x114 JUMP JUMPDEST SWAP2 POP POP SWAP3 SWAP2 POP POP JUMP JUMPDEST PUSH1 0x80 MLOAD PUSH2 0x2CF5 PUSH2 0x187 PUSH0 CODECOPY PUSH0 DUP2 DUP2 PUSH2 0x7EA ADD MSTORE DUP2 DUP2 PUSH2 0xA11 ADD MSTORE DUP2 DUP2 PUSH2 0xEB5 ADD MSTORE DUP2 DUP2 PUSH2 0x11B2 ADD MSTORE PUSH2 0x1A35 ADD MSTORE PUSH2 0x2CF5 PUSH0 RETURN INVALID PUSH1 0x80 PUSH1 0x40 MSTORE PUSH1 0x4 CALLDATASIZE LT PUSH2 0x10C JUMPI PUSH0 CALLDATALOAD PUSH1 0xE0 SHR DUP1 PUSH4 0x8DA5CB5B GT PUSH2 0x94 JUMPI DUP1 PUSH4 0xC1075329 GT PUSH2 0x63 JUMPI DUP1 PUSH4 0xC1075329 EQ PUSH2 0x353 JUMPI DUP1 PUSH4 0xDB2E21BC EQ PUSH2 0x37B JUMPI DUP1 PUSH4 0xDC2CEB69 EQ PUSH2 0x391 JUMPI DUP1 PUSH4 0xE9C9D887 EQ PUSH2 0x3BB JUMPI DUP1 PUSH4 0xF0AB8FE2 EQ PUSH2 0x3E5 JUMPI PUSH2 0x14B JUMP JUMPDEST DUP1 PUSH4 0x8DA5CB5B EQ PUSH2 0x2BD JUMPI DUP1 PUSH4 0x8FE123D7 EQ PUSH2 0x2E7 JUMPI DUP1 PUSH4 0x9E625183 EQ PUSH2 0x303 JUMPI DUP1 PUSH4 0xABE0CD0C EQ PUSH2 0x32B JUMPI PUSH2 0x14B JUMP JUMPDEST DUP1 PUSH4 0x5641DF95 GT PUSH2 0xDB JUMPI DUP1 PUSH4 0x5641DF95 EQ PUSH2 0x1F3 JUMPI DUP1 PUSH4 0x668E8024 EQ PUSH2 0x21B JUMPI DUP1 PUSH4 0x738005AA EQ PUSH2 0x243 JUMPI DUP1 PUSH4 0x7AE1009C EQ PUSH2 0x26B JUMPI DUP1 PUSH4 0x7EE0456F EQ PUSH2 0x293 JUMPI PUSH2 0x14B JUMP JUMPDEST DUP1 PUSH4 0x26A5275 EQ PUSH2 0x14D JUMPI DUP1 PUSH4 0x1D210CD2 EQ PUSH2 0x177 JUMPI DUP1 PUSH4 0x1F11D292 EQ PUSH2 0x1B3 JUMPI DUP1 PUSH4 0x3B071872 EQ PUSH2 0x1DD JUMPI PUSH2 0x14B JUMP JUMPDEST CALLDATASIZE PUSH2 0x14B JUMPI PUSH32 0xA0B6ED69C727BCCE4CFDF30BC2777D7B7007D936B4A4DEA135CBF6622FE4A58C CALLVALUE CALLER PUSH1 0x40 MLOAD PUSH2 0x142 SWAP3 SWAP2 SWAP1 PUSH2 0x1BA1 JUMP JUMPDEST PUSH1 0x40 MLOAD DUP1 SWAP2 SUB SWAP1 LOG1 JUMPDEST STOP JUMPDEST CALLVALUE DUP1 ISZERO PUSH2 0x158 JUMPI PUSH0 PUSH0 REVERT JUMPDEST POP PUSH2 0x161 PUSH2 0x3FB JUMP JUMPDEST PUSH1 0x40 MLOAD PUSH2 0x16E SWAP2 SWAP1 PUSH2 0x1BC8 JUMP JUMPDEST PUSH1 0x40 MLOAD DUP1 SWAP2 SUB SWAP1 RETURN JUMPDEST CALLVALUE DUP1 ISZERO PUSH2 0x182 JUMPI PUSH0 PUSH0 REVERT JUMPDEST POP PUSH2 0x19D PUSH1 0x4 DUP1 CALLDATASIZE SUB DUP2 ADD SWAP1 PUSH2 0x198 SWAP2 SWAP1 PUSH2 0x1C1C JUMP JUMPDEST PUSH2 0x401 JUMP JUMPDEST PUSH1 0x40 MLOAD PUSH2 0x1AA SWAP2 SWAP1 PUSH2 0x1D62 JUMP JUMPDEST PUSH1 0x40 MLOAD DUP1 SWAP2 SUB SWAP1 RETURN JUMPDEST CALLVALUE DUP1 ISZERO PUSH2 0x1BE JUMPI PUSH0 PUSH0 REVERT JUMPDEST POP PUSH2 0x1C7 PUSH2 0x6B9 JUMP JUMPDEST PUSH1 0x40 MLOAD PUSH2 0x1D4 SWAP2 SWAP1 PUSH2 0x1BC8 JUMP JUMPDEST PUSH1 0x40 MLOAD DUP1 SWAP2 SUB SWAP1 RETURN JUMPDEST CALLVALUE DUP1 ISZERO PUSH2 0x1E8 JUMPI PUSH0 PUSH0 REVERT JUMPDEST POP PUSH2 0x1F1 PUSH2 0x6BF JUMP JUMPDEST STOP JUMPDEST CALLVALUE DUP1 ISZERO PUSH2 0x1FE JUMPI PUSH0 PUSH0 REVERT JUMPDEST POP PUSH2 0x219 PUSH1 0x4 DUP1 CALLDATASIZE SUB DUP2 ADD SWAP1 PUSH2 0x214 SWAP2 SWAP1 PUSH2 0x1C1C JUMP JUMPDEST PUSH2 0x8A6 JUMP JUMPDEST STOP JUMPDEST CALLVALUE DUP1 ISZERO PUSH2 0x226 JUMPI PUSH0 PUSH0 REVERT JUMPDEST POP PUSH2 0x241 PUSH1 0x4 DUP1 CALLDATASIZE SUB DUP2 ADD SWAP1 PUSH2 0x23C SWAP2 SWAP1 PUSH2 0x1C1C JUMP JUMPDEST PUSH2 0x93E JUMP JUMPDEST STOP JUMPDEST CALLVALUE DUP1 ISZERO PUSH2 0x24E JUMPI PUSH0 PUSH0 REVERT JUMPDEST POP PUSH2 0x269 PUSH1 0x4 DUP1 CALLDATASIZE SUB DUP2 ADD SWAP1 PUSH2 0x264 SWAP2 SWAP1 PUSH2 0x1DBD JUMP JUMPDEST PUSH2 0xAD1 JUMP JUMPDEST STOP JUMPDEST CALLVALUE DUP1 ISZERO PUSH2 0x276 JUMPI PUSH0 PUSH0 REVERT JUMPDEST POP PUSH2 0x291 PUSH1 0x4 DUP1 CALLDATASIZE SUB DUP2 ADD SWAP1 PUSH2 0x28C SWAP2 SWAP1 PUSH2 0x1C1C JUMP JUMPDEST PUSH2 0xE1B JUMP JUMPDEST STOP JUMPDEST CALLVALUE DUP1 ISZERO PUSH2 0x29E JUMPI PUSH0 PUSH0 REVERT JUMPDEST POP PUSH2 0x2A7 PUSH2 0xEB3 JUMP JUMPDEST PUSH1 0x40 MLOAD PUSH2 0x2B4 SWAP2 SWAP1 PUSH2 0x1E56 JUMP JUMPDEST PUSH1 0x40 MLOAD DUP1 SWAP2 SUB SWAP1 RETURN JUMPDEST CALLVALUE DUP1 ISZERO PUSH2 0x2C8 JUMPI PUSH0 PUSH0 REVERT JUMPDEST POP PUSH2 0x2D1 PUSH2 0xED7 JUMP JUMPDEST PUSH1 0x40 MLOAD PUSH2 0x2DE SWAP2 SWAP1 PUSH2 0x1E6F JUMP JUMPDEST PUSH1 0x40 MLOAD DUP1 SWAP2 SUB SWAP1 RETURN JUMPDEST PUSH2 0x301 PUSH1 0x4 DUP1 CALLDATASIZE SUB DUP2 ADD SWAP1 PUSH2 0x2FC SWAP2 SWAP1 PUSH2 0x1EB2 JUMP JUMPDEST PUSH2 0xEFB JUMP JUMPDEST STOP JUMPDEST CALLVALUE DUP1 ISZERO PUSH2 0x30E JUMPI PUSH0 PUSH0 REVERT JUMPDEST POP PUSH2 0x329 PUSH1 0x4 DUP1 CALLDATASIZE SUB DUP2 ADD SWAP1 PUSH2 0x324 SWAP2 SWAP1 PUSH2 0x1C1C JUMP JUMPDEST PUSH2 0x1087 JUMP JUMPDEST STOP JUMPDEST CALLVALUE DUP1 ISZERO PUSH2 0x336 JUMPI PUSH0 PUSH0 REVERT JUMPDEST POP PUSH2 0x351 PUSH1 0x4 DUP1 CALLDATASIZE SUB DUP2 ADD SWAP1 PUSH2 0x34C SWAP2 SWAP1 PUSH2 0x2009 JUMP JUMPDEST PUSH2 0x12C1 JUMP JUMPDEST STOP JUMPDEST CALLVALUE DUP1 ISZERO PUSH2 0x35E JUMPI PUSH0 PUSH0 REVERT JUMPDEST POP PUSH2 0x379 PUSH1 0x4 DUP1 CALLDATASIZE SUB DUP2 ADD SWAP1 PUSH2 0x374 SWAP2 SWAP1 PUSH2 0x1DBD JUMP JUMPDEST PUSH2 0x15A3 JUMP JUMPDEST STOP JUMPDEST CALLVALUE DUP1 ISZERO PUSH2 0x386 JUMPI PUSH0 PUSH0 REVERT JUMPDEST POP PUSH2 0x38F PUSH2 0x17F8 JUMP JUMPDEST STOP JUMPDEST CALLVALUE DUP1 ISZERO PUSH2 0x39C JUMPI PUSH0 PUSH0 REVERT JUMPDEST POP PUSH2 0x3A5 PUSH2 0x1998 JUMP JUMPDEST PUSH1 0x40 MLOAD PUSH2 0x3B2 SWAP2 SWAP1 PUSH2 0x1BC8 JUMP JUMPDEST PUSH1 0x40 MLOAD DUP1 SWAP2 SUB SWAP1 RETURN JUMPDEST CALLVALUE DUP1 ISZERO PUSH2 0x3C6 JUMPI PUSH0 PUSH0 REVERT JUMPDEST POP PUSH2 0x3CF PUSH2 0x199E JUMP JUMPDEST PUSH1 0x40 MLOAD PUSH2 0x3DC SWAP2 SWAP1 PUSH2 0x1BC8 JUMP JUMPDEST PUSH1 0x40 MLOAD DUP1 SWAP2 SUB SWAP1 RETURN JUMPDEST CALLVALUE DUP1 ISZERO PUSH2 0x3F0 JUMPI PUSH0 PUSH0 REVERT JUMPDEST POP PUSH2 0x3F9 PUSH2 0x19A4 JUMP JUMPDEST STOP JUMPDEST PUSH1 0x4 SLOAD DUP2 JUMP JUMPDEST PUSH2 0x409 PUSH2 0x1B07 JUMP JUMPDEST PUSH0 PUSH0 SWAP1 SLOAD SWAP1 PUSH2 0x100 EXP SWAP1 DIV PUSH20 0xFFFFFFFFFFFFFFFFFFFFFFFFFFFFFFFFFFFFFFFF AND PUSH20 0xFFFFFFFFFFFFFFFFFFFFFFFFFFFFFFFFFFFFFFFF AND CALLER PUSH20 0xFFFFFFFFFFFFFFFFFFFFFFFFFFFFFFFFFFFFFFFF AND EQ PUSH2 0x497 JUMPI PUSH1 0x40 MLOAD PUSH32 0x8C379A000000000000000000000000000000000000000000000000000000000 DUP2 MSTORE PUSH1 0x4 ADD PUSH2 0x48E SWAP1 PUSH2 0x20E3 JUMP JUMPDEST PUSH1 0x40 MLOAD DUP1 SWAP2 SUB SWAP1 REVERT JUMPDEST PUSH0 PUSH1 0x6 PUSH0 DUP5 DUP2 MSTORE PUSH1 0x20 ADD SWAP1 DUP2 MSTORE PUSH1 0x20 ADD PUSH0 KECCAK256 PUSH0 SWAP1 SLOAD SWAP1 PUSH2 0x100 EXP SWAP1 DIV PUSH20 0xFFFFFFFFFFFFFFFFFFFFFFFFFFFFFFFFFFFFFFFF AND SWAP1 POP PUSH1 0x5 PUSH0 DUP3 PUSH20 0xFFFFFFFFFFFFFFFFFFFFFFFFFFFFFFFFFFFFFFFF AND PUSH20 0xFFFFFFFFFFFFFFFFFFFFFFFFFFFFFFFFFFFFFFFF AND DUP2 MSTORE PUSH1 0x20 ADD SWAP1 DUP2 MSTORE PUSH1 0x20 ADD PUSH0 KECCAK256 PUSH1 0x4 ADD PUSH0 SWAP1 SLOAD SWAP1 PUSH2 0x100 EXP SWAP1 DIV PUSH1 0xFF AND PUSH2 0x557 JUMPI PUSH1 0x40 MLOAD PUSH32 0x8C379A000000000000000000000000000000000000000000000000000000000 DUP2 MSTORE PUSH1 0x4 ADD PUSH2 0x54E SWAP1 PUSH2 0x214B JUMP JUMPDEST PUSH1 0x40 MLOAD DUP1 SWAP2 SUB SWAP1 REVERT JUMPDEST PUSH1 0x5 PUSH0 DUP3 PUSH20 0xFFFFFFFFFFFFFFFFFFFFFFFFFFFFFFFFFFFFFFFF AND PUSH20 0xFFFFFFFFFFFFFFFFFFFFFFFFFFFFFFFFFFFFFFFF AND DUP2 MSTORE PUSH1 0x20 ADD SWAP1 DUP2 MSTORE PUSH1 0x20 ADD PUSH0 KECCAK256 PUSH1 0x40 MLOAD DUP1 PUSH1 0xA0 ADD PUSH1 0x40 MSTORE SWAP1 DUP2 PUSH0 DUP3 ADD SLOAD DUP2 MSTORE PUSH1 0x20 ADD PUSH1 0x1 DUP3 ADD DUP1 SLOAD PUSH2 0x5B8 SWAP1 PUSH2 0x2196 JUMP JUMPDEST DUP1 PUSH1 0x1F ADD PUSH1 0x20 DUP1 SWAP2 DIV MUL PUSH1 0x20 ADD PUSH1 0x40 MLOAD SWAP1 DUP2 ADD PUSH1 0x40 MSTORE DUP1 SWAP3 SWAP2 SWAP1 DUP2 DUP2 MSTORE PUSH1 0x20 ADD DUP3 DUP1 SLOAD PUSH2 0x5E4 SWAP1 PUSH2 0x2196 JUMP JUMPDEST DUP1 ISZERO PUSH2 0x62F JUMPI DUP1 PUSH1 0x1F LT PUSH2 0x606 JUMPI PUSH2 0x100 DUP1 DUP4 SLOAD DIV MUL DUP4 MSTORE SWAP2 PUSH1 0x20 ADD SWAP2 PUSH2 0x62F JUMP JUMPDEST DUP3 ADD SWAP2 SWAP1 PUSH0 MSTORE PUSH1 0x20 PUSH0 KECCAK256 SWAP1 JUMPDEST DUP2 SLOAD DUP2 MSTORE SWAP1 PUSH1 0x1 ADD SWAP1 PUSH1 0x20 ADD DUP1 DUP4 GT PUSH2 0x612 JUMPI DUP3 SWAP1 SUB PUSH1 0x1F AND DUP3 ADD SWAP2 JUMPDEST POP POP POP POP POP DUP2 MSTORE PUSH1 0x20 ADD PUSH1 0x2 DUP3 ADD PUSH0 SWAP1 SLOAD SWAP1 PUSH2 0x100 EXP SWAP1 DIV PUSH20 0xFFFFFFFFFFFFFFFFFFFFFFFFFFFFFFFFFFFFFFFF AND PUSH20 0xFFFFFFFFFFFFFFFFFFFFFFFFFFFFFFFFFFFFFFFF AND PUSH20 0xFFFFFFFFFFFFFFFFFFFFFFFFFFFFFFFFFFFFFFFF AND DUP2 MSTORE PUSH1 0x20 ADD PUSH1 0x3 DUP3 ADD SLOAD DUP2 MSTORE PUSH1 0x20 ADD PUSH1 0x4 DUP3 ADD PUSH0 SWAP1 SLOAD SWAP1 PUSH2 0x100 EXP SWAP1 DIV PUSH1 0xFF AND ISZERO ISZERO ISZERO ISZERO DUP2 MSTORE POP POP SWAP2 POP POP SWAP2 SWAP1 POP JUMP JUMPDEST PUSH1 0x1 SLOAD DUP2 JUMP JUMPDEST PUSH0 PUSH0 SWAP1 SLOAD SWAP1 PUSH2 0x100 EXP SWAP1 DIV PUSH20 0xFFFFFFFFFFFFFFFFFFFFFFFFFFFFFFFFFFFFFFFF AND PUSH20 0xFFFFFFFFFFFFFFFFFFFFFFFFFFFFFFFFFFFFFFFF AND CALLER PUSH20 0xFFFFFFFFFFFFFFFFFFFFFFFFFFFFFFFFFFFFFFFF AND EQ PUSH2 0x74D JUMPI PUSH1 0x40 MLOAD PUSH32 0x8C379A000000000000000000000000000000000000000000000000000000000 DUP2 MSTORE PUSH1 0x4 ADD PUSH2 0x744 SWAP1 PUSH2 0x20E3 JUMP JUMPDEST PUSH1 0x40 MLOAD DUP1 SWAP2 SUB SWAP1 REVERT JUMPDEST PUSH2 0xE10 PUSH1 0x1 SLOAD PUSH2 0x75D SWAP2 SWAP1 PUSH2 0x21F3 JUMP JUMPDEST TIMESTAMP LT ISZERO PUSH2 0x79F JUMPI PUSH1 0x40 MLOAD PUSH32 0x8C379A000000000000000000000000000000000000000000000000000000000 DUP2 MSTORE PUSH1 0x4 ADD PUSH2 0x796 SWAP1 PUSH2 0x2270 JUMP JUMPDEST PUSH1 0x40 MLOAD DUP1 SWAP2 SUB SWAP1 REVERT JUMPDEST PUSH1 0x3 SLOAD SELFBALANCE LT ISZERO PUSH2 0x7E4 JUMPI PUSH1 0x40 MLOAD PUSH32 0x8C379A000000000000000000000000000000000000000000000000000000000 DUP2 MSTORE PUSH1 0x4 ADD PUSH2 0x7DB SWAP1 PUSH2 0x22D8 JUMP JUMPDEST PUSH1 0x40 MLOAD DUP1 SWAP2 SUB SWAP1 REVERT JUMPDEST PUSH0 SELFBALANCE SWAP1 POP PUSH32 0x0 PUSH20 0xFFFFFFFFFFFFFFFFFFFFFFFFFFFFFFFFFFFFFFFF AND PUSH4 0x1A878577 DUP3 PUSH1 0x40 MLOAD DUP3 PUSH4 0xFFFFFFFF AND PUSH1 0xE0 SHL DUP2 MSTORE PUSH1 0x4 ADD PUSH0 PUSH1 0x40 MLOAD DUP1 DUP4 SUB DUP2 DUP6 DUP9 DUP1 EXTCODESIZE ISZERO DUP1 ISZERO PUSH2 0x84E JUMPI PUSH0 PUSH0 REVERT JUMPDEST POP GAS CALL ISZERO DUP1 ISZERO PUSH2 0x860 JUMPI RETURNDATASIZE PUSH0 PUSH0 RETURNDATACOPY RETURNDATASIZE PUSH0 REVERT JUMPDEST POP POP POP POP POP TIMESTAMP PUSH1 0x1 DUP2 SWAP1 SSTORE POP PUSH32 0xE95DFF13CFEB27C914A4D03686B999A715A3270F0B70753CFB95A0EA7FA3219C DUP2 PUSH1 0x40 MLOAD PUSH2 0x89B SWAP2 SWAP1 PUSH2 0x1BC8 JUMP JUMPDEST PUSH1 0x40 MLOAD DUP1 SWAP2 SUB SWAP1 LOG1 POP JUMP JUMPDEST PUSH0 PUSH0 SWAP1 SLOAD SWAP1 PUSH2 0x100 EXP SWAP1 DIV PUSH20 0xFFFFFFFFFFFFFFFFFFFFFFFFFFFFFFFFFFFFFFFF AND PUSH20 0xFFFFFFFFFFFFFFFFFFFFFFFFFFFFFFFFFFFFFFFF AND CALLER PUSH20 0xFFFFFFFFFFFFFFFFFFFFFFFFFFFFFFFFFFFFFFFF AND EQ PUSH2 0x934 JUMPI PUSH1 0x40 MLOAD PUSH32 0x8C379A000000000000000000000000000000000000000000000000000000000 DUP2 MSTORE PUSH1 0x4 ADD PUSH2 0x92B SWAP1 PUSH2 0x20E3 JUMP JUMPDEST PUSH1 0x40 MLOAD DUP1 SWAP2 SUB SWAP1 REVERT JUMPDEST DUP1 PUSH1 0x3 DUP2 SWAP1 SSTORE POP POP JUMP JUMPDEST PUSH1 0x5 PUSH0 CALLER PUSH20 0xFFFFFFFFFFFFFFFFFFFFFFFFFFFFFFFFFFFFFFFF AND PUSH20 0xFFFFFFFFFFFFFFFFFFFFFFFFFFFFFFFFFFFFFFFF AND DUP2 MSTORE PUSH1 0x20 ADD SWAP1 DUP2 MSTORE PUSH1 0x20 ADD PUSH0 KECCAK256 PUSH1 0x4 ADD PUSH0 SWAP1 SLOAD SWAP1 PUSH2 0x100 EXP SWAP1 DIV PUSH1 0xFF AND PUSH2 0x9CA JUMPI PUSH1 0x40 MLOAD PUSH32 0x8C379A000000000000000000000000000000000000000000000000000000000 DUP2 MSTORE PUSH1 0x4 ADD PUSH2 0x9C1 SWAP1 PUSH2 0x2366 JUMP JUMPDEST PUSH1 0x40 MLOAD DUP1 SWAP2 SUB SWAP1 REVERT JUMPDEST PUSH1 0x4 SLOAD DUP2 LT ISZERO PUSH2 0xA0F JUMPI PUSH1 0x40 MLOAD PUSH32 0x8C379A000000000000000000000000000000000000000000000000000000000 DUP2 MSTORE PUSH1 0x4 ADD PUSH2 0xA06 SWAP1 PUSH2 0x23CE JUMP JUMPDEST PUSH1 0x40 MLOAD DUP1 SWAP2 SUB SWAP1 REVERT JUMPDEST PUSH32 0x0 PUSH20 0xFFFFFFFFFFFFFFFFFFFFFFFFFFFFFFFFFFFFFFFF AND PUSH4 0xDA75793A DUP3 ADDRESS PUSH1 0x40 MLOAD DUP4 PUSH4 0xFFFFFFFF AND PUSH1 0xE0 SHL DUP2 MSTORE PUSH1 0x4 ADD PUSH2 0xA6A SWAP3 SWAP2 SWAP1 PUSH2 0x1BA1 JUMP JUMPDEST PUSH0 PUSH1 0x40 MLOAD DUP1 DUP4 SUB DUP2 PUSH0 DUP8 DUP1 EXTCODESIZE ISZERO DUP1 ISZERO PUSH2 0xA81 JUMPI PUSH0 PUSH0 REVERT JUMPDEST POP GAS CALL ISZERO DUP1 ISZERO PUSH2 0xA93 JUMPI RETURNDATASIZE PUSH0 PUSH0 RETURNDATACOPY RETURNDATASIZE PUSH0 REVERT JUMPDEST POP POP POP POP PUSH32 0xD93B4B006708E5478CEE61EF37AA4EB01C50F3943F00B0437CC172C33D0E93A2 DUP2 PUSH1 0x40 MLOAD PUSH2 0xAC6 SWAP2 SWAP1 PUSH2 0x1BC8 JUMP JUMPDEST PUSH1 0x40 MLOAD DUP1 SWAP2 SUB SWAP1 LOG1 POP JUMP JUMPDEST PUSH1 0x5 PUSH0 CALLER PUSH20 0xFFFFFFFFFFFFFFFFFFFFFFFFFFFFFFFFFFFFFFFF AND PUSH20 0xFFFFFFFFFFFFFFFFFFFFFFFFFFFFFFFFFFFFFFFF AND DUP2 MSTORE PUSH1 0x20 ADD SWAP1 DUP2 MSTORE PUSH1 0x20 ADD PUSH0 KECCAK256 PUSH1 0x4 ADD PUSH0 SWAP1 SLOAD SWAP1 PUSH2 0x100 EXP SWAP1 DIV PUSH1 0xFF AND PUSH2 0xB5D JUMPI PUSH1 0x40 MLOAD PUSH32 0x8C379A000000000000000000000000000000000000000000000000000000000 DUP2 MSTORE PUSH1 0x4 ADD PUSH2 0xB54 SWAP1 PUSH2 0x2366 JUMP JUMPDEST PUSH1 0x40 MLOAD DUP1 SWAP2 SUB SWAP1 REVERT JUMPDEST DUP1 PUSH1 0x5 PUSH0 CALLER PUSH20 0xFFFFFFFFFFFFFFFFFFFFFFFFFFFFFFFFFFFFFFFF AND PUSH20 0xFFFFFFFFFFFFFFFFFFFFFFFFFFFFFFFFFFFFFFFF AND DUP2 MSTORE PUSH1 0x20 ADD SWAP1 DUP2 MSTORE PUSH1 0x20 ADD PUSH0 KECCAK256 PUSH1 0x3 ADD SLOAD LT ISZERO PUSH2 0xBE0 JUMPI PUSH1 0x40 MLOAD PUSH32 0x8C379A000000000000000000000000000000000000000000000000000000000 DUP2 MSTORE PUSH1 0x4 ADD PUSH2 0xBD7 SWAP1 PUSH2 0x245C JUMP JUMPDEST PUSH1 0x40 MLOAD DUP1 SWAP2 SUB SWAP1 REVERT JUMPDEST PUSH0 PUSH20 0xFFFFFFFFFFFFFFFFFFFFFFFFFFFFFFFFFFFFFFFF AND DUP3 PUSH20 0xFFFFFFFFFFFFFFFFFFFFFFFFFFFFFFFFFFFFFFFF AND SUB PUSH2 0xC4E JUMPI PUSH1 0x40 MLOAD PUSH32 0x8C379A000000000000000000000000000000000000000000000000000000000 DUP2 MSTORE PUSH1 0x4 ADD PUSH2 0xC45 SWAP1 PUSH2 0x24C4 JUMP JUMPDEST PUSH1 0x40 MLOAD DUP1 SWAP2 SUB SWAP1 REVERT JUMPDEST DUP1 PUSH1 0x5 PUSH0 CALLER PUSH20 0xFFFFFFFFFFFFFFFFFFFFFFFFFFFFFFFFFFFFFFFF AND PUSH20 0xFFFFFFFFFFFFFFFFFFFFFFFFFFFFFFFFFFFFFFFF AND DUP2 MSTORE PUSH1 0x20 ADD SWAP1 DUP2 MSTORE PUSH1 0x20 ADD PUSH0 KECCAK256 PUSH1 0x3 ADD PUSH0 DUP3 DUP3 SLOAD PUSH2 0xC9D SWAP2 SWAP1 PUSH2 0x24E2 JUMP JUMPDEST SWAP3 POP POP DUP2 SWAP1 SSTORE POP PUSH0 DUP3 PUSH20 0xFFFFFFFFFFFFFFFFFFFFFFFFFFFFFFFFFFFFFFFF AND DUP3 PUSH1 0x40 MLOAD PUSH2 0xCC9 SWAP1 PUSH2 0x2542 JUMP JUMPDEST PUSH0 PUSH1 0x40 MLOAD DUP1 DUP4 SUB DUP2 DUP6 DUP8 GAS CALL SWAP3 POP POP POP RETURNDATASIZE DUP1 PUSH0 DUP2 EQ PUSH2 0xD03 JUMPI PUSH1 0x40 MLOAD SWAP2 POP PUSH1 0x1F NOT PUSH1 0x3F RETURNDATASIZE ADD AND DUP3 ADD PUSH1 0x40 MSTORE RETURNDATASIZE DUP3 MSTORE RETURNDATASIZE PUSH0 PUSH1 0x20 DUP5 ADD RETURNDATACOPY PUSH2 0xD08 JUMP JUMPDEST PUSH1 0x60 SWAP2 POP JUMPDEST POP POP SWAP1 POP DUP1 PUSH2 0xD4C JUMPI PUSH1 0x40 MLOAD PUSH32 0x8C379A000000000000000000000000000000000000000000000000000000000 DUP2 MSTORE PUSH1 0x4 ADD PUSH2 0xD43 SWAP1 PUSH2 0x25A0 JUMP JUMPDEST PUSH1 0x40 MLOAD DUP1 SWAP2 SUB SWAP1 REVERT JUMPDEST DUP3 PUSH20 0xFFFFFFFFFFFFFFFFFFFFFFFFFFFFFFFFFFFFFFFF AND CALLER PUSH20 0xFFFFFFFFFFFFFFFFFFFFFFFFFFFFFFFFFFFFFFFF AND PUSH32 0x538AB32A957D2B55D0EC70A4029E73FDF19F500832839B1D7BAFCFBCA2A5630 DUP5 PUSH1 0x40 MLOAD PUSH2 0xDA9 SWAP2 SWAP1 PUSH2 0x1BC8 JUMP JUMPDEST PUSH1 0x40 MLOAD DUP1 SWAP2 SUB SWAP1 LOG3 DUP3 PUSH20 0xFFFFFFFFFFFFFFFFFFFFFFFFFFFFFFFFFFFFFFFF AND CALLER PUSH20 0xFFFFFFFFFFFFFFFFFFFFFFFFFFFFFFFFFFFFFFFF AND PUSH32 0xE9171AEFF46C37AB955B8AFF908E14AE9732BD06634FA131226CFE5C25BFD2FB DUP5 PUSH1 0x40 MLOAD PUSH2 0xE0E SWAP2 SWAP1 PUSH2 0x1BC8 JUMP JUMPDEST PUSH1 0x40 MLOAD DUP1 SWAP2 SUB SWAP1 LOG3 POP POP POP JUMP JUMPDEST PUSH0 PUSH0 SWAP1 SLOAD SWAP1 PUSH2 0x100 EXP SWAP1 DIV PUSH20 0xFFFFFFFFFFFFFFFFFFFFFFFFFFFFFFFFFFFFFFFF AND PUSH20 0xFFFFFFFFFFFFFFFFFFFFFFFFFFFFFFFFFFFFFFFF AND CALLER PUSH20 0xFFFFFFFFFFFFFFFFFFFFFFFFFFFFFFFFFFFFFFFF AND EQ PUSH2 0xEA9 JUMPI PUSH1 0x40 MLOAD PUSH32 0x8C379A000000000000000000000000000000000000000000000000000000000 DUP2 MSTORE PUSH1 0x4 ADD PUSH2 0xEA0 SWAP1 PUSH2 0x20E3 JUMP JUMPDEST PUSH1 0x40 MLOAD DUP1 SWAP2 SUB SWAP1 REVERT JUMPDEST DUP1 PUSH1 0x4 DUP2 SWAP1 SSTORE POP POP JUMP JUMPDEST PUSH32 0x0 DUP2 JUMP JUMPDEST PUSH0 PUSH0 SWAP1 SLOAD SWAP1 PUSH2 0x100 EXP SWAP1 DIV PUSH20 0xFFFFFFFFFFFFFFFFFFFFFFFFFFFFFFFFFFFFFFFF AND DUP2 JUMP JUMPDEST PUSH1 0x5 PUSH0 DUP3 PUSH20 0xFFFFFFFFFFFFFFFFFFFFFFFFFFFFFFFFFFFFFFFF AND PUSH20 0xFFFFFFFFFFFFFFFFFFFFFFFFFFFFFFFFFFFFFFFF AND DUP2 MSTORE PUSH1 0x20 ADD SWAP1 DUP2 MSTORE PUSH1 0x20 ADD PUSH0 KECCAK256 PUSH1 0x4 ADD PUSH0 SWAP1 SLOAD SWAP1 PUSH2 0x100 EXP SWAP1 DIV PUSH1 0xFF AND PUSH2 0xF87 JUMPI PUSH1 0x40 MLOAD PUSH32 0x8C379A000000000000000000000000000000000000000000000000000000000 DUP2 MSTORE PUSH1 0x4 ADD PUSH2 0xF7E SWAP1 PUSH2 0x2608 JUMP JUMPDEST PUSH1 0x40 MLOAD DUP1 SWAP2 SUB SWAP1 REVERT JUMPDEST PUSH0 CALLVALUE GT PUSH2 0xFC9 JUMPI PUSH1 0x40 MLOAD PUSH32 0x8C379A000000000000000000000000000000000000000000000000000000000 DUP2 MSTORE PUSH1 0x4 ADD PUSH2 0xFC0 SWAP1 PUSH2 0x2696 JUMP JUMPDEST PUSH1 0x40 MLOAD DUP1 SWAP2 SUB SWAP1 REVERT JUMPDEST CALLVALUE PUSH1 0x5 PUSH0 DUP4 PUSH20 0xFFFFFFFFFFFFFFFFFFFFFFFFFFFFFFFFFFFFFFFF AND PUSH20 0xFFFFFFFFFFFFFFFFFFFFFFFFFFFFFFFFFFFFFFFF AND DUP2 MSTORE PUSH1 0x20 ADD SWAP1 DUP2 MSTORE PUSH1 0x20 ADD PUSH0 KECCAK256 PUSH1 0x3 ADD PUSH0 DUP3 DUP3 SLOAD PUSH2 0x1018 SWAP2 SWAP1 PUSH2 0x21F3 JUMP JUMPDEST SWAP3 POP POP DUP2 SWAP1 SSTORE POP CALLER PUSH20 0xFFFFFFFFFFFFFFFFFFFFFFFFFFFFFFFFFFFFFFFF AND DUP2 PUSH20 0xFFFFFFFFFFFFFFFFFFFFFFFFFFFFFFFFFFFFFFFF AND PUSH32 0x538AB32A957D2B55D0EC70A4029E73FDF19F500832839B1D7BAFCFBCA2A5630 CALLVALUE PUSH1 0x40 MLOAD PUSH2 0x107C SWAP2 SWAP1 PUSH2 0x1BC8 JUMP JUMPDEST PUSH1 0x40 MLOAD DUP1 SWAP2 SUB SWAP1 LOG3 POP JUMP JUMPDEST PUSH0 PUSH0 SWAP1 SLOAD SWAP1 PUSH2 0x100 EXP SWAP1 DIV PUSH20 0xFFFFFFFFFFFFFFFFFFFFFFFFFFFFFFFFFFFFFFFF AND PUSH20 0xFFFFFFFFFFFFFFFFFFFFFFFFFFFFFFFFFFFFFFFF AND CALLER PUSH20 0xFFFFFFFFFFFFFFFFFFFFFFFFFFFFFFFFFFFFFFFF AND EQ PUSH2 0x1115 JUMPI PUSH1 0x40 MLOAD PUSH32 0x8C379A000000000000000000000000000000000000000000000000000000000 DUP2 MSTORE PUSH1 0x4 ADD PUSH2 0x110C SWAP1 PUSH2 0x20E3 JUMP JUMPDEST PUSH1 0x40 MLOAD DUP1 SWAP2 SUB SWAP1 REVERT JUMPDEST PUSH2 0xE10 PUSH1 0x2 SLOAD PUSH2 0x1125 SWAP2 SWAP1 PUSH2 0x21F3 JUMP JUMPDEST TIMESTAMP LT ISZERO PUSH2 0x1167 JUMPI PUSH1 0x40 MLOAD PUSH32 0x8C379A000000000000000000000000000000000000000000000000000000000 DUP2 MSTORE PUSH1 0x4 ADD PUSH2 0x115E SWAP1 PUSH2 0x26FE JUMP JUMPDEST PUSH1 0x40 MLOAD DUP1 SWAP2 SUB SWAP1 REVERT JUMPDEST PUSH1 0x4 SLOAD DUP2 LT ISZERO PUSH2 0x11AC JUMPI PUSH1 0x40 MLOAD PUSH32 0x8C379A000000000000000000000000000000000000000000000000000000000 DUP2 MSTORE PUSH1 0x4 ADD PUSH2 0x11A3 SWAP1 PUSH2 0x23CE JUMP JUMPDEST PUSH1 0x40 MLOAD DUP1 SWAP2 SUB SWAP1 REVERT JUMPDEST PUSH0 SELFBALANCE SWAP1 POP PUSH32 0x0 PUSH20 0xFFFFFFFFFFFFFFFFFFFFFFFFFFFFFFFFFFFFFFFF AND PUSH4 0xDA75793A DUP4 ADDRESS PUSH1 0x40 MLOAD DUP4 PUSH4 0xFFFFFFFF AND PUSH1 0xE0 SHL DUP2 MSTORE PUSH1 0x4 ADD PUSH2 0x120B SWAP3 SWAP2 SWAP1 PUSH2 0x1BA1 JUMP JUMPDEST PUSH0 PUSH1 0x40 MLOAD DUP1 DUP4 SUB DUP2 PUSH0 DUP8 DUP1 EXTCODESIZE ISZERO DUP1 ISZERO PUSH2 0x1222 JUMPI PUSH0 PUSH0 REVERT JUMPDEST POP GAS CALL ISZERO DUP1 ISZERO PUSH2 0x1234 JUMPI RETURNDATASIZE PUSH0 PUSH0 RETURNDATACOPY RETURNDATASIZE PUSH0 REVERT JUMPDEST POP POP POP POP PUSH0 SELFBALANCE SWAP1 POP DUP2 DUP2 GT PUSH2 0x127E JUMPI PUSH1 0x40 MLOAD PUSH32 0x8C379A000000000000000000000000000000000000000000000000000000000 DUP2 MSTORE PUSH1 0x4 ADD PUSH2 0x1275 SWAP1 PUSH2 0x2766 JUMP JUMPDEST PUSH1 0x40 MLOAD DUP1 SWAP2 SUB SWAP1 REVERT JUMPDEST TIMESTAMP PUSH1 0x2 DUP2 SWAP1 SSTORE POP PUSH32 0xD93B4B006708E5478CEE61EF37AA4EB01C50F3943F00B0437CC172C33D0E93A2 DUP4 PUSH1 0x40 MLOAD PUSH2 0x12B4 SWAP2 SWAP1 PUSH2 0x1BC8 JUMP JUMPDEST PUSH1 0x40 MLOAD DUP1 SWAP2 SUB SWAP1 LOG1 POP POP POP JUMP JUMPDEST PUSH0 PUSH0 SWAP1 SLOAD SWAP1 PUSH2 0x100 EXP SWAP1 DIV PUSH20 0xFFFFFFFFFFFFFFFFFFFFFFFFFFFFFFFFFFFFFFFF AND PUSH20 0xFFFFFFFFFFFFFFFFFFFFFFFFFFFFFFFFFFFFFFFF AND CALLER PUSH20 0xFFFFFFFFFFFFFFFFFFFFFFFFFFFFFFFFFFFFFFFF AND EQ PUSH2 0x134F JUMPI PUSH1 0x40 MLOAD PUSH32 0x8C379A000000000000000000000000000000000000000000000000000000000 DUP2 MSTORE PUSH1 0x4 ADD PUSH2 0x1346 SWAP1 PUSH2 0x20E3 JUMP JUMPDEST PUSH1 0x40 MLOAD DUP1 SWAP2 SUB SWAP1 REVERT JUMPDEST PUSH1 0x5 PUSH0 DUP3 PUSH20 0xFFFFFFFFFFFFFFFFFFFFFFFFFFFFFFFFFFFFFFFF AND PUSH20 0xFFFFFFFFFFFFFFFFFFFFFFFFFFFFFFFFFFFFFFFF AND DUP2 MSTORE PUSH1 0x20 ADD SWAP1 DUP2 MSTORE PUSH1 0x20 ADD PUSH0 KECCAK256 PUSH1 0x4 ADD PUSH0 SWAP1 SLOAD SWAP1 PUSH2 0x100 EXP SWAP1 DIV PUSH1 0xFF AND ISZERO PUSH2 0x13DC JUMPI PUSH1 0x40 MLOAD PUSH32 0x8C379A000000000000000000000000000000000000000000000000000000000 DUP2 MSTORE PUSH1 0x4 ADD PUSH2 0x13D3 SWAP1 PUSH2 0x27CE JUMP JUMPDEST PUSH1 0x40 MLOAD DUP1 SWAP2 SUB SWAP1 REVERT JUMPDEST PUSH1 0x40 MLOAD DUP1 PUSH1 0xA0 ADD PUSH1 0x40 MSTORE DUP1 PUSH1 0x7 SLOAD DUP2 MSTORE PUSH1 0x20 ADD DUP4 DUP2 MSTORE PUSH1 0x20 ADD DUP3 PUSH20 0xFFFFFFFFFFFFFFFFFFFFFFFFFFFFFFFFFFFFFFFF AND DUP2 MSTORE PUSH1 0x20 ADD PUSH0 DUP2 MSTORE PUSH1 0x20 ADD PUSH1 0x1 ISZERO ISZERO DUP2 MSTORE POP PUSH1 0x5 PUSH0 DUP4 PUSH20 0xFFFFFFFFFFFFFFFFFFFFFFFFFFFFFFFFFFFFFFFF AND PUSH20 0xFFFFFFFFFFFFFFFFFFFFFFFFFFFFFFFFFFFFFFFF AND DUP2 MSTORE PUSH1 0x20 ADD SWAP1 DUP2 MSTORE PUSH1 0x20 ADD PUSH0 KECCAK256 PUSH0 DUP3 ADD MLOAD DUP2 PUSH0 ADD SSTORE PUSH1 0x20 DUP3 ADD MLOAD DUP2 PUSH1 0x1 ADD SWAP1 DUP2 PUSH2 0x1478 SWAP2 SWAP1 PUSH2 0x2983 JUMP JUMPDEST POP PUSH1 0x40 DUP3 ADD MLOAD DUP2 PUSH1 0x2 ADD PUSH0 PUSH2 0x100 EXP DUP2 SLOAD DUP2 PUSH20 0xFFFFFFFFFFFFFFFFFFFFFFFFFFFFFFFFFFFFFFFF MUL NOT AND SWAP1 DUP4 PUSH20 0xFFFFFFFFFFFFFFFFFFFFFFFFFFFFFFFFFFFFFFFF AND MUL OR SWAP1 SSTORE POP PUSH1 0x60 DUP3 ADD MLOAD DUP2 PUSH1 0x3 ADD SSTORE PUSH1 0x80 DUP3 ADD MLOAD DUP2 PUSH1 0x4 ADD PUSH0 PUSH2 0x100 EXP DUP2 SLOAD DUP2 PUSH1 0xFF MUL NOT AND SWAP1 DUP4 ISZERO ISZERO MUL OR SWAP1 SSTORE POP SWAP1 POP POP DUP1 PUSH1 0x6 PUSH0 PUSH1 0x7 SLOAD DUP2 MSTORE PUSH1 0x20 ADD SWAP1 DUP2 MSTORE PUSH1 0x20 ADD PUSH0 KECCAK256 PUSH0 PUSH2 0x100 EXP DUP2 SLOAD DUP2 PUSH20 0xFFFFFFFFFFFFFFFFFFFFFFFFFFFFFFFFFFFFFFFF MUL NOT AND SWAP1 DUP4 PUSH20 0xFFFFFFFFFFFFFFFFFFFFFFFFFFFFFFFFFFFFFFFF AND MUL OR SWAP1 SSTORE POP DUP1 PUSH20 0xFFFFFFFFFFFFFFFFFFFFFFFFFFFFFFFFFFFFFFFF AND PUSH32 0xC143C72014F0D06EA74582B0087DB64EB875CF286F85F8B4B5810D8438C8B5A4 PUSH1 0x7 SLOAD DUP4 PUSH1 0x40 MLOAD PUSH2 0x1586 SWAP3 SWAP2 SWAP1 PUSH2 0x1BA1 JUMP JUMPDEST PUSH1 0x40 MLOAD DUP1 SWAP2 SUB SWAP1 LOG2 PUSH1 0x7 PUSH0 DUP2 SLOAD DUP1 SWAP3 SWAP2 SWAP1 PUSH1 0x1 ADD SWAP2 SWAP1 POP SSTORE POP POP POP JUMP JUMPDEST PUSH1 0x5 PUSH0 CALLER PUSH20 0xFFFFFFFFFFFFFFFFFFFFFFFFFFFFFFFFFFFFFFFF AND PUSH20 0xFFFFFFFFFFFFFFFFFFFFFFFFFFFFFFFFFFFFFFFF AND DUP2 MSTORE PUSH1 0x20 ADD SWAP1 DUP2 MSTORE PUSH1 0x20 ADD PUSH0 KECCAK256 PUSH1 0x4 ADD PUSH0 SWAP1 SLOAD SWAP1 PUSH2 0x100 EXP SWAP1 DIV PUSH1 0xFF AND PUSH2 0x162F JUMPI PUSH1 0x40 MLOAD PUSH32 0x8C379A000000000000000000000000000000000000000000000000000000000 DUP2 MSTORE PUSH1 0x4 ADD PUSH2 0x1626 SWAP1 PUSH2 0x2366 JUMP JUMPDEST PUSH1 0x40 MLOAD DUP1 SWAP2 SUB SWAP1 REVERT JUMPDEST DUP1 PUSH1 0x5 PUSH0 CALLER PUSH20 0xFFFFFFFFFFFFFFFFFFFFFFFFFFFFFFFFFFFFFFFF AND PUSH20 0xFFFFFFFFFFFFFFFFFFFFFFFFFFFFFFFFFFFFFFFF AND DUP2 MSTORE PUSH1 0x20 ADD SWAP1 DUP2 MSTORE PUSH1 0x20 ADD PUSH0 KECCAK256 PUSH1 0x3 ADD SLOAD LT ISZERO PUSH2 0x16B2 JUMPI PUSH1 0x40 MLOAD PUSH32 0x8C379A000000000000000000000000000000000000000000000000000000000 DUP2 MSTORE PUSH1 0x4 ADD PUSH2 0x16A9 SWAP1 PUSH2 0x2A9C JUMP JUMPDEST PUSH1 0x40 MLOAD DUP1 SWAP2 SUB SWAP1 REVERT JUMPDEST DUP1 SELFBALANCE LT ISZERO PUSH2 0x16F5 JUMPI PUSH1 0x40 MLOAD PUSH32 0x8C379A000000000000000000000000000000000000000000000000000000000 DUP2 MSTORE PUSH1 0x4 ADD PUSH2 0x16EC SWAP1 PUSH2 0x2B2A JUMP JUMPDEST PUSH1 0x40 MLOAD DUP1 SWAP2 SUB SWAP1 REVERT JUMPDEST DUP1 PUSH1 0x5 PUSH0 CALLER PUSH20 0xFFFFFFFFFFFFFFFFFFFFFFFFFFFFFFFFFFFFFFFF AND PUSH20 0xFFFFFFFFFFFFFFFFFFFFFFFFFFFFFFFFFFFFFFFF AND DUP2 MSTORE PUSH1 0x20 ADD SWAP1 DUP2 MSTORE PUSH1 0x20 ADD PUSH0 KECCAK256 PUSH1 0x3 ADD PUSH0 DUP3 DUP3 SLOAD PUSH2 0x1744 SWAP2 SWAP1 PUSH2 0x24E2 JUMP JUMPDEST SWAP3 POP POP DUP2 SWAP1 SSTORE POP DUP2 PUSH20 0xFFFFFFFFFFFFFFFFFFFFFFFFFFFFFFFFFFFFFFFF AND PUSH2 0x8FC DUP3 SWAP1 DUP2 ISZERO MUL SWAP1 PUSH1 0x40 MLOAD PUSH0 PUSH1 0x40 MLOAD DUP1 DUP4 SUB DUP2 DUP6 DUP9 DUP9 CALL SWAP4 POP POP POP POP ISZERO DUP1 ISZERO PUSH2 0x178E JUMPI RETURNDATASIZE PUSH0 PUSH0 RETURNDATACOPY RETURNDATASIZE PUSH0 REVERT JUMPDEST POP DUP2 PUSH20 0xFFFFFFFFFFFFFFFFFFFFFFFFFFFFFFFFFFFFFFFF AND CALLER PUSH20 0xFFFFFFFFFFFFFFFFFFFFFFFFFFFFFFFFFFFFFFFF AND PUSH32 0xE9171AEFF46C37AB955B8AFF908E14AE9732BD06634FA131226CFE5C25BFD2FB DUP4 PUSH1 0x40 MLOAD PUSH2 0x17EC SWAP2 SWAP1 PUSH2 0x1BC8 JUMP JUMPDEST PUSH1 0x40 MLOAD DUP1 SWAP2 SUB SWAP1 LOG3 POP POP JUMP JUMPDEST PUSH0 PUSH0 SWAP1 SLOAD SWAP1 PUSH2 0x100 EXP SWAP1 DIV PUSH20 0xFFFFFFFFFFFFFFFFFFFFFFFFFFFFFFFFFFFFFFFF AND PUSH20 0xFFFFFFFFFFFFFFFFFFFFFFFFFFFFFFFFFFFFFFFF AND CALLER PUSH20 0xFFFFFFFFFFFFFFFFFFFFFFFFFFFFFFFFFFFFFFFF AND EQ PUSH2 0x1886 JUMPI PUSH1 0x40 MLOAD PUSH32 0x8C379A000000000000000000000000000000000000000000000000000000000 DUP2 MSTORE PUSH1 0x4 ADD PUSH2 0x187D SWAP1 PUSH2 0x20E3 JUMP JUMPDEST PUSH1 0x40 MLOAD DUP1 SWAP2 SUB SWAP1 REVERT JUMPDEST PUSH0 SELFBALANCE SWAP1 POP PUSH0 DUP2 GT PUSH2 0x18CC JUMPI PUSH1 0x40 MLOAD PUSH32 0x8C379A000000000000000000000000000000000000000000000000000000000 DUP2 MSTORE PUSH1 0x4 ADD PUSH2 0x18C3 SWAP1 PUSH2 0x2B92 JUMP JUMPDEST PUSH1 0x40 MLOAD DUP1 SWAP2 SUB SWAP1 REVERT JUMPDEST PUSH0 PUSH0 PUSH0 SWAP1 SLOAD SWAP1 PUSH2 0x100 EXP SWAP1 DIV PUSH20 0xFFFFFFFFFFFFFFFFFFFFFFFFFFFFFFFFFFFFFFFF AND PUSH20 0xFFFFFFFFFFFFFFFFFFFFFFFFFFFFFFFFFFFFFFFF AND DUP3 PUSH1 0x40 MLOAD PUSH2 0x1911 SWAP1 PUSH2 0x2542 JUMP JUMPDEST PUSH0 PUSH1 0x40 MLOAD DUP1 DUP4 SUB DUP2 DUP6 DUP8 GAS CALL SWAP3 POP POP POP RETURNDATASIZE DUP1 PUSH0 DUP2 EQ PUSH2 0x194B JUMPI PUSH1 0x40 MLOAD SWAP2 POP PUSH1 0x1F NOT PUSH1 0x3F RETURNDATASIZE ADD AND DUP3 ADD PUSH1 0x40 MSTORE RETURNDATASIZE DUP3 MSTORE RETURNDATASIZE PUSH0 PUSH1 0x20 DUP5 ADD RETURNDATACOPY PUSH2 0x1950 JUMP JUMPDEST PUSH1 0x60 SWAP2 POP JUMPDEST POP POP SWAP1 POP DUP1 PUSH2 0x1994 JUMPI PUSH1 0x40 MLOAD PUSH32 0x8C379A000000000000000000000000000000000000000000000000000000000 DUP2 MSTORE PUSH1 0x4 ADD PUSH2 0x198B SWAP1 PUSH2 0x2BFA JUMP JUMPDEST PUSH1 0x40 MLOAD DUP1 SWAP2 SUB SWAP1 REVERT JUMPDEST POP POP JUMP JUMPDEST PUSH1 0x3 SLOAD DUP2 JUMP JUMPDEST PUSH1 0x2 SLOAD DUP2 JUMP JUMPDEST PUSH0 PUSH0 SWAP1 SLOAD SWAP1 PUSH2 0x100 EXP SWAP1 DIV PUSH20 0xFFFFFFFFFFFFFFFFFFFFFFFFFFFFFFFFFFFFFFFF AND PUSH20 0xFFFFFFFFFFFFFFFFFFFFFFFFFFFFFFFFFFFFFFFF AND CALLER PUSH20 0xFFFFFFFFFFFFFFFFFFFFFFFFFFFFFFFFFFFFFFFF AND EQ PUSH2 0x1A32 JUMPI PUSH1 0x40 MLOAD PUSH32 0x8C379A000000000000000000000000000000000000000000000000000000000 DUP2 MSTORE PUSH1 0x4 ADD PUSH2 0x1A29 SWAP1 PUSH2 0x20E3 JUMP JUMPDEST PUSH1 0x40 MLOAD DUP1 SWAP2 SUB SWAP1 REVERT JUMPDEST PUSH0 PUSH32 0x0 PUSH20 0xFFFFFFFFFFFFFFFFFFFFFFFFFFFFFFFFFFFFFFFF AND PUSH4 0x2A2FAB22 PUSH1 0x40 MLOAD DUP2 PUSH4 0xFFFFFFFF AND PUSH1 0xE0 SHL DUP2 MSTORE PUSH1 0x4 ADD PUSH1 0x20 PUSH1 0x40 MLOAD DUP1 DUP4 SUB DUP2 DUP7 GAS STATICCALL ISZERO DUP1 ISZERO PUSH2 0x1A9C JUMPI RETURNDATASIZE PUSH0 PUSH0 RETURNDATACOPY RETURNDATASIZE PUSH0 REVERT JUMPDEST POP POP POP POP PUSH1 0x40 MLOAD RETURNDATASIZE PUSH1 0x1F NOT PUSH1 0x1F DUP3 ADD AND DUP3 ADD DUP1 PUSH1 0x40 MSTORE POP DUP2 ADD SWAP1 PUSH2 0x1AC0 SWAP2 SWAP1 PUSH2 0x2C2C JUMP JUMPDEST SWAP1 POP PUSH0 DUP2 GT PUSH2 0x1B04 JUMPI PUSH1 0x40 MLOAD PUSH32 0x8C379A000000000000000000000000000000000000000000000000000000000 DUP2 MSTORE PUSH1 0x4 ADD PUSH2 0x1AFB SWAP1 PUSH2 0x2CA1 JUMP JUMPDEST PUSH1 0x40 MLOAD DUP1 SWAP2 SUB SWAP1 REVERT JUMPDEST POP JUMP JUMPDEST PUSH1 0x40 MLOAD DUP1 PUSH1 0xA0 ADD PUSH1 0x40 MSTORE DUP1 PUSH0 DUP2 MSTORE PUSH1 0x20 ADD PUSH1 0x60 DUP2 MSTORE PUSH1 0x20 ADD PUSH0 PUSH20 0xFFFFFFFFFFFFFFFFFFFFFFFFFFFFFFFFFFFFFFFF AND DUP2 MSTORE PUSH1 0x20 ADD PUSH0 DUP2 MSTORE PUSH1 0x20 ADD PUSH0 ISZERO ISZERO DUP2 MSTORE POP SWAP1 JUMP JUMPDEST PUSH0 DUP2 SWAP1 POP SWAP2 SWAP1 POP JUMP JUMPDEST PUSH2 0x1B5C DUP2 PUSH2 0x1B4A JUMP JUMPDEST DUP3 MSTORE POP POP JUMP JUMPDEST PUSH0 PUSH20 0xFFFFFFFFFFFFFFFFFFFFFFFFFFFFFFFFFFFFFFFF DUP3 AND SWAP1 POP SWAP2 SWAP1 POP JUMP JUMPDEST PUSH0 PUSH2 0x1B8B DUP3 PUSH2 0x1B62 JUMP JUMPDEST SWAP1 POP SWAP2 SWAP1 POP JUMP JUMPDEST PUSH2 0x1B9B DUP2 PUSH2 0x1B81 JUMP JUMPDEST DUP3 MSTORE POP POP JUMP JUMPDEST PUSH0 PUSH1 0x40 DUP3 ADD SWAP1 POP PUSH2 0x1BB4 PUSH0 DUP4 ADD DUP6 PUSH2 0x1B53 JUMP JUMPDEST PUSH2 0x1BC1 PUSH1 0x20 DUP4 ADD DUP5 PUSH2 0x1B92 JUMP JUMPDEST SWAP4 SWAP3 POP POP POP JUMP JUMPDEST PUSH0 PUSH1 0x20 DUP3 ADD SWAP1 POP PUSH2 0x1BDB PUSH0 DUP4 ADD DUP5 PUSH2 0x1B53 JUMP JUMPDEST SWAP3 SWAP2 POP POP JUMP JUMPDEST PUSH0 PUSH1 0x40 MLOAD SWAP1 POP SWAP1 JUMP JUMPDEST PUSH0 PUSH0 REVERT JUMPDEST PUSH0 PUSH0 REVERT JUMPDEST PUSH2 0x1BFB DUP2 PUSH2 0x1B4A JUMP JUMPDEST DUP2 EQ PUSH2 0x1C05 JUMPI PUSH0 PUSH0 REVERT JUMPDEST POP JUMP JUMPDEST PUSH0 DUP2 CALLDATALOAD SWAP1 POP PUSH2 0x1C16 DUP2 PUSH2 0x1BF2 JUMP JUMPDEST SWAP3 SWAP2 POP POP JUMP JUMPDEST PUSH0 PUSH1 0x20 DUP3 DUP5 SUB SLT ISZERO PUSH2 0x1C31 JUMPI PUSH2 0x1C30 PUSH2 0x1BEA JUMP JUMPDEST JUMPDEST PUSH0 PUSH2 0x1C3E DUP5 DUP3 DUP6 ADD PUSH2 0x1C08 JUMP JUMPDEST SWAP2 POP POP SWAP3 SWAP2 POP POP JUMP JUMPDEST PUSH2 0x1C50 DUP2 PUSH2 0x1B4A JUMP JUMPDEST DUP3 MSTORE POP POP JUMP JUMPDEST PUSH0 DUP2 MLOAD SWAP1 POP SWAP2 SWAP1 POP JUMP JUMPDEST PUSH0 DUP3 DUP3 MSTORE PUSH1 0x20 DUP3 ADD SWAP1 POP SWAP3 SWAP2 POP POP JUMP JUMPDEST DUP3 DUP2 DUP4 MCOPY PUSH0 DUP4 DUP4 ADD MSTORE POP POP POP JUMP JUMPDEST PUSH0 PUSH1 0x1F NOT PUSH1 0x1F DUP4 ADD AND SWAP1 POP SWAP2 SWAP1 POP JUMP JUMPDEST PUSH0 PUSH2 0x1C98 DUP3 PUSH2 0x1C56 JUMP JUMPDEST PUSH2 0x1CA2 DUP2 DUP6 PUSH2 0x1C60 JUMP JUMPDEST SWAP4 POP PUSH2 0x1CB2 DUP2 DUP6 PUSH1 0x20 DUP7 ADD PUSH2 0x1C70 JUMP JUMPDEST PUSH2 0x1CBB DUP2 PUSH2 0x1C7E JUMP JUMPDEST DUP5 ADD SWAP2 POP POP SWAP3 SWAP2 POP POP JUMP JUMPDEST PUSH2 0x1CCF DUP2 PUSH2 0x1B81 JUMP JUMPDEST DUP3 MSTORE POP POP JUMP JUMPDEST PUSH0 DUP2 ISZERO ISZERO SWAP1 POP SWAP2 SWAP1 POP JUMP JUMPDEST PUSH2 0x1CE9 DUP2 PUSH2 0x1CD5 JUMP JUMPDEST DUP3 MSTORE POP POP JUMP JUMPDEST PUSH0 PUSH1 0xA0 DUP4 ADD PUSH0 DUP4 ADD MLOAD PUSH2 0x1D04 PUSH0 DUP7 ADD DUP3 PUSH2 0x1C47 JUMP JUMPDEST POP PUSH1 0x20 DUP4 ADD MLOAD DUP5 DUP3 SUB PUSH1 0x20 DUP7 ADD MSTORE PUSH2 0x1D1C DUP3 DUP3 PUSH2 0x1C8E JUMP JUMPDEST SWAP2 POP POP PUSH1 0x40 DUP4 ADD MLOAD PUSH2 0x1D31 PUSH1 0x40 DUP7 ADD DUP3 PUSH2 0x1CC6 JUMP JUMPDEST POP PUSH1 0x60 DUP4 ADD MLOAD PUSH2 0x1D44 PUSH1 0x60 DUP7 ADD DUP3 PUSH2 0x1C47 JUMP JUMPDEST POP PUSH1 0x80 DUP4 ADD MLOAD PUSH2 0x1D57 PUSH1 0x80 DUP7 ADD DUP3 PUSH2 0x1CE0 JUMP JUMPDEST POP DUP1 SWAP2 POP POP SWAP3 SWAP2 POP POP JUMP JUMPDEST PUSH0 PUSH1 0x20 DUP3 ADD SWAP1 POP DUP2 DUP2 SUB PUSH0 DUP4 ADD MSTORE PUSH2 0x1D7A DUP2 DUP5 PUSH2 0x1CEF JUMP JUMPDEST SWAP1 POP SWAP3 SWAP2 POP POP JUMP JUMPDEST PUSH0 PUSH2 0x1D8C DUP3 PUSH2 0x1B62 JUMP JUMPDEST SWAP1 POP SWAP2 SWAP1 POP JUMP JUMPDEST PUSH2 0x1D9C DUP2 PUSH2 0x1D82 JUMP JUMPDEST DUP2 EQ PUSH2 0x1DA6 JUMPI PUSH0 PUSH0 REVERT JUMPDEST POP JUMP JUMPDEST PUSH0 DUP2 CALLDATALOAD SWAP1 POP PUSH2 0x1DB7 DUP2 PUSH2 0x1D93 JUMP JUMPDEST SWAP3 SWAP2 POP POP JUMP JUMPDEST PUSH0 PUSH0 PUSH1 0x40 DUP4 DUP6 SUB SLT ISZERO PUSH2 0x1DD3 JUMPI PUSH2 0x1DD2 PUSH2 0x1BEA JUMP JUMPDEST JUMPDEST PUSH0 PUSH2 0x1DE0 DUP6 DUP3 DUP7 ADD PUSH2 0x1DA9 JUMP JUMPDEST SWAP3 POP POP PUSH1 0x20 PUSH2 0x1DF1 DUP6 DUP3 DUP7 ADD PUSH2 0x1C08 JUMP JUMPDEST SWAP2 POP POP SWAP3 POP SWAP3 SWAP1 POP JUMP JUMPDEST PUSH0 DUP2 SWAP1 POP SWAP2 SWAP1 POP JUMP JUMPDEST PUSH0 PUSH2 0x1E1E PUSH2 0x1E19 PUSH2 0x1E14 DUP5 PUSH2 0x1B62 JUMP JUMPDEST PUSH2 0x1DFB JUMP JUMPDEST PUSH2 0x1B62 JUMP JUMPDEST SWAP1 POP SWAP2 SWAP1 POP JUMP JUMPDEST PUSH0 PUSH2 0x1E2F DUP3 PUSH2 0x1E04 JUMP JUMPDEST SWAP1 POP SWAP2 SWAP1 POP JUMP JUMPDEST PUSH0 PUSH2 0x1E40 DUP3 PUSH2 0x1E25 JUMP JUMPDEST SWAP1 POP SWAP2 SWAP1 POP JUMP JUMPDEST PUSH2 0x1E50 DUP2 PUSH2 0x1E36 JUMP JUMPDEST DUP3 MSTORE POP POP JUMP JUMPDEST PUSH0 PUSH1 0x20 DUP3 ADD SWAP1 POP PUSH2 0x1E69 PUSH0 DUP4 ADD DUP5 PUSH2 0x1E47 JUMP JUMPDEST SWAP3 SWAP2 POP POP JUMP JUMPDEST PUSH0 PUSH1 0x20 DUP3 ADD SWAP1 POP PUSH2 0x1E82 PUSH0 DUP4 ADD DUP5 PUSH2 0x1B92 JUMP JUMPDEST SWAP3 SWAP2 POP POP JUMP JUMPDEST PUSH2 0x1E91 DUP2 PUSH2 0x1B81 JUMP JUMPDEST DUP2 EQ PUSH2 0x1E9B JUMPI PUSH0 PUSH0 REVERT JUMPDEST POP JUMP JUMPDEST PUSH0 DUP2 CALLDATALOAD SWAP1 POP PUSH2 0x1EAC DUP2 PUSH2 0x1E88 JUMP JUMPDEST SWAP3 SWAP2 POP POP JUMP JUMPDEST PUSH0 PUSH1 0x20 DUP3 DUP5 SUB SLT ISZERO PUSH2 0x1EC7 JUMPI PUSH2 0x1EC6 PUSH2 0x1BEA JUMP JUMPDEST JUMPDEST PUSH0 PUSH2 0x1ED4 DUP5 DUP3 DUP6 ADD PUSH2 0x1E9E JUMP JUMPDEST SWAP2 POP POP SWAP3 SWAP2 POP POP JUMP JUMPDEST PUSH0 PUSH0 REVERT JUMPDEST PUSH0 PUSH0 REVERT JUMPDEST PUSH32 0x4E487B7100000000000000000000000000000000000000000000000000000000 PUSH0 MSTORE PUSH1 0x41 PUSH1 0x4 MSTORE PUSH1 0x24 PUSH0 REVERT JUMPDEST PUSH2 0x1F1B DUP3 PUSH2 0x1C7E JUMP JUMPDEST DUP2 ADD DUP2 DUP2 LT PUSH8 0xFFFFFFFFFFFFFFFF DUP3 GT OR ISZERO PUSH2 0x1F3A JUMPI PUSH2 0x1F39 PUSH2 0x1EE5 JUMP JUMPDEST JUMPDEST DUP1 PUSH1 0x40 MSTORE POP POP POP JUMP JUMPDEST PUSH0 PUSH2 0x1F4C PUSH2 0x1BE1 JUMP JUMPDEST SWAP1 POP PUSH2 0x1F58 DUP3 DUP3 PUSH2 0x1F12 JUMP JUMPDEST SWAP2 SWAP1 POP JUMP JUMPDEST PUSH0 PUSH8 0xFFFFFFFFFFFFFFFF DUP3 GT ISZERO PUSH2 0x1F77 JUMPI PUSH2 0x1F76 PUSH2 0x1EE5 JUMP JUMPDEST JUMPDEST PUSH2 0x1F80 DUP3 PUSH2 0x1C7E JUMP JUMPDEST SWAP1 POP PUSH1 0x20 DUP2 ADD SWAP1 POP SWAP2 SWAP1 POP JUMP JUMPDEST DUP3 DUP2 DUP4 CALLDATACOPY PUSH0 DUP4 DUP4 ADD MSTORE POP POP POP JUMP JUMPDEST PUSH0 PUSH2 0x1FAD PUSH2 0x1FA8 DUP5 PUSH2 0x1F5D JUMP JUMPDEST PUSH2 0x1F43 JUMP JUMPDEST SWAP1 POP DUP3 DUP2 MSTORE PUSH1 0x20 DUP2 ADD DUP5 DUP5 DUP5 ADD GT ISZERO PUSH2 0x1FC9 JUMPI PUSH2 0x1FC8 PUSH2 0x1EE1 JUMP JUMPDEST JUMPDEST PUSH2 0x1FD4 DUP5 DUP3 DUP6 PUSH2 0x1F8D JUMP JUMPDEST POP SWAP4 SWAP3 POP POP POP JUMP JUMPDEST PUSH0 DUP3 PUSH1 0x1F DUP4 ADD SLT PUSH2 0x1FF0 JUMPI PUSH2 0x1FEF PUSH2 0x1EDD JUMP JUMPDEST JUMPDEST DUP2 CALLDATALOAD PUSH2 0x2000 DUP5 DUP3 PUSH1 0x20 DUP7 ADD PUSH2 0x1F9B JUMP JUMPDEST SWAP2 POP POP SWAP3 SWAP2 POP POP JUMP JUMPDEST PUSH0 PUSH0 PUSH1 0x40 DUP4 DUP6 SUB SLT ISZERO PUSH2 0x201F JUMPI PUSH2 0x201E PUSH2 0x1BEA JUMP JUMPDEST JUMPDEST PUSH0 DUP4 ADD CALLDATALOAD PUSH8 0xFFFFFFFFFFFFFFFF DUP2 GT ISZERO PUSH2 0x203C JUMPI PUSH2 0x203B PUSH2 0x1BEE JUMP JUMPDEST JUMPDEST PUSH2 0x2048 DUP6 DUP3 DUP7 ADD PUSH2 0x1FDC JUMP JUMPDEST SWAP3 POP POP PUSH1 0x20 PUSH2 0x2059 DUP6 DUP3 DUP7 ADD PUSH2 0x1E9E JUMP JUMPDEST SWAP2 POP POP SWAP3 POP SWAP3 SWAP1 POP JUMP JUMPDEST PUSH0 DUP3 DUP3 MSTORE PUSH1 0x20 DUP3 ADD SWAP1 POP SWAP3 SWAP2 POP POP JUMP JUMPDEST PUSH32 0x4F6E6C79206F776E65722063616E2063616C6C20746869732066756E6374696F PUSH0 DUP3 ADD MSTORE PUSH32 0x6E00000000000000000000000000000000000000000000000000000000000000 PUSH1 0x20 DUP3 ADD MSTORE POP JUMP JUMPDEST PUSH0 PUSH2 0x20CD PUSH1 0x21 DUP4 PUSH2 0x2063 JUMP JUMPDEST SWAP2 POP PUSH2 0x20D8 DUP3 PUSH2 0x2073 JUMP JUMPDEST PUSH1 0x40 DUP3 ADD SWAP1 POP SWAP2 SWAP1 POP JUMP JUMPDEST PUSH0 PUSH1 0x20 DUP3 ADD SWAP1 POP DUP2 DUP2 SUB PUSH0 DUP4 ADD MSTORE PUSH2 0x20FA DUP2 PUSH2 0x20C1 JUMP JUMPDEST SWAP1 POP SWAP2 SWAP1 POP JUMP JUMPDEST PUSH32 0x4D65726368616E74204944206E6F7420666F756E640000000000000000000000 PUSH0 DUP3 ADD MSTORE POP JUMP JUMPDEST PUSH0 PUSH2 0x2135 PUSH1 0x15 DUP4 PUSH2 0x2063 JUMP JUMPDEST SWAP2 POP PUSH2 0x2140 DUP3 PUSH2 0x2101 JUMP JUMPDEST PUSH1 0x20 DUP3 ADD SWAP1 POP SWAP2 SWAP1 POP JUMP JUMPDEST PUSH0 PUSH1 0x20 DUP3 ADD SWAP1 POP DUP2 DUP2 SUB PUSH0 DUP4 ADD MSTORE PUSH2 0x2162 DUP2 PUSH2 0x2129 JUMP JUMPDEST SWAP1 POP SWAP2 SWAP1 POP JUMP JUMPDEST PUSH32 0x4E487B7100000000000000000000000000000000000000000000000000000000 PUSH0 MSTORE PUSH1 0x22 PUSH1 0x4 MSTORE PUSH1 0x24 PUSH0 REVERT JUMPDEST PUSH0 PUSH1 0x2 DUP3 DIV SWAP1 POP PUSH1 0x1 DUP3 AND DUP1 PUSH2 0x21AD JUMPI PUSH1 0x7F DUP3 AND SWAP2 POP JUMPDEST PUSH1 0x20 DUP3 LT DUP2 SUB PUSH2 0x21C0 JUMPI PUSH2 0x21BF PUSH2 0x2169 JUMP JUMPDEST JUMPDEST POP SWAP2 SWAP1 POP JUMP JUMPDEST PUSH32 0x4E487B7100000000000000000000000000000000000000000000000000000000 PUSH0 MSTORE PUSH1 0x11 PUSH1 0x4 MSTORE PUSH1 0x24 PUSH0 REVERT JUMPDEST PUSH0 PUSH2 0x21FD DUP3 PUSH2 0x1B4A JUMP JUMPDEST SWAP2 POP PUSH2 0x2208 DUP4 PUSH2 0x1B4A JUMP JUMPDEST SWAP3 POP DUP3 DUP3 ADD SWAP1 POP DUP1 DUP3 GT ISZERO PUSH2 0x2220 JUMPI PUSH2 0x221F PUSH2 0x21C6 JUMP JUMPDEST JUMPDEST SWAP3 SWAP2 POP POP JUMP JUMPDEST PUSH32 0x4C656E64696E6720746F6F20736F6F6E00000000000000000000000000000000 PUSH0 DUP3 ADD MSTORE POP JUMP JUMPDEST PUSH0 PUSH2 0x225A PUSH1 0x10 DUP4 PUSH2 0x2063 JUMP JUMPDEST SWAP2 POP PUSH2 0x2265 DUP3 PUSH2 0x2226 JUMP JUMPDEST PUSH1 0x20 DUP3 ADD SWAP1 POP SWAP2 SWAP1 POP JUMP JUMPDEST PUSH0 PUSH1 0x20 DUP3 ADD SWAP1 POP DUP2 DUP2 SUB PUSH0 DUP4 ADD MSTORE PUSH2 0x2287 DUP2 PUSH2 0x224E JUMP JUMPDEST SWAP1 POP SWAP2 SWAP1 POP JUMP JUMPDEST PUSH32 0x4E6F7420656E6F7567682066756E647320746F206C656E640000000000000000 PUSH0 DUP3 ADD MSTORE POP JUMP JUMPDEST PUSH0 PUSH2 0x22C2 PUSH1 0x18 DUP4 PUSH2 0x2063 JUMP JUMPDEST SWAP2 POP PUSH2 0x22CD DUP3 PUSH2 0x228E JUMP JUMPDEST PUSH1 0x20 DUP3 ADD SWAP1 POP SWAP2 SWAP1 POP JUMP JUMPDEST PUSH0 PUSH1 0x20 DUP3 ADD SWAP1 POP DUP2 DUP2 SUB PUSH0 DUP4 ADD MSTORE PUSH2 0x22EF DUP2 PUSH2 0x22B6 JUMP JUMPDEST SWAP1 POP SWAP2 SWAP1 POP JUMP JUMPDEST PUSH32 0x4F6E6C792072656769737465726564206D65726368616E74732063616E206361 PUSH0 DUP3 ADD MSTORE PUSH32 0x6C6C207468697300000000000000000000000000000000000000000000000000 PUSH1 0x20 DUP3 ADD MSTORE POP JUMP JUMPDEST PUSH0 PUSH2 0x2350 PUSH1 0x27 DUP4 PUSH2 0x2063 JUMP JUMPDEST SWAP2 POP PUSH2 0x235B DUP3 PUSH2 0x22F6 JUMP JUMPDEST PUSH1 0x40 DUP3 ADD SWAP1 POP SWAP2 SWAP1 POP JUMP JUMPDEST PUSH0 PUSH1 0x20 DUP3 ADD SWAP1 POP DUP2 DUP2 SUB PUSH0 DUP4 ADD MSTORE PUSH2 0x237D DUP2 PUSH2 0x2344 JUMP JUMPDEST SWAP1 POP SWAP2 SWAP1 POP JUMP JUMPDEST PUSH32 0x416D6F756E7420746F6F20736D616C6C20746F20726574726965766500000000 PUSH0 DUP3 ADD MSTORE POP JUMP JUMPDEST PUSH0 PUSH2 0x23B8 PUSH1 0x1C DUP4 PUSH2 0x2063 JUMP JUMPDEST SWAP2 POP PUSH2 0x23C3 DUP3 PUSH2 0x2384 JUMP JUMPDEST PUSH1 0x20 DUP3 ADD SWAP1 POP SWAP2 SWAP1 POP JUMP JUMPDEST PUSH0 PUSH1 0x20 DUP3 ADD SWAP1 POP DUP2 DUP2 SUB PUSH0 DUP4 ADD MSTORE PUSH2 0x23E5 DUP2 PUSH2 0x23AC JUMP JUMPDEST SWAP1 POP SWAP2 SWAP1 POP JUMP JUMPDEST PUSH32 0x496E73756666696369656E742066756E647320696E206D65726368616E742773 PUSH0 DUP3 ADD MSTORE PUSH32 0x2062616C616E6365000000000000000000000000000000000000000000000000 PUSH1 0x20 DUP3 ADD MSTORE POP JUMP JUMPDEST PUSH0 PUSH2 0x2446 PUSH1 0x28 DUP4 PUSH2 0x2063 JUMP JUMPDEST SWAP2 POP PUSH2 0x2451 DUP3 PUSH2 0x23EC JUMP JUMPDEST PUSH1 0x40 DUP3 ADD SWAP1 POP SWAP2 SWAP1 POP JUMP JUMPDEST PUSH0 PUSH1 0x20 DUP3 ADD SWAP1 POP DUP2 DUP2 SUB PUSH0 DUP4 ADD MSTORE PUSH2 0x2473 DUP2 PUSH2 0x243A JUMP JUMPDEST SWAP1 POP SWAP2 SWAP1 POP JUMP JUMPDEST PUSH32 0x496E76616C696420637573746F6D657220616464726573730000000000000000 PUSH0 DUP3 ADD MSTORE POP JUMP JUMPDEST PUSH0 PUSH2 0x24AE PUSH1 0x18 DUP4 PUSH2 0x2063 JUMP JUMPDEST SWAP2 POP PUSH2 0x24B9 DUP3 PUSH2 0x247A JUMP JUMPDEST PUSH1 0x20 DUP3 ADD SWAP1 POP SWAP2 SWAP1 POP JUMP JUMPDEST PUSH0 PUSH1 0x20 DUP3 ADD SWAP1 POP DUP2 DUP2 SUB PUSH0 DUP4 ADD MSTORE PUSH2 0x24DB DUP2 PUSH2 0x24A2 JUMP JUMPDEST SWAP1 POP SWAP2 SWAP1 POP JUMP JUMPDEST PUSH0 PUSH2 0x24EC DUP3 PUSH2 0x1B4A JUMP JUMPDEST SWAP2 POP PUSH2 0x24F7 DUP4 PUSH2 0x1B4A JUMP JUMPDEST SWAP3 POP DUP3 DUP3 SUB SWAP1 POP DUP2 DUP2 GT ISZERO PUSH2 0x250F JUMPI PUSH2 0x250E PUSH2 0x21C6 JUMP JUMPDEST JUMPDEST SWAP3 SWAP2 POP POP JUMP JUMPDEST PUSH0 DUP2 SWAP1 POP SWAP3 SWAP2 POP POP JUMP JUMPDEST POP JUMP JUMPDEST PUSH0 PUSH2 0x252D PUSH0 DUP4 PUSH2 0x2515 JUMP JUMPDEST SWAP2 POP PUSH2 0x2538 DUP3 PUSH2 0x251F JUMP JUMPDEST PUSH0 DUP3 ADD SWAP1 POP SWAP2 SWAP1 POP JUMP JUMPDEST PUSH0 PUSH2 0x254C DUP3 PUSH2 0x2522 JUMP JUMPDEST SWAP2 POP DUP2 SWAP1 POP SWAP2 SWAP1 POP JUMP JUMPDEST PUSH32 0x526566756E64206661696C656400000000000000000000000000000000000000 PUSH0 DUP3 ADD MSTORE POP JUMP JUMPDEST PUSH0 PUSH2 0x258A PUSH1 0xD DUP4 PUSH2 0x2063 JUMP JUMPDEST SWAP2 POP PUSH2 0x2595 DUP3 PUSH2 0x2556 JUMP JUMPDEST PUSH1 0x20 DUP3 ADD SWAP1 POP SWAP2 SWAP1 POP JUMP JUMPDEST PUSH0 PUSH1 0x20 DUP3 ADD SWAP1 POP DUP2 DUP2 SUB PUSH0 DUP4 ADD MSTORE PUSH2 0x25B7 DUP2 PUSH2 0x257E JUMP JUMPDEST SWAP1 POP SWAP2 SWAP1 POP JUMP JUMPDEST PUSH32 0x4D65726368616E74206E6F742072656769737465726564000000000000000000 PUSH0 DUP3 ADD MSTORE POP JUMP JUMPDEST PUSH0 PUSH2 0x25F2 PUSH1 0x17 DUP4 PUSH2 0x2063 JUMP JUMPDEST SWAP2 POP PUSH2 0x25FD DUP3 PUSH2 0x25BE JUMP JUMPDEST PUSH1 0x20 DUP3 ADD SWAP1 POP SWAP2 SWAP1 POP JUMP JUMPDEST PUSH0 PUSH1 0x20 DUP3 ADD SWAP1 POP DUP2 DUP2 SUB PUSH0 DUP4 ADD MSTORE PUSH2 0x261F DUP2 PUSH2 0x25E6 JUMP JUMPDEST SWAP1 POP SWAP2 SWAP1 POP JUMP JUMPDEST PUSH32 0x5061796D656E7420616D6F756E74206D75737420626520677265617465722074 PUSH0 DUP3 ADD MSTORE PUSH32 0x68616E207A65726F000000000000000000000000000000000000000000000000 PUSH1 0x20 DUP3 ADD MSTORE POP JUMP JUMPDEST PUSH0 PUSH2 0x2680 PUSH1 0x28 DUP4 PUSH2 0x2063 JUMP JUMPDEST SWAP2 POP PUSH2 0x268B DUP3 PUSH2 0x2626 JUMP JUMPDEST PUSH1 0x40 DUP3 ADD SWAP1 POP SWAP2 SWAP1 POP JUMP JUMPDEST PUSH0 PUSH1 0x20 DUP3 ADD SWAP1 POP DUP2 DUP2 SUB PUSH0 DUP4 ADD MSTORE PUSH2 0x26AD DUP2 PUSH2 0x2674 JUMP JUMPDEST SWAP1 POP SWAP2 SWAP1 POP JUMP JUMPDEST PUSH32 0x52657472696576696E6720746F6F20736F6F6E00000000000000000000000000 PUSH0 DUP3 ADD MSTORE POP JUMP JUMPDEST PUSH0 PUSH2 0x26E8 PUSH1 0x13 DUP4 PUSH2 0x2063 JUMP JUMPDEST SWAP2 POP PUSH2 0x26F3 DUP3 PUSH2 0x26B4 JUMP JUMPDEST PUSH1 0x20 DUP3 ADD SWAP1 POP SWAP2 SWAP1 POP JUMP JUMPDEST PUSH0 PUSH1 0x20 DUP3 ADD SWAP1 POP DUP2 DUP2 SUB PUSH0 DUP4 ADD MSTORE PUSH2 0x2715 DUP2 PUSH2 0x26DC JUMP JUMPDEST SWAP1 POP SWAP2 SWAP1 POP JUMP JUMPDEST PUSH32 0x46756E64732072657472696576616C206661696C656400000000000000000000 PUSH0 DUP3 ADD MSTORE POP JUMP JUMPDEST PUSH0 PUSH2 0x2750 PUSH1 0x16 DUP4 PUSH2 0x2063 JUMP JUMPDEST SWAP2 POP PUSH2 0x275B DUP3 PUSH2 0x271C JUMP JUMPDEST PUSH1 0x20 DUP3 ADD SWAP1 POP SWAP2 SWAP1 POP JUMP JUMPDEST PUSH0 PUSH1 0x20 DUP3 ADD SWAP1 POP DUP2 DUP2 SUB PUSH0 DUP4 ADD MSTORE PUSH2 0x277D DUP2 PUSH2 0x2744 JUMP JUMPDEST SWAP1 POP SWAP2 SWAP1 POP JUMP JUMPDEST PUSH32 0x4D65726368616E7420616C726561647920726567697374657265640000000000 PUSH0 DUP3 ADD MSTORE POP JUMP JUMPDEST PUSH0 PUSH2 0x27B8 PUSH1 0x1B DUP4 PUSH2 0x2063 JUMP JUMPDEST SWAP2 POP PUSH2 0x27C3 DUP3 PUSH2 0x2784 JUMP JUMPDEST PUSH1 0x20 DUP3 ADD SWAP1 POP SWAP2 SWAP1 POP JUMP JUMPDEST PUSH0 PUSH1 0x20 DUP3 ADD SWAP1 POP DUP2 DUP2 SUB PUSH0 DUP4 ADD MSTORE PUSH2 0x27E5 DUP2 PUSH2 0x27AC JUMP JUMPDEST SWAP1 POP SWAP2 SWAP1 POP JUMP JUMPDEST PUSH0 DUP2 SWAP1 POP DUP2 PUSH0 MSTORE PUSH1 0x20 PUSH0 KECCAK256 SWAP1 POP SWAP2 SWAP1 POP JUMP JUMPDEST PUSH0 PUSH1 0x20 PUSH1 0x1F DUP4 ADD DIV SWAP1 POP SWAP2 SWAP1 POP JUMP JUMPDEST PUSH0 DUP3 DUP3 SHL SWAP1 POP SWAP3 SWAP2 POP POP JUMP JUMPDEST PUSH0 PUSH1 0x8 DUP4 MUL PUSH2 0x2848 PUSH32 0xFFFFFFFFFFFFFFFFFFFFFFFFFFFFFFFFFFFFFFFFFFFFFFFFFFFFFFFFFFFFFFFF DUP3 PUSH2 0x280D JUMP JUMPDEST PUSH2 0x2852 DUP7 DUP4 PUSH2 0x280D JUMP JUMPDEST SWAP6 POP DUP1 NOT DUP5 AND SWAP4 POP DUP1 DUP7 AND DUP5 OR SWAP3 POP POP POP SWAP4 SWAP3 POP POP POP JUMP JUMPDEST PUSH0 PUSH2 0x2884 PUSH2 0x287F PUSH2 0x287A DUP5 PUSH2 0x1B4A JUMP JUMPDEST PUSH2 0x1DFB JUMP JUMPDEST PUSH2 0x1B4A JUMP JUMPDEST SWAP1 POP SWAP2 SWAP1 POP JUMP JUMPDEST PUSH0 DUP2 SWAP1 POP SWAP2 SWAP1 POP JUMP JUMPDEST PUSH2 0x289D DUP4 PUSH2 0x286A JUMP JUMPDEST PUSH2 0x28B1 PUSH2 0x28A9 DUP3 PUSH2 0x288B JUMP JUMPDEST DUP5 DUP5 SLOAD PUSH2 0x2819 JUMP JUMPDEST DUP3 SSTORE POP POP POP POP JUMP JUMPDEST PUSH0 PUSH0 SWAP1 POP SWAP1 JUMP JUMPDEST PUSH2 0x28C8 PUSH2 0x28B9 JUMP JUMPDEST PUSH2 0x28D3 DUP2 DUP5 DUP5 PUSH2 0x2894 JUMP JUMPDEST POP POP POP JUMP JUMPDEST JUMPDEST DUP2 DUP2 LT ISZERO PUSH2 0x28F6 JUMPI PUSH2 0x28EB PUSH0 DUP3 PUSH2 0x28C0 JUMP JUMPDEST PUSH1 0x1 DUP2 ADD SWAP1 POP PUSH2 0x28D9 JUMP JUMPDEST POP POP JUMP JUMPDEST PUSH1 0x1F DUP3 GT ISZERO PUSH2 0x293B JUMPI PUSH2 0x290C DUP2 PUSH2 0x27EC JUMP JUMPDEST PUSH2 0x2915 DUP5 PUSH2 0x27FE JUMP JUMPDEST DUP2 ADD PUSH1 0x20 DUP6 LT ISZERO PUSH2 0x2924 JUMPI DUP2 SWAP1 POP JUMPDEST PUSH2 0x2938 PUSH2 0x2930 DUP6 PUSH2 0x27FE JUMP JUMPDEST DUP4 ADD DUP3 PUSH2 0x28D8 JUMP JUMPDEST POP POP JUMPDEST POP POP POP JUMP JUMPDEST PUSH0 DUP3 DUP3 SHR SWAP1 POP SWAP3 SWAP2 POP POP JUMP JUMPDEST PUSH0 PUSH2 0x295B PUSH0 NOT DUP5 PUSH1 0x8 MUL PUSH2 0x2940 JUMP JUMPDEST NOT DUP1 DUP4 AND SWAP2 POP POP SWAP3 SWAP2 POP POP JUMP JUMPDEST PUSH0 PUSH2 0x2973 DUP4 DUP4 PUSH2 0x294C JUMP JUMPDEST SWAP2 POP DUP3 PUSH1 0x2 MUL DUP3 OR SWAP1 POP SWAP3 SWAP2 POP POP JUMP JUMPDEST PUSH2 0x298C DUP3 PUSH2 0x1C56 JUMP JUMPDEST PUSH8 0xFFFFFFFFFFFFFFFF DUP2 GT ISZERO PUSH2 0x29A5 JUMPI PUSH2 0x29A4 PUSH2 0x1EE5 JUMP JUMPDEST JUMPDEST PUSH2 0x29AF DUP3 SLOAD PUSH2 0x2196 JUMP JUMPDEST PUSH2 0x29BA DUP3 DUP3 DUP6 PUSH2 0x28FA JUMP JUMPDEST PUSH0 PUSH1 0x20 SWAP1 POP PUSH1 0x1F DUP4 GT PUSH1 0x1 DUP2 EQ PUSH2 0x29EB JUMPI PUSH0 DUP5 ISZERO PUSH2 0x29D9 JUMPI DUP3 DUP8 ADD MLOAD SWAP1 POP JUMPDEST PUSH2 0x29E3 DUP6 DUP3 PUSH2 0x2968 JUMP JUMPDEST DUP7 SSTORE POP PUSH2 0x2A4A JUMP JUMPDEST PUSH1 0x1F NOT DUP5 AND PUSH2 0x29F9 DUP7 PUSH2 0x27EC JUMP JUMPDEST PUSH0 JUMPDEST DUP3 DUP2 LT ISZERO PUSH2 0x2A20 JUMPI DUP5 DUP10 ADD MLOAD DUP3 SSTORE PUSH1 0x1 DUP3 ADD SWAP2 POP PUSH1 0x20 DUP6 ADD SWAP5 POP PUSH1 0x20 DUP2 ADD SWAP1 POP PUSH2 0x29FB JUMP JUMPDEST DUP7 DUP4 LT ISZERO PUSH2 0x2A3D JUMPI DUP5 DUP10 ADD MLOAD PUSH2 0x2A39 PUSH1 0x1F DUP10 AND DUP3 PUSH2 0x294C JUMP JUMPDEST DUP4 SSTORE POP JUMPDEST PUSH1 0x1 PUSH1 0x2 DUP9 MUL ADD DUP9 SSTORE POP POP POP JUMPDEST POP POP POP POP POP POP JUMP JUMPDEST PUSH32 0x496E73756666696369656E742062616C616E6365000000000000000000000000 PUSH0 DUP3 ADD MSTORE POP JUMP JUMPDEST PUSH0 PUSH2 0x2A86 PUSH1 0x14 DUP4 PUSH2 0x2063 JUMP JUMPDEST SWAP2 POP PUSH2 0x2A91 DUP3 PUSH2 0x2A52 JUMP JUMPDEST PUSH1 0x20 DUP3 ADD SWAP1 POP SWAP2 SWAP1 POP JUMP JUMPDEST PUSH0 PUSH1 0x20 DUP3 ADD SWAP1 POP DUP2 DUP2 SUB PUSH0 DUP4 ADD MSTORE PUSH2 0x2AB3 DUP2 PUSH2 0x2A7A JUMP JUMPDEST SWAP1 POP SWAP2 SWAP1 POP JUMP JUMPDEST PUSH32 0x4E6F7420656E6F756768206C697175696469747920617661696C61626C652C20 PUSH0 DUP3 ADD MSTORE PUSH32 0x72657472696576652066756E6473206669727374000000000000000000000000 PUSH1 0x20 DUP3 ADD MSTORE POP JUMP JUMPDEST PUSH0 PUSH2 0x2B14 PUSH1 0x34 DUP4 PUSH2 0x2063 JUMP JUMPDEST SWAP2 POP PUSH2 0x2B1F DUP3 PUSH2 0x2ABA JUMP JUMPDEST PUSH1 0x40 DUP3 ADD SWAP1 POP SWAP2 SWAP1 POP JUMP JUMPDEST PUSH0 PUSH1 0x20 DUP3 ADD SWAP1 POP DUP2 DUP2 SUB PUSH0 DUP4 ADD MSTORE PUSH2 0x2B41 DUP2 PUSH2 0x2B08 JUMP JUMPDEST SWAP1 POP SWAP2 SWAP1 POP JUMP JUMPDEST PUSH32 0x4E6F2066756E647320617661696C61626C650000000000000000000000000000 PUSH0 DUP3 ADD MSTORE POP JUMP JUMPDEST PUSH0 PUSH2 0x2B7C PUSH1 0x12 DUP4 PUSH2 0x2063 JUMP JUMPDEST SWAP2 POP PUSH2 0x2B87 DUP3 PUSH2 0x2B48 JUMP JUMPDEST PUSH1 0x20 DUP3 ADD SWAP1 POP SWAP2 SWAP1 POP JUMP JUMPDEST PUSH0 PUSH1 0x20 DUP3 ADD SWAP1 POP DUP2 DUP2 SUB PUSH0 DUP4 ADD MSTORE PUSH2 0x2BA9 DUP2 PUSH2 0x2B70 JUMP JUMPDEST SWAP1 POP SWAP2 SWAP1 POP JUMP JUMPDEST PUSH32 0x456D657267656E6379207769746864726177616C206661696C65640000000000 PUSH0 DUP3 ADD MSTORE POP JUMP JUMPDEST PUSH0 PUSH2 0x2BE4 PUSH1 0x1B DUP4 PUSH2 0x2063 JUMP JUMPDEST SWAP2 POP PUSH2 0x2BEF DUP3 PUSH2 0x2BB0 JUMP JUMPDEST PUSH1 0x20 DUP3 ADD SWAP1 POP SWAP2 SWAP1 POP JUMP JUMPDEST PUSH0 PUSH1 0x20 DUP3 ADD SWAP1 POP DUP2 DUP2 SUB PUSH0 DUP4 ADD MSTORE PUSH2 0x2C11 DUP2 PUSH2 0x2BD8 JUMP JUMPDEST SWAP1 POP SWAP2 SWAP1 POP JUMP JUMPDEST PUSH0 DUP2 MLOAD SWAP1 POP PUSH2 0x2C26 DUP2 PUSH2 0x1BF2 JUMP JUMPDEST SWAP3 SWAP2 POP POP JUMP JUMPDEST PUSH0 PUSH1 0x20 DUP3 DUP5 SUB SLT ISZERO PUSH2 0x2C41 JUMPI PUSH2 0x2C40 PUSH2 0x1BEA JUMP JUMPDEST JUMPDEST PUSH0 PUSH2 0x2C4E DUP5 DUP3 DUP6 ADD PUSH2 0x2C18 JUMP JUMPDEST SWAP2 POP POP SWAP3 SWAP2 POP POP JUMP JUMPDEST PUSH32 0x4E6F20696E74657265737420617661696C61626C650000000000000000000000 PUSH0 DUP3 ADD MSTORE POP JUMP JUMPDEST PUSH0 PUSH2 0x2C8B PUSH1 0x15 DUP4 PUSH2 0x2063 JUMP JUMPDEST SWAP2 POP PUSH2 0x2C96 DUP3 PUSH2 0x2C57 JUMP JUMPDEST PUSH1 0x20 DUP3 ADD SWAP1 POP SWAP2 SWAP1 POP JUMP JUMPDEST PUSH0 PUSH1 0x20 DUP3 ADD SWAP1 POP DUP2 DUP2 SUB PUSH0 DUP4 ADD MSTORE PUSH2 0x2CB8 DUP2 PUSH2 0x2C7F JUMP JUMPDEST SWAP1 POP SWAP2 SWAP1 POP JUMP INVALID LOG2 PUSH5 0x6970667358 0x22 SLT KECCAK256 MULMOD 0xC4 INVALID RETURN 0xED XOR CALLCODE PUSH16 0x92660C4B806C72DC144C72F046BFC0CD CALLDATACOPY DUP1 TLOAD 0xD DUP6 0xC7 0xDD 0xFB PUSH5 0x736F6C6343 STOP ADDMOD SHR STOP CALLER "
		},
		"gasEstimates": {
			"creation": {
				"codeDepositCost": "2301800",
				"executionCost": "infinite",
				"totalCost": "infinite"
			},
			"external": {
				"": "196",
				"aaveLendingProcessor()": "infinite",
				"collectAaveInterest()": "infinite",
				"emergencyWithdraw()": "infinite",
				"getMerchantById(uint256)": "infinite",
				"issueRefund(address,uint256)": "infinite",
				"lastLendTimestamp()": "2493",
				"lastRetrieveTimestamp()": "2513",
				"lendFundsBatch()": "infinite",
				"lendingThreshold()": "2491",
				"owner()": "2530",
				"processPayment(address)": "infinite",
				"registerMerchant(string,address)": "infinite",
				"requestRetrieveFunds(uint256)": "infinite",
				"retrieveLentFundsBatch(uint256)": "infinite",
				"retrieveThreshold()": "2449",
				"setLendingThreshold(uint256)": "24706",
				"setRetrieveThreshold(uint256)": "24772",
				"withdrawFunds(address,uint256)": "infinite"
			}
		},
		"methodIdentifiers": {
			"aaveLendingProcessor()": "7ee0456f",
			"collectAaveInterest()": "f0ab8fe2",
			"emergencyWithdraw()": "db2e21bc",
			"getMerchantById(uint256)": "1d210cd2",
			"issueRefund(address,uint256)": "738005aa",
			"lastLendTimestamp()": "1f11d292",
			"lastRetrieveTimestamp()": "e9c9d887",
			"lendFundsBatch()": "3b071872",
			"lendingThreshold()": "dc2ceb69",
			"owner()": "8da5cb5b",
			"processPayment(address)": "8fe123d7",
			"registerMerchant(string,address)": "abe0cd0c",
			"requestRetrieveFunds(uint256)": "668e8024",
			"retrieveLentFundsBatch(uint256)": "9e625183",
			"retrieveThreshold()": "026a5275",
			"setLendingThreshold(uint256)": "5641df95",
			"setRetrieveThreshold(uint256)": "7ae1009c",
			"withdrawFunds(address,uint256)": "c1075329"
		}
	},
	"abi": [
		{
			"inputs": [
				{
					"internalType": "address",
					"name": "_aaveLendingProcessor",
					"type": "address"
				}
			],
			"stateMutability": "nonpayable",
			"type": "constructor"
		},
		{
			"anonymous": false,
			"inputs": [
				{
					"indexed": false,
					"internalType": "uint256",
					"name": "amount",
					"type": "uint256"
				}
			],
			"name": "FundsLentToAave",
			"type": "event"
		},
		{
			"anonymous": false,
			"inputs": [
				{
					"indexed": false,
					"internalType": "uint256",
					"name": "amount",
					"type": "uint256"
				},
				{
					"indexed": false,
					"internalType": "address",
					"name": "sender",
					"type": "address"
				}
			],
			"name": "FundsReceived",
			"type": "event"
		},
		{
			"anonymous": false,
			"inputs": [
				{
					"indexed": false,
					"internalType": "uint256",
					"name": "amount",
					"type": "uint256"
				}
			],
			"name": "FundsRetrievedFromAave",
			"type": "event"
		},
		{
			"anonymous": false,
			"inputs": [
				{
					"indexed": true,
					"internalType": "address",
					"name": "merchant",
					"type": "address"
				},
				{
					"indexed": false,
					"internalType": "uint256",
					"name": "amount",
					"type": "uint256"
				},
				{
					"indexed": true,
					"internalType": "address",
					"name": "recipient",
					"type": "address"
				}
			],
			"name": "FundsWithdrawn",
			"type": "event"
		},
		{
			"anonymous": false,
			"inputs": [
				{
					"indexed": true,
					"internalType": "address",
					"name": "merchant",
					"type": "address"
				},
				{
					"indexed": false,
					"internalType": "uint256",
					"name": "merchantId",
					"type": "uint256"
				},
				{
					"indexed": false,
					"internalType": "address",
					"name": "custodialWallet",
					"type": "address"
				}
			],
			"name": "MerchantRegistered",
			"type": "event"
		},
		{
			"anonymous": false,
			"inputs": [
				{
					"indexed": true,
					"internalType": "address",
					"name": "merchant",
					"type": "address"
				},
				{
					"indexed": true,
					"internalType": "address",
					"name": "customer",
					"type": "address"
				},
				{
					"indexed": false,
					"internalType": "uint256",
					"name": "amount",
					"type": "uint256"
				}
			],
			"name": "PaymentProcessed",
			"type": "event"
		},
		{
			"stateMutability": "payable",
			"type": "fallback"
		},
		{
			"inputs": [],
			"name": "aaveLendingProcessor",
			"outputs": [
				{
					"internalType": "contract IAaveLendingProcessor",
					"name": "",
					"type": "address"
				}
			],
			"stateMutability": "view",
			"type": "function"
		},
		{
			"inputs": [],
			"name": "collectAaveInterest",
			"outputs": [],
			"stateMutability": "view",
			"type": "function"
		},
		{
			"inputs": [],
			"name": "emergencyWithdraw",
			"outputs": [],
			"stateMutability": "nonpayable",
			"type": "function"
		},
		{
			"inputs": [
				{
					"internalType": "uint256",
					"name": "_merchantId",
					"type": "uint256"
				}
			],
			"name": "getMerchantById",
			"outputs": [
				{
					"components": [
						{
							"internalType": "uint256",
							"name": "merchantId",
							"type": "uint256"
						},
						{
							"internalType": "string",
							"name": "merchantName",
							"type": "string"
						},
						{
							"internalType": "address",
							"name": "custodialWallet",
							"type": "address"
						},
						{
							"internalType": "uint256",
							"name": "balance",
							"type": "uint256"
						},
						{
							"internalType": "bool",
							"name": "isRegistered",
							"type": "bool"
						}
					],
					"internalType": "struct PaymentProcessor.Merchant",
					"name": "",
					"type": "tuple"
				}
			],
			"stateMutability": "view",
			"type": "function"
		},
		{
			"inputs": [
				{
					"internalType": "address payable",
					"name": "_customer",
					"type": "address"
				},
				{
					"internalType": "uint256",
					"name": "_amount",
					"type": "uint256"
				}
			],
			"name": "issueRefund",
			"outputs": [],
			"stateMutability": "nonpayable",
			"type": "function"
		},
		{
			"inputs": [],
			"name": "lastLendTimestamp",
			"outputs": [
				{
					"internalType": "uint256",
					"name": "",
					"type": "uint256"
				}
			],
			"stateMutability": "view",
			"type": "function"
		},
		{
			"inputs": [],
			"name": "lastRetrieveTimestamp",
			"outputs": [
				{
					"internalType": "uint256",
					"name": "",
					"type": "uint256"
				}
			],
			"stateMutability": "view",
			"type": "function"
		},
		{
			"inputs": [],
			"name": "lendFundsBatch",
			"outputs": [],
			"stateMutability": "nonpayable",
			"type": "function"
		},
		{
			"inputs": [],
			"name": "lendingThreshold",
			"outputs": [
				{
					"internalType": "uint256",
					"name": "",
					"type": "uint256"
				}
			],
			"stateMutability": "view",
			"type": "function"
		},
		{
			"inputs": [],
			"name": "owner",
			"outputs": [
				{
					"internalType": "address",
					"name": "",
					"type": "address"
				}
			],
			"stateMutability": "view",
			"type": "function"
		},
		{
			"inputs": [
				{
					"internalType": "address",
					"name": "_merchant",
					"type": "address"
				}
			],
			"name": "processPayment",
			"outputs": [],
			"stateMutability": "payable",
			"type": "function"
		},
		{
			"inputs": [
				{
					"internalType": "string",
					"name": "_merchantName",
					"type": "string"
				},
				{
					"internalType": "address",
					"name": "_custodialWallet",
					"type": "address"
				}
			],
			"name": "registerMerchant",
			"outputs": [],
			"stateMutability": "nonpayable",
			"type": "function"
		},
		{
			"inputs": [
				{
					"internalType": "uint256",
					"name": "amount",
					"type": "uint256"
				}
			],
			"name": "requestRetrieveFunds",
			"outputs": [],
			"stateMutability": "nonpayable",
			"type": "function"
		},
		{
			"inputs": [
				{
					"internalType": "uint256",
					"name": "amount",
					"type": "uint256"
				}
			],
			"name": "retrieveLentFundsBatch",
			"outputs": [],
			"stateMutability": "nonpayable",
			"type": "function"
		},
		{
			"inputs": [],
			"name": "retrieveThreshold",
			"outputs": [
				{
					"internalType": "uint256",
					"name": "",
					"type": "uint256"
				}
			],
			"stateMutability": "view",
			"type": "function"
		},
		{
			"inputs": [
				{
					"internalType": "uint256",
					"name": "_newLendingThreshold",
					"type": "uint256"
				}
			],
			"name": "setLendingThreshold",
			"outputs": [],
			"stateMutability": "nonpayable",
			"type": "function"
		},
		{
			"inputs": [
				{
					"internalType": "uint256",
					"name": "_newRetrieveThreshold",
					"type": "uint256"
				}
			],
			"name": "setRetrieveThreshold",
			"outputs": [],
			"stateMutability": "nonpayable",
			"type": "function"
		},
		{
			"inputs": [
				{
					"internalType": "address payable",
					"name": "_recipient",
					"type": "address"
				},
				{
					"internalType": "uint256",
					"name": "amount",
					"type": "uint256"
				}
			],
			"name": "withdrawFunds",
			"outputs": [],
			"stateMutability": "nonpayable",
			"type": "function"
		},
		{
			"stateMutability": "payable",
			"type": "receive"
		}
	]
}